{
	"src/KipuBank.sol": {
		"KipuBankV2": {
			"abi": [
				{
					"inputs": [
						{
							"internalType": "uint256",
							"name": "_withdrawalLimitUSD",
							"type": "uint256"
						},
						{
							"internalType": "uint256",
							"name": "_bankCapacityUSD",
							"type": "uint256"
						},
						{
							"internalType": "address",
							"name": "_ethPriceFeed",
							"type": "address"
						}
					],
					"stateMutability": "nonpayable",
					"type": "constructor"
				},
				{
					"inputs": [
						{
							"internalType": "uint256",
							"name": "totalUSD",
							"type": "uint256"
						},
						{
							"internalType": "uint256",
							"name": "capacity",
							"type": "uint256"
						}
					],
					"name": "BankCapacityExceeded",
					"type": "error"
				},
				{
					"inputs": [
						{
							"internalType": "uint256",
							"name": "requested",
							"type": "uint256"
						},
						{
							"internalType": "uint256",
							"name": "available",
							"type": "uint256"
						}
					],
					"name": "InsufficientBalance",
					"type": "error"
				},
				{
					"inputs": [],
					"name": "InvalidAmount",
					"type": "error"
				},
				{
					"inputs": [],
					"name": "InvalidDecimals",
					"type": "error"
				},
				{
					"inputs": [],
					"name": "InvalidPriceFeed",
					"type": "error"
				},
				{
					"inputs": [],
					"name": "InvalidTokenAddress",
					"type": "error"
				},
				{
					"inputs": [
						{
							"internalType": "address",
							"name": "owner",
							"type": "address"
						}
					],
					"name": "OwnableInvalidOwner",
					"type": "error"
				},
				{
					"inputs": [
						{
							"internalType": "address",
							"name": "account",
							"type": "address"
						}
					],
					"name": "OwnableUnauthorizedAccount",
					"type": "error"
				},
				{
					"inputs": [],
					"name": "PriceFeedError",
					"type": "error"
				},
				{
					"inputs": [
						{
							"internalType": "address",
							"name": "token",
							"type": "address"
						}
					],
					"name": "SafeERC20FailedOperation",
					"type": "error"
				},
				{
					"inputs": [],
					"name": "TokenAlreadyAdded",
					"type": "error"
				},
				{
					"inputs": [
						{
							"internalType": "address",
							"name": "token",
							"type": "address"
						}
					],
					"name": "TokenNotSupported",
					"type": "error"
				},
				{
					"inputs": [],
					"name": "TransferFailed",
					"type": "error"
				},
				{
					"inputs": [],
					"name": "UnauthorizedAccess",
					"type": "error"
				},
				{
					"inputs": [
						{
							"internalType": "uint256",
							"name": "requested",
							"type": "uint256"
						},
						{
							"internalType": "uint256",
							"name": "limit",
							"type": "uint256"
						}
					],
					"name": "WithdrawalLimitExceeded",
					"type": "error"
				},
				{
					"anonymous": false,
					"inputs": [
						{
							"indexed": true,
							"internalType": "address",
							"name": "admin",
							"type": "address"
						}
					],
					"name": "AdminAdded",
					"type": "event"
				},
				{
					"anonymous": false,
					"inputs": [
						{
							"indexed": true,
							"internalType": "address",
							"name": "admin",
							"type": "address"
						}
					],
					"name": "AdminRemoved",
					"type": "event"
				},
				{
					"anonymous": false,
					"inputs": [
						{
							"indexed": true,
							"internalType": "address",
							"name": "user",
							"type": "address"
						},
						{
							"indexed": true,
							"internalType": "address",
							"name": "token",
							"type": "address"
						},
						{
							"indexed": false,
							"internalType": "uint256",
							"name": "amount",
							"type": "uint256"
						},
						{
							"indexed": false,
							"internalType": "uint256",
							"name": "amountUSD",
							"type": "uint256"
						}
					],
					"name": "Deposited",
					"type": "event"
				},
				{
					"anonymous": false,
					"inputs": [
						{
							"indexed": true,
							"internalType": "address",
							"name": "previousOwner",
							"type": "address"
						},
						{
							"indexed": true,
							"internalType": "address",
							"name": "newOwner",
							"type": "address"
						}
					],
					"name": "OwnershipTransferred",
					"type": "event"
				},
				{
					"anonymous": false,
					"inputs": [
						{
							"indexed": true,
							"internalType": "address",
							"name": "token",
							"type": "address"
						},
						{
							"indexed": true,
							"internalType": "address",
							"name": "priceFeed",
							"type": "address"
						},
						{
							"indexed": false,
							"internalType": "uint8",
							"name": "decimals",
							"type": "uint8"
						}
					],
					"name": "TokenAdded",
					"type": "event"
				},
				{
					"anonymous": false,
					"inputs": [
						{
							"indexed": true,
							"internalType": "address",
							"name": "token",
							"type": "address"
						}
					],
					"name": "TokenRemoved",
					"type": "event"
				},
				{
					"anonymous": false,
					"inputs": [
						{
							"indexed": true,
							"internalType": "address",
							"name": "user",
							"type": "address"
						},
						{
							"indexed": true,
							"internalType": "address",
							"name": "token",
							"type": "address"
						},
						{
							"indexed": false,
							"internalType": "uint256",
							"name": "amount",
							"type": "uint256"
						},
						{
							"indexed": false,
							"internalType": "uint256",
							"name": "amountUSD",
							"type": "uint256"
						}
					],
					"name": "Withdrawn",
					"type": "event"
				},
				{
					"inputs": [],
					"name": "BANK_CAPACITY_USD",
					"outputs": [
						{
							"internalType": "uint256",
							"name": "",
							"type": "uint256"
						}
					],
					"stateMutability": "view",
					"type": "function"
				},
				{
					"inputs": [],
					"name": "ETH_ADDRESS",
					"outputs": [
						{
							"internalType": "address",
							"name": "",
							"type": "address"
						}
					],
					"stateMutability": "view",
					"type": "function"
				},
				{
					"inputs": [],
					"name": "INTERNAL_DECIMALS",
					"outputs": [
						{
							"internalType": "uint8",
							"name": "",
							"type": "uint8"
						}
					],
					"stateMutability": "view",
					"type": "function"
				},
				{
					"inputs": [],
					"name": "SCALE",
					"outputs": [
						{
							"internalType": "uint256",
							"name": "",
							"type": "uint256"
						}
					],
					"stateMutability": "view",
					"type": "function"
				},
				{
					"inputs": [],
					"name": "WITHDRAWAL_LIMIT",
					"outputs": [
						{
							"internalType": "uint256",
							"name": "",
							"type": "uint256"
						}
					],
					"stateMutability": "view",
					"type": "function"
				},
				{
					"inputs": [
						{
							"internalType": "uint256",
							"name": "",
							"type": "uint256"
						}
					],
					"name": "activeTokens",
					"outputs": [
						{
							"internalType": "address",
							"name": "",
							"type": "address"
						}
					],
					"stateMutability": "view",
					"type": "function"
				},
				{
					"inputs": [
						{
							"internalType": "address",
							"name": "_admin",
							"type": "address"
						}
					],
					"name": "addAdmin",
					"outputs": [],
					"stateMutability": "nonpayable",
					"type": "function"
				},
				{
					"inputs": [
						{
							"internalType": "address",
							"name": "_token",
							"type": "address"
						},
						{
							"internalType": "address",
							"name": "_priceFeed",
							"type": "address"
						},
						{
							"internalType": "uint8",
							"name": "_decimals",
							"type": "uint8"
						}
					],
					"name": "addToken",
					"outputs": [],
					"stateMutability": "nonpayable",
					"type": "function"
				},
				{
					"inputs": [
						{
							"internalType": "address",
							"name": "",
							"type": "address"
						}
					],
					"name": "admins",
					"outputs": [
						{
							"internalType": "bool",
							"name": "",
							"type": "bool"
						}
					],
					"stateMutability": "view",
					"type": "function"
				},
				{
					"inputs": [
						{
							"internalType": "address",
							"name": "_token",
							"type": "address"
						},
						{
							"internalType": "uint256",
							"name": "_usdAmount",
							"type": "uint256"
						}
					],
					"name": "convertFromUSD",
					"outputs": [
						{
							"internalType": "uint256",
							"name": "",
							"type": "uint256"
						}
					],
					"stateMutability": "view",
					"type": "function"
				},
				{
					"inputs": [
						{
							"internalType": "address",
							"name": "",
							"type": "address"
						},
						{
							"internalType": "address",
							"name": "",
							"type": "address"
						}
					],
					"name": "depositCount",
					"outputs": [
						{
							"internalType": "uint256",
							"name": "",
							"type": "uint256"
						}
					],
					"stateMutability": "view",
					"type": "function"
				},
				{
					"inputs": [],
					"name": "depositETH",
					"outputs": [],
					"stateMutability": "payable",
					"type": "function"
				},
				{
					"inputs": [
						{
							"internalType": "address",
							"name": "_token",
							"type": "address"
						},
						{
							"internalType": "uint256",
							"name": "_amount",
							"type": "uint256"
						}
					],
					"name": "depositToken",
					"outputs": [],
					"stateMutability": "nonpayable",
					"type": "function"
				},
				{
					"inputs": [],
					"name": "ethPriceFeed",
					"outputs": [
						{
							"internalType": "contract AggregatorV3Interface",
							"name": "",
							"type": "address"
						}
					],
					"stateMutability": "view",
					"type": "function"
				},
				{
					"inputs": [],
					"name": "getActiveTokens",
					"outputs": [
						{
							"internalType": "address[]",
							"name": "",
							"type": "address[]"
						}
					],
					"stateMutability": "view",
					"type": "function"
				},
				{
					"inputs": [
						{
							"internalType": "address",
							"name": "_user",
							"type": "address"
						}
					],
					"name": "getAllBalances",
					"outputs": [
						{
							"internalType": "address[]",
							"name": "tokens",
							"type": "address[]"
						},
						{
							"internalType": "uint256[]",
							"name": "balances",
							"type": "uint256[]"
						}
					],
					"stateMutability": "view",
					"type": "function"
				},
				{
					"inputs": [
						{
							"internalType": "address",
							"name": "_user",
							"type": "address"
						},
						{
							"internalType": "address",
							"name": "_token",
							"type": "address"
						}
					],
					"name": "getBalance",
					"outputs": [
						{
							"internalType": "uint256",
							"name": "",
							"type": "uint256"
						}
					],
					"stateMutability": "view",
					"type": "function"
				},
				{
					"inputs": [
						{
							"internalType": "address",
							"name": "_user",
							"type": "address"
						},
						{
							"internalType": "address",
							"name": "_token",
							"type": "address"
						}
					],
					"name": "getBalanceUSD",
					"outputs": [
						{
							"internalType": "uint256",
							"name": "",
							"type": "uint256"
						}
					],
					"stateMutability": "view",
					"type": "function"
				},
				{
					"inputs": [],
					"name": "getRemainingCapacity",
					"outputs": [
						{
							"internalType": "uint256",
							"name": "",
							"type": "uint256"
						}
					],
					"stateMutability": "view",
					"type": "function"
				},
				{
					"inputs": [
						{
							"internalType": "address",
							"name": "_token",
							"type": "address"
						}
					],
					"name": "getTokenInfo",
					"outputs": [
						{
							"components": [
								{
									"internalType": "address",
									"name": "priceFeed",
									"type": "address"
								},
								{
									"internalType": "address",
									"name": "tokenAddress",
									"type": "address"
								},
								{
									"internalType": "uint8",
									"name": "decimals",
									"type": "uint8"
								},
								{
									"internalType": "bool",
									"name": "isActive",
									"type": "bool"
								}
							],
							"internalType": "struct KipuBankV2.TokenInfo",
							"name": "",
							"type": "tuple"
						}
					],
					"stateMutability": "view",
					"type": "function"
				},
				{
					"inputs": [],
					"name": "owner",
					"outputs": [
						{
							"internalType": "address",
							"name": "",
							"type": "address"
						}
					],
					"stateMutability": "view",
					"type": "function"
				},
				{
					"inputs": [
						{
							"internalType": "address",
							"name": "_admin",
							"type": "address"
						}
					],
					"name": "removeAdmin",
					"outputs": [],
					"stateMutability": "nonpayable",
					"type": "function"
				},
				{
					"inputs": [
						{
							"internalType": "address",
							"name": "_token",
							"type": "address"
						}
					],
					"name": "removeToken",
					"outputs": [],
					"stateMutability": "nonpayable",
					"type": "function"
				},
				{
					"inputs": [],
					"name": "renounceOwnership",
					"outputs": [],
					"stateMutability": "nonpayable",
					"type": "function"
				},
				{
					"inputs": [
						{
							"internalType": "address",
							"name": "",
							"type": "address"
						}
					],
					"name": "supportedTokens",
					"outputs": [
						{
							"internalType": "address",
							"name": "priceFeed",
							"type": "address"
						},
						{
							"internalType": "address",
							"name": "tokenAddress",
							"type": "address"
						},
						{
							"internalType": "uint8",
							"name": "decimals",
							"type": "uint8"
						},
						{
							"internalType": "bool",
							"name": "isActive",
							"type": "bool"
						}
					],
					"stateMutability": "view",
					"type": "function"
				},
				{
					"inputs": [],
					"name": "totalDepositedUSD",
					"outputs": [
						{
							"internalType": "uint256",
							"name": "",
							"type": "uint256"
						}
					],
					"stateMutability": "view",
					"type": "function"
				},
				{
					"inputs": [
						{
							"internalType": "address",
							"name": "newOwner",
							"type": "address"
						}
					],
					"name": "transferOwnership",
					"outputs": [],
					"stateMutability": "nonpayable",
					"type": "function"
				},
				{
					"inputs": [
						{
							"internalType": "address",
							"name": "_token",
							"type": "address"
						},
						{
							"internalType": "uint256",
							"name": "_amount",
							"type": "uint256"
						}
					],
					"name": "withdraw",
					"outputs": [],
					"stateMutability": "nonpayable",
					"type": "function"
				},
				{
					"inputs": [
						{
							"internalType": "address",
							"name": "",
							"type": "address"
						},
						{
							"internalType": "address",
							"name": "",
							"type": "address"
						}
					],
					"name": "withdrawalCount",
					"outputs": [
						{
							"internalType": "uint256",
							"name": "",
							"type": "uint256"
						}
					],
					"stateMutability": "view",
					"type": "function"
				},
				{
					"stateMutability": "payable",
					"type": "receive"
				}
			],
			"devdoc": {
				"author": "Lucas Zunino",
				"details": "Manages ETH and ERC-20 tokens (USDC, DAI, BNB) with USD conversion via Chainlink",
				"errors": {
					"OwnableInvalidOwner(address)": [
						{
							"details": "The owner is not a valid owner account. (eg. `address(0)`)"
						}
					],
					"OwnableUnauthorizedAccount(address)": [
						{
							"details": "The caller account is not authorized to perform an operation."
						}
					],
					"SafeERC20FailedOperation(address)": [
						{
							"details": "An operation with an ERC-20 token failed."
						}
					]
				},
				"events": {
					"AdminAdded(address)": {
						"params": {
							"admin": "new admin address"
						}
					},
					"AdminRemoved(address)": {
						"params": {
							"admin": "admin address"
						}
					},
					"Deposited(address,address,uint256,uint256)": {
						"params": {
							"amount": "amount in native tokens",
							"amountUSD": "equivalent in USD",
							"token": "token address (address(0) for ETH)",
							"user": "user address"
						}
					},
					"TokenAdded(address,address,uint8)": {
						"params": {
							"decimals": "token decimals",
							"priceFeed": "Chainlink price feed address",
							"token": "token address"
						}
					},
					"TokenRemoved(address)": {
						"params": {
							"token": "token address"
						}
					},
					"Withdrawn(address,address,uint256,uint256)": {
						"params": {
							"amount": "amount in native tokens",
							"amountUSD": "equivalent in USD",
							"token": "token address (address(0) for ETH)",
							"user": "user address"
						}
					}
				},
				"kind": "dev",
				"methods": {
					"addAdmin(address)": {
						"params": {
							"_admin": "admin address to add"
						}
					},
					"addToken(address,address,uint8)": {
						"details": "only owner can call this function",
						"params": {
							"_decimals": "token decimals",
							"_priceFeed": "address Chainlink price feed address",
							"_token": "ERC-20 token address"
						}
					},
					"constructor": {
						"details": "I use the constructor in your github repositories :)",
						"params": {
							"_bankCapacityUSD": "Bank capacity in USD",
							"_ethPriceFeed": "Chainlink ETH/USD price feed address",
							"_withdrawalLimitUSD": "Withdrawal limit in USD"
						}
					},
					"convertFromUSD(address,uint256)": {
						"params": {
							"_token": "Token address",
							"_usdAmount": "Amount in USD (6 decimals)"
						},
						"returns": {
							"_0": "Equivalent amount in native tokens"
						}
					},
					"depositETH()": {
						"details": "Funds are received through the fallback function"
					},
					"depositToken(address,uint256)": {
						"params": {
							"_amount": "amount to deposit",
							"_token": "token address"
						}
					},
					"getActiveTokens()": {
						"returns": {
							"_0": "address[] active tokens"
						}
					},
					"getAllBalances(address)": {
						"params": {
							"_user": "user address"
						},
						"returns": {
							"balances": "Array of corresponding balances",
							"tokens": "Array token addresses"
						}
					},
					"getBalance(address,address)": {
						"params": {
							"_token": "token address",
							"_user": "user address"
						},
						"returns": {
							"_0": "amount in native tokens"
						}
					},
					"getBalanceUSD(address,address)": {
						"params": {
							"_token": "token address",
							"_user": "user address"
						},
						"returns": {
							"_0": "balance in usd"
						}
					},
					"getRemainingCapacity()": {
						"returns": {
							"_0": "Max capacity remaining in USD"
						}
					},
					"getTokenInfo(address)": {
						"params": {
							"_token": "token address"
						},
						"returns": {
							"_0": "structure TokenInfo"
						}
					},
					"owner()": {
						"details": "Returns the address of the current owner."
					},
					"removeAdmin(address)": {
						"params": {
							"_admin": "admin address to revoke permissions"
						}
					},
					"removeToken(address)": {
						"params": {
							"_token": "token address"
						}
					},
					"renounceOwnership()": {
						"details": "Leaves the contract without owner. It will not be possible to call `onlyOwner` functions. Can only be called by the current owner. NOTE: Renouncing ownership will leave the contract without an owner, thereby disabling any functionality that is only available to the owner."
					},
					"transferOwnership(address)": {
						"details": "Transfers ownership of the contract to a new account (`newOwner`). Can only be called by the current owner."
					},
					"withdraw(address,uint256)": {
						"params": {
							"_amount": "amount to withdraw in native tokens",
							"_token": "token address"
						}
					}
				},
				"title": "KipuBankV2",
				"version": 1
			},
			"evm": {
				"assembly": "    /* \"src/KipuBank.sol\":673:16853  contract KipuBankV2 is Ownable {... */\n  mstore(0x40, 0xc0)\n    /* \"src/KipuBank.sol\":6223:7134  constructor(... */\n  callvalue\n  dup1\n  iszero\n  tag_1\n  jumpi\n  revert(0x00, 0x00)\ntag_1:\n  pop\n  mload(0x40)\n  sub(codesize, bytecodeSize)\n  dup1\n  bytecodeSize\n  dup4\n  codecopy\n  dup2\n  dup2\n  add\n  0x40\n  mstore\n  dup2\n  add\n  swap1\n  tag_2\n  swap2\n  swap1\n  tag_3\n  jump\t// in\ntag_2:\n    /* \"src/KipuBank.sol\":6355:6365  msg.sender */\n  caller\n    /* \"@openzeppelin/contracts/access/Ownable.sol\":1297:1298  0 */\n  0x00\n    /* \"@openzeppelin/contracts/access/Ownable.sol\":1273:1299  initialOwner == address(0) */\n  0xffffffffffffffffffffffffffffffffffffffff\n  and\n    /* \"@openzeppelin/contracts/access/Ownable.sol\":1273:1285  initialOwner */\n  dup2\n    /* \"@openzeppelin/contracts/access/Ownable.sol\":1273:1299  initialOwner == address(0) */\n  0xffffffffffffffffffffffffffffffffffffffff\n  and\n  sub\n    /* \"@openzeppelin/contracts/access/Ownable.sol\":1269:1364  if (initialOwner == address(0)) {... */\n  tag_7\n  jumpi\n    /* \"@openzeppelin/contracts/access/Ownable.sol\":1350:1351  0 */\n  0x00\n    /* \"@openzeppelin/contracts/access/Ownable.sol\":1322:1353  OwnableInvalidOwner(address(0)) */\n  mload(0x40)\n  0x1e4fbdf700000000000000000000000000000000000000000000000000000000\n  dup2\n  mstore\n  0x04\n  add\n  tag_8\n  swap2\n  swap1\n  tag_9\n  jump\t// in\ntag_8:\n  mload(0x40)\n  dup1\n  swap2\n  sub\n  swap1\n  revert\n    /* \"@openzeppelin/contracts/access/Ownable.sol\":1269:1364  if (initialOwner == address(0)) {... */\ntag_7:\n    /* \"@openzeppelin/contracts/access/Ownable.sol\":1373:1405  _transferOwnership(initialOwner) */\n  tag_10\n    /* \"@openzeppelin/contracts/access/Ownable.sol\":1392:1404  initialOwner */\n  dup2\n    /* \"@openzeppelin/contracts/access/Ownable.sol\":1373:1391  _transferOwnership */\n  shl(0x20, tag_11)\n    /* \"@openzeppelin/contracts/access/Ownable.sol\":1373:1405  _transferOwnership(initialOwner) */\n  0x20\n  shr\n  jump\t// in\ntag_10:\n    /* \"@openzeppelin/contracts/access/Ownable.sol\":1225:1412  constructor(address initialOwner) {... */\n  pop\n    /* \"src/KipuBank.sol\":6407:6408  0 */\n  0x00\n    /* \"src/KipuBank.sol\":6382:6409  _ethPriceFeed == address(0) */\n  0xffffffffffffffffffffffffffffffffffffffff\n  and\n    /* \"src/KipuBank.sol\":6382:6395  _ethPriceFeed */\n  dup2\n    /* \"src/KipuBank.sol\":6382:6409  _ethPriceFeed == address(0) */\n  0xffffffffffffffffffffffffffffffffffffffff\n  and\n  sub\n    /* \"src/KipuBank.sol\":6378:6436  if (_ethPriceFeed == address(0)) revert InvalidPriceFeed() */\n  tag_13\n  jumpi\n    /* \"src/KipuBank.sol\":6418:6436  InvalidPriceFeed() */\n  mload(0x40)\n  0x52cc3f7d00000000000000000000000000000000000000000000000000000000\n  dup2\n  mstore\n  0x04\n  add\n  mload(0x40)\n  dup1\n  swap2\n  sub\n  swap1\n  revert\n    /* \"src/KipuBank.sol\":6378:6436  if (_ethPriceFeed == address(0)) revert InvalidPriceFeed() */\ntag_13:\n    /* \"src/KipuBank.sol\":6474:6475  0 */\n  0x00\n    /* \"src/KipuBank.sol\":6451:6470  _withdrawalLimitUSD */\n  dup4\n    /* \"src/KipuBank.sol\":6451:6475  _withdrawalLimitUSD == 0 */\n  eq\n    /* \"src/KipuBank.sol\":6451:6500  _withdrawalLimitUSD == 0 || _bankCapacityUSD == 0 */\n  dup1\n  tag_14\n  jumpi\n  pop\n    /* \"src/KipuBank.sol\":6499:6500  0 */\n  0x00\n    /* \"src/KipuBank.sol\":6479:6495  _bankCapacityUSD */\n  dup3\n    /* \"src/KipuBank.sol\":6479:6500  _bankCapacityUSD == 0 */\n  eq\n    /* \"src/KipuBank.sol\":6451:6500  _withdrawalLimitUSD == 0 || _bankCapacityUSD == 0 */\ntag_14:\n    /* \"src/KipuBank.sol\":6447:6524  if (_withdrawalLimitUSD == 0 || _bankCapacityUSD == 0) revert InvalidAmount() */\n  iszero\n  tag_15\n  jumpi\n    /* \"src/KipuBank.sol\":6509:6524  InvalidAmount() */\n  mload(0x40)\n  0x2c5211c600000000000000000000000000000000000000000000000000000000\n  dup2\n  mstore\n  0x04\n  add\n  mload(0x40)\n  dup1\n  swap2\n  sub\n  swap1\n  revert\n    /* \"src/KipuBank.sol\":6447:6524  if (_withdrawalLimitUSD == 0 || _bankCapacityUSD == 0) revert InvalidAmount() */\ntag_15:\n    /* \"src/KipuBank.sol\":6558:6577  _withdrawalLimitUSD */\n  dup3\n    /* \"src/KipuBank.sol\":6539:6555  _bankCapacityUSD */\n  dup3\n    /* \"src/KipuBank.sol\":6539:6577  _bankCapacityUSD < _withdrawalLimitUSD */\n  lt\n    /* \"src/KipuBank.sol\":6535:6645  if (_bankCapacityUSD < _withdrawalLimitUSD) revert BankCapacityExceeded(_withdrawalLimitUSD, _bankCapacityUSD) */\n  iszero\n  tag_16\n  jumpi\n    /* \"src/KipuBank.sol\":6607:6626  _withdrawalLimitUSD */\n  dup3\n    /* \"src/KipuBank.sol\":6628:6644  _bankCapacityUSD */\n  dup3\n    /* \"src/KipuBank.sol\":6586:6645  BankCapacityExceeded(_withdrawalLimitUSD, _bankCapacityUSD) */\n  mload(0x40)\n  0x63c47b0700000000000000000000000000000000000000000000000000000000\n  dup2\n  mstore\n  0x04\n  add\n  tag_17\n  swap3\n  swap2\n  swap1\n  tag_18\n  jump\t// in\ntag_17:\n  mload(0x40)\n  dup1\n  swap2\n  sub\n  swap1\n  revert\n    /* \"src/KipuBank.sol\":6535:6645  if (_bankCapacityUSD < _withdrawalLimitUSD) revert BankCapacityExceeded(_withdrawalLimitUSD, _bankCapacityUSD) */\ntag_16:\n    /* \"src/KipuBank.sol\":6677:6696  _withdrawalLimitUSD */\n  dup3\n    /* \"src/KipuBank.sol\":6658:6696  WITHDRAWAL_LIMIT = _withdrawalLimitUSD */\n  0xa0\n  dup2\n  dup2\n  mstore\n  pop\n  pop\n    /* \"src/KipuBank.sol\":6727:6743  _bankCapacityUSD */\n  dup2\n    /* \"src/KipuBank.sol\":6707:6743  BANK_CAPACITY_USD = _bankCapacityUSD */\n  0x80\n  dup2\n  dup2\n  mstore\n  pop\n  pop\n    /* \"src/KipuBank.sol\":6791:6804  _ethPriceFeed */\n  dup1\n    /* \"src/KipuBank.sol\":6754:6766  ethPriceFeed */\n  0x06\n  0x00\n    /* \"src/KipuBank.sol\":6754:6805  ethPriceFeed = AggregatorV3Interface(_ethPriceFeed) */\n  0x0100\n  exp\n  dup2\n  sload\n  dup2\n  0xffffffffffffffffffffffffffffffffffffffff\n  mul\n  not\n  and\n  swap1\n  dup4\n  0xffffffffffffffffffffffffffffffffffffffff\n  and\n  mul\n  or\n  swap1\n  sstore\n  pop\n    /* \"src/KipuBank.sol\":6890:7047  TokenInfo({... */\n  mload(0x40)\n  dup1\n  0x80\n  add\n  0x40\n  mstore\n  dup1\n    /* \"src/KipuBank.sol\":6966:6979  _ethPriceFeed */\n  dup3\n    /* \"src/KipuBank.sol\":6890:7047  TokenInfo({... */\n  0xffffffffffffffffffffffffffffffffffffffff\n  and\n  dup2\n  mstore\n  0x20\n  add\n    /* \"src/KipuBank.sol\":1381:1382  0 */\n  0x00\n    /* \"src/KipuBank.sol\":6890:7047  TokenInfo({... */\n  0xffffffffffffffffffffffffffffffffffffffff\n  and\n  dup2\n  mstore\n  0x20\n  add\n    /* \"src/KipuBank.sol\":7004:7006  18 */\n  0x12\n    /* \"src/KipuBank.sol\":6890:7047  TokenInfo({... */\n  0xff\n  and\n  dup2\n  mstore\n  0x20\n  add\n    /* \"src/KipuBank.sol\":7031:7035  true */\n  0x01\n    /* \"src/KipuBank.sol\":6890:7047  TokenInfo({... */\n  iszero\n  iszero\n  dup2\n  mstore\n  pop\n    /* \"src/KipuBank.sol\":6859:6874  supportedTokens */\n  0x02\n    /* \"src/KipuBank.sol\":6859:6887  supportedTokens[ETH_ADDRESS] */\n  0x00\n    /* \"src/KipuBank.sol\":1381:1382  0 */\n  0x00\n    /* \"src/KipuBank.sol\":6859:6887  supportedTokens[ETH_ADDRESS] */\n  0xffffffffffffffffffffffffffffffffffffffff\n  and\n  0xffffffffffffffffffffffffffffffffffffffff\n  and\n  dup2\n  mstore\n  0x20\n  add\n  swap1\n  dup2\n  mstore\n  0x20\n  add\n  0x00\n  keccak256\n    /* \"src/KipuBank.sol\":6859:7047  supportedTokens[ETH_ADDRESS] = TokenInfo({... */\n  0x00\n  dup3\n  add\n  mload\n  dup2\n  0x00\n  add\n  exp(0x0100, 0x00)\n  dup2\n  sload\n  dup2\n  0xffffffffffffffffffffffffffffffffffffffff\n  mul\n  not\n  and\n  swap1\n  dup4\n  0xffffffffffffffffffffffffffffffffffffffff\n  and\n  mul\n  or\n  swap1\n  sstore\n  pop\n  0x20\n  dup3\n  add\n  mload\n  dup2\n  0x01\n  add\n  exp(0x0100, 0x00)\n  dup2\n  sload\n  dup2\n  0xffffffffffffffffffffffffffffffffffffffff\n  mul\n  not\n  and\n  swap1\n  dup4\n  0xffffffffffffffffffffffffffffffffffffffff\n  and\n  mul\n  or\n  swap1\n  sstore\n  pop\n  0x40\n  dup3\n  add\n  mload\n  dup2\n  0x01\n  add\n  exp(0x0100, 0x14)\n  dup2\n  sload\n  dup2\n  0xff\n  mul\n  not\n  and\n  swap1\n  dup4\n  0xff\n  and\n  mul\n  or\n  swap1\n  sstore\n  pop\n  0x60\n  dup3\n  add\n  mload\n  dup2\n  0x01\n  add\n  exp(0x0100, 0x15)\n  dup2\n  sload\n  dup2\n  0xff\n  mul\n  not\n  and\n  swap1\n  dup4\n  iszero\n  iszero\n  mul\n  or\n  swap1\n  sstore\n  pop\n  swap1\n  pop\n  pop\n    /* \"src/KipuBank.sol\":7060:7072  activeTokens */\n  0x07\n    /* \"src/KipuBank.sol\":1381:1382  0 */\n  0x00\n    /* \"src/KipuBank.sol\":7060:7090  activeTokens.push(ETH_ADDRESS) */\n  swap1\n  dup1\n  0x01\n  dup2\n  sload\n  add\n  dup1\n  dup3\n  sstore\n  dup1\n  swap2\n  pop\n  pop\n  0x01\n  swap1\n  sub\n  swap1\n  0x00\n  mstore\n  keccak256(0x00, 0x20)\n  add\n  0x00\n  swap1\n  swap2\n  swap1\n  swap2\n  swap1\n  swap2\n  0x0100\n  exp\n  dup2\n  sload\n  dup2\n  0xffffffffffffffffffffffffffffffffffffffff\n  mul\n  not\n  and\n  swap1\n  dup4\n  0xffffffffffffffffffffffffffffffffffffffff\n  and\n  mul\n  or\n  swap1\n  sstore\n  pop\n    /* \"src/KipuBank.sol\":7122:7126  true */\n  0x01\n    /* \"src/KipuBank.sol\":7101:7107  admins */\n  0x08\n    /* \"src/KipuBank.sol\":7101:7119  admins[msg.sender] */\n  0x00\n    /* \"src/KipuBank.sol\":7108:7118  msg.sender */\n  caller\n    /* \"src/KipuBank.sol\":7101:7119  admins[msg.sender] */\n  0xffffffffffffffffffffffffffffffffffffffff\n  and\n  0xffffffffffffffffffffffffffffffffffffffff\n  and\n  dup2\n  mstore\n  0x20\n  add\n  swap1\n  dup2\n  mstore\n  0x20\n  add\n  0x00\n  keccak256\n  0x00\n    /* \"src/KipuBank.sol\":7101:7126  admins[msg.sender] = true */\n  0x0100\n  exp\n  dup2\n  sload\n  dup2\n  0xff\n  mul\n  not\n  and\n  swap1\n  dup4\n  iszero\n  iszero\n  mul\n  or\n  swap1\n  sstore\n  pop\n    /* \"src/KipuBank.sol\":6223:7134  constructor(... */\n  pop\n  pop\n  pop\n    /* \"src/KipuBank.sol\":673:16853  contract KipuBankV2 is Ownable {... */\n  jump(tag_20)\n    /* \"@openzeppelin/contracts/access/Ownable.sol\":2912:3099  function _transferOwnership(address newOwner) internal virtual {... */\ntag_11:\n    /* \"@openzeppelin/contracts/access/Ownable.sol\":2985:3001  address oldOwner */\n  0x00\n    /* \"@openzeppelin/contracts/access/Ownable.sol\":3004:3010  _owner */\n  0x00\n  0x00\n  swap1\n  sload\n  swap1\n  0x0100\n  exp\n  swap1\n  div\n  0xffffffffffffffffffffffffffffffffffffffff\n  and\n    /* \"@openzeppelin/contracts/access/Ownable.sol\":2985:3010  address oldOwner = _owner */\n  swap1\n  pop\n    /* \"@openzeppelin/contracts/access/Ownable.sol\":3029:3037  newOwner */\n  dup2\n    /* \"@openzeppelin/contracts/access/Ownable.sol\":3020:3026  _owner */\n  0x00\n  0x00\n    /* \"@openzeppelin/contracts/access/Ownable.sol\":3020:3037  _owner = newOwner */\n  0x0100\n  exp\n  dup2\n  sload\n  dup2\n  0xffffffffffffffffffffffffffffffffffffffff\n  mul\n  not\n  and\n  swap1\n  dup4\n  0xffffffffffffffffffffffffffffffffffffffff\n  and\n  mul\n  or\n  swap1\n  sstore\n  pop\n    /* \"@openzeppelin/contracts/access/Ownable.sol\":3083:3091  newOwner */\n  dup2\n    /* \"@openzeppelin/contracts/access/Ownable.sol\":3052:3092  OwnershipTransferred(oldOwner, newOwner) */\n  0xffffffffffffffffffffffffffffffffffffffff\n  and\n    /* \"@openzeppelin/contracts/access/Ownable.sol\":3073:3081  oldOwner */\n  dup2\n    /* \"@openzeppelin/contracts/access/Ownable.sol\":3052:3092  OwnershipTransferred(oldOwner, newOwner) */\n  0xffffffffffffffffffffffffffffffffffffffff\n  and\n  0x8be0079c531659141344cd1fd0a4f28419497f9722a3daafe3b4186f6b6457e0\n  mload(0x40)\n  mload(0x40)\n  dup1\n  swap2\n  sub\n  swap1\n  log3\n    /* \"@openzeppelin/contracts/access/Ownable.sol\":2975:3099  {... */\n  pop\n    /* \"@openzeppelin/contracts/access/Ownable.sol\":2912:3099  function _transferOwnership(address newOwner) internal virtual {... */\n  pop\n  jump\t// out\n    /* \"#utility.yul\":88:205   */\ntag_23:\n    /* \"#utility.yul\":197:198   */\n  0x00\n    /* \"#utility.yul\":194:195   */\n  0x00\n    /* \"#utility.yul\":187:199   */\n  revert\n    /* \"#utility.yul\":334:411   */\ntag_25:\n    /* \"#utility.yul\":371:378   */\n  0x00\n    /* \"#utility.yul\":400:405   */\n  dup2\n    /* \"#utility.yul\":389:405   */\n  swap1\n  pop\n    /* \"#utility.yul\":334:411   */\n  swap2\n  swap1\n  pop\n  jump\t// out\n    /* \"#utility.yul\":417:539   */\ntag_26:\n    /* \"#utility.yul\":490:514   */\n  tag_40\n    /* \"#utility.yul\":508:513   */\n  dup2\n    /* \"#utility.yul\":490:514   */\n  tag_25\n  jump\t// in\ntag_40:\n    /* \"#utility.yul\":483:488   */\n  dup2\n    /* \"#utility.yul\":480:515   */\n  eq\n    /* \"#utility.yul\":470:533   */\n  tag_41\n  jumpi\n    /* \"#utility.yul\":529:530   */\n  0x00\n    /* \"#utility.yul\":526:527   */\n  0x00\n    /* \"#utility.yul\":519:531   */\n  revert\n    /* \"#utility.yul\":470:533   */\ntag_41:\n    /* \"#utility.yul\":417:539   */\n  pop\n  jump\t// out\n    /* \"#utility.yul\":545:688   */\ntag_27:\n    /* \"#utility.yul\":602:607   */\n  0x00\n    /* \"#utility.yul\":633:639   */\n  dup2\n    /* \"#utility.yul\":627:640   */\n  mload\n    /* \"#utility.yul\":618:640   */\n  swap1\n  pop\n    /* \"#utility.yul\":649:682   */\n  tag_43\n    /* \"#utility.yul\":676:681   */\n  dup2\n    /* \"#utility.yul\":649:682   */\n  tag_26\n  jump\t// in\ntag_43:\n    /* \"#utility.yul\":545:688   */\n  swap3\n  swap2\n  pop\n  pop\n  jump\t// out\n    /* \"#utility.yul\":694:820   */\ntag_28:\n    /* \"#utility.yul\":731:738   */\n  0x00\n    /* \"#utility.yul\":771:813   */\n  0xffffffffffffffffffffffffffffffffffffffff\n    /* \"#utility.yul\":764:769   */\n  dup3\n    /* \"#utility.yul\":760:814   */\n  and\n    /* \"#utility.yul\":749:814   */\n  swap1\n  pop\n    /* \"#utility.yul\":694:820   */\n  swap2\n  swap1\n  pop\n  jump\t// out\n    /* \"#utility.yul\":826:922   */\ntag_29:\n    /* \"#utility.yul\":863:870   */\n  0x00\n    /* \"#utility.yul\":892:916   */\n  tag_46\n    /* \"#utility.yul\":910:915   */\n  dup3\n    /* \"#utility.yul\":892:916   */\n  tag_28\n  jump\t// in\ntag_46:\n    /* \"#utility.yul\":881:916   */\n  swap1\n  pop\n    /* \"#utility.yul\":826:922   */\n  swap2\n  swap1\n  pop\n  jump\t// out\n    /* \"#utility.yul\":928:1050   */\ntag_30:\n    /* \"#utility.yul\":1001:1025   */\n  tag_48\n    /* \"#utility.yul\":1019:1024   */\n  dup2\n    /* \"#utility.yul\":1001:1025   */\n  tag_29\n  jump\t// in\ntag_48:\n    /* \"#utility.yul\":994:999   */\n  dup2\n    /* \"#utility.yul\":991:1026   */\n  eq\n    /* \"#utility.yul\":981:1044   */\n  tag_49\n  jumpi\n    /* \"#utility.yul\":1040:1041   */\n  0x00\n    /* \"#utility.yul\":1037:1038   */\n  0x00\n    /* \"#utility.yul\":1030:1042   */\n  revert\n    /* \"#utility.yul\":981:1044   */\ntag_49:\n    /* \"#utility.yul\":928:1050   */\n  pop\n  jump\t// out\n    /* \"#utility.yul\":1056:1199   */\ntag_31:\n    /* \"#utility.yul\":1113:1118   */\n  0x00\n    /* \"#utility.yul\":1144:1150   */\n  dup2\n    /* \"#utility.yul\":1138:1151   */\n  mload\n    /* \"#utility.yul\":1129:1151   */\n  swap1\n  pop\n    /* \"#utility.yul\":1160:1193   */\n  tag_51\n    /* \"#utility.yul\":1187:1192   */\n  dup2\n    /* \"#utility.yul\":1160:1193   */\n  tag_30\n  jump\t// in\ntag_51:\n    /* \"#utility.yul\":1056:1199   */\n  swap3\n  swap2\n  pop\n  pop\n  jump\t// out\n    /* \"#utility.yul\":1205:1868   */\ntag_3:\n    /* \"#utility.yul\":1293:1299   */\n  0x00\n    /* \"#utility.yul\":1301:1307   */\n  0x00\n    /* \"#utility.yul\":1309:1315   */\n  0x00\n    /* \"#utility.yul\":1358:1360   */\n  0x60\n    /* \"#utility.yul\":1346:1355   */\n  dup5\n    /* \"#utility.yul\":1337:1344   */\n  dup7\n    /* \"#utility.yul\":1333:1356   */\n  sub\n    /* \"#utility.yul\":1329:1361   */\n  slt\n    /* \"#utility.yul\":1326:1445   */\n  iszero\n  tag_53\n  jumpi\n    /* \"#utility.yul\":1364:1443   */\n  tag_54\n  tag_23\n  jump\t// in\ntag_54:\n    /* \"#utility.yul\":1326:1445   */\ntag_53:\n    /* \"#utility.yul\":1484:1485   */\n  0x00\n    /* \"#utility.yul\":1509:1573   */\n  tag_55\n    /* \"#utility.yul\":1565:1572   */\n  dup7\n    /* \"#utility.yul\":1556:1562   */\n  dup3\n    /* \"#utility.yul\":1545:1554   */\n  dup8\n    /* \"#utility.yul\":1541:1563   */\n  add\n    /* \"#utility.yul\":1509:1573   */\n  tag_27\n  jump\t// in\ntag_55:\n    /* \"#utility.yul\":1499:1573   */\n  swap4\n  pop\n    /* \"#utility.yul\":1455:1583   */\n  pop\n    /* \"#utility.yul\":1622:1624   */\n  0x20\n    /* \"#utility.yul\":1648:1712   */\n  tag_56\n    /* \"#utility.yul\":1704:1711   */\n  dup7\n    /* \"#utility.yul\":1695:1701   */\n  dup3\n    /* \"#utility.yul\":1684:1693   */\n  dup8\n    /* \"#utility.yul\":1680:1702   */\n  add\n    /* \"#utility.yul\":1648:1712   */\n  tag_27\n  jump\t// in\ntag_56:\n    /* \"#utility.yul\":1638:1712   */\n  swap3\n  pop\n    /* \"#utility.yul\":1593:1722   */\n  pop\n    /* \"#utility.yul\":1761:1763   */\n  0x40\n    /* \"#utility.yul\":1787:1851   */\n  tag_57\n    /* \"#utility.yul\":1843:1850   */\n  dup7\n    /* \"#utility.yul\":1834:1840   */\n  dup3\n    /* \"#utility.yul\":1823:1832   */\n  dup8\n    /* \"#utility.yul\":1819:1841   */\n  add\n    /* \"#utility.yul\":1787:1851   */\n  tag_31\n  jump\t// in\ntag_57:\n    /* \"#utility.yul\":1777:1851   */\n  swap2\n  pop\n    /* \"#utility.yul\":1732:1861   */\n  pop\n    /* \"#utility.yul\":1205:1868   */\n  swap3\n  pop\n  swap3\n  pop\n  swap3\n  jump\t// out\n    /* \"#utility.yul\":1874:1992   */\ntag_32:\n    /* \"#utility.yul\":1961:1985   */\n  tag_59\n    /* \"#utility.yul\":1979:1984   */\n  dup2\n    /* \"#utility.yul\":1961:1985   */\n  tag_29\n  jump\t// in\ntag_59:\n    /* \"#utility.yul\":1956:1959   */\n  dup3\n    /* \"#utility.yul\":1949:1986   */\n  mstore\n    /* \"#utility.yul\":1874:1992   */\n  pop\n  pop\n  jump\t// out\n    /* \"#utility.yul\":1998:2220   */\ntag_9:\n    /* \"#utility.yul\":2091:2095   */\n  0x00\n    /* \"#utility.yul\":2129:2131   */\n  0x20\n    /* \"#utility.yul\":2118:2127   */\n  dup3\n    /* \"#utility.yul\":2114:2132   */\n  add\n    /* \"#utility.yul\":2106:2132   */\n  swap1\n  pop\n    /* \"#utility.yul\":2142:2213   */\n  tag_61\n    /* \"#utility.yul\":2210:2211   */\n  0x00\n    /* \"#utility.yul\":2199:2208   */\n  dup4\n    /* \"#utility.yul\":2195:2212   */\n  add\n    /* \"#utility.yul\":2186:2192   */\n  dup5\n    /* \"#utility.yul\":2142:2213   */\n  tag_32\n  jump\t// in\ntag_61:\n    /* \"#utility.yul\":1998:2220   */\n  swap3\n  swap2\n  pop\n  pop\n  jump\t// out\n    /* \"#utility.yul\":2226:2344   */\ntag_33:\n    /* \"#utility.yul\":2313:2337   */\n  tag_63\n    /* \"#utility.yul\":2331:2336   */\n  dup2\n    /* \"#utility.yul\":2313:2337   */\n  tag_25\n  jump\t// in\ntag_63:\n    /* \"#utility.yul\":2308:2311   */\n  dup3\n    /* \"#utility.yul\":2301:2338   */\n  mstore\n    /* \"#utility.yul\":2226:2344   */\n  pop\n  pop\n  jump\t// out\n    /* \"#utility.yul\":2350:2682   */\ntag_18:\n    /* \"#utility.yul\":2471:2475   */\n  0x00\n    /* \"#utility.yul\":2509:2511   */\n  0x40\n    /* \"#utility.yul\":2498:2507   */\n  dup3\n    /* \"#utility.yul\":2494:2512   */\n  add\n    /* \"#utility.yul\":2486:2512   */\n  swap1\n  pop\n    /* \"#utility.yul\":2522:2593   */\n  tag_65\n    /* \"#utility.yul\":2590:2591   */\n  0x00\n    /* \"#utility.yul\":2579:2588   */\n  dup4\n    /* \"#utility.yul\":2575:2592   */\n  add\n    /* \"#utility.yul\":2566:2572   */\n  dup6\n    /* \"#utility.yul\":2522:2593   */\n  tag_33\n  jump\t// in\ntag_65:\n    /* \"#utility.yul\":2603:2675   */\n  tag_66\n    /* \"#utility.yul\":2671:2673   */\n  0x20\n    /* \"#utility.yul\":2660:2669   */\n  dup4\n    /* \"#utility.yul\":2656:2674   */\n  add\n    /* \"#utility.yul\":2647:2653   */\n  dup5\n    /* \"#utility.yul\":2603:2675   */\n  tag_33\n  jump\t// in\ntag_66:\n    /* \"#utility.yul\":2350:2682   */\n  swap4\n  swap3\n  pop\n  pop\n  pop\n  jump\t// out\n    /* \"src/KipuBank.sol\":673:16853  contract KipuBankV2 is Ownable {... */\ntag_20:\n  mload(0x80)\n  mload(0xa0)\n  codecopy(0x00, dataOffset(sub_0), dataSize(sub_0))\n  0x00\n  assignImmutable(\"0x6357266b9d53c0f9af6b7cc53f59dc85b165702d9398eebfa95f674cadfbd638\")\n  0x00\n  assignImmutable(\"0x3a2a6f4e0dcd4611e0c200ca45f55d44b54b380ac384ae0bef4a36eff139c211\")\n  return(0x00, dataSize(sub_0))\nstop\n\nsub_0: assembly {\n        /* \"src/KipuBank.sol\":673:16853  contract KipuBankV2 is Ownable {... */\n      mstore(0x40, 0x80)\n      jumpi(tag_1, lt(calldatasize, 0x04))\n      shr(0xe0, calldataload(0x00))\n      dup1\n      0x82ee0d1d\n      gt\n      tag_32\n      jumpi\n      dup1\n      0xc53d6ce1\n      gt\n      tag_33\n      jumpi\n      dup1\n      0xeea88c51\n      gt\n      tag_34\n      jumpi\n      dup1\n      0xeea88c51\n      eq\n      tag_28\n      jumpi\n      dup1\n      0xf2fde38b\n      eq\n      tag_29\n      jumpi\n      dup1\n      0xf3fef3a3\n      eq\n      tag_30\n      jumpi\n      dup1\n      0xf6326fb3\n      eq\n      tag_31\n      jumpi\n      jump(tag_2)\n    tag_34:\n      dup1\n      0xc53d6ce1\n      eq\n      tag_24\n      jumpi\n      dup1\n      0xd4fac45d\n      eq\n      tag_25\n      jumpi\n      dup1\n      0xe62615c6\n      eq\n      tag_26\n      jumpi\n      dup1\n      0xeced5526\n      eq\n      tag_27\n      jumpi\n      jump(tag_2)\n    tag_33:\n      dup1\n      0x9f224f35\n      gt\n      tag_35\n      jumpi\n      dup1\n      0x9f224f35\n      eq\n      tag_20\n      jumpi\n      dup1\n      0xa734f06e\n      eq\n      tag_21\n      jumpi\n      dup1\n      0xaf7665ce\n      eq\n      tag_22\n      jumpi\n      dup1\n      0xbe406e6c\n      eq\n      tag_23\n      jumpi\n      jump(tag_2)\n    tag_35:\n      dup1\n      0x82ee0d1d\n      eq\n      tag_17\n      jumpi\n      dup1\n      0x87be0faf\n      eq\n      tag_18\n      jumpi\n      dup1\n      0x8da5cb5b\n      eq\n      tag_19\n      jumpi\n      jump(tag_2)\n    tag_32:\n      dup1\n      0x3a3d1f98\n      gt\n      tag_36\n      jumpi\n      dup1\n      0x5fa7b584\n      gt\n      tag_37\n      jumpi\n      dup1\n      0x5fa7b584\n      eq\n      tag_13\n      jumpi\n      dup1\n      0x68c4ac26\n      eq\n      tag_14\n      jumpi\n      dup1\n      0x70480275\n      eq\n      tag_15\n      jumpi\n      dup1\n      0x715018a6\n      eq\n      tag_16\n      jumpi\n      jump(tag_2)\n    tag_37:\n      dup1\n      0x3a3d1f98\n      eq\n      tag_10\n      jumpi\n      dup1\n      0x429b62e5\n      eq\n      tag_11\n      jumpi\n      dup1\n      0x5f5817e3\n      eq\n      tag_12\n      jumpi\n      jump(tag_2)\n    tag_36:\n      dup1\n      0x1f69565f\n      gt\n      tag_38\n      jumpi\n      dup1\n      0x1f69565f\n      eq\n      tag_6\n      jumpi\n      dup1\n      0x21e855a0\n      eq\n      tag_7\n      jumpi\n      dup1\n      0x2a441767\n      eq\n      tag_8\n      jumpi\n      dup1\n      0x338b5dea\n      eq\n      tag_9\n      jumpi\n      jump(tag_2)\n    tag_38:\n      dup1\n      0xa51ee4\n      eq\n      tag_3\n      jumpi\n      dup1\n      0x1785f53c\n      eq\n      tag_4\n      jumpi\n      dup1\n      0x1dab0335\n      eq\n      tag_5\n      jumpi\n      jump(tag_2)\n    tag_1:\n      jumpi(tag_2, calldatasize)\n        /* \"src/KipuBank.sol\":16764:16765  0 */\n      0x00\n        /* \"src/KipuBank.sol\":16752:16761  msg.value */\n      callvalue\n        /* \"src/KipuBank.sol\":16752:16765  msg.value > 0 */\n      gt\n        /* \"src/KipuBank.sol\":16748:16843  if (msg.value > 0) {... */\n      iszero\n      tag_41\n      jumpi\n        /* \"src/KipuBank.sol\":16782:16831  _depositToken(msg.sender, ETH_ADDRESS, msg.value) */\n      tag_42\n        /* \"src/KipuBank.sol\":16796:16806  msg.sender */\n      caller\n        /* \"src/KipuBank.sol\":1381:1382  0 */\n      0x00\n        /* \"src/KipuBank.sol\":16821:16830  msg.value */\n      callvalue\n        /* \"src/KipuBank.sol\":16782:16795  _depositToken */\n      tag_43\n        /* \"src/KipuBank.sol\":16782:16831  _depositToken(msg.sender, ETH_ADDRESS, msg.value) */\n      jump\t// in\n    tag_42:\n        /* \"src/KipuBank.sol\":16748:16843  if (msg.value > 0) {... */\n    tag_41:\n        /* \"src/KipuBank.sol\":673:16853  contract KipuBankV2 is Ownable {... */\n      stop\n    tag_2:\n      revert(0x00, 0x00)\n        /* \"src/KipuBank.sol\":7486:8187  function addToken(... */\n    tag_3:\n      callvalue\n      dup1\n      iszero\n      tag_44\n      jumpi\n      revert(0x00, 0x00)\n    tag_44:\n      pop\n      tag_45\n      0x04\n      dup1\n      calldatasize\n      sub\n      dup2\n      add\n      swap1\n      tag_46\n      swap2\n      swap1\n      tag_47\n      jump\t// in\n    tag_46:\n      tag_48\n      jump\t// in\n    tag_45:\n      stop\n        /* \"src/KipuBank.sol\":8983:9116  function removeAdmin(address _admin) external onlyOwner {... */\n    tag_4:\n      callvalue\n      dup1\n      iszero\n      tag_49\n      jumpi\n      revert(0x00, 0x00)\n    tag_49:\n      pop\n      tag_50\n      0x04\n      dup1\n      calldatasize\n      sub\n      dup2\n      add\n      swap1\n      tag_51\n      swap2\n      swap1\n      tag_52\n      jump\t// in\n    tag_51:\n      tag_53\n      jump\t// in\n    tag_50:\n      stop\n        /* \"src/KipuBank.sol\":2298:2365  mapping(address => mapping(address => uint256)) public depositCount */\n    tag_5:\n      callvalue\n      dup1\n      iszero\n      tag_54\n      jumpi\n      revert(0x00, 0x00)\n    tag_54:\n      pop\n      tag_55\n      0x04\n      dup1\n      calldatasize\n      sub\n      dup2\n      add\n      swap1\n      tag_56\n      swap2\n      swap1\n      tag_57\n      jump\t// in\n    tag_56:\n      tag_58\n      jump\t// in\n    tag_55:\n      mload(0x40)\n      tag_59\n      swap2\n      swap1\n      tag_60\n      jump\t// in\n    tag_59:\n      mload(0x40)\n      dup1\n      swap2\n      sub\n      swap1\n      return\n        /* \"src/KipuBank.sol\":14063:14191  function getTokenInfo(address _token) external view returns (TokenInfo memory) {... */\n    tag_6:\n      callvalue\n      dup1\n      iszero\n      tag_61\n      jumpi\n      revert(0x00, 0x00)\n    tag_61:\n      pop\n      tag_62\n      0x04\n      dup1\n      calldatasize\n      sub\n      dup2\n      add\n      swap1\n      tag_63\n      swap2\n      swap1\n      tag_52\n      jump\t// in\n    tag_63:\n      tag_64\n      jump\t// in\n    tag_62:\n      mload(0x40)\n      tag_65\n      swap2\n      swap1\n      tag_66\n      jump\t// in\n    tag_65:\n      mload(0x40)\n      dup1\n      swap2\n      sub\n      swap1\n      return\n        /* \"src/KipuBank.sol\":1434:1476  uint256 public immutable BANK_CAPACITY_USD */\n    tag_7:\n      callvalue\n      dup1\n      iszero\n      tag_67\n      jumpi\n      revert(0x00, 0x00)\n    tag_67:\n      pop\n      tag_68\n      tag_69\n      jump\t// in\n    tag_68:\n      mload(0x40)\n      tag_70\n      swap2\n      swap1\n      tag_60\n      jump\t// in\n    tag_70:\n      mload(0x40)\n      dup1\n      swap2\n      sub\n      swap1\n      return\n        /* \"src/KipuBank.sol\":2433:2503  mapping(address => mapping(address => uint256)) public withdrawalCount */\n    tag_8:\n      callvalue\n      dup1\n      iszero\n      tag_71\n      jumpi\n      revert(0x00, 0x00)\n    tag_71:\n      pop\n      tag_72\n      0x04\n      dup1\n      calldatasize\n      sub\n      dup2\n      add\n      swap1\n      tag_73\n      swap2\n      swap1\n      tag_57\n      jump\t// in\n    tag_73:\n      tag_74\n      jump\t// in\n    tag_72:\n      mload(0x40)\n      tag_75\n      swap2\n      swap1\n      tag_60\n      jump\t// in\n    tag_75:\n      mload(0x40)\n      dup1\n      swap2\n      sub\n      swap1\n      return\n        /* \"src/KipuBank.sol\":9586:10170  function depositToken(address _token, uint256 _amount)... */\n    tag_9:\n      callvalue\n      dup1\n      iszero\n      tag_76\n      jumpi\n      revert(0x00, 0x00)\n    tag_76:\n      pop\n      tag_77\n      0x04\n      dup1\n      calldatasize\n      sub\n      dup2\n      add\n      swap1\n      tag_78\n      swap2\n      swap1\n      tag_79\n      jump\t// in\n    tag_78:\n      tag_80\n      jump\t// in\n    tag_77:\n      stop\n        /* \"src/KipuBank.sol\":15805:16538  function convertFromUSD(address _token, uint256 _usdAmount)... */\n    tag_10:\n      callvalue\n      dup1\n      iszero\n      tag_81\n      jumpi\n      revert(0x00, 0x00)\n    tag_81:\n      pop\n      tag_82\n      0x04\n      dup1\n      calldatasize\n      sub\n      dup2\n      add\n      swap1\n      tag_83\n      swap2\n      swap1\n      tag_79\n      jump\t// in\n    tag_83:\n      tag_84\n      jump\t// in\n    tag_82:\n      mload(0x40)\n      tag_85\n      swap2\n      swap1\n      tag_60\n      jump\t// in\n    tag_85:\n      mload(0x40)\n      dup1\n      swap2\n      sub\n      swap1\n      return\n        /* \"src/KipuBank.sol\":2830:2868  mapping(address => bool) public admins */\n    tag_11:\n      callvalue\n      dup1\n      iszero\n      tag_86\n      jumpi\n      revert(0x00, 0x00)\n    tag_86:\n      pop\n      tag_87\n      0x04\n      dup1\n      calldatasize\n      sub\n      dup2\n      add\n      swap1\n      tag_88\n      swap2\n      swap1\n      tag_52\n      jump\t// in\n    tag_88:\n      tag_89\n      jump\t// in\n    tag_87:\n      mload(0x40)\n      tag_90\n      swap2\n      swap1\n      tag_91\n      jump\t// in\n    tag_90:\n      mload(0x40)\n      dup1\n      swap2\n      sub\n      swap1\n      return\n        /* \"src/KipuBank.sol\":14276:14382  function getActiveTokens() external view returns (address[] memory) {... */\n    tag_12:\n      callvalue\n      dup1\n      iszero\n      tag_92\n      jumpi\n      revert(0x00, 0x00)\n    tag_92:\n      pop\n      tag_93\n      tag_94\n      jump\t// in\n    tag_93:\n      mload(0x40)\n      tag_95\n      swap2\n      swap1\n      tag_96\n      jump\t// in\n    tag_95:\n      mload(0x40)\n      dup1\n      swap2\n      sub\n      swap1\n      return\n        /* \"src/KipuBank.sol\":8287:8588  function removeToken(address _token) external onlyOwner {... */\n    tag_13:\n      callvalue\n      dup1\n      iszero\n      tag_97\n      jumpi\n      revert(0x00, 0x00)\n    tag_97:\n      pop\n      tag_98\n      0x04\n      dup1\n      calldatasize\n      sub\n      dup2\n      add\n      swap1\n      tag_99\n      swap2\n      swap1\n      tag_52\n      jump\t// in\n    tag_99:\n      tag_100\n      jump\t// in\n    tag_98:\n      stop\n        /* \"src/KipuBank.sol\":2181:2233  mapping(address => TokenInfo) public supportedTokens */\n    tag_14:\n      callvalue\n      dup1\n      iszero\n      tag_101\n      jumpi\n      revert(0x00, 0x00)\n    tag_101:\n      pop\n      tag_102\n      0x04\n      dup1\n      calldatasize\n      sub\n      dup2\n      add\n      swap1\n      tag_103\n      swap2\n      swap1\n      tag_52\n      jump\t// in\n    tag_103:\n      tag_104\n      jump\t// in\n    tag_102:\n      mload(0x40)\n      tag_105\n      swap5\n      swap4\n      swap3\n      swap2\n      swap1\n      tag_106\n      jump\t// in\n    tag_105:\n      mload(0x40)\n      dup1\n      swap2\n      sub\n      swap1\n      return\n        /* \"src/KipuBank.sol\":8682:8874  function addAdmin(address _admin) external onlyOwner {... */\n    tag_15:\n      callvalue\n      dup1\n      iszero\n      tag_107\n      jumpi\n      revert(0x00, 0x00)\n    tag_107:\n      pop\n      tag_108\n      0x04\n      dup1\n      calldatasize\n      sub\n      dup2\n      add\n      swap1\n      tag_109\n      swap2\n      swap1\n      tag_52\n      jump\t// in\n    tag_109:\n      tag_110\n      jump\t// in\n    tag_108:\n      stop\n        /* \"@openzeppelin/contracts/access/Ownable.sol\":2293:2394  function renounceOwnership() public virtual onlyOwner {... */\n    tag_16:\n      callvalue\n      dup1\n      iszero\n      tag_111\n      jumpi\n      revert(0x00, 0x00)\n    tag_111:\n      pop\n      tag_112\n      tag_113\n      jump\t// in\n    tag_112:\n      stop\n        /* \"src/KipuBank.sol\":1519:1560  uint256 public immutable WITHDRAWAL_LIMIT */\n    tag_17:\n      callvalue\n      dup1\n      iszero\n      tag_114\n      jumpi\n      revert(0x00, 0x00)\n    tag_114:\n      pop\n      tag_115\n      tag_116\n      jump\t// in\n    tag_115:\n      mload(0x40)\n      tag_117\n      swap2\n      swap1\n      tag_60\n      jump\t// in\n    tag_117:\n      mload(0x40)\n      dup1\n      swap2\n      sub\n      swap1\n      return\n        /* \"src/KipuBank.sol\":13826:13953  function getRemainingCapacity() external view returns (uint256) {... */\n    tag_18:\n      callvalue\n      dup1\n      iszero\n      tag_118\n      jumpi\n      revert(0x00, 0x00)\n    tag_118:\n      pop\n      tag_119\n      tag_120\n      jump\t// in\n    tag_119:\n      mload(0x40)\n      tag_121\n      swap2\n      swap1\n      tag_60\n      jump\t// in\n    tag_121:\n      mload(0x40)\n      dup1\n      swap2\n      sub\n      swap1\n      return\n        /* \"@openzeppelin/contracts/access/Ownable.sol\":1638:1723  function owner() public view virtual returns (address) {... */\n    tag_19:\n      callvalue\n      dup1\n      iszero\n      tag_122\n      jumpi\n      revert(0x00, 0x00)\n    tag_122:\n      pop\n      tag_123\n      tag_124\n      jump\t// in\n    tag_123:\n      mload(0x40)\n      tag_125\n      swap2\n      swap1\n      tag_126\n      jump\t// in\n    tag_125:\n      mload(0x40)\n      dup1\n      swap2\n      sub\n      swap1\n      return\n        /* \"src/KipuBank.sol\":2748:2777  address[] public activeTokens */\n    tag_20:\n      callvalue\n      dup1\n      iszero\n      tag_127\n      jumpi\n      revert(0x00, 0x00)\n    tag_127:\n      pop\n      tag_128\n      0x04\n      dup1\n      calldatasize\n      sub\n      dup2\n      add\n      swap1\n      tag_129\n      swap2\n      swap1\n      tag_130\n      jump\t// in\n    tag_129:\n      tag_131\n      jump\t// in\n    tag_128:\n      mload(0x40)\n      tag_132\n      swap2\n      swap1\n      tag_126\n      jump\t// in\n    tag_132:\n      mload(0x40)\n      dup1\n      swap2\n      sub\n      swap1\n      return\n        /* \"src/KipuBank.sol\":1335:1383  address public constant ETH_ADDRESS = address(0) */\n    tag_21:\n      callvalue\n      dup1\n      iszero\n      tag_133\n      jumpi\n      revert(0x00, 0x00)\n    tag_133:\n      pop\n      tag_134\n      tag_135\n      jump\t// in\n    tag_134:\n      mload(0x40)\n      tag_136\n      swap2\n      swap1\n      tag_126\n      jump\t// in\n    tag_136:\n      mload(0x40)\n      dup1\n      swap2\n      sub\n      swap1\n      return\n        /* \"src/KipuBank.sol\":2645:2686  AggregatorV3Interface public ethPriceFeed */\n    tag_22:\n      callvalue\n      dup1\n      iszero\n      tag_137\n      jumpi\n      revert(0x00, 0x00)\n    tag_137:\n      pop\n      tag_138\n      tag_139\n      jump\t// in\n    tag_138:\n      mload(0x40)\n      tag_140\n      swap2\n      swap1\n      tag_141\n      jump\t// in\n    tag_140:\n      mload(0x40)\n      dup1\n      swap2\n      sub\n      swap1\n      return\n        /* \"src/KipuBank.sol\":1746:1789  uint8 public constant INTERNAL_DECIMALS = 6 */\n    tag_23:\n      callvalue\n      dup1\n      iszero\n      tag_142\n      jumpi\n      revert(0x00, 0x00)\n    tag_142:\n      pop\n      tag_143\n      tag_144\n      jump\t// in\n    tag_143:\n      mload(0x40)\n      tag_145\n      swap2\n      swap1\n      tag_146\n      jump\t// in\n    tag_145:\n      mload(0x40)\n      dup1\n      swap2\n      sub\n      swap1\n      return\n        /* \"src/KipuBank.sol\":13338:13728  function getAllBalances(address _user)... */\n    tag_24:\n      callvalue\n      dup1\n      iszero\n      tag_147\n      jumpi\n      revert(0x00, 0x00)\n    tag_147:\n      pop\n      tag_148\n      0x04\n      dup1\n      calldatasize\n      sub\n      dup2\n      add\n      swap1\n      tag_149\n      swap2\n      swap1\n      tag_52\n      jump\t// in\n    tag_149:\n      tag_150\n      jump\t// in\n    tag_148:\n      mload(0x40)\n      tag_151\n      swap3\n      swap2\n      swap1\n      tag_152\n      jump\t// in\n    tag_151:\n      mload(0x40)\n      dup1\n      swap2\n      sub\n      swap1\n      return\n        /* \"src/KipuBank.sol\":12487:12693  function getBalance(address _user, address _token)... */\n    tag_25:\n      callvalue\n      dup1\n      iszero\n      tag_153\n      jumpi\n      revert(0x00, 0x00)\n    tag_153:\n      pop\n      tag_154\n      0x04\n      dup1\n      calldatasize\n      sub\n      dup2\n      add\n      swap1\n      tag_155\n      swap2\n      swap1\n      tag_57\n      jump\t// in\n    tag_155:\n      tag_156\n      jump\t// in\n    tag_154:\n      mload(0x40)\n      tag_157\n      swap2\n      swap1\n      tag_60\n      jump\t// in\n    tag_157:\n      mload(0x40)\n      dup1\n      swap2\n      sub\n      swap1\n      return\n        /* \"src/KipuBank.sol\":12867:13135  function getBalanceUSD(address _user, address _token)... */\n    tag_26:\n      callvalue\n      dup1\n      iszero\n      tag_158\n      jumpi\n      revert(0x00, 0x00)\n    tag_158:\n      pop\n      tag_159\n      0x04\n      dup1\n      calldatasize\n      sub\n      dup2\n      add\n      swap1\n      tag_160\n      swap2\n      swap1\n      tag_57\n      jump\t// in\n    tag_160:\n      tag_161\n      jump\t// in\n    tag_159:\n      mload(0x40)\n      tag_162\n      swap2\n      swap1\n      tag_60\n      jump\t// in\n    tag_162:\n      mload(0x40)\n      dup1\n      swap2\n      sub\n      swap1\n      return\n        /* \"src/KipuBank.sol\":1856:1896  uint256 public constant SCALE = 10 ** 18 */\n    tag_27:\n      callvalue\n      dup1\n      iszero\n      tag_163\n      jumpi\n      revert(0x00, 0x00)\n    tag_163:\n      pop\n      tag_164\n      tag_165\n      jump\t// in\n    tag_164:\n      mload(0x40)\n      tag_166\n      swap2\n      swap1\n      tag_60\n      jump\t// in\n    tag_166:\n      mload(0x40)\n      dup1\n      swap2\n      sub\n      swap1\n      return\n        /* \"src/KipuBank.sol\":2556:2588  uint256 public totalDepositedUSD */\n    tag_28:\n      callvalue\n      dup1\n      iszero\n      tag_167\n      jumpi\n      revert(0x00, 0x00)\n    tag_167:\n      pop\n      tag_168\n      tag_169\n      jump\t// in\n    tag_168:\n      mload(0x40)\n      tag_170\n      swap2\n      swap1\n      tag_60\n      jump\t// in\n    tag_170:\n      mload(0x40)\n      dup1\n      swap2\n      sub\n      swap1\n      return\n        /* \"@openzeppelin/contracts/access/Ownable.sol\":2543:2758  function transferOwnership(address newOwner) public virtual onlyOwner {... */\n    tag_29:\n      callvalue\n      dup1\n      iszero\n      tag_171\n      jumpi\n      revert(0x00, 0x00)\n    tag_171:\n      pop\n      tag_172\n      0x04\n      dup1\n      calldatasize\n      sub\n      dup2\n      add\n      swap1\n      tag_173\n      swap2\n      swap1\n      tag_52\n      jump\t// in\n    tag_173:\n      tag_174\n      jump\t// in\n    tag_172:\n      stop\n        /* \"src/KipuBank.sol\":11151:12189  function withdraw(address _token, uint256 _amount)... */\n    tag_30:\n      callvalue\n      dup1\n      iszero\n      tag_175\n      jumpi\n      revert(0x00, 0x00)\n    tag_175:\n      pop\n      tag_176\n      0x04\n      dup1\n      calldatasize\n      sub\n      dup2\n      add\n      swap1\n      tag_177\n      swap2\n      swap1\n      tag_79\n      jump\t// in\n    tag_177:\n      tag_178\n      jump\t// in\n    tag_176:\n      stop\n        /* \"src/KipuBank.sol\":9330:9460  function depositETH() external payable validAmount(msg.value) {... */\n    tag_31:\n      tag_179\n      tag_180\n      jump\t// in\n    tag_179:\n      stop\n        /* \"src/KipuBank.sol\":10298:10892  function _depositToken(address _user, address _token, uint256 _amount) private tokenExists(_token) {... */\n    tag_43:\n        /* \"src/KipuBank.sol\":10389:10395  _token */\n      dup2\n        /* \"src/KipuBank.sol\":5698:5713  supportedTokens */\n      0x02\n        /* \"src/KipuBank.sol\":5698:5720  supportedTokens[token] */\n      0x00\n        /* \"src/KipuBank.sol\":5714:5719  token */\n      dup3\n        /* \"src/KipuBank.sol\":5698:5720  supportedTokens[token] */\n      0xffffffffffffffffffffffffffffffffffffffff\n      and\n      0xffffffffffffffffffffffffffffffffffffffff\n      and\n      dup2\n      mstore\n      0x20\n      add\n      swap1\n      dup2\n      mstore\n      0x20\n      add\n      0x00\n      keccak256\n        /* \"src/KipuBank.sol\":5698:5729  supportedTokens[token].isActive */\n      0x01\n      add\n      0x15\n      swap1\n      sload\n      swap1\n      0x0100\n      exp\n      swap1\n      div\n      0xff\n      and\n        /* \"src/KipuBank.sol\":5693:5789  if (!supportedTokens[token].isActive) {... */\n      tag_182\n      jumpi\n        /* \"src/KipuBank.sol\":5771:5776  token */\n      dup1\n        /* \"src/KipuBank.sol\":5753:5777  TokenNotSupported(token) */\n      mload(0x40)\n      0x06439c6b00000000000000000000000000000000000000000000000000000000\n      dup2\n      mstore\n      0x04\n      add\n      tag_183\n      swap2\n      swap1\n      tag_126\n      jump\t// in\n    tag_183:\n      mload(0x40)\n      dup1\n      swap2\n      sub\n      swap1\n      revert\n        /* \"src/KipuBank.sol\":5693:5789  if (!supportedTokens[token].isActive) {... */\n    tag_182:\n        /* \"src/KipuBank.sol\":10408:10425  uint256 amountUSD */\n      0x00\n        /* \"src/KipuBank.sol\":10428:10458  _convertToUSD(_token, _amount) */\n      tag_185\n        /* \"src/KipuBank.sol\":10442:10448  _token */\n      dup5\n        /* \"src/KipuBank.sol\":10450:10457  _amount */\n      dup5\n        /* \"src/KipuBank.sol\":10428:10441  _convertToUSD */\n      tag_186\n        /* \"src/KipuBank.sol\":10428:10458  _convertToUSD(_token, _amount) */\n      jump\t// in\n    tag_185:\n        /* \"src/KipuBank.sol\":10408:10458  uint256 amountUSD = _convertToUSD(_token, _amount) */\n      swap1\n      pop\n        /* \"src/KipuBank.sol\":10515:10532  BANK_CAPACITY_USD */\n      immutable(\"0x3a2a6f4e0dcd4611e0c200ca45f55d44b54b380ac384ae0bef4a36eff139c211\")\n        /* \"src/KipuBank.sol\":10503:10512  amountUSD */\n      dup2\n        /* \"src/KipuBank.sol\":10483:10500  totalDepositedUSD */\n      sload(0x05)\n        /* \"src/KipuBank.sol\":10483:10512  totalDepositedUSD + amountUSD */\n      tag_187\n      swap2\n      swap1\n      tag_188\n      jump\t// in\n    tag_187:\n        /* \"src/KipuBank.sol\":10483:10532  totalDepositedUSD + amountUSD > BANK_CAPACITY_USD */\n      gt\n        /* \"src/KipuBank.sol\":10479:10638  if (totalDepositedUSD + amountUSD > BANK_CAPACITY_USD) {... */\n      iszero\n      tag_189\n      jumpi\n        /* \"src/KipuBank.sol\":10597:10606  amountUSD */\n      dup1\n        /* \"src/KipuBank.sol\":10577:10594  totalDepositedUSD */\n      sload(0x05)\n        /* \"src/KipuBank.sol\":10577:10606  totalDepositedUSD + amountUSD */\n      tag_190\n      swap2\n      swap1\n      tag_188\n      jump\t// in\n    tag_190:\n        /* \"src/KipuBank.sol\":10608:10625  BANK_CAPACITY_USD */\n      immutable(\"0x3a2a6f4e0dcd4611e0c200ca45f55d44b54b380ac384ae0bef4a36eff139c211\")\n        /* \"src/KipuBank.sol\":10556:10626  BankCapacityExceeded(totalDepositedUSD + amountUSD, BANK_CAPACITY_USD) */\n      mload(0x40)\n      0x63c47b0700000000000000000000000000000000000000000000000000000000\n      dup2\n      mstore\n      0x04\n      add\n      tag_191\n      swap3\n      swap2\n      swap1\n      tag_192\n      jump\t// in\n    tag_191:\n      mload(0x40)\n      dup1\n      swap2\n      sub\n      swap1\n      revert\n        /* \"src/KipuBank.sol\":10479:10638  if (totalDepositedUSD + amountUSD > BANK_CAPACITY_USD) {... */\n    tag_189:\n        /* \"src/KipuBank.sol\":10715:10722  _amount */\n      dup3\n        /* \"src/KipuBank.sol\":10675:10687  userBalances */\n      0x01\n        /* \"src/KipuBank.sol\":10675:10694  userBalances[_user] */\n      0x00\n        /* \"src/KipuBank.sol\":10688:10693  _user */\n      dup8\n        /* \"src/KipuBank.sol\":10675:10694  userBalances[_user] */\n      0xffffffffffffffffffffffffffffffffffffffff\n      and\n      0xffffffffffffffffffffffffffffffffffffffff\n      and\n      dup2\n      mstore\n      0x20\n      add\n      swap1\n      dup2\n      mstore\n      0x20\n      add\n      0x00\n      keccak256\n        /* \"src/KipuBank.sol\":10675:10703  userBalances[_user].balances */\n      0x00\n      add\n        /* \"src/KipuBank.sol\":10675:10711  userBalances[_user].balances[_token] */\n      0x00\n        /* \"src/KipuBank.sol\":10704:10710  _token */\n      dup7\n        /* \"src/KipuBank.sol\":10675:10711  userBalances[_user].balances[_token] */\n      0xffffffffffffffffffffffffffffffffffffffff\n      and\n      0xffffffffffffffffffffffffffffffffffffffff\n      and\n      dup2\n      mstore\n      0x20\n      add\n      swap1\n      dup2\n      mstore\n      0x20\n      add\n      0x00\n      keccak256\n      0x00\n        /* \"src/KipuBank.sol\":10675:10722  userBalances[_user].balances[_token] += _amount */\n      dup3\n      dup3\n      sload\n      add\n      swap3\n      pop\n      pop\n      dup2\n      swap1\n      sstore\n      pop\n        /* \"src/KipuBank.sol\":10737:10749  depositCount */\n      0x03\n        /* \"src/KipuBank.sol\":10737:10756  depositCount[_user] */\n      0x00\n        /* \"src/KipuBank.sol\":10750:10755  _user */\n      dup7\n        /* \"src/KipuBank.sol\":10737:10756  depositCount[_user] */\n      0xffffffffffffffffffffffffffffffffffffffff\n      and\n      0xffffffffffffffffffffffffffffffffffffffff\n      and\n      dup2\n      mstore\n      0x20\n      add\n      swap1\n      dup2\n      mstore\n      0x20\n      add\n      0x00\n      keccak256\n        /* \"src/KipuBank.sol\":10737:10764  depositCount[_user][_token] */\n      0x00\n        /* \"src/KipuBank.sol\":10757:10763  _token */\n      dup6\n        /* \"src/KipuBank.sol\":10737:10764  depositCount[_user][_token] */\n      0xffffffffffffffffffffffffffffffffffffffff\n      and\n      0xffffffffffffffffffffffffffffffffffffffff\n      and\n      dup2\n      mstore\n      0x20\n      add\n      swap1\n      dup2\n      mstore\n      0x20\n      add\n      0x00\n      keccak256\n      0x00\n        /* \"src/KipuBank.sol\":10737:10766  depositCount[_user][_token]++ */\n      dup2\n      sload\n      dup1\n      swap3\n      swap2\n      swap1\n      0x01\n      add\n      swap2\n      swap1\n      pop\n      sstore\n      pop\n        /* \"src/KipuBank.sol\":10802:10811  amountUSD */\n      dup1\n        /* \"src/KipuBank.sol\":10781:10798  totalDepositedUSD */\n      0x05\n      0x00\n        /* \"src/KipuBank.sol\":10781:10811  totalDepositedUSD += amountUSD */\n      dup3\n      dup3\n      sload\n      add\n      swap3\n      pop\n      pop\n      dup2\n      swap1\n      sstore\n      pop\n        /* \"src/KipuBank.sol\":10857:10863  _token */\n      dup4\n        /* \"src/KipuBank.sol\":10840:10884  Deposited(_user, _token, _amount, amountUSD) */\n      0xffffffffffffffffffffffffffffffffffffffff\n      and\n        /* \"src/KipuBank.sol\":10850:10855  _user */\n      dup6\n        /* \"src/KipuBank.sol\":10840:10884  Deposited(_user, _token, _amount, amountUSD) */\n      0xffffffffffffffffffffffffffffffffffffffff\n      and\n      0xf5681f9d0db1b911ac18ee83d515a1cf1051853a9eae418316a2fdf7dea427c5\n        /* \"src/KipuBank.sol\":10865:10872  _amount */\n      dup6\n        /* \"src/KipuBank.sol\":10874:10883  amountUSD */\n      dup5\n        /* \"src/KipuBank.sol\":10840:10884  Deposited(_user, _token, _amount, amountUSD) */\n      mload(0x40)\n      tag_193\n      swap3\n      swap2\n      swap1\n      tag_192\n      jump\t// in\n    tag_193:\n      mload(0x40)\n      dup1\n      swap2\n      sub\n      swap1\n      log3\n        /* \"src/KipuBank.sol\":10397:10892  {... */\n      pop\n        /* \"src/KipuBank.sol\":10298:10892  function _depositToken(address _user, address _token, uint256 _amount) private tokenExists(_token) {... */\n      pop\n      pop\n      pop\n      pop\n      jump\t// out\n        /* \"src/KipuBank.sol\":7486:8187  function addToken(... */\n    tag_48:\n        /* \"@openzeppelin/contracts/access/Ownable.sol\":1531:1544  _checkOwner() */\n      tag_195\n        /* \"@openzeppelin/contracts/access/Ownable.sol\":1531:1542  _checkOwner */\n      tag_196\n        /* \"@openzeppelin/contracts/access/Ownable.sol\":1531:1544  _checkOwner() */\n      jump\t// in\n    tag_195:\n        /* \"src/KipuBank.sol\":7643:7644  0 */\n      0x00\n        /* \"src/KipuBank.sol\":7625:7645  _token == address(0) */\n      0xffffffffffffffffffffffffffffffffffffffff\n      and\n        /* \"src/KipuBank.sol\":7625:7631  _token */\n      dup4\n        /* \"src/KipuBank.sol\":7625:7645  _token == address(0) */\n      0xffffffffffffffffffffffffffffffffffffffff\n      and\n      sub\n        /* \"src/KipuBank.sol\":7621:7675  if (_token == address(0)) revert InvalidTokenAddress() */\n      tag_198\n      jumpi\n        /* \"src/KipuBank.sol\":7654:7675  InvalidTokenAddress() */\n      mload(0x40)\n      0x1eb00b0600000000000000000000000000000000000000000000000000000000\n      dup2\n      mstore\n      0x04\n      add\n      mload(0x40)\n      dup1\n      swap2\n      sub\n      swap1\n      revert\n        /* \"src/KipuBank.sol\":7621:7675  if (_token == address(0)) revert InvalidTokenAddress() */\n    tag_198:\n        /* \"src/KipuBank.sol\":7712:7713  0 */\n      0x00\n        /* \"src/KipuBank.sol\":7690:7714  _priceFeed == address(0) */\n      0xffffffffffffffffffffffffffffffffffffffff\n      and\n        /* \"src/KipuBank.sol\":7690:7700  _priceFeed */\n      dup3\n        /* \"src/KipuBank.sol\":7690:7714  _priceFeed == address(0) */\n      0xffffffffffffffffffffffffffffffffffffffff\n      and\n      sub\n        /* \"src/KipuBank.sol\":7686:7741  if (_priceFeed == address(0)) revert InvalidPriceFeed() */\n      tag_199\n      jumpi\n        /* \"src/KipuBank.sol\":7723:7741  InvalidPriceFeed() */\n      mload(0x40)\n      0x52cc3f7d00000000000000000000000000000000000000000000000000000000\n      dup2\n      mstore\n      0x04\n      add\n      mload(0x40)\n      dup1\n      swap2\n      sub\n      swap1\n      revert\n        /* \"src/KipuBank.sol\":7686:7741  if (_priceFeed == address(0)) revert InvalidPriceFeed() */\n    tag_199:\n        /* \"src/KipuBank.sol\":7769:7770  0 */\n      0x00\n        /* \"src/KipuBank.sol\":7756:7765  _decimals */\n      dup2\n        /* \"src/KipuBank.sol\":7756:7770  _decimals == 0 */\n      0xff\n      and\n      eq\n        /* \"src/KipuBank.sol\":7756:7788  _decimals == 0 || _decimals > 18 */\n      dup1\n      tag_200\n      jumpi\n      pop\n        /* \"src/KipuBank.sol\":7786:7788  18 */\n      0x12\n        /* \"src/KipuBank.sol\":7774:7783  _decimals */\n      dup2\n        /* \"src/KipuBank.sol\":7774:7788  _decimals > 18 */\n      0xff\n      and\n      gt\n        /* \"src/KipuBank.sol\":7756:7788  _decimals == 0 || _decimals > 18 */\n    tag_200:\n        /* \"src/KipuBank.sol\":7752:7814  if (_decimals == 0 || _decimals > 18) revert InvalidDecimals() */\n      iszero\n      tag_201\n      jumpi\n        /* \"src/KipuBank.sol\":7797:7814  InvalidDecimals() */\n      mload(0x40)\n      0xd25598a000000000000000000000000000000000000000000000000000000000\n      dup2\n      mstore\n      0x04\n      add\n      mload(0x40)\n      dup1\n      swap2\n      sub\n      swap1\n      revert\n        /* \"src/KipuBank.sol\":7752:7814  if (_decimals == 0 || _decimals > 18) revert InvalidDecimals() */\n    tag_201:\n        /* \"src/KipuBank.sol\":7829:7844  supportedTokens */\n      0x02\n        /* \"src/KipuBank.sol\":7829:7852  supportedTokens[_token] */\n      0x00\n        /* \"src/KipuBank.sol\":7845:7851  _token */\n      dup5\n        /* \"src/KipuBank.sol\":7829:7852  supportedTokens[_token] */\n      0xffffffffffffffffffffffffffffffffffffffff\n      and\n      0xffffffffffffffffffffffffffffffffffffffff\n      and\n      dup2\n      mstore\n      0x20\n      add\n      swap1\n      dup2\n      mstore\n      0x20\n      add\n      0x00\n      keccak256\n        /* \"src/KipuBank.sol\":7829:7861  supportedTokens[_token].isActive */\n      0x01\n      add\n      0x15\n      swap1\n      sload\n      swap1\n      0x0100\n      exp\n      swap1\n      div\n      0xff\n      and\n        /* \"src/KipuBank.sol\":7825:7889  if (supportedTokens[_token].isActive) revert TokenAlreadyAdded() */\n      iszero\n      tag_202\n      jumpi\n        /* \"src/KipuBank.sol\":7870:7889  TokenAlreadyAdded() */\n      mload(0x40)\n      0x630b374b00000000000000000000000000000000000000000000000000000000\n      dup2\n      mstore\n      0x04\n      add\n      mload(0x40)\n      dup1\n      swap2\n      sub\n      swap1\n      revert\n        /* \"src/KipuBank.sol\":7825:7889  if (supportedTokens[_token].isActive) revert TokenAlreadyAdded() */\n    tag_202:\n        /* \"src/KipuBank.sol\":7928:8084  TokenInfo({... */\n      mload(0x40)\n      dup1\n      0x80\n      add\n      0x40\n      mstore\n      dup1\n        /* \"src/KipuBank.sol\":7999:8009  _priceFeed */\n      dup4\n        /* \"src/KipuBank.sol\":7928:8084  TokenInfo({... */\n      0xffffffffffffffffffffffffffffffffffffffff\n      and\n      dup2\n      mstore\n      0x20\n      add\n        /* \"src/KipuBank.sol\":7967:7973  _token */\n      dup5\n        /* \"src/KipuBank.sol\":7928:8084  TokenInfo({... */\n      0xffffffffffffffffffffffffffffffffffffffff\n      and\n      dup2\n      mstore\n      0x20\n      add\n        /* \"src/KipuBank.sol\":8034:8043  _decimals */\n      dup3\n        /* \"src/KipuBank.sol\":7928:8084  TokenInfo({... */\n      0xff\n      and\n      dup2\n      mstore\n      0x20\n      add\n        /* \"src/KipuBank.sol\":8068:8072  true */\n      0x01\n        /* \"src/KipuBank.sol\":7928:8084  TokenInfo({... */\n      iszero\n      iszero\n      dup2\n      mstore\n      pop\n        /* \"src/KipuBank.sol\":7902:7917  supportedTokens */\n      0x02\n        /* \"src/KipuBank.sol\":7902:7925  supportedTokens[_token] */\n      0x00\n        /* \"src/KipuBank.sol\":7918:7924  _token */\n      dup6\n        /* \"src/KipuBank.sol\":7902:7925  supportedTokens[_token] */\n      0xffffffffffffffffffffffffffffffffffffffff\n      and\n      0xffffffffffffffffffffffffffffffffffffffff\n      and\n      dup2\n      mstore\n      0x20\n      add\n      swap1\n      dup2\n      mstore\n      0x20\n      add\n      0x00\n      keccak256\n        /* \"src/KipuBank.sol\":7902:8084  supportedTokens[_token] = TokenInfo({... */\n      0x00\n      dup3\n      add\n      mload\n      dup2\n      0x00\n      add\n      exp(0x0100, 0x00)\n      dup2\n      sload\n      dup2\n      0xffffffffffffffffffffffffffffffffffffffff\n      mul\n      not\n      and\n      swap1\n      dup4\n      0xffffffffffffffffffffffffffffffffffffffff\n      and\n      mul\n      or\n      swap1\n      sstore\n      pop\n      0x20\n      dup3\n      add\n      mload\n      dup2\n      0x01\n      add\n      exp(0x0100, 0x00)\n      dup2\n      sload\n      dup2\n      0xffffffffffffffffffffffffffffffffffffffff\n      mul\n      not\n      and\n      swap1\n      dup4\n      0xffffffffffffffffffffffffffffffffffffffff\n      and\n      mul\n      or\n      swap1\n      sstore\n      pop\n      0x40\n      dup3\n      add\n      mload\n      dup2\n      0x01\n      add\n      exp(0x0100, 0x14)\n      dup2\n      sload\n      dup2\n      0xff\n      mul\n      not\n      and\n      swap1\n      dup4\n      0xff\n      and\n      mul\n      or\n      swap1\n      sstore\n      pop\n      0x60\n      dup3\n      add\n      mload\n      dup2\n      0x01\n      add\n      exp(0x0100, 0x15)\n      dup2\n      sload\n      dup2\n      0xff\n      mul\n      not\n      and\n      swap1\n      dup4\n      iszero\n      iszero\n      mul\n      or\n      swap1\n      sstore\n      pop\n      swap1\n      pop\n      pop\n        /* \"src/KipuBank.sol\":8097:8109  activeTokens */\n      0x07\n        /* \"src/KipuBank.sol\":8115:8121  _token */\n      dup4\n        /* \"src/KipuBank.sol\":8097:8122  activeTokens.push(_token) */\n      swap1\n      dup1\n      0x01\n      dup2\n      sload\n      add\n      dup1\n      dup3\n      sstore\n      dup1\n      swap2\n      pop\n      pop\n      0x01\n      swap1\n      sub\n      swap1\n      0x00\n      mstore\n      keccak256(0x00, 0x20)\n      add\n      0x00\n      swap1\n      swap2\n      swap1\n      swap2\n      swap1\n      swap2\n      0x0100\n      exp\n      dup2\n      sload\n      dup2\n      0xffffffffffffffffffffffffffffffffffffffff\n      mul\n      not\n      and\n      swap1\n      dup4\n      0xffffffffffffffffffffffffffffffffffffffff\n      and\n      mul\n      or\n      swap1\n      sstore\n      pop\n        /* \"src/KipuBank.sol\":8157:8167  _priceFeed */\n      dup2\n        /* \"src/KipuBank.sol\":8138:8179  TokenAdded(_token, _priceFeed, _decimals) */\n      0xffffffffffffffffffffffffffffffffffffffff\n      and\n        /* \"src/KipuBank.sol\":8149:8155  _token */\n      dup4\n        /* \"src/KipuBank.sol\":8138:8179  TokenAdded(_token, _priceFeed, _decimals) */\n      0xffffffffffffffffffffffffffffffffffffffff\n      and\n      0x45a26a460d33c4b7f3733844536d895f16b0f87524ad613b4fda44911f965257\n        /* \"src/KipuBank.sol\":8169:8178  _decimals */\n      dup4\n        /* \"src/KipuBank.sol\":8138:8179  TokenAdded(_token, _priceFeed, _decimals) */\n      mload(0x40)\n      tag_204\n      swap2\n      swap1\n      tag_146\n      jump\t// in\n    tag_204:\n      mload(0x40)\n      dup1\n      swap2\n      sub\n      swap1\n      log3\n        /* \"src/KipuBank.sol\":7486:8187  function addToken(... */\n      pop\n      pop\n      pop\n      jump\t// out\n        /* \"src/KipuBank.sol\":8983:9116  function removeAdmin(address _admin) external onlyOwner {... */\n    tag_53:\n        /* \"@openzeppelin/contracts/access/Ownable.sol\":1531:1544  _checkOwner() */\n      tag_206\n        /* \"@openzeppelin/contracts/access/Ownable.sol\":1531:1542  _checkOwner */\n      tag_196\n        /* \"@openzeppelin/contracts/access/Ownable.sol\":1531:1544  _checkOwner() */\n      jump\t// in\n    tag_206:\n        /* \"src/KipuBank.sol\":9067:9072  false */\n      0x00\n        /* \"src/KipuBank.sol\":9050:9056  admins */\n      0x08\n        /* \"src/KipuBank.sol\":9050:9064  admins[_admin] */\n      0x00\n        /* \"src/KipuBank.sol\":9057:9063  _admin */\n      dup4\n        /* \"src/KipuBank.sol\":9050:9064  admins[_admin] */\n      0xffffffffffffffffffffffffffffffffffffffff\n      and\n      0xffffffffffffffffffffffffffffffffffffffff\n      and\n      dup2\n      mstore\n      0x20\n      add\n      swap1\n      dup2\n      mstore\n      0x20\n      add\n      0x00\n      keccak256\n      0x00\n        /* \"src/KipuBank.sol\":9050:9072  admins[_admin] = false */\n      0x0100\n      exp\n      dup2\n      sload\n      dup2\n      0xff\n      mul\n      not\n      and\n      swap1\n      dup4\n      iszero\n      iszero\n      mul\n      or\n      swap1\n      sstore\n      pop\n        /* \"src/KipuBank.sol\":9101:9107  _admin */\n      dup1\n        /* \"src/KipuBank.sol\":9088:9108  AdminRemoved(_admin) */\n      0xffffffffffffffffffffffffffffffffffffffff\n      and\n      0xa3b62bc36326052d97ea62d63c3d60308ed4c3ea8ac079dd8499f1e9c4f80c0f\n      mload(0x40)\n      mload(0x40)\n      dup1\n      swap2\n      sub\n      swap1\n      log2\n        /* \"src/KipuBank.sol\":8983:9116  function removeAdmin(address _admin) external onlyOwner {... */\n      pop\n      jump\t// out\n        /* \"src/KipuBank.sol\":2298:2365  mapping(address => mapping(address => uint256)) public depositCount */\n    tag_58:\n      mstore(0x20, 0x03)\n      dup2\n      0x00\n      mstore\n      mstore(0x20, keccak256(0x00, 0x40))\n      dup1\n      0x00\n      mstore\n      keccak256(0x00, 0x40)\n      0x00\n      swap2\n      pop\n      swap2\n      pop\n      pop\n      sload\n      dup2\n      jump\t// out\n        /* \"src/KipuBank.sol\":14063:14191  function getTokenInfo(address _token) external view returns (TokenInfo memory) {... */\n    tag_64:\n        /* \"src/KipuBank.sol\":14124:14140  TokenInfo memory */\n      tag_208\n      tag_209\n      jump\t// in\n    tag_208:\n        /* \"src/KipuBank.sol\":14160:14175  supportedTokens */\n      0x02\n        /* \"src/KipuBank.sol\":14160:14183  supportedTokens[_token] */\n      0x00\n        /* \"src/KipuBank.sol\":14176:14182  _token */\n      dup4\n        /* \"src/KipuBank.sol\":14160:14183  supportedTokens[_token] */\n      0xffffffffffffffffffffffffffffffffffffffff\n      and\n      0xffffffffffffffffffffffffffffffffffffffff\n      and\n      dup2\n      mstore\n      0x20\n      add\n      swap1\n      dup2\n      mstore\n      0x20\n      add\n      0x00\n      keccak256\n        /* \"src/KipuBank.sol\":14153:14183  return supportedTokens[_token] */\n      mload(0x40)\n      dup1\n      0x80\n      add\n      0x40\n      mstore\n      swap1\n      dup2\n      0x00\n      dup3\n      add\n      0x00\n      swap1\n      sload\n      swap1\n      0x0100\n      exp\n      swap1\n      div\n      0xffffffffffffffffffffffffffffffffffffffff\n      and\n      0xffffffffffffffffffffffffffffffffffffffff\n      and\n      0xffffffffffffffffffffffffffffffffffffffff\n      and\n      dup2\n      mstore\n      0x20\n      add\n      0x01\n      dup3\n      add\n      0x00\n      swap1\n      sload\n      swap1\n      0x0100\n      exp\n      swap1\n      div\n      0xffffffffffffffffffffffffffffffffffffffff\n      and\n      0xffffffffffffffffffffffffffffffffffffffff\n      and\n      0xffffffffffffffffffffffffffffffffffffffff\n      and\n      dup2\n      mstore\n      0x20\n      add\n      0x01\n      dup3\n      add\n      0x14\n      swap1\n      sload\n      swap1\n      0x0100\n      exp\n      swap1\n      div\n      0xff\n      and\n      0xff\n      and\n      0xff\n      and\n      dup2\n      mstore\n      0x20\n      add\n      0x01\n      dup3\n      add\n      0x15\n      swap1\n      sload\n      swap1\n      0x0100\n      exp\n      swap1\n      div\n      0xff\n      and\n      iszero\n      iszero\n      iszero\n      iszero\n      dup2\n      mstore\n      pop\n      pop\n      swap1\n      pop\n        /* \"src/KipuBank.sol\":14063:14191  function getTokenInfo(address _token) external view returns (TokenInfo memory) {... */\n      swap2\n      swap1\n      pop\n      jump\t// out\n        /* \"src/KipuBank.sol\":1434:1476  uint256 public immutable BANK_CAPACITY_USD */\n    tag_69:\n      immutable(\"0x3a2a6f4e0dcd4611e0c200ca45f55d44b54b380ac384ae0bef4a36eff139c211\")\n      dup2\n      jump\t// out\n        /* \"src/KipuBank.sol\":2433:2503  mapping(address => mapping(address => uint256)) public withdrawalCount */\n    tag_74:\n      mstore(0x20, 0x04)\n      dup2\n      0x00\n      mstore\n      mstore(0x20, keccak256(0x00, 0x40))\n      dup1\n      0x00\n      mstore\n      keccak256(0x00, 0x40)\n      0x00\n      swap2\n      pop\n      swap2\n      pop\n      pop\n      sload\n      dup2\n      jump\t// out\n        /* \"src/KipuBank.sol\":9586:10170  function depositToken(address _token, uint256 _amount)... */\n    tag_80:\n        /* \"src/KipuBank.sol\":9680:9687  _amount */\n      dup1\n        /* \"src/KipuBank.sol\":5490:5491  0 */\n      0x00\n        /* \"src/KipuBank.sol\":5480:5486  amount */\n      dup2\n        /* \"src/KipuBank.sol\":5480:5491  amount == 0 */\n      sub\n        /* \"src/KipuBank.sol\":5476:5542  if (amount == 0) {... */\n      tag_212\n      jumpi\n        /* \"src/KipuBank.sol\":5515:5530  InvalidAmount() */\n      mload(0x40)\n      0x2c5211c600000000000000000000000000000000000000000000000000000000\n      dup2\n      mstore\n      0x04\n      add\n      mload(0x40)\n      dup1\n      swap2\n      sub\n      swap1\n      revert\n        /* \"src/KipuBank.sol\":5476:5542  if (amount == 0) {... */\n    tag_212:\n        /* \"src/KipuBank.sol\":9710:9716  _token */\n      dup3\n        /* \"src/KipuBank.sol\":5698:5713  supportedTokens */\n      0x02\n        /* \"src/KipuBank.sol\":5698:5720  supportedTokens[token] */\n      0x00\n        /* \"src/KipuBank.sol\":5714:5719  token */\n      dup3\n        /* \"src/KipuBank.sol\":5698:5720  supportedTokens[token] */\n      0xffffffffffffffffffffffffffffffffffffffff\n      and\n      0xffffffffffffffffffffffffffffffffffffffff\n      and\n      dup2\n      mstore\n      0x20\n      add\n      swap1\n      dup2\n      mstore\n      0x20\n      add\n      0x00\n      keccak256\n        /* \"src/KipuBank.sol\":5698:5729  supportedTokens[token].isActive */\n      0x01\n      add\n      0x15\n      swap1\n      sload\n      swap1\n      0x0100\n      exp\n      swap1\n      div\n      0xff\n      and\n        /* \"src/KipuBank.sol\":5693:5789  if (!supportedTokens[token].isActive) {... */\n      tag_214\n      jumpi\n        /* \"src/KipuBank.sol\":5771:5776  token */\n      dup1\n        /* \"src/KipuBank.sol\":5753:5777  TokenNotSupported(token) */\n      mload(0x40)\n      0x06439c6b00000000000000000000000000000000000000000000000000000000\n      dup2\n      mstore\n      0x04\n      add\n      tag_215\n      swap2\n      swap1\n      tag_126\n      jump\t// in\n    tag_215:\n      mload(0x40)\n      dup1\n      swap2\n      sub\n      swap1\n      revert\n        /* \"src/KipuBank.sol\":5693:5789  if (!supportedTokens[token].isActive) {... */\n    tag_214:\n        /* \"src/KipuBank.sol\":1381:1382  0 */\n      0x00\n        /* \"src/KipuBank.sol\":9742:9763  _token != ETH_ADDRESS */\n      0xffffffffffffffffffffffffffffffffffffffff\n      and\n        /* \"src/KipuBank.sol\":9742:9748  _token */\n      dup5\n        /* \"src/KipuBank.sol\":9742:9763  _token != ETH_ADDRESS */\n      0xffffffffffffffffffffffffffffffffffffffff\n      and\n      sub\n        /* \"src/KipuBank.sol\":9734:9797  require(_token != ETH_ADDRESS, \"Use depositETH for native ETH\") */\n      tag_217\n      jumpi\n      mload(0x40)\n      0x08c379a000000000000000000000000000000000000000000000000000000000\n      dup2\n      mstore\n      0x04\n      add\n      tag_218\n      swap1\n      tag_219\n      jump\t// in\n    tag_218:\n      mload(0x40)\n      dup1\n      swap2\n      sub\n      swap1\n      revert\n    tag_217:\n        /* \"src/KipuBank.sol\":9818:9839  uint256 balanceBefore */\n      0x00\n        /* \"src/KipuBank.sol\":9849:9855  _token */\n      dup5\n        /* \"src/KipuBank.sol\":9842:9866  IERC20(_token).balanceOf */\n      0xffffffffffffffffffffffffffffffffffffffff\n      and\n      0x70a08231\n        /* \"src/KipuBank.sol\":9875:9879  this */\n      address\n        /* \"src/KipuBank.sol\":9842:9881  IERC20(_token).balanceOf(address(this)) */\n      mload(0x40)\n      dup3\n      0xffffffff\n      and\n      0xe0\n      shl\n      dup2\n      mstore\n      0x04\n      add\n      tag_220\n      swap2\n      swap1\n      tag_126\n      jump\t// in\n    tag_220:\n      0x20\n      mload(0x40)\n      dup1\n      dup4\n      sub\n      dup2\n      dup7\n      gas\n      staticcall\n      iszero\n      dup1\n      iszero\n      tag_222\n      jumpi\n      returndatacopy(0x00, 0x00, returndatasize)\n      revert(0x00, returndatasize)\n    tag_222:\n      pop\n      pop\n      pop\n      pop\n      mload(0x40)\n      returndatasize\n      not(0x1f)\n      0x1f\n      dup3\n      add\n      and\n      dup3\n      add\n      dup1\n      0x40\n      mstore\n      pop\n      dup2\n      add\n      swap1\n      tag_223\n      swap2\n      swap1\n      tag_224\n      jump\t// in\n    tag_223:\n        /* \"src/KipuBank.sol\":9818:9881  uint256 balanceBefore = IERC20(_token).balanceOf(address(this)) */\n      swap1\n      pop\n        /* \"src/KipuBank.sol\":9892:9959  IERC20(_token).safeTransferFrom(msg.sender, address(this), _amount) */\n      tag_225\n        /* \"src/KipuBank.sol\":9924:9934  msg.sender */\n      caller\n        /* \"src/KipuBank.sol\":9944:9948  this */\n      address\n        /* \"src/KipuBank.sol\":9951:9958  _amount */\n      dup7\n        /* \"src/KipuBank.sol\":9899:9905  _token */\n      dup9\n        /* \"src/KipuBank.sol\":9892:9923  IERC20(_token).safeTransferFrom */\n      0xffffffffffffffffffffffffffffffffffffffff\n      and\n      tag_226\n      swap1\n        /* \"src/KipuBank.sol\":9892:9959  IERC20(_token).safeTransferFrom(msg.sender, address(this), _amount) */\n      swap4\n      swap3\n      swap2\n      swap1\n      0xffffffff\n      and\n      jump\t// in\n    tag_225:\n        /* \"src/KipuBank.sol\":9970:9990  uint256 balanceAfter */\n      0x00\n        /* \"src/KipuBank.sol\":10000:10006  _token */\n      dup6\n        /* \"src/KipuBank.sol\":9993:10017  IERC20(_token).balanceOf */\n      0xffffffffffffffffffffffffffffffffffffffff\n      and\n      0x70a08231\n        /* \"src/KipuBank.sol\":10026:10030  this */\n      address\n        /* \"src/KipuBank.sol\":9993:10032  IERC20(_token).balanceOf(address(this)) */\n      mload(0x40)\n      dup3\n      0xffffffff\n      and\n      0xe0\n      shl\n      dup2\n      mstore\n      0x04\n      add\n      tag_227\n      swap2\n      swap1\n      tag_126\n      jump\t// in\n    tag_227:\n      0x20\n      mload(0x40)\n      dup1\n      dup4\n      sub\n      dup2\n      dup7\n      gas\n      staticcall\n      iszero\n      dup1\n      iszero\n      tag_229\n      jumpi\n      returndatacopy(0x00, 0x00, returndatasize)\n      revert(0x00, returndatasize)\n    tag_229:\n      pop\n      pop\n      pop\n      pop\n      mload(0x40)\n      returndatasize\n      not(0x1f)\n      0x1f\n      dup3\n      add\n      and\n      dup3\n      add\n      dup1\n      0x40\n      mstore\n      pop\n      dup2\n      add\n      swap1\n      tag_230\n      swap2\n      swap1\n      tag_224\n      jump\t// in\n    tag_230:\n        /* \"src/KipuBank.sol\":9970:10032  uint256 balanceAfter = IERC20(_token).balanceOf(address(this)) */\n      swap1\n      pop\n        /* \"src/KipuBank.sol\":10053:10073  uint256 actualAmount */\n      0x00\n        /* \"src/KipuBank.sol\":10091:10104  balanceBefore */\n      dup3\n        /* \"src/KipuBank.sol\":10076:10088  balanceAfter */\n      dup3\n        /* \"src/KipuBank.sol\":10076:10104  balanceAfter - balanceBefore */\n      tag_231\n      swap2\n      swap1\n      tag_232\n      jump\t// in\n    tag_231:\n        /* \"src/KipuBank.sol\":10053:10104  uint256 actualAmount = balanceAfter - balanceBefore */\n      swap1\n      pop\n        /* \"src/KipuBank.sol\":10115:10162  _depositToken(msg.sender, _token, actualAmount) */\n      tag_233\n        /* \"src/KipuBank.sol\":10129:10139  msg.sender */\n      caller\n        /* \"src/KipuBank.sol\":10141:10147  _token */\n      dup9\n        /* \"src/KipuBank.sol\":10149:10161  actualAmount */\n      dup4\n        /* \"src/KipuBank.sol\":10115:10128  _depositToken */\n      tag_43\n        /* \"src/KipuBank.sol\":10115:10162  _depositToken(msg.sender, _token, actualAmount) */\n      jump\t// in\n    tag_233:\n        /* \"src/KipuBank.sol\":9723:10170  {... */\n      pop\n      pop\n      pop\n        /* \"src/KipuBank.sol\":5552:5553  _ */\n      pop\n        /* \"src/KipuBank.sol\":9586:10170  function depositToken(address _token, uint256 _amount)... */\n      pop\n      pop\n      pop\n      jump\t// out\n        /* \"src/KipuBank.sol\":15805:16538  function convertFromUSD(address _token, uint256 _usdAmount)... */\n    tag_84:\n        /* \"src/KipuBank.sol\":15944:15951  uint256 */\n      0x00\n        /* \"src/KipuBank.sol\":15918:15924  _token */\n      dup3\n        /* \"src/KipuBank.sol\":5698:5713  supportedTokens */\n      0x02\n        /* \"src/KipuBank.sol\":5698:5720  supportedTokens[token] */\n      0x00\n        /* \"src/KipuBank.sol\":5714:5719  token */\n      dup3\n        /* \"src/KipuBank.sol\":5698:5720  supportedTokens[token] */\n      0xffffffffffffffffffffffffffffffffffffffff\n      and\n      0xffffffffffffffffffffffffffffffffffffffff\n      and\n      dup2\n      mstore\n      0x20\n      add\n      swap1\n      dup2\n      mstore\n      0x20\n      add\n      0x00\n      keccak256\n        /* \"src/KipuBank.sol\":5698:5729  supportedTokens[token].isActive */\n      0x01\n      add\n      0x15\n      swap1\n      sload\n      swap1\n      0x0100\n      exp\n      swap1\n      div\n      0xff\n      and\n        /* \"src/KipuBank.sol\":5693:5789  if (!supportedTokens[token].isActive) {... */\n      tag_235\n      jumpi\n        /* \"src/KipuBank.sol\":5771:5776  token */\n      dup1\n        /* \"src/KipuBank.sol\":5753:5777  TokenNotSupported(token) */\n      mload(0x40)\n      0x06439c6b00000000000000000000000000000000000000000000000000000000\n      dup2\n      mstore\n      0x04\n      add\n      tag_236\n      swap2\n      swap1\n      tag_126\n      jump\t// in\n    tag_236:\n      mload(0x40)\n      dup1\n      swap2\n      sub\n      swap1\n      revert\n        /* \"src/KipuBank.sol\":5693:5789  if (!supportedTokens[token].isActive) {... */\n    tag_235:\n        /* \"src/KipuBank.sol\":15987:15988  0 */\n      0x00\n        /* \"src/KipuBank.sol\":15973:15983  _usdAmount */\n      dup4\n        /* \"src/KipuBank.sol\":15973:15988  _usdAmount == 0 */\n      sub\n        /* \"src/KipuBank.sol\":15969:15998  if (_usdAmount == 0) return 0 */\n      tag_238\n      jumpi\n        /* \"src/KipuBank.sol\":15997:15998  0 */\n      0x00\n        /* \"src/KipuBank.sol\":15990:15998  return 0 */\n      swap2\n      pop\n      jump(tag_237)\n        /* \"src/KipuBank.sol\":15969:15998  if (_usdAmount == 0) return 0 */\n    tag_238:\n        /* \"src/KipuBank.sol\":16011:16032  TokenInfo memory info */\n      0x00\n        /* \"src/KipuBank.sol\":16035:16050  supportedTokens */\n      0x02\n        /* \"src/KipuBank.sol\":16035:16058  supportedTokens[_token] */\n      0x00\n        /* \"src/KipuBank.sol\":16051:16057  _token */\n      dup7\n        /* \"src/KipuBank.sol\":16035:16058  supportedTokens[_token] */\n      0xffffffffffffffffffffffffffffffffffffffff\n      and\n      0xffffffffffffffffffffffffffffffffffffffff\n      and\n      dup2\n      mstore\n      0x20\n      add\n      swap1\n      dup2\n      mstore\n      0x20\n      add\n      0x00\n      keccak256\n        /* \"src/KipuBank.sol\":16011:16058  TokenInfo memory info = supportedTokens[_token] */\n      mload(0x40)\n      dup1\n      0x80\n      add\n      0x40\n      mstore\n      swap1\n      dup2\n      0x00\n      dup3\n      add\n      0x00\n      swap1\n      sload\n      swap1\n      0x0100\n      exp\n      swap1\n      div\n      0xffffffffffffffffffffffffffffffffffffffff\n      and\n      0xffffffffffffffffffffffffffffffffffffffff\n      and\n      0xffffffffffffffffffffffffffffffffffffffff\n      and\n      dup2\n      mstore\n      0x20\n      add\n      0x01\n      dup3\n      add\n      0x00\n      swap1\n      sload\n      swap1\n      0x0100\n      exp\n      swap1\n      div\n      0xffffffffffffffffffffffffffffffffffffffff\n      and\n      0xffffffffffffffffffffffffffffffffffffffff\n      and\n      0xffffffffffffffffffffffffffffffffffffffff\n      and\n      dup2\n      mstore\n      0x20\n      add\n      0x01\n      dup3\n      add\n      0x14\n      swap1\n      sload\n      swap1\n      0x0100\n      exp\n      swap1\n      div\n      0xff\n      and\n      0xff\n      and\n      0xff\n      and\n      dup2\n      mstore\n      0x20\n      add\n      0x01\n      dup3\n      add\n      0x15\n      swap1\n      sload\n      swap1\n      0x0100\n      exp\n      swap1\n      div\n      0xff\n      and\n      iszero\n      iszero\n      iszero\n      iszero\n      dup2\n      mstore\n      pop\n      pop\n      swap1\n      pop\n        /* \"src/KipuBank.sol\":16069:16100  AggregatorV3Interface priceFeed */\n      0x00\n        /* \"src/KipuBank.sol\":16125:16129  info */\n      dup2\n        /* \"src/KipuBank.sol\":16125:16139  info.priceFeed */\n      0x00\n      add\n      mload\n        /* \"src/KipuBank.sol\":16069:16140  AggregatorV3Interface priceFeed = AggregatorV3Interface(info.priceFeed) */\n      swap1\n      pop\n        /* \"src/KipuBank.sol\":16156:16168  int256 price */\n      0x00\n        /* \"src/KipuBank.sol\":16178:16187  priceFeed */\n      dup2\n        /* \"src/KipuBank.sol\":16178:16203  priceFeed.latestRoundData */\n      0xffffffffffffffffffffffffffffffffffffffff\n      and\n      0xfeaf968c\n        /* \"src/KipuBank.sol\":16178:16205  priceFeed.latestRoundData() */\n      mload(0x40)\n      dup2\n      0xffffffff\n      and\n      0xe0\n      shl\n      dup2\n      mstore\n      0x04\n      add\n      0xa0\n      mload(0x40)\n      dup1\n      dup4\n      sub\n      dup2\n      dup7\n      gas\n      staticcall\n      iszero\n      dup1\n      iszero\n      tag_240\n      jumpi\n      returndatacopy(0x00, 0x00, returndatasize)\n      revert(0x00, returndatasize)\n    tag_240:\n      pop\n      pop\n      pop\n      pop\n      mload(0x40)\n      returndatasize\n      not(0x1f)\n      0x1f\n      dup3\n      add\n      and\n      dup3\n      add\n      dup1\n      0x40\n      mstore\n      pop\n      dup2\n      add\n      swap1\n      tag_241\n      swap2\n      swap1\n      tag_242\n      jump\t// in\n    tag_241:\n        /* \"src/KipuBank.sol\":16153:16205  (, int256 price, , , ) = priceFeed.latestRoundData() */\n      pop\n      pop\n      pop\n      swap2\n      pop\n      pop\n        /* \"src/KipuBank.sol\":16229:16230  0 */\n      0x00\n        /* \"src/KipuBank.sol\":16220:16225  price */\n      dup2\n        /* \"src/KipuBank.sol\":16220:16230  price <= 0 */\n      sgt\n        /* \"src/KipuBank.sol\":16216:16255  if (price <= 0) revert PriceFeedError() */\n      tag_243\n      jumpi\n        /* \"src/KipuBank.sol\":16239:16255  PriceFeedError() */\n      mload(0x40)\n      0x7dfa876300000000000000000000000000000000000000000000000000000000\n      dup2\n      mstore\n      0x04\n      add\n      mload(0x40)\n      dup1\n      swap2\n      sub\n      swap1\n      revert\n        /* \"src/KipuBank.sol\":16216:16255  if (price <= 0) revert PriceFeedError() */\n    tag_243:\n        /* \"src/KipuBank.sol\":16268:16285  uint256 uintPrice */\n      0x00\n        /* \"src/KipuBank.sol\":16296:16301  price */\n      dup2\n        /* \"src/KipuBank.sol\":16268:16302  uint256 uintPrice = uint256(price) */\n      swap1\n      pop\n        /* \"src/KipuBank.sol\":16313:16339  uint256 decimalsAdjustment */\n      0x00\n        /* \"src/KipuBank.sol\":16342:16344  18 */\n      0x12\n        /* \"src/KipuBank.sol\":16313:16344  uint256 decimalsAdjustment = 18 */\n      swap1\n      pop\n        /* \"src/KipuBank.sol\":16376:16378  18 */\n      0x12\n        /* \"src/KipuBank.sol\":16359:16363  info */\n      dup6\n        /* \"src/KipuBank.sol\":16359:16372  info.decimals */\n      0x40\n      add\n      mload\n        /* \"src/KipuBank.sol\":16359:16378  info.decimals != 18 */\n      0xff\n      and\n      eq\n        /* \"src/KipuBank.sol\":16355:16450  if (info.decimals != 18) {... */\n      tag_244\n      jumpi\n        /* \"src/KipuBank.sol\":16437:16438  8 */\n      0x08\n        /* \"src/KipuBank.sol\":16421:16425  info */\n      dup6\n        /* \"src/KipuBank.sol\":16421:16434  info.decimals */\n      0x40\n      add\n      mload\n        /* \"src/KipuBank.sol\":16416:16418  18 */\n      0x12\n        /* \"src/KipuBank.sol\":16416:16434  18 - info.decimals */\n      tag_245\n      swap2\n      swap1\n      tag_246\n      jump\t// in\n    tag_245:\n        /* \"src/KipuBank.sol\":16416:16438  18 - info.decimals + 8 */\n      tag_247\n      swap2\n      swap1\n      tag_248\n      jump\t// in\n    tag_247:\n        /* \"src/KipuBank.sol\":16395:16438  decimalsAdjustment = 18 - info.decimals + 8 */\n      0xff\n      and\n      swap1\n      pop\n        /* \"src/KipuBank.sol\":16355:16450  if (info.decimals != 18) {... */\n    tag_244:\n        /* \"src/KipuBank.sol\":1888:1896  10 ** 18 */\n      0x0de0b6b3a7640000\n        /* \"src/KipuBank.sol\":16512:16521  uintPrice */\n      dup3\n        /* \"src/KipuBank.sol\":16512:16529  uintPrice * SCALE */\n      tag_249\n      swap2\n      swap1\n      tag_250\n      jump\t// in\n    tag_249:\n        /* \"src/KipuBank.sol\":16489:16507  decimalsAdjustment */\n      dup2\n        /* \"src/KipuBank.sol\":16483:16485  10 */\n      0x0a\n        /* \"src/KipuBank.sol\":16483:16507  10 ** decimalsAdjustment */\n      tag_251\n      swap2\n      swap1\n      tag_252\n      jump\t// in\n    tag_251:\n        /* \"src/KipuBank.sol\":16470:16480  _usdAmount */\n      dup10\n        /* \"src/KipuBank.sol\":16470:16507  _usdAmount * 10 ** decimalsAdjustment */\n      tag_253\n      swap2\n      swap1\n      tag_250\n      jump\t// in\n    tag_253:\n        /* \"src/KipuBank.sol\":16469:16530  (_usdAmount * 10 ** decimalsAdjustment) / (uintPrice * SCALE) */\n      tag_254\n      swap2\n      swap1\n      tag_255\n      jump\t// in\n    tag_254:\n        /* \"src/KipuBank.sol\":16462:16530  return (_usdAmount * 10 ** decimalsAdjustment) / (uintPrice * SCALE) */\n      swap7\n      pop\n      pop\n      pop\n      pop\n      pop\n      pop\n        /* \"src/KipuBank.sol\":5799:5800  _ */\n    tag_237:\n        /* \"src/KipuBank.sol\":15805:16538  function convertFromUSD(address _token, uint256 _usdAmount)... */\n      pop\n      swap3\n      swap2\n      pop\n      pop\n      jump\t// out\n        /* \"src/KipuBank.sol\":2830:2868  mapping(address => bool) public admins */\n    tag_89:\n      mstore(0x20, 0x08)\n      dup1\n      0x00\n      mstore\n      keccak256(0x00, 0x40)\n      0x00\n      swap2\n      pop\n      sload\n      swap1\n      0x0100\n      exp\n      swap1\n      div\n      0xff\n      and\n      dup2\n      jump\t// out\n        /* \"src/KipuBank.sol\":14276:14382  function getActiveTokens() external view returns (address[] memory) {... */\n    tag_94:\n        /* \"src/KipuBank.sol\":14326:14342  address[] memory */\n      0x60\n        /* \"src/KipuBank.sol\":14362:14374  activeTokens */\n      0x07\n        /* \"src/KipuBank.sol\":14355:14374  return activeTokens */\n      dup1\n      sload\n      dup1\n      0x20\n      mul\n      0x20\n      add\n      mload(0x40)\n      swap1\n      dup2\n      add\n      0x40\n      mstore\n      dup1\n      swap3\n      swap2\n      swap1\n      dup2\n      dup2\n      mstore\n      0x20\n      add\n      dup3\n      dup1\n      sload\n      dup1\n      iszero\n      tag_257\n      jumpi\n      0x20\n      mul\n      dup3\n      add\n      swap2\n      swap1\n      0x00\n      mstore\n      keccak256(0x00, 0x20)\n      swap1\n    tag_258:\n      dup2\n      0x00\n      swap1\n      sload\n      swap1\n      0x0100\n      exp\n      swap1\n      div\n      0xffffffffffffffffffffffffffffffffffffffff\n      and\n      0xffffffffffffffffffffffffffffffffffffffff\n      and\n      dup2\n      mstore\n      0x20\n      add\n      swap1\n      0x01\n      add\n      swap1\n      dup1\n      dup4\n      gt\n      tag_258\n      jumpi\n    tag_257:\n      pop\n      pop\n      pop\n      pop\n      pop\n      swap1\n      pop\n        /* \"src/KipuBank.sol\":14276:14382  function getActiveTokens() external view returns (address[] memory) {... */\n      swap1\n      jump\t// out\n        /* \"src/KipuBank.sol\":8287:8588  function removeToken(address _token) external onlyOwner {... */\n    tag_100:\n        /* \"@openzeppelin/contracts/access/Ownable.sol\":1531:1544  _checkOwner() */\n      tag_260\n        /* \"@openzeppelin/contracts/access/Ownable.sol\":1531:1542  _checkOwner */\n      tag_196\n        /* \"@openzeppelin/contracts/access/Ownable.sol\":1531:1544  _checkOwner() */\n      jump\t// in\n    tag_260:\n        /* \"src/KipuBank.sol\":1381:1382  0 */\n      0x00\n        /* \"src/KipuBank.sol\":8358:8379  _token == ETH_ADDRESS */\n      0xffffffffffffffffffffffffffffffffffffffff\n      and\n        /* \"src/KipuBank.sol\":8358:8364  _token */\n      dup2\n        /* \"src/KipuBank.sol\":8358:8379  _token == ETH_ADDRESS */\n      0xffffffffffffffffffffffffffffffffffffffff\n      and\n      sub\n        /* \"src/KipuBank.sol\":8354:8409  if (_token == ETH_ADDRESS) revert InvalidTokenAddress() */\n      tag_262\n      jumpi\n        /* \"src/KipuBank.sol\":8388:8409  InvalidTokenAddress() */\n      mload(0x40)\n      0x1eb00b0600000000000000000000000000000000000000000000000000000000\n      dup2\n      mstore\n      0x04\n      add\n      mload(0x40)\n      dup1\n      swap2\n      sub\n      swap1\n      revert\n        /* \"src/KipuBank.sol\":8354:8409  if (_token == ETH_ADDRESS) revert InvalidTokenAddress() */\n    tag_262:\n        /* \"src/KipuBank.sol\":8425:8440  supportedTokens */\n      0x02\n        /* \"src/KipuBank.sol\":8425:8448  supportedTokens[_token] */\n      0x00\n        /* \"src/KipuBank.sol\":8441:8447  _token */\n      dup3\n        /* \"src/KipuBank.sol\":8425:8448  supportedTokens[_token] */\n      0xffffffffffffffffffffffffffffffffffffffff\n      and\n      0xffffffffffffffffffffffffffffffffffffffff\n      and\n      dup2\n      mstore\n      0x20\n      add\n      swap1\n      dup2\n      mstore\n      0x20\n      add\n      0x00\n      keccak256\n        /* \"src/KipuBank.sol\":8425:8457  supportedTokens[_token].isActive */\n      0x01\n      add\n      0x15\n      swap1\n      sload\n      swap1\n      0x0100\n      exp\n      swap1\n      div\n      0xff\n      and\n        /* \"src/KipuBank.sol\":8420:8491  if (!supportedTokens[_token].isActive) revert TokenNotSupported(_token) */\n      tag_263\n      jumpi\n        /* \"src/KipuBank.sol\":8484:8490  _token */\n      dup1\n        /* \"src/KipuBank.sol\":8466:8491  TokenNotSupported(_token) */\n      mload(0x40)\n      0x06439c6b00000000000000000000000000000000000000000000000000000000\n      dup2\n      mstore\n      0x04\n      add\n      tag_264\n      swap2\n      swap1\n      tag_126\n      jump\t// in\n    tag_264:\n      mload(0x40)\n      dup1\n      swap2\n      sub\n      swap1\n      revert\n        /* \"src/KipuBank.sol\":8420:8491  if (!supportedTokens[_token].isActive) revert TokenNotSupported(_token) */\n    tag_263:\n        /* \"src/KipuBank.sol\":8539:8544  false */\n      0x00\n        /* \"src/KipuBank.sol\":8504:8519  supportedTokens */\n      0x02\n        /* \"src/KipuBank.sol\":8504:8527  supportedTokens[_token] */\n      0x00\n        /* \"src/KipuBank.sol\":8520:8526  _token */\n      dup4\n        /* \"src/KipuBank.sol\":8504:8527  supportedTokens[_token] */\n      0xffffffffffffffffffffffffffffffffffffffff\n      and\n      0xffffffffffffffffffffffffffffffffffffffff\n      and\n      dup2\n      mstore\n      0x20\n      add\n      swap1\n      dup2\n      mstore\n      0x20\n      add\n      0x00\n      keccak256\n        /* \"src/KipuBank.sol\":8504:8536  supportedTokens[_token].isActive */\n      0x01\n      add\n      0x15\n        /* \"src/KipuBank.sol\":8504:8544  supportedTokens[_token].isActive = false */\n      0x0100\n      exp\n      dup2\n      sload\n      dup2\n      0xff\n      mul\n      not\n      and\n      swap1\n      dup4\n      iszero\n      iszero\n      mul\n      or\n      swap1\n      sstore\n      pop\n        /* \"src/KipuBank.sol\":8573:8579  _token */\n      dup1\n        /* \"src/KipuBank.sol\":8560:8580  TokenRemoved(_token) */\n      0xffffffffffffffffffffffffffffffffffffffff\n      and\n      0x4c910b69fe65a61f7531b9c5042b2329ca7179c77290aa7e2eb3afa3c8511fd3\n      mload(0x40)\n      mload(0x40)\n      dup1\n      swap2\n      sub\n      swap1\n      log2\n        /* \"src/KipuBank.sol\":8287:8588  function removeToken(address _token) external onlyOwner {... */\n      pop\n      jump\t// out\n        /* \"src/KipuBank.sol\":2181:2233  mapping(address => TokenInfo) public supportedTokens */\n    tag_104:\n      mstore(0x20, 0x02)\n      dup1\n      0x00\n      mstore\n      keccak256(0x00, 0x40)\n      0x00\n      swap2\n      pop\n      swap1\n      pop\n      dup1\n      0x00\n      add\n      0x00\n      swap1\n      sload\n      swap1\n      0x0100\n      exp\n      swap1\n      div\n      0xffffffffffffffffffffffffffffffffffffffff\n      and\n      swap1\n      dup1\n      0x01\n      add\n      0x00\n      swap1\n      sload\n      swap1\n      0x0100\n      exp\n      swap1\n      div\n      0xffffffffffffffffffffffffffffffffffffffff\n      and\n      swap1\n      dup1\n      0x01\n      add\n      0x14\n      swap1\n      sload\n      swap1\n      0x0100\n      exp\n      swap1\n      div\n      0xff\n      and\n      swap1\n      dup1\n      0x01\n      add\n      0x15\n      swap1\n      sload\n      swap1\n      0x0100\n      exp\n      swap1\n      div\n      0xff\n      and\n      swap1\n      pop\n      dup5\n      jump\t// out\n        /* \"src/KipuBank.sol\":8682:8874  function addAdmin(address _admin) external onlyOwner {... */\n    tag_110:\n        /* \"@openzeppelin/contracts/access/Ownable.sol\":1531:1544  _checkOwner() */\n      tag_266\n        /* \"@openzeppelin/contracts/access/Ownable.sol\":1531:1542  _checkOwner */\n      tag_196\n        /* \"@openzeppelin/contracts/access/Ownable.sol\":1531:1544  _checkOwner() */\n      jump\t// in\n    tag_266:\n        /* \"src/KipuBank.sol\":8768:8769  0 */\n      0x00\n        /* \"src/KipuBank.sol\":8750:8770  _admin == address(0) */\n      0xffffffffffffffffffffffffffffffffffffffff\n      and\n        /* \"src/KipuBank.sol\":8750:8756  _admin */\n      dup2\n        /* \"src/KipuBank.sol\":8750:8770  _admin == address(0) */\n      0xffffffffffffffffffffffffffffffffffffffff\n      and\n      sub\n        /* \"src/KipuBank.sol\":8746:8800  if (_admin == address(0)) revert InvalidTokenAddress() */\n      tag_268\n      jumpi\n        /* \"src/KipuBank.sol\":8779:8800  InvalidTokenAddress() */\n      mload(0x40)\n      0x1eb00b0600000000000000000000000000000000000000000000000000000000\n      dup2\n      mstore\n      0x04\n      add\n      mload(0x40)\n      dup1\n      swap2\n      sub\n      swap1\n      revert\n        /* \"src/KipuBank.sol\":8746:8800  if (_admin == address(0)) revert InvalidTokenAddress() */\n    tag_268:\n        /* \"src/KipuBank.sol\":8828:8832  true */\n      0x01\n        /* \"src/KipuBank.sol\":8811:8817  admins */\n      0x08\n        /* \"src/KipuBank.sol\":8811:8825  admins[_admin] */\n      0x00\n        /* \"src/KipuBank.sol\":8818:8824  _admin */\n      dup4\n        /* \"src/KipuBank.sol\":8811:8825  admins[_admin] */\n      0xffffffffffffffffffffffffffffffffffffffff\n      and\n      0xffffffffffffffffffffffffffffffffffffffff\n      and\n      dup2\n      mstore\n      0x20\n      add\n      swap1\n      dup2\n      mstore\n      0x20\n      add\n      0x00\n      keccak256\n      0x00\n        /* \"src/KipuBank.sol\":8811:8832  admins[_admin] = true */\n      0x0100\n      exp\n      dup2\n      sload\n      dup2\n      0xff\n      mul\n      not\n      and\n      swap1\n      dup4\n      iszero\n      iszero\n      mul\n      or\n      swap1\n      sstore\n      pop\n        /* \"src/KipuBank.sol\":8859:8865  _admin */\n      dup1\n        /* \"src/KipuBank.sol\":8848:8866  AdminAdded(_admin) */\n      0xffffffffffffffffffffffffffffffffffffffff\n      and\n      0x44d6d25963f097ad14f29f06854a01f575648a1ef82f30e562ccd3889717e339\n      mload(0x40)\n      mload(0x40)\n      dup1\n      swap2\n      sub\n      swap1\n      log2\n        /* \"src/KipuBank.sol\":8682:8874  function addAdmin(address _admin) external onlyOwner {... */\n      pop\n      jump\t// out\n        /* \"@openzeppelin/contracts/access/Ownable.sol\":2293:2394  function renounceOwnership() public virtual onlyOwner {... */\n    tag_113:\n        /* \"@openzeppelin/contracts/access/Ownable.sol\":1531:1544  _checkOwner() */\n      tag_270\n        /* \"@openzeppelin/contracts/access/Ownable.sol\":1531:1542  _checkOwner */\n      tag_196\n        /* \"@openzeppelin/contracts/access/Ownable.sol\":1531:1544  _checkOwner() */\n      jump\t// in\n    tag_270:\n        /* \"@openzeppelin/contracts/access/Ownable.sol\":2357:2387  _transferOwnership(address(0)) */\n      tag_272\n        /* \"@openzeppelin/contracts/access/Ownable.sol\":2384:2385  0 */\n      0x00\n        /* \"@openzeppelin/contracts/access/Ownable.sol\":2357:2375  _transferOwnership */\n      tag_273\n        /* \"@openzeppelin/contracts/access/Ownable.sol\":2357:2387  _transferOwnership(address(0)) */\n      jump\t// in\n    tag_272:\n        /* \"@openzeppelin/contracts/access/Ownable.sol\":2293:2394  function renounceOwnership() public virtual onlyOwner {... */\n      jump\t// out\n        /* \"src/KipuBank.sol\":1519:1560  uint256 public immutable WITHDRAWAL_LIMIT */\n    tag_116:\n      immutable(\"0x6357266b9d53c0f9af6b7cc53f59dc85b165702d9398eebfa95f674cadfbd638\")\n      dup2\n      jump\t// out\n        /* \"src/KipuBank.sol\":13826:13953  function getRemainingCapacity() external view returns (uint256) {... */\n    tag_120:\n        /* \"src/KipuBank.sol\":13881:13888  uint256 */\n      0x00\n        /* \"src/KipuBank.sol\":13928:13945  totalDepositedUSD */\n      sload(0x05)\n        /* \"src/KipuBank.sol\":13908:13925  BANK_CAPACITY_USD */\n      immutable(\"0x3a2a6f4e0dcd4611e0c200ca45f55d44b54b380ac384ae0bef4a36eff139c211\")\n        /* \"src/KipuBank.sol\":13908:13945  BANK_CAPACITY_USD - totalDepositedUSD */\n      tag_275\n      swap2\n      swap1\n      tag_232\n      jump\t// in\n    tag_275:\n        /* \"src/KipuBank.sol\":13901:13945  return BANK_CAPACITY_USD - totalDepositedUSD */\n      swap1\n      pop\n        /* \"src/KipuBank.sol\":13826:13953  function getRemainingCapacity() external view returns (uint256) {... */\n      swap1\n      jump\t// out\n        /* \"@openzeppelin/contracts/access/Ownable.sol\":1638:1723  function owner() public view virtual returns (address) {... */\n    tag_124:\n        /* \"@openzeppelin/contracts/access/Ownable.sol\":1684:1691  address */\n      0x00\n        /* \"@openzeppelin/contracts/access/Ownable.sol\":1710:1716  _owner */\n      0x00\n      0x00\n      swap1\n      sload\n      swap1\n      0x0100\n      exp\n      swap1\n      div\n      0xffffffffffffffffffffffffffffffffffffffff\n      and\n        /* \"@openzeppelin/contracts/access/Ownable.sol\":1703:1716  return _owner */\n      swap1\n      pop\n        /* \"@openzeppelin/contracts/access/Ownable.sol\":1638:1723  function owner() public view virtual returns (address) {... */\n      swap1\n      jump\t// out\n        /* \"src/KipuBank.sol\":2748:2777  address[] public activeTokens */\n    tag_131:\n      0x07\n      dup2\n      dup2\n      sload\n      dup2\n      lt\n      tag_277\n      jumpi\n      0x00\n      dup1\n      revert\n    tag_277:\n      swap1\n      0x00\n      mstore\n      keccak256(0x00, 0x20)\n      add\n      0x00\n      swap2\n      pop\n      sload\n      swap1\n      0x0100\n      exp\n      swap1\n      div\n      0xffffffffffffffffffffffffffffffffffffffff\n      and\n      dup2\n      jump\t// out\n        /* \"src/KipuBank.sol\":1335:1383  address public constant ETH_ADDRESS = address(0) */\n    tag_135:\n        /* \"src/KipuBank.sol\":1381:1382  0 */\n      0x00\n        /* \"src/KipuBank.sol\":1335:1383  address public constant ETH_ADDRESS = address(0) */\n      dup2\n      jump\t// out\n        /* \"src/KipuBank.sol\":2645:2686  AggregatorV3Interface public ethPriceFeed */\n    tag_139:\n      0x06\n      0x00\n      swap1\n      sload\n      swap1\n      0x0100\n      exp\n      swap1\n      div\n      0xffffffffffffffffffffffffffffffffffffffff\n      and\n      dup2\n      jump\t// out\n        /* \"src/KipuBank.sol\":1746:1789  uint8 public constant INTERNAL_DECIMALS = 6 */\n    tag_144:\n        /* \"src/KipuBank.sol\":1788:1789  6 */\n      0x06\n        /* \"src/KipuBank.sol\":1746:1789  uint8 public constant INTERNAL_DECIMALS = 6 */\n      dup2\n      jump\t// out\n        /* \"src/KipuBank.sol\":13338:13728  function getAllBalances(address _user)... */\n    tag_150:\n        /* \"src/KipuBank.sol\":13427:13450  address[] memory tokens */\n      0x60\n        /* \"src/KipuBank.sol\":13452:13477  uint256[] memory balances */\n      dup1\n        /* \"src/KipuBank.sol\":13504:13516  activeTokens */\n      0x07\n        /* \"src/KipuBank.sol\":13495:13516  tokens = activeTokens */\n      dup1\n      sload\n      dup1\n      0x20\n      mul\n      0x20\n      add\n      mload(0x40)\n      swap1\n      dup2\n      add\n      0x40\n      mstore\n      dup1\n      swap3\n      swap2\n      swap1\n      dup2\n      dup2\n      mstore\n      0x20\n      add\n      dup3\n      dup1\n      sload\n      dup1\n      iszero\n      tag_280\n      jumpi\n      0x20\n      mul\n      dup3\n      add\n      swap2\n      swap1\n      0x00\n      mstore\n      keccak256(0x00, 0x20)\n      swap1\n    tag_281:\n      dup2\n      0x00\n      swap1\n      sload\n      swap1\n      0x0100\n      exp\n      swap1\n      div\n      0xffffffffffffffffffffffffffffffffffffffff\n      and\n      0xffffffffffffffffffffffffffffffffffffffff\n      and\n      dup2\n      mstore\n      0x20\n      add\n      swap1\n      0x01\n      add\n      swap1\n      dup1\n      dup4\n      gt\n      tag_281\n      jumpi\n    tag_280:\n      pop\n      pop\n      pop\n      pop\n      pop\n      swap2\n      pop\n        /* \"src/KipuBank.sol\":13552:13564  activeTokens */\n      0x07\n        /* \"src/KipuBank.sol\":13552:13571  activeTokens.length */\n      dup1\n      sload\n      swap1\n      pop\n        /* \"src/KipuBank.sol\":13538:13572  new uint256[](activeTokens.length) */\n      0xffffffffffffffff\n      dup2\n      gt\n      iszero\n      tag_282\n      jumpi\n      tag_283\n      tag_284\n      jump\t// in\n    tag_283:\n    tag_282:\n      mload(0x40)\n      swap1\n      dup1\n      dup3\n      mstore\n      dup1\n      0x20\n      mul\n      0x20\n      add\n      dup3\n      add\n      0x40\n      mstore\n      dup1\n      iszero\n      tag_285\n      jumpi\n      dup2\n      0x20\n      add\n      0x20\n      dup3\n      mul\n      dup1\n      calldatasize\n      dup4\n      calldatacopy\n      dup1\n      dup3\n      add\n      swap2\n      pop\n      pop\n      swap1\n      pop\n    tag_285:\n      pop\n        /* \"src/KipuBank.sol\":13527:13572  balances = new uint256[](activeTokens.length) */\n      swap1\n      pop\n        /* \"src/KipuBank.sol\":13590:13599  uint256 i */\n      0x00\n        /* \"src/KipuBank.sol\":13602:13603  0 */\n      0x00\n        /* \"src/KipuBank.sol\":13590:13603  uint256 i = 0 */\n      swap1\n      pop\n        /* \"src/KipuBank.sol\":13585:13721  for (uint256 i = 0; i < activeTokens.length; ++i) {... */\n    tag_286:\n        /* \"src/KipuBank.sol\":13609:13621  activeTokens */\n      0x07\n        /* \"src/KipuBank.sol\":13609:13628  activeTokens.length */\n      dup1\n      sload\n      swap1\n      pop\n        /* \"src/KipuBank.sol\":13605:13606  i */\n      dup2\n        /* \"src/KipuBank.sol\":13605:13628  i < activeTokens.length */\n      lt\n        /* \"src/KipuBank.sol\":13585:13721  for (uint256 i = 0; i < activeTokens.length; ++i) {... */\n      iszero\n      tag_287\n      jumpi\n        /* \"src/KipuBank.sol\":13664:13676  userBalances */\n      0x01\n        /* \"src/KipuBank.sol\":13664:13683  userBalances[_user] */\n      0x00\n        /* \"src/KipuBank.sol\":13677:13682  _user */\n      dup6\n        /* \"src/KipuBank.sol\":13664:13683  userBalances[_user] */\n      0xffffffffffffffffffffffffffffffffffffffff\n      and\n      0xffffffffffffffffffffffffffffffffffffffff\n      and\n      dup2\n      mstore\n      0x20\n      add\n      swap1\n      dup2\n      mstore\n      0x20\n      add\n      0x00\n      keccak256\n        /* \"src/KipuBank.sol\":13664:13692  userBalances[_user].balances */\n      0x00\n      add\n        /* \"src/KipuBank.sol\":13664:13709  userBalances[_user].balances[activeTokens[i]] */\n      0x00\n        /* \"src/KipuBank.sol\":13693:13705  activeTokens */\n      0x07\n        /* \"src/KipuBank.sol\":13706:13707  i */\n      dup4\n        /* \"src/KipuBank.sol\":13693:13708  activeTokens[i] */\n      dup2\n      sload\n      dup2\n      lt\n      tag_289\n      jumpi\n      tag_290\n      tag_291\n      jump\t// in\n    tag_290:\n    tag_289:\n      swap1\n      0x00\n      mstore\n      keccak256(0x00, 0x20)\n      add\n      0x00\n      swap1\n      sload\n      swap1\n      0x0100\n      exp\n      swap1\n      div\n      0xffffffffffffffffffffffffffffffffffffffff\n      and\n        /* \"src/KipuBank.sol\":13664:13709  userBalances[_user].balances[activeTokens[i]] */\n      0xffffffffffffffffffffffffffffffffffffffff\n      and\n      0xffffffffffffffffffffffffffffffffffffffff\n      and\n      dup2\n      mstore\n      0x20\n      add\n      swap1\n      dup2\n      mstore\n      0x20\n      add\n      0x00\n      keccak256\n      sload\n        /* \"src/KipuBank.sol\":13650:13658  balances */\n      dup3\n        /* \"src/KipuBank.sol\":13659:13660  i */\n      dup3\n        /* \"src/KipuBank.sol\":13650:13661  balances[i] */\n      dup2\n      mload\n      dup2\n      lt\n      tag_293\n      jumpi\n      tag_294\n      tag_291\n      jump\t// in\n    tag_294:\n    tag_293:\n      0x20\n      mul\n      0x20\n      add\n      add\n        /* \"src/KipuBank.sol\":13650:13709  balances[i] = userBalances[_user].balances[activeTokens[i]] */\n      dup2\n      dup2\n      mstore\n      pop\n      pop\n        /* \"src/KipuBank.sol\":13630:13633  ++i */\n      dup1\n      0x01\n      add\n      swap1\n      pop\n        /* \"src/KipuBank.sol\":13585:13721  for (uint256 i = 0; i < activeTokens.length; ++i) {... */\n      jump(tag_286)\n    tag_287:\n      pop\n        /* \"src/KipuBank.sol\":13338:13728  function getAllBalances(address _user)... */\n      swap2\n      pop\n      swap2\n      jump\t// out\n        /* \"src/KipuBank.sol\":12487:12693  function getBalance(address _user, address _token)... */\n    tag_156:\n        /* \"src/KipuBank.sol\":12617:12624  uint256 */\n      0x00\n        /* \"src/KipuBank.sol\":12591:12597  _token */\n      dup2\n        /* \"src/KipuBank.sol\":5698:5713  supportedTokens */\n      0x02\n        /* \"src/KipuBank.sol\":5698:5720  supportedTokens[token] */\n      0x00\n        /* \"src/KipuBank.sol\":5714:5719  token */\n      dup3\n        /* \"src/KipuBank.sol\":5698:5720  supportedTokens[token] */\n      0xffffffffffffffffffffffffffffffffffffffff\n      and\n      0xffffffffffffffffffffffffffffffffffffffff\n      and\n      dup2\n      mstore\n      0x20\n      add\n      swap1\n      dup2\n      mstore\n      0x20\n      add\n      0x00\n      keccak256\n        /* \"src/KipuBank.sol\":5698:5729  supportedTokens[token].isActive */\n      0x01\n      add\n      0x15\n      swap1\n      sload\n      swap1\n      0x0100\n      exp\n      swap1\n      div\n      0xff\n      and\n        /* \"src/KipuBank.sol\":5693:5789  if (!supportedTokens[token].isActive) {... */\n      tag_296\n      jumpi\n        /* \"src/KipuBank.sol\":5771:5776  token */\n      dup1\n        /* \"src/KipuBank.sol\":5753:5777  TokenNotSupported(token) */\n      mload(0x40)\n      0x06439c6b00000000000000000000000000000000000000000000000000000000\n      dup2\n      mstore\n      0x04\n      add\n      tag_297\n      swap2\n      swap1\n      tag_126\n      jump\t// in\n    tag_297:\n      mload(0x40)\n      dup1\n      swap2\n      sub\n      swap1\n      revert\n        /* \"src/KipuBank.sol\":5693:5789  if (!supportedTokens[token].isActive) {... */\n    tag_296:\n        /* \"src/KipuBank.sol\":12649:12661  userBalances */\n      0x01\n        /* \"src/KipuBank.sol\":12649:12668  userBalances[_user] */\n      0x00\n        /* \"src/KipuBank.sol\":12662:12667  _user */\n      dup6\n        /* \"src/KipuBank.sol\":12649:12668  userBalances[_user] */\n      0xffffffffffffffffffffffffffffffffffffffff\n      and\n      0xffffffffffffffffffffffffffffffffffffffff\n      and\n      dup2\n      mstore\n      0x20\n      add\n      swap1\n      dup2\n      mstore\n      0x20\n      add\n      0x00\n      keccak256\n        /* \"src/KipuBank.sol\":12649:12677  userBalances[_user].balances */\n      0x00\n      add\n        /* \"src/KipuBank.sol\":12649:12685  userBalances[_user].balances[_token] */\n      0x00\n        /* \"src/KipuBank.sol\":12678:12684  _token */\n      dup5\n        /* \"src/KipuBank.sol\":12649:12685  userBalances[_user].balances[_token] */\n      0xffffffffffffffffffffffffffffffffffffffff\n      and\n      0xffffffffffffffffffffffffffffffffffffffff\n      and\n      dup2\n      mstore\n      0x20\n      add\n      swap1\n      dup2\n      mstore\n      0x20\n      add\n      0x00\n      keccak256\n      sload\n        /* \"src/KipuBank.sol\":12642:12685  return userBalances[_user].balances[_token] */\n      swap2\n      pop\n        /* \"src/KipuBank.sol\":12487:12693  function getBalance(address _user, address _token)... */\n      pop\n      swap3\n      swap2\n      pop\n      pop\n      jump\t// out\n        /* \"src/KipuBank.sol\":12867:13135  function getBalanceUSD(address _user, address _token)... */\n    tag_161:\n        /* \"src/KipuBank.sol\":13000:13007  uint256 */\n      0x00\n        /* \"src/KipuBank.sol\":12974:12980  _token */\n      dup2\n        /* \"src/KipuBank.sol\":5698:5713  supportedTokens */\n      0x02\n        /* \"src/KipuBank.sol\":5698:5720  supportedTokens[token] */\n      0x00\n        /* \"src/KipuBank.sol\":5714:5719  token */\n      dup3\n        /* \"src/KipuBank.sol\":5698:5720  supportedTokens[token] */\n      0xffffffffffffffffffffffffffffffffffffffff\n      and\n      0xffffffffffffffffffffffffffffffffffffffff\n      and\n      dup2\n      mstore\n      0x20\n      add\n      swap1\n      dup2\n      mstore\n      0x20\n      add\n      0x00\n      keccak256\n        /* \"src/KipuBank.sol\":5698:5729  supportedTokens[token].isActive */\n      0x01\n      add\n      0x15\n      swap1\n      sload\n      swap1\n      0x0100\n      exp\n      swap1\n      div\n      0xff\n      and\n        /* \"src/KipuBank.sol\":5693:5789  if (!supportedTokens[token].isActive) {... */\n      tag_300\n      jumpi\n        /* \"src/KipuBank.sol\":5771:5776  token */\n      dup1\n        /* \"src/KipuBank.sol\":5753:5777  TokenNotSupported(token) */\n      mload(0x40)\n      0x06439c6b00000000000000000000000000000000000000000000000000000000\n      dup2\n      mstore\n      0x04\n      add\n      tag_301\n      swap2\n      swap1\n      tag_126\n      jump\t// in\n    tag_301:\n      mload(0x40)\n      dup1\n      swap2\n      sub\n      swap1\n      revert\n        /* \"src/KipuBank.sol\":5693:5789  if (!supportedTokens[token].isActive) {... */\n    tag_300:\n        /* \"src/KipuBank.sol\":13025:13040  uint256 balance */\n      0x00\n        /* \"src/KipuBank.sol\":13043:13055  userBalances */\n      0x01\n        /* \"src/KipuBank.sol\":13043:13062  userBalances[_user] */\n      0x00\n        /* \"src/KipuBank.sol\":13056:13061  _user */\n      dup7\n        /* \"src/KipuBank.sol\":13043:13062  userBalances[_user] */\n      0xffffffffffffffffffffffffffffffffffffffff\n      and\n      0xffffffffffffffffffffffffffffffffffffffff\n      and\n      dup2\n      mstore\n      0x20\n      add\n      swap1\n      dup2\n      mstore\n      0x20\n      add\n      0x00\n      keccak256\n        /* \"src/KipuBank.sol\":13043:13071  userBalances[_user].balances */\n      0x00\n      add\n        /* \"src/KipuBank.sol\":13043:13079  userBalances[_user].balances[_token] */\n      0x00\n        /* \"src/KipuBank.sol\":13072:13078  _token */\n      dup6\n        /* \"src/KipuBank.sol\":13043:13079  userBalances[_user].balances[_token] */\n      0xffffffffffffffffffffffffffffffffffffffff\n      and\n      0xffffffffffffffffffffffffffffffffffffffff\n      and\n      dup2\n      mstore\n      0x20\n      add\n      swap1\n      dup2\n      mstore\n      0x20\n      add\n      0x00\n      keccak256\n      sload\n        /* \"src/KipuBank.sol\":13025:13079  uint256 balance = userBalances[_user].balances[_token] */\n      swap1\n      pop\n        /* \"src/KipuBank.sol\":13097:13127  _convertToUSD(_token, balance) */\n      tag_303\n        /* \"src/KipuBank.sol\":13111:13117  _token */\n      dup5\n        /* \"src/KipuBank.sol\":13119:13126  balance */\n      dup3\n        /* \"src/KipuBank.sol\":13097:13110  _convertToUSD */\n      tag_186\n        /* \"src/KipuBank.sol\":13097:13127  _convertToUSD(_token, balance) */\n      jump\t// in\n    tag_303:\n        /* \"src/KipuBank.sol\":13090:13127  return _convertToUSD(_token, balance) */\n      swap3\n      pop\n      pop\n        /* \"src/KipuBank.sol\":12867:13135  function getBalanceUSD(address _user, address _token)... */\n      pop\n      swap3\n      swap2\n      pop\n      pop\n      jump\t// out\n        /* \"src/KipuBank.sol\":1856:1896  uint256 public constant SCALE = 10 ** 18 */\n    tag_165:\n        /* \"src/KipuBank.sol\":1888:1896  10 ** 18 */\n      0x0de0b6b3a7640000\n        /* \"src/KipuBank.sol\":1856:1896  uint256 public constant SCALE = 10 ** 18 */\n      dup2\n      jump\t// out\n        /* \"src/KipuBank.sol\":2556:2588  uint256 public totalDepositedUSD */\n    tag_169:\n      sload(0x05)\n      dup2\n      jump\t// out\n        /* \"@openzeppelin/contracts/access/Ownable.sol\":2543:2758  function transferOwnership(address newOwner) public virtual onlyOwner {... */\n    tag_174:\n        /* \"@openzeppelin/contracts/access/Ownable.sol\":1531:1544  _checkOwner() */\n      tag_305\n        /* \"@openzeppelin/contracts/access/Ownable.sol\":1531:1542  _checkOwner */\n      tag_196\n        /* \"@openzeppelin/contracts/access/Ownable.sol\":1531:1544  _checkOwner() */\n      jump\t// in\n    tag_305:\n        /* \"@openzeppelin/contracts/access/Ownable.sol\":2647:2648  0 */\n      0x00\n        /* \"@openzeppelin/contracts/access/Ownable.sol\":2627:2649  newOwner == address(0) */\n      0xffffffffffffffffffffffffffffffffffffffff\n      and\n        /* \"@openzeppelin/contracts/access/Ownable.sol\":2627:2635  newOwner */\n      dup2\n        /* \"@openzeppelin/contracts/access/Ownable.sol\":2627:2649  newOwner == address(0) */\n      0xffffffffffffffffffffffffffffffffffffffff\n      and\n      sub\n        /* \"@openzeppelin/contracts/access/Ownable.sol\":2623:2714  if (newOwner == address(0)) {... */\n      tag_307\n      jumpi\n        /* \"@openzeppelin/contracts/access/Ownable.sol\":2700:2701  0 */\n      0x00\n        /* \"@openzeppelin/contracts/access/Ownable.sol\":2672:2703  OwnableInvalidOwner(address(0)) */\n      mload(0x40)\n      0x1e4fbdf700000000000000000000000000000000000000000000000000000000\n      dup2\n      mstore\n      0x04\n      add\n      tag_308\n      swap2\n      swap1\n      tag_126\n      jump\t// in\n    tag_308:\n      mload(0x40)\n      dup1\n      swap2\n      sub\n      swap1\n      revert\n        /* \"@openzeppelin/contracts/access/Ownable.sol\":2623:2714  if (newOwner == address(0)) {... */\n    tag_307:\n        /* \"@openzeppelin/contracts/access/Ownable.sol\":2723:2751  _transferOwnership(newOwner) */\n      tag_309\n        /* \"@openzeppelin/contracts/access/Ownable.sol\":2742:2750  newOwner */\n      dup2\n        /* \"@openzeppelin/contracts/access/Ownable.sol\":2723:2741  _transferOwnership */\n      tag_273\n        /* \"@openzeppelin/contracts/access/Ownable.sol\":2723:2751  _transferOwnership(newOwner) */\n      jump\t// in\n    tag_309:\n        /* \"@openzeppelin/contracts/access/Ownable.sol\":2543:2758  function transferOwnership(address newOwner) public virtual onlyOwner {... */\n      pop\n      jump\t// out\n        /* \"src/KipuBank.sol\":11151:12189  function withdraw(address _token, uint256 _amount)... */\n    tag_178:\n        /* \"src/KipuBank.sol\":11241:11248  _amount */\n      dup1\n        /* \"src/KipuBank.sol\":5490:5491  0 */\n      0x00\n        /* \"src/KipuBank.sol\":5480:5486  amount */\n      dup2\n        /* \"src/KipuBank.sol\":5480:5491  amount == 0 */\n      sub\n        /* \"src/KipuBank.sol\":5476:5542  if (amount == 0) {... */\n      tag_311\n      jumpi\n        /* \"src/KipuBank.sol\":5515:5530  InvalidAmount() */\n      mload(0x40)\n      0x2c5211c600000000000000000000000000000000000000000000000000000000\n      dup2\n      mstore\n      0x04\n      add\n      mload(0x40)\n      dup1\n      swap2\n      sub\n      swap1\n      revert\n        /* \"src/KipuBank.sol\":5476:5542  if (amount == 0) {... */\n    tag_311:\n        /* \"src/KipuBank.sol\":11271:11277  _token */\n      dup3\n        /* \"src/KipuBank.sol\":5698:5713  supportedTokens */\n      0x02\n        /* \"src/KipuBank.sol\":5698:5720  supportedTokens[token] */\n      0x00\n        /* \"src/KipuBank.sol\":5714:5719  token */\n      dup3\n        /* \"src/KipuBank.sol\":5698:5720  supportedTokens[token] */\n      0xffffffffffffffffffffffffffffffffffffffff\n      and\n      0xffffffffffffffffffffffffffffffffffffffff\n      and\n      dup2\n      mstore\n      0x20\n      add\n      swap1\n      dup2\n      mstore\n      0x20\n      add\n      0x00\n      keccak256\n        /* \"src/KipuBank.sol\":5698:5729  supportedTokens[token].isActive */\n      0x01\n      add\n      0x15\n      swap1\n      sload\n      swap1\n      0x0100\n      exp\n      swap1\n      div\n      0xff\n      and\n        /* \"src/KipuBank.sol\":5693:5789  if (!supportedTokens[token].isActive) {... */\n      tag_313\n      jumpi\n        /* \"src/KipuBank.sol\":5771:5776  token */\n      dup1\n        /* \"src/KipuBank.sol\":5753:5777  TokenNotSupported(token) */\n      mload(0x40)\n      0x06439c6b00000000000000000000000000000000000000000000000000000000\n      dup2\n      mstore\n      0x04\n      add\n      tag_314\n      swap2\n      swap1\n      tag_126\n      jump\t// in\n    tag_314:\n      mload(0x40)\n      dup1\n      swap2\n      sub\n      swap1\n      revert\n        /* \"src/KipuBank.sol\":5693:5789  if (!supportedTokens[token].isActive) {... */\n    tag_313:\n        /* \"src/KipuBank.sol\":11295:11314  uint256 userBalance */\n      0x00\n        /* \"src/KipuBank.sol\":11317:11329  userBalances */\n      0x01\n        /* \"src/KipuBank.sol\":11317:11341  userBalances[msg.sender] */\n      0x00\n        /* \"src/KipuBank.sol\":11330:11340  msg.sender */\n      caller\n        /* \"src/KipuBank.sol\":11317:11341  userBalances[msg.sender] */\n      0xffffffffffffffffffffffffffffffffffffffff\n      and\n      0xffffffffffffffffffffffffffffffffffffffff\n      and\n      dup2\n      mstore\n      0x20\n      add\n      swap1\n      dup2\n      mstore\n      0x20\n      add\n      0x00\n      keccak256\n        /* \"src/KipuBank.sol\":11317:11350  userBalances[msg.sender].balances */\n      0x00\n      add\n        /* \"src/KipuBank.sol\":11317:11358  userBalances[msg.sender].balances[_token] */\n      0x00\n        /* \"src/KipuBank.sol\":11351:11357  _token */\n      dup7\n        /* \"src/KipuBank.sol\":11317:11358  userBalances[msg.sender].balances[_token] */\n      0xffffffffffffffffffffffffffffffffffffffff\n      and\n      0xffffffffffffffffffffffffffffffffffffffff\n      and\n      dup2\n      mstore\n      0x20\n      add\n      swap1\n      dup2\n      mstore\n      0x20\n      add\n      0x00\n      keccak256\n      sload\n        /* \"src/KipuBank.sol\":11295:11358  uint256 userBalance = userBalances[msg.sender].balances[_token] */\n      swap1\n      pop\n        /* \"src/KipuBank.sol\":11383:11394  userBalance */\n      dup1\n        /* \"src/KipuBank.sol\":11373:11380  _amount */\n      dup5\n        /* \"src/KipuBank.sol\":11373:11394  _amount > userBalance */\n      gt\n        /* \"src/KipuBank.sol\":11369:11471  if (_amount > userBalance) {... */\n      iszero\n      tag_316\n      jumpi\n        /* \"src/KipuBank.sol\":11438:11445  _amount */\n      dup4\n        /* \"src/KipuBank.sol\":11447:11458  userBalance */\n      dup2\n        /* \"src/KipuBank.sol\":11418:11459  InsufficientBalance(_amount, userBalance) */\n      mload(0x40)\n      0xcf47918100000000000000000000000000000000000000000000000000000000\n      dup2\n      mstore\n      0x04\n      add\n      tag_317\n      swap3\n      swap2\n      swap1\n      tag_192\n      jump\t// in\n    tag_317:\n      mload(0x40)\n      dup1\n      swap2\n      sub\n      swap1\n      revert\n        /* \"src/KipuBank.sol\":11369:11471  if (_amount > userBalance) {... */\n    tag_316:\n        /* \"src/KipuBank.sol\":11483:11500  uint256 amountUSD */\n      0x00\n        /* \"src/KipuBank.sol\":11503:11533  _convertToUSD(_token, _amount) */\n      tag_318\n        /* \"src/KipuBank.sol\":11517:11523  _token */\n      dup7\n        /* \"src/KipuBank.sol\":11525:11532  _amount */\n      dup7\n        /* \"src/KipuBank.sol\":11503:11516  _convertToUSD */\n      tag_186\n        /* \"src/KipuBank.sol\":11503:11533  _convertToUSD(_token, _amount) */\n      jump\t// in\n    tag_318:\n        /* \"src/KipuBank.sol\":11483:11533  uint256 amountUSD = _convertToUSD(_token, _amount) */\n      swap1\n      pop\n        /* \"src/KipuBank.sol\":11560:11576  WITHDRAWAL_LIMIT */\n      immutable(\"0x6357266b9d53c0f9af6b7cc53f59dc85b165702d9398eebfa95f674cadfbd638\")\n        /* \"src/KipuBank.sol\":11548:11557  amountUSD */\n      dup2\n        /* \"src/KipuBank.sol\":11548:11576  amountUSD > WITHDRAWAL_LIMIT */\n      gt\n        /* \"src/KipuBank.sol\":11544:11664  if (amountUSD > WITHDRAWAL_LIMIT) {... */\n      iszero\n      tag_319\n      jumpi\n        /* \"src/KipuBank.sol\":11624:11633  amountUSD */\n      dup1\n        /* \"src/KipuBank.sol\":11635:11651  WITHDRAWAL_LIMIT */\n      immutable(\"0x6357266b9d53c0f9af6b7cc53f59dc85b165702d9398eebfa95f674cadfbd638\")\n        /* \"src/KipuBank.sol\":11600:11652  WithdrawalLimitExceeded(amountUSD, WITHDRAWAL_LIMIT) */\n      mload(0x40)\n      0xb945e2d800000000000000000000000000000000000000000000000000000000\n      dup2\n      mstore\n      0x04\n      add\n      tag_320\n      swap3\n      swap2\n      swap1\n      tag_192\n      jump\t// in\n    tag_320:\n      mload(0x40)\n      dup1\n      swap2\n      sub\n      swap1\n      revert\n        /* \"src/KipuBank.sol\":11544:11664  if (amountUSD > WITHDRAWAL_LIMIT) {... */\n    tag_319:\n        /* \"src/KipuBank.sol\":11746:11753  _amount */\n      dup5\n        /* \"src/KipuBank.sol\":11701:11713  userBalances */\n      0x01\n        /* \"src/KipuBank.sol\":11701:11725  userBalances[msg.sender] */\n      0x00\n        /* \"src/KipuBank.sol\":11714:11724  msg.sender */\n      caller\n        /* \"src/KipuBank.sol\":11701:11725  userBalances[msg.sender] */\n      0xffffffffffffffffffffffffffffffffffffffff\n      and\n      0xffffffffffffffffffffffffffffffffffffffff\n      and\n      dup2\n      mstore\n      0x20\n      add\n      swap1\n      dup2\n      mstore\n      0x20\n      add\n      0x00\n      keccak256\n        /* \"src/KipuBank.sol\":11701:11734  userBalances[msg.sender].balances */\n      0x00\n      add\n        /* \"src/KipuBank.sol\":11701:11742  userBalances[msg.sender].balances[_token] */\n      0x00\n        /* \"src/KipuBank.sol\":11735:11741  _token */\n      dup9\n        /* \"src/KipuBank.sol\":11701:11742  userBalances[msg.sender].balances[_token] */\n      0xffffffffffffffffffffffffffffffffffffffff\n      and\n      0xffffffffffffffffffffffffffffffffffffffff\n      and\n      dup2\n      mstore\n      0x20\n      add\n      swap1\n      dup2\n      mstore\n      0x20\n      add\n      0x00\n      keccak256\n      0x00\n        /* \"src/KipuBank.sol\":11701:11753  userBalances[msg.sender].balances[_token] -= _amount */\n      dup3\n      dup3\n      sload\n      sub\n      swap3\n      pop\n      pop\n      dup2\n      swap1\n      sstore\n      pop\n        /* \"src/KipuBank.sol\":11768:11783  withdrawalCount */\n      0x04\n        /* \"src/KipuBank.sol\":11768:11795  withdrawalCount[msg.sender] */\n      0x00\n        /* \"src/KipuBank.sol\":11784:11794  msg.sender */\n      caller\n        /* \"src/KipuBank.sol\":11768:11795  withdrawalCount[msg.sender] */\n      0xffffffffffffffffffffffffffffffffffffffff\n      and\n      0xffffffffffffffffffffffffffffffffffffffff\n      and\n      dup2\n      mstore\n      0x20\n      add\n      swap1\n      dup2\n      mstore\n      0x20\n      add\n      0x00\n      keccak256\n        /* \"src/KipuBank.sol\":11768:11803  withdrawalCount[msg.sender][_token] */\n      0x00\n        /* \"src/KipuBank.sol\":11796:11802  _token */\n      dup8\n        /* \"src/KipuBank.sol\":11768:11803  withdrawalCount[msg.sender][_token] */\n      0xffffffffffffffffffffffffffffffffffffffff\n      and\n      0xffffffffffffffffffffffffffffffffffffffff\n      and\n      dup2\n      mstore\n      0x20\n      add\n      swap1\n      dup2\n      mstore\n      0x20\n      add\n      0x00\n      keccak256\n      0x00\n        /* \"src/KipuBank.sol\":11768:11805  withdrawalCount[msg.sender][_token]++ */\n      dup2\n      sload\n      dup1\n      swap3\n      swap2\n      swap1\n      0x01\n      add\n      swap2\n      swap1\n      pop\n      sstore\n      pop\n        /* \"src/KipuBank.sol\":11841:11850  amountUSD */\n      dup1\n        /* \"src/KipuBank.sol\":11820:11837  totalDepositedUSD */\n      0x05\n      0x00\n        /* \"src/KipuBank.sol\":11820:11850  totalDepositedUSD -= amountUSD */\n      dup3\n      dup3\n      sload\n      sub\n      swap3\n      pop\n      pop\n      dup2\n      swap1\n      sstore\n      pop\n        /* \"src/KipuBank.sol\":11901:11907  _token */\n      dup6\n        /* \"src/KipuBank.sol\":11879:11928  Withdrawn(msg.sender, _token, _amount, amountUSD) */\n      0xffffffffffffffffffffffffffffffffffffffff\n      and\n        /* \"src/KipuBank.sol\":11889:11899  msg.sender */\n      caller\n        /* \"src/KipuBank.sol\":11879:11928  Withdrawn(msg.sender, _token, _amount, amountUSD) */\n      0xffffffffffffffffffffffffffffffffffffffff\n      and\n      0x91fb9d98b786c57d74c099ccd2beca1739e9f6a81fb49001ca465c4b7591bbe2\n        /* \"src/KipuBank.sol\":11909:11916  _amount */\n      dup8\n        /* \"src/KipuBank.sol\":11918:11927  amountUSD */\n      dup5\n        /* \"src/KipuBank.sol\":11879:11928  Withdrawn(msg.sender, _token, _amount, amountUSD) */\n      mload(0x40)\n      tag_321\n      swap3\n      swap2\n      swap1\n      tag_192\n      jump\t// in\n    tag_321:\n      mload(0x40)\n      dup1\n      swap2\n      sub\n      swap1\n      log3\n        /* \"src/KipuBank.sol\":1381:1382  0 */\n      0x00\n        /* \"src/KipuBank.sol\":11945:11966  _token == ETH_ADDRESS */\n      0xffffffffffffffffffffffffffffffffffffffff\n      and\n        /* \"src/KipuBank.sol\":11945:11951  _token */\n      dup7\n        /* \"src/KipuBank.sol\":11945:11966  _token == ETH_ADDRESS */\n      0xffffffffffffffffffffffffffffffffffffffff\n      and\n      sub\n        /* \"src/KipuBank.sol\":11941:12182  if (_token == ETH_ADDRESS) {... */\n      tag_322\n      jumpi\n        /* \"src/KipuBank.sol\":11984:11996  bool success */\n      0x00\n        /* \"src/KipuBank.sol\":12002:12012  msg.sender */\n      caller\n        /* \"src/KipuBank.sol\":12002:12017  msg.sender.call */\n      0xffffffffffffffffffffffffffffffffffffffff\n      and\n        /* \"src/KipuBank.sol\":12025:12032  _amount */\n      dup7\n        /* \"src/KipuBank.sol\":12002:12037  msg.sender.call{value: _amount}(\"\") */\n      mload(0x40)\n      tag_323\n      swap1\n      tag_324\n      jump\t// in\n    tag_323:\n      0x00\n      mload(0x40)\n      dup1\n      dup4\n      sub\n      dup2\n      dup6\n      dup8\n      gas\n      call\n      swap3\n      pop\n      pop\n      pop\n      returndatasize\n      dup1\n      0x00\n      dup2\n      eq\n      tag_327\n      jumpi\n      mload(0x40)\n      swap2\n      pop\n      and(add(returndatasize, 0x3f), not(0x1f))\n      dup3\n      add\n      0x40\n      mstore\n      returndatasize\n      dup3\n      mstore\n      returndatasize\n      0x00\n      0x20\n      dup5\n      add\n      returndatacopy\n      jump(tag_326)\n    tag_327:\n      0x60\n      swap2\n      pop\n    tag_326:\n      pop\n        /* \"src/KipuBank.sol\":11983:12037  (bool success, ) = msg.sender.call{value: _amount}(\"\") */\n      pop\n      swap1\n      pop\n        /* \"src/KipuBank.sol\":12057:12064  success */\n      dup1\n        /* \"src/KipuBank.sol\":12052:12089  if (!success) revert TransferFailed() */\n      tag_328\n      jumpi\n        /* \"src/KipuBank.sol\":12073:12089  TransferFailed() */\n      mload(0x40)\n      0x90b8ec1800000000000000000000000000000000000000000000000000000000\n      dup2\n      mstore\n      0x04\n      add\n      mload(0x40)\n      dup1\n      swap2\n      sub\n      swap1\n      revert\n        /* \"src/KipuBank.sol\":12052:12089  if (!success) revert TransferFailed() */\n    tag_328:\n        /* \"src/KipuBank.sol\":11968:12101  {... */\n      pop\n        /* \"src/KipuBank.sol\":11941:12182  if (_token == ETH_ADDRESS) {... */\n      jump(tag_329)\n    tag_322:\n        /* \"src/KipuBank.sol\":12122:12170  IERC20(_token).safeTransfer(msg.sender, _amount) */\n      tag_330\n        /* \"src/KipuBank.sol\":12150:12160  msg.sender */\n      caller\n        /* \"src/KipuBank.sol\":12162:12169  _amount */\n      dup7\n        /* \"src/KipuBank.sol\":12129:12135  _token */\n      dup9\n        /* \"src/KipuBank.sol\":12122:12149  IERC20(_token).safeTransfer */\n      0xffffffffffffffffffffffffffffffffffffffff\n      and\n      tag_331\n      swap1\n        /* \"src/KipuBank.sol\":12122:12170  IERC20(_token).safeTransfer(msg.sender, _amount) */\n      swap3\n      swap2\n      swap1\n      0xffffffff\n      and\n      jump\t// in\n    tag_330:\n        /* \"src/KipuBank.sol\":11941:12182  if (_token == ETH_ADDRESS) {... */\n    tag_329:\n        /* \"src/KipuBank.sol\":11284:12189  {... */\n      pop\n      pop\n        /* \"src/KipuBank.sol\":5552:5553  _ */\n      pop\n        /* \"src/KipuBank.sol\":11151:12189  function withdraw(address _token, uint256 _amount)... */\n      pop\n      pop\n      pop\n      jump\t// out\n        /* \"src/KipuBank.sol\":9330:9460  function depositETH() external payable validAmount(msg.value) {... */\n    tag_180:\n        /* \"src/KipuBank.sol\":9381:9390  msg.value */\n      callvalue\n        /* \"src/KipuBank.sol\":5490:5491  0 */\n      0x00\n        /* \"src/KipuBank.sol\":5480:5486  amount */\n      dup2\n        /* \"src/KipuBank.sol\":5480:5491  amount == 0 */\n      sub\n        /* \"src/KipuBank.sol\":5476:5542  if (amount == 0) {... */\n      tag_333\n      jumpi\n        /* \"src/KipuBank.sol\":5515:5530  InvalidAmount() */\n      mload(0x40)\n      0x2c5211c600000000000000000000000000000000000000000000000000000000\n      dup2\n      mstore\n      0x04\n      add\n      mload(0x40)\n      dup1\n      swap2\n      sub\n      swap1\n      revert\n        /* \"src/KipuBank.sol\":5476:5542  if (amount == 0) {... */\n    tag_333:\n        /* \"src/KipuBank.sol\":9403:9452  _depositToken(msg.sender, ETH_ADDRESS, msg.value) */\n      tag_335\n        /* \"src/KipuBank.sol\":9417:9427  msg.sender */\n      caller\n        /* \"src/KipuBank.sol\":1381:1382  0 */\n      0x00\n        /* \"src/KipuBank.sol\":9442:9451  msg.value */\n      callvalue\n        /* \"src/KipuBank.sol\":9403:9416  _depositToken */\n      tag_43\n        /* \"src/KipuBank.sol\":9403:9452  _depositToken(msg.sender, ETH_ADDRESS, msg.value) */\n      jump\t// in\n    tag_335:\n        /* \"src/KipuBank.sol\":9330:9460  function depositETH() external payable validAmount(msg.value) {... */\n      pop\n      jump\t// out\n        /* \"src/KipuBank.sol\":14696:15589  function _convertToUSD(address _token, uint256 _amount)... */\n    tag_186:\n        /* \"src/KipuBank.sol\":14830:14837  uint256 */\n      0x00\n        /* \"src/KipuBank.sol\":14804:14810  _token */\n      dup3\n        /* \"src/KipuBank.sol\":5698:5713  supportedTokens */\n      0x02\n        /* \"src/KipuBank.sol\":5698:5720  supportedTokens[token] */\n      0x00\n        /* \"src/KipuBank.sol\":5714:5719  token */\n      dup3\n        /* \"src/KipuBank.sol\":5698:5720  supportedTokens[token] */\n      0xffffffffffffffffffffffffffffffffffffffff\n      and\n      0xffffffffffffffffffffffffffffffffffffffff\n      and\n      dup2\n      mstore\n      0x20\n      add\n      swap1\n      dup2\n      mstore\n      0x20\n      add\n      0x00\n      keccak256\n        /* \"src/KipuBank.sol\":5698:5729  supportedTokens[token].isActive */\n      0x01\n      add\n      0x15\n      swap1\n      sload\n      swap1\n      0x0100\n      exp\n      swap1\n      div\n      0xff\n      and\n        /* \"src/KipuBank.sol\":5693:5789  if (!supportedTokens[token].isActive) {... */\n      tag_337\n      jumpi\n        /* \"src/KipuBank.sol\":5771:5776  token */\n      dup1\n        /* \"src/KipuBank.sol\":5753:5777  TokenNotSupported(token) */\n      mload(0x40)\n      0x06439c6b00000000000000000000000000000000000000000000000000000000\n      dup2\n      mstore\n      0x04\n      add\n      tag_338\n      swap2\n      swap1\n      tag_126\n      jump\t// in\n    tag_338:\n      mload(0x40)\n      dup1\n      swap2\n      sub\n      swap1\n      revert\n        /* \"src/KipuBank.sol\":5693:5789  if (!supportedTokens[token].isActive) {... */\n    tag_337:\n        /* \"src/KipuBank.sol\":14870:14871  0 */\n      0x00\n        /* \"src/KipuBank.sol\":14859:14866  _amount */\n      dup4\n        /* \"src/KipuBank.sol\":14859:14871  _amount == 0 */\n      sub\n        /* \"src/KipuBank.sol\":14855:14881  if (_amount == 0) return 0 */\n      tag_340\n      jumpi\n        /* \"src/KipuBank.sol\":14880:14881  0 */\n      0x00\n        /* \"src/KipuBank.sol\":14873:14881  return 0 */\n      swap2\n      pop\n      jump(tag_339)\n        /* \"src/KipuBank.sol\":14855:14881  if (_amount == 0) return 0 */\n    tag_340:\n        /* \"src/KipuBank.sol\":14894:14915  TokenInfo memory info */\n      0x00\n        /* \"src/KipuBank.sol\":14918:14933  supportedTokens */\n      0x02\n        /* \"src/KipuBank.sol\":14918:14941  supportedTokens[_token] */\n      0x00\n        /* \"src/KipuBank.sol\":14934:14940  _token */\n      dup7\n        /* \"src/KipuBank.sol\":14918:14941  supportedTokens[_token] */\n      0xffffffffffffffffffffffffffffffffffffffff\n      and\n      0xffffffffffffffffffffffffffffffffffffffff\n      and\n      dup2\n      mstore\n      0x20\n      add\n      swap1\n      dup2\n      mstore\n      0x20\n      add\n      0x00\n      keccak256\n        /* \"src/KipuBank.sol\":14894:14941  TokenInfo memory info = supportedTokens[_token] */\n      mload(0x40)\n      dup1\n      0x80\n      add\n      0x40\n      mstore\n      swap1\n      dup2\n      0x00\n      dup3\n      add\n      0x00\n      swap1\n      sload\n      swap1\n      0x0100\n      exp\n      swap1\n      div\n      0xffffffffffffffffffffffffffffffffffffffff\n      and\n      0xffffffffffffffffffffffffffffffffffffffff\n      and\n      0xffffffffffffffffffffffffffffffffffffffff\n      and\n      dup2\n      mstore\n      0x20\n      add\n      0x01\n      dup3\n      add\n      0x00\n      swap1\n      sload\n      swap1\n      0x0100\n      exp\n      swap1\n      div\n      0xffffffffffffffffffffffffffffffffffffffff\n      and\n      0xffffffffffffffffffffffffffffffffffffffff\n      and\n      0xffffffffffffffffffffffffffffffffffffffff\n      and\n      dup2\n      mstore\n      0x20\n      add\n      0x01\n      dup3\n      add\n      0x14\n      swap1\n      sload\n      swap1\n      0x0100\n      exp\n      swap1\n      div\n      0xff\n      and\n      0xff\n      and\n      0xff\n      and\n      dup2\n      mstore\n      0x20\n      add\n      0x01\n      dup3\n      add\n      0x15\n      swap1\n      sload\n      swap1\n      0x0100\n      exp\n      swap1\n      div\n      0xff\n      and\n      iszero\n      iszero\n      iszero\n      iszero\n      dup2\n      mstore\n      pop\n      pop\n      swap1\n      pop\n        /* \"src/KipuBank.sol\":14952:14983  AggregatorV3Interface priceFeed */\n      0x00\n        /* \"src/KipuBank.sol\":15008:15012  info */\n      dup2\n        /* \"src/KipuBank.sol\":15008:15022  info.priceFeed */\n      0x00\n      add\n      mload\n        /* \"src/KipuBank.sol\":14952:15023  AggregatorV3Interface priceFeed = AggregatorV3Interface(info.priceFeed) */\n      swap1\n      pop\n        /* \"src/KipuBank.sol\":15039:15051  int256 price */\n      0x00\n        /* \"src/KipuBank.sol\":15061:15070  priceFeed */\n      dup2\n        /* \"src/KipuBank.sol\":15061:15086  priceFeed.latestRoundData */\n      0xffffffffffffffffffffffffffffffffffffffff\n      and\n      0xfeaf968c\n        /* \"src/KipuBank.sol\":15061:15088  priceFeed.latestRoundData() */\n      mload(0x40)\n      dup2\n      0xffffffff\n      and\n      0xe0\n      shl\n      dup2\n      mstore\n      0x04\n      add\n      0xa0\n      mload(0x40)\n      dup1\n      dup4\n      sub\n      dup2\n      dup7\n      gas\n      staticcall\n      iszero\n      dup1\n      iszero\n      tag_342\n      jumpi\n      returndatacopy(0x00, 0x00, returndatasize)\n      revert(0x00, returndatasize)\n    tag_342:\n      pop\n      pop\n      pop\n      pop\n      mload(0x40)\n      returndatasize\n      not(0x1f)\n      0x1f\n      dup3\n      add\n      and\n      dup3\n      add\n      dup1\n      0x40\n      mstore\n      pop\n      dup2\n      add\n      swap1\n      tag_343\n      swap2\n      swap1\n      tag_242\n      jump\t// in\n    tag_343:\n        /* \"src/KipuBank.sol\":15036:15088  (, int256 price, , , ) = priceFeed.latestRoundData() */\n      pop\n      pop\n      pop\n      swap2\n      pop\n      pop\n        /* \"src/KipuBank.sol\":15112:15113  0 */\n      0x00\n        /* \"src/KipuBank.sol\":15103:15108  price */\n      dup2\n        /* \"src/KipuBank.sol\":15103:15113  price <= 0 */\n      sgt\n        /* \"src/KipuBank.sol\":15099:15138  if (price <= 0) revert PriceFeedError() */\n      tag_344\n      jumpi\n        /* \"src/KipuBank.sol\":15122:15138  PriceFeedError() */\n      mload(0x40)\n      0x7dfa876300000000000000000000000000000000000000000000000000000000\n      dup2\n      mstore\n      0x04\n      add\n      mload(0x40)\n      dup1\n      swap2\n      sub\n      swap1\n      revert\n        /* \"src/KipuBank.sol\":15099:15138  if (price <= 0) revert PriceFeedError() */\n    tag_344:\n        /* \"src/KipuBank.sol\":15151:15168  uint256 uintPrice */\n      0x00\n        /* \"src/KipuBank.sol\":15179:15184  price */\n      dup2\n        /* \"src/KipuBank.sol\":15151:15185  uint256 uintPrice = uint256(price) */\n      swap1\n      pop\n        /* \"src/KipuBank.sol\":15247:15273  uint256 decimalsAdjustment */\n      0x00\n        /* \"src/KipuBank.sol\":15276:15278  18 */\n      0x12\n        /* \"src/KipuBank.sol\":15247:15278  uint256 decimalsAdjustment = 18 */\n      swap1\n      pop\n        /* \"src/KipuBank.sol\":15347:15349  18 */\n      0x12\n        /* \"src/KipuBank.sol\":15330:15334  info */\n      dup6\n        /* \"src/KipuBank.sol\":15330:15343  info.decimals */\n      0x40\n      add\n      mload\n        /* \"src/KipuBank.sol\":15330:15349  info.decimals != 18 */\n      0xff\n      and\n      eq\n        /* \"src/KipuBank.sol\":15326:15421  if (info.decimals != 18) {... */\n      tag_345\n      jumpi\n        /* \"src/KipuBank.sol\":15408:15409  8 */\n      0x08\n        /* \"src/KipuBank.sol\":15392:15396  info */\n      dup6\n        /* \"src/KipuBank.sol\":15392:15405  info.decimals */\n      0x40\n      add\n      mload\n        /* \"src/KipuBank.sol\":15387:15389  18 */\n      0x12\n        /* \"src/KipuBank.sol\":15387:15405  18 - info.decimals */\n      tag_346\n      swap2\n      swap1\n      tag_246\n      jump\t// in\n    tag_346:\n        /* \"src/KipuBank.sol\":15387:15409  18 - info.decimals + 8 */\n      tag_347\n      swap2\n      swap1\n      tag_248\n      jump\t// in\n    tag_347:\n        /* \"src/KipuBank.sol\":15366:15409  decimalsAdjustment = 18 - info.decimals + 8 */\n      0xff\n      and\n      swap1\n      pop\n        /* \"src/KipuBank.sol\":15326:15421  if (info.decimals != 18) {... */\n    tag_345:\n        /* \"src/KipuBank.sol\":15433:15450  uint256 usdAmount */\n      0x00\n        /* \"src/KipuBank.sol\":15492:15510  decimalsAdjustment */\n      dup2\n        /* \"src/KipuBank.sol\":15486:15488  10 */\n      0x0a\n        /* \"src/KipuBank.sol\":15486:15510  10 ** decimalsAdjustment */\n      tag_348\n      swap2\n      swap1\n      tag_252\n      jump\t// in\n    tag_348:\n        /* \"src/KipuBank.sol\":1888:1896  10 ** 18 */\n      0x0de0b6b3a7640000\n        /* \"src/KipuBank.sol\":15464:15473  uintPrice */\n      dup5\n        /* \"src/KipuBank.sol\":15454:15461  _amount */\n      dup12\n        /* \"src/KipuBank.sol\":15454:15473  _amount * uintPrice */\n      tag_349\n      swap2\n      swap1\n      tag_250\n      jump\t// in\n    tag_349:\n        /* \"src/KipuBank.sol\":15454:15481  _amount * uintPrice * SCALE */\n      tag_350\n      swap2\n      swap1\n      tag_250\n      jump\t// in\n    tag_350:\n        /* \"src/KipuBank.sol\":15453:15511  (_amount * uintPrice * SCALE) / (10 ** decimalsAdjustment) */\n      tag_351\n      swap2\n      swap1\n      tag_255\n      jump\t// in\n    tag_351:\n        /* \"src/KipuBank.sol\":15433:15511  uint256 usdAmount = (_amount * uintPrice * SCALE) / (10 ** decimalsAdjustment) */\n      swap1\n      pop\n        /* \"src/KipuBank.sol\":1788:1789  6 */\n      0x06\n        /* \"src/KipuBank.sol\":15558:15560  18 */\n      0x12\n        /* \"src/KipuBank.sol\":15558:15580  18 - INTERNAL_DECIMALS */\n      tag_352\n      swap2\n      swap1\n      tag_246\n      jump\t// in\n    tag_352:\n        /* \"src/KipuBank.sol\":15551:15553  10 */\n      0x0a\n        /* \"src/KipuBank.sol\":15551:15581  10 ** (18 - INTERNAL_DECIMALS) */\n      tag_353\n      swap2\n      swap1\n      tag_354\n      jump\t// in\n    tag_353:\n        /* \"src/KipuBank.sol\":15539:15548  usdAmount */\n      dup2\n        /* \"src/KipuBank.sol\":15539:15581  usdAmount / 10 ** (18 - INTERNAL_DECIMALS) */\n      tag_355\n      swap2\n      swap1\n      tag_255\n      jump\t// in\n    tag_355:\n        /* \"src/KipuBank.sol\":15532:15581  return usdAmount / 10 ** (18 - INTERNAL_DECIMALS) */\n      swap8\n      pop\n      pop\n      pop\n      pop\n      pop\n      pop\n      pop\n        /* \"src/KipuBank.sol\":5799:5800  _ */\n    tag_339:\n        /* \"src/KipuBank.sol\":14696:15589  function _convertToUSD(address _token, uint256 _amount)... */\n      pop\n      swap3\n      swap2\n      pop\n      pop\n      jump\t// out\n        /* \"@openzeppelin/contracts/access/Ownable.sol\":1796:1958  function _checkOwner() internal view virtual {... */\n    tag_196:\n        /* \"@openzeppelin/contracts/access/Ownable.sol\":1866:1878  _msgSender() */\n      tag_357\n        /* \"@openzeppelin/contracts/access/Ownable.sol\":1866:1876  _msgSender */\n      tag_358\n        /* \"@openzeppelin/contracts/access/Ownable.sol\":1866:1878  _msgSender() */\n      jump\t// in\n    tag_357:\n        /* \"@openzeppelin/contracts/access/Ownable.sol\":1855:1878  owner() != _msgSender() */\n      0xffffffffffffffffffffffffffffffffffffffff\n      and\n        /* \"@openzeppelin/contracts/access/Ownable.sol\":1855:1862  owner() */\n      tag_359\n        /* \"@openzeppelin/contracts/access/Ownable.sol\":1855:1860  owner */\n      tag_124\n        /* \"@openzeppelin/contracts/access/Ownable.sol\":1855:1862  owner() */\n      jump\t// in\n    tag_359:\n        /* \"@openzeppelin/contracts/access/Ownable.sol\":1855:1878  owner() != _msgSender() */\n      0xffffffffffffffffffffffffffffffffffffffff\n      and\n      eq\n        /* \"@openzeppelin/contracts/access/Ownable.sol\":1851:1952  if (owner() != _msgSender()) {... */\n      tag_360\n      jumpi\n        /* \"@openzeppelin/contracts/access/Ownable.sol\":1928:1940  _msgSender() */\n      tag_361\n        /* \"@openzeppelin/contracts/access/Ownable.sol\":1928:1938  _msgSender */\n      tag_358\n        /* \"@openzeppelin/contracts/access/Ownable.sol\":1928:1940  _msgSender() */\n      jump\t// in\n    tag_361:\n        /* \"@openzeppelin/contracts/access/Ownable.sol\":1901:1941  OwnableUnauthorizedAccount(_msgSender()) */\n      mload(0x40)\n      0x118cdaa700000000000000000000000000000000000000000000000000000000\n      dup2\n      mstore\n      0x04\n      add\n      tag_362\n      swap2\n      swap1\n      tag_126\n      jump\t// in\n    tag_362:\n      mload(0x40)\n      dup1\n      swap2\n      sub\n      swap1\n      revert\n        /* \"@openzeppelin/contracts/access/Ownable.sol\":1851:1952  if (owner() != _msgSender()) {... */\n    tag_360:\n        /* \"@openzeppelin/contracts/access/Ownable.sol\":1796:1958  function _checkOwner() internal view virtual {... */\n      jump\t// out\n        /* \"@openzeppelin/contracts/token/ERC20/utils/SafeERC20.sol\":1618:1806  function safeTransferFrom(IERC20 token, address from, address to, uint256 value) internal {... */\n    tag_226:\n        /* \"@openzeppelin/contracts/token/ERC20/utils/SafeERC20.sol\":1718:1799  _callOptionalReturn(token, abi.encodeCall(token.transferFrom, (from, to, value))) */\n      tag_364\n        /* \"@openzeppelin/contracts/token/ERC20/utils/SafeERC20.sol\":1738:1743  token */\n      dup5\n        /* \"@openzeppelin/contracts/token/ERC20/utils/SafeERC20.sol\":1760:1765  token */\n      dup6\n        /* \"@openzeppelin/contracts/token/ERC20/utils/SafeERC20.sol\":1760:1778  token.transferFrom */\n      0xffffffffffffffffffffffffffffffffffffffff\n      and\n      0x23b872dd\n        /* \"@openzeppelin/contracts/token/ERC20/utils/SafeERC20.sol\":1781:1785  from */\n      dup7\n        /* \"@openzeppelin/contracts/token/ERC20/utils/SafeERC20.sol\":1787:1789  to */\n      dup7\n        /* \"@openzeppelin/contracts/token/ERC20/utils/SafeERC20.sol\":1791:1796  value */\n      dup7\n        /* \"@openzeppelin/contracts/token/ERC20/utils/SafeERC20.sol\":1745:1798  abi.encodeCall(token.transferFrom, (from, to, value)) */\n      add(0x24, mload(0x40))\n      tag_365\n      swap4\n      swap3\n      swap2\n      swap1\n      tag_366\n      jump\t// in\n    tag_365:\n      mload(0x40)\n      0x20\n      dup2\n      dup4\n      sub\n      sub\n      dup2\n      mstore\n      swap1\n      0x40\n      mstore\n      swap2\n      pop\n      0xe0\n      shl\n      0x20\n      dup3\n      add\n      dup1\n      mload\n      0xffffffffffffffffffffffffffffffffffffffffffffffffffffffff\n      dup4\n      dup2\n      dup4\n      and\n      or\n      dup4\n      mstore\n      pop\n      pop\n      pop\n      pop\n        /* \"@openzeppelin/contracts/token/ERC20/utils/SafeERC20.sol\":1718:1737  _callOptionalReturn */\n      tag_367\n        /* \"@openzeppelin/contracts/token/ERC20/utils/SafeERC20.sol\":1718:1799  _callOptionalReturn(token, abi.encodeCall(token.transferFrom, (from, to, value))) */\n      jump\t// in\n    tag_364:\n        /* \"@openzeppelin/contracts/token/ERC20/utils/SafeERC20.sol\":1618:1806  function safeTransferFrom(IERC20 token, address from, address to, uint256 value) internal {... */\n      pop\n      pop\n      pop\n      pop\n      jump\t// out\n        /* \"@openzeppelin/contracts/access/Ownable.sol\":2912:3099  function _transferOwnership(address newOwner) internal virtual {... */\n    tag_273:\n        /* \"@openzeppelin/contracts/access/Ownable.sol\":2985:3001  address oldOwner */\n      0x00\n        /* \"@openzeppelin/contracts/access/Ownable.sol\":3004:3010  _owner */\n      0x00\n      0x00\n      swap1\n      sload\n      swap1\n      0x0100\n      exp\n      swap1\n      div\n      0xffffffffffffffffffffffffffffffffffffffff\n      and\n        /* \"@openzeppelin/contracts/access/Ownable.sol\":2985:3010  address oldOwner = _owner */\n      swap1\n      pop\n        /* \"@openzeppelin/contracts/access/Ownable.sol\":3029:3037  newOwner */\n      dup2\n        /* \"@openzeppelin/contracts/access/Ownable.sol\":3020:3026  _owner */\n      0x00\n      0x00\n        /* \"@openzeppelin/contracts/access/Ownable.sol\":3020:3037  _owner = newOwner */\n      0x0100\n      exp\n      dup2\n      sload\n      dup2\n      0xffffffffffffffffffffffffffffffffffffffff\n      mul\n      not\n      and\n      swap1\n      dup4\n      0xffffffffffffffffffffffffffffffffffffffff\n      and\n      mul\n      or\n      swap1\n      sstore\n      pop\n        /* \"@openzeppelin/contracts/access/Ownable.sol\":3083:3091  newOwner */\n      dup2\n        /* \"@openzeppelin/contracts/access/Ownable.sol\":3052:3092  OwnershipTransferred(oldOwner, newOwner) */\n      0xffffffffffffffffffffffffffffffffffffffff\n      and\n        /* \"@openzeppelin/contracts/access/Ownable.sol\":3073:3081  oldOwner */\n      dup2\n        /* \"@openzeppelin/contracts/access/Ownable.sol\":3052:3092  OwnershipTransferred(oldOwner, newOwner) */\n      0xffffffffffffffffffffffffffffffffffffffff\n      and\n      0x8be0079c531659141344cd1fd0a4f28419497f9722a3daafe3b4186f6b6457e0\n      mload(0x40)\n      mload(0x40)\n      dup1\n      swap2\n      sub\n      swap1\n      log3\n        /* \"@openzeppelin/contracts/access/Ownable.sol\":2975:3099  {... */\n      pop\n        /* \"@openzeppelin/contracts/access/Ownable.sol\":2912:3099  function _transferOwnership(address newOwner) internal virtual {... */\n      pop\n      jump\t// out\n        /* \"@openzeppelin/contracts/token/ERC20/utils/SafeERC20.sol\":1219:1379  function safeTransfer(IERC20 token, address to, uint256 value) internal {... */\n    tag_331:\n        /* \"@openzeppelin/contracts/token/ERC20/utils/SafeERC20.sol\":1301:1372  _callOptionalReturn(token, abi.encodeCall(token.transfer, (to, value))) */\n      tag_370\n        /* \"@openzeppelin/contracts/token/ERC20/utils/SafeERC20.sol\":1321:1326  token */\n      dup4\n        /* \"@openzeppelin/contracts/token/ERC20/utils/SafeERC20.sol\":1343:1348  token */\n      dup5\n        /* \"@openzeppelin/contracts/token/ERC20/utils/SafeERC20.sol\":1343:1357  token.transfer */\n      0xffffffffffffffffffffffffffffffffffffffff\n      and\n      0xa9059cbb\n        /* \"@openzeppelin/contracts/token/ERC20/utils/SafeERC20.sol\":1360:1362  to */\n      dup6\n        /* \"@openzeppelin/contracts/token/ERC20/utils/SafeERC20.sol\":1364:1369  value */\n      dup6\n        /* \"@openzeppelin/contracts/token/ERC20/utils/SafeERC20.sol\":1328:1371  abi.encodeCall(token.transfer, (to, value)) */\n      add(0x24, mload(0x40))\n      tag_371\n      swap3\n      swap2\n      swap1\n      tag_372\n      jump\t// in\n    tag_371:\n      mload(0x40)\n      0x20\n      dup2\n      dup4\n      sub\n      sub\n      dup2\n      mstore\n      swap1\n      0x40\n      mstore\n      swap2\n      pop\n      0xe0\n      shl\n      0x20\n      dup3\n      add\n      dup1\n      mload\n      0xffffffffffffffffffffffffffffffffffffffffffffffffffffffff\n      dup4\n      dup2\n      dup4\n      and\n      or\n      dup4\n      mstore\n      pop\n      pop\n      pop\n      pop\n        /* \"@openzeppelin/contracts/token/ERC20/utils/SafeERC20.sol\":1301:1320  _callOptionalReturn */\n      tag_367\n        /* \"@openzeppelin/contracts/token/ERC20/utils/SafeERC20.sol\":1301:1372  _callOptionalReturn(token, abi.encodeCall(token.transfer, (to, value))) */\n      jump\t// in\n    tag_370:\n        /* \"@openzeppelin/contracts/token/ERC20/utils/SafeERC20.sol\":1219:1379  function safeTransfer(IERC20 token, address to, uint256 value) internal {... */\n      pop\n      pop\n      pop\n      jump\t// out\n        /* \"@openzeppelin/contracts/utils/Context.sol\":656:752  function _msgSender() internal view virtual returns (address) {... */\n    tag_358:\n        /* \"@openzeppelin/contracts/utils/Context.sol\":709:716  address */\n      0x00\n        /* \"@openzeppelin/contracts/utils/Context.sol\":735:745  msg.sender */\n      caller\n        /* \"@openzeppelin/contracts/utils/Context.sol\":728:745  return msg.sender */\n      swap1\n      pop\n        /* \"@openzeppelin/contracts/utils/Context.sol\":656:752  function _msgSender() internal view virtual returns (address) {... */\n      swap1\n      jump\t// out\n        /* \"@openzeppelin/contracts/token/ERC20/utils/SafeERC20.sol\":8370:9090  function _callOptionalReturn(IERC20 token, bytes memory data) private {... */\n    tag_367:\n        /* \"@openzeppelin/contracts/token/ERC20/utils/SafeERC20.sol\":8450:8468  uint256 returnSize */\n      0x00\n        /* \"@openzeppelin/contracts/token/ERC20/utils/SafeERC20.sol\":8478:8497  uint256 returnValue */\n      0x00\n        /* \"@openzeppelin/contracts/token/ERC20/utils/SafeERC20.sol\":8616:8620  0x20 */\n      0x20\n        /* \"@openzeppelin/contracts/token/ERC20/utils/SafeERC20.sol\":8613:8614  0 */\n      0x00\n        /* \"@openzeppelin/contracts/token/ERC20/utils/SafeERC20.sol\":8606:8610  data */\n      dup5\n        /* \"@openzeppelin/contracts/token/ERC20/utils/SafeERC20.sol\":8600:8611  mload(data) */\n      mload\n        /* \"@openzeppelin/contracts/token/ERC20/utils/SafeERC20.sol\":8593:8597  0x20 */\n      0x20\n        /* \"@openzeppelin/contracts/token/ERC20/utils/SafeERC20.sol\":8587:8591  data */\n      dup7\n        /* \"@openzeppelin/contracts/token/ERC20/utils/SafeERC20.sol\":8583:8598  add(data, 0x20) */\n      add\n        /* \"@openzeppelin/contracts/token/ERC20/utils/SafeERC20.sol\":8580:8581  0 */\n      0x00\n        /* \"@openzeppelin/contracts/token/ERC20/utils/SafeERC20.sol\":8573:8578  token */\n      dup9\n        /* \"@openzeppelin/contracts/token/ERC20/utils/SafeERC20.sol\":8566:8571  gas() */\n      gas\n        /* \"@openzeppelin/contracts/token/ERC20/utils/SafeERC20.sol\":8561:8621  call(gas(), token, 0, add(data, 0x20), mload(data), 0, 0x20) */\n      call\n        /* \"@openzeppelin/contracts/token/ERC20/utils/SafeERC20.sol\":8673:8680  success */\n      dup1\n        /* \"@openzeppelin/contracts/token/ERC20/utils/SafeERC20.sol\":8663:8839  if iszero(success) {... */\n      tag_375\n      jumpi\n        /* \"@openzeppelin/contracts/token/ERC20/utils/SafeERC20.sol\":8717:8721  0x40 */\n      0x40\n        /* \"@openzeppelin/contracts/token/ERC20/utils/SafeERC20.sol\":8711:8722  mload(0x40) */\n      mload\n        /* \"@openzeppelin/contracts/token/ERC20/utils/SafeERC20.sol\":8762:8778  returndatasize() */\n      returndatasize\n        /* \"@openzeppelin/contracts/token/ERC20/utils/SafeERC20.sol\":8759:8760  0 */\n      0x00\n        /* \"@openzeppelin/contracts/token/ERC20/utils/SafeERC20.sol\":8754:8757  ptr */\n      dup3\n        /* \"@openzeppelin/contracts/token/ERC20/utils/SafeERC20.sol\":8739:8779  returndatacopy(ptr, 0, returndatasize()) */\n      returndatacopy\n        /* \"@openzeppelin/contracts/token/ERC20/utils/SafeERC20.sol\":8808:8824  returndatasize() */\n      returndatasize\n        /* \"@openzeppelin/contracts/token/ERC20/utils/SafeERC20.sol\":8803:8806  ptr */\n      dup2\n        /* \"@openzeppelin/contracts/token/ERC20/utils/SafeERC20.sol\":8796:8825  revert(ptr, returndatasize()) */\n      revert\n        /* \"@openzeppelin/contracts/token/ERC20/utils/SafeERC20.sol\":8663:8839  if iszero(success) {... */\n    tag_375:\n        /* \"@openzeppelin/contracts/token/ERC20/utils/SafeERC20.sol\":8866:8882  returndatasize() */\n      returndatasize\n        /* \"@openzeppelin/contracts/token/ERC20/utils/SafeERC20.sol\":8852:8882  returnSize := returndatasize() */\n      swap3\n      pop\n        /* \"@openzeppelin/contracts/token/ERC20/utils/SafeERC20.sol\":8916:8917  0 */\n      0x00\n        /* \"@openzeppelin/contracts/token/ERC20/utils/SafeERC20.sol\":8910:8918  mload(0) */\n      mload\n        /* \"@openzeppelin/contracts/token/ERC20/utils/SafeERC20.sol\":8895:8918  returnValue := mload(0) */\n      swap2\n      pop\n        /* \"@openzeppelin/contracts/token/ERC20/utils/SafeERC20.sol\":8532:8928  {... */\n      pop\n        /* \"@openzeppelin/contracts/token/ERC20/utils/SafeERC20.sol\":8956:8957  0 */\n      0x00\n        /* \"@openzeppelin/contracts/token/ERC20/utils/SafeERC20.sol\":8942:8952  returnSize */\n      dup3\n        /* \"@openzeppelin/contracts/token/ERC20/utils/SafeERC20.sol\":8942:8957  returnSize == 0 */\n      eq\n        /* \"@openzeppelin/contracts/token/ERC20/utils/SafeERC20.sol\":8942:9010  returnSize == 0 ? address(token).code.length == 0 : returnValue != 1 */\n      tag_376\n      jumpi\n        /* \"@openzeppelin/contracts/token/ERC20/utils/SafeERC20.sol\":9009:9010  1 */\n      0x01\n        /* \"@openzeppelin/contracts/token/ERC20/utils/SafeERC20.sol\":8994:9005  returnValue */\n      dup2\n        /* \"@openzeppelin/contracts/token/ERC20/utils/SafeERC20.sol\":8994:9010  returnValue != 1 */\n      eq\n      iszero\n        /* \"@openzeppelin/contracts/token/ERC20/utils/SafeERC20.sol\":8942:9010  returnSize == 0 ? address(token).code.length == 0 : returnValue != 1 */\n      jump(tag_377)\n    tag_376:\n        /* \"@openzeppelin/contracts/token/ERC20/utils/SafeERC20.sol\":8990:8991  0 */\n      0x00\n        /* \"@openzeppelin/contracts/token/ERC20/utils/SafeERC20.sol\":8968:8973  token */\n      dup5\n        /* \"@openzeppelin/contracts/token/ERC20/utils/SafeERC20.sol\":8960:8986  address(token).code.length */\n      0xffffffffffffffffffffffffffffffffffffffff\n      and\n      extcodesize\n        /* \"@openzeppelin/contracts/token/ERC20/utils/SafeERC20.sol\":8960:8991  address(token).code.length == 0 */\n      eq\n        /* \"@openzeppelin/contracts/token/ERC20/utils/SafeERC20.sol\":8942:9010  returnSize == 0 ? address(token).code.length == 0 : returnValue != 1 */\n    tag_377:\n        /* \"@openzeppelin/contracts/token/ERC20/utils/SafeERC20.sol\":8938:9084  if (returnSize == 0 ? address(token).code.length == 0 : returnValue != 1) {... */\n      iszero\n      tag_378\n      jumpi\n        /* \"@openzeppelin/contracts/token/ERC20/utils/SafeERC20.sol\":9066:9071  token */\n      dup4\n        /* \"@openzeppelin/contracts/token/ERC20/utils/SafeERC20.sol\":9033:9073  SafeERC20FailedOperation(address(token)) */\n      mload(0x40)\n      0x5274afe700000000000000000000000000000000000000000000000000000000\n      dup2\n      mstore\n      0x04\n      add\n      tag_379\n      swap2\n      swap1\n      tag_126\n      jump\t// in\n    tag_379:\n      mload(0x40)\n      dup1\n      swap2\n      sub\n      swap1\n      revert\n        /* \"@openzeppelin/contracts/token/ERC20/utils/SafeERC20.sol\":8938:9084  if (returnSize == 0 ? address(token).code.length == 0 : returnValue != 1) {... */\n    tag_378:\n        /* \"@openzeppelin/contracts/token/ERC20/utils/SafeERC20.sol\":8440:9090  {... */\n      pop\n      pop\n        /* \"@openzeppelin/contracts/token/ERC20/utils/SafeERC20.sol\":8370:9090  function _callOptionalReturn(IERC20 token, bytes memory data) private {... */\n      pop\n      pop\n      jump\t// out\n    tag_209:\n      mload(0x40)\n      dup1\n      0x80\n      add\n      0x40\n      mstore\n      dup1\n      and(0xffffffffffffffffffffffffffffffffffffffff, 0x00)\n      dup2\n      mstore\n      0x20\n      add\n      and(0xffffffffffffffffffffffffffffffffffffffff, 0x00)\n      dup2\n      mstore\n      0x20\n      add\n      and(0xff, 0x00)\n      dup2\n      mstore\n      0x20\n      add\n      iszero(iszero(0x00))\n      dup2\n      mstore\n      pop\n      swap1\n      jump\t// out\n        /* \"#utility.yul\":88:205   */\n    tag_381:\n        /* \"#utility.yul\":197:198   */\n      0x00\n        /* \"#utility.yul\":194:195   */\n      0x00\n        /* \"#utility.yul\":187:199   */\n      revert\n        /* \"#utility.yul\":334:460   */\n    tag_383:\n        /* \"#utility.yul\":371:378   */\n      0x00\n        /* \"#utility.yul\":411:453   */\n      0xffffffffffffffffffffffffffffffffffffffff\n        /* \"#utility.yul\":404:409   */\n      dup3\n        /* \"#utility.yul\":400:454   */\n      and\n        /* \"#utility.yul\":389:454   */\n      swap1\n      pop\n        /* \"#utility.yul\":334:460   */\n      swap2\n      swap1\n      pop\n      jump\t// out\n        /* \"#utility.yul\":466:562   */\n    tag_384:\n        /* \"#utility.yul\":503:510   */\n      0x00\n        /* \"#utility.yul\":532:556   */\n      tag_444\n        /* \"#utility.yul\":550:555   */\n      dup3\n        /* \"#utility.yul\":532:556   */\n      tag_383\n      jump\t// in\n    tag_444:\n        /* \"#utility.yul\":521:556   */\n      swap1\n      pop\n        /* \"#utility.yul\":466:562   */\n      swap2\n      swap1\n      pop\n      jump\t// out\n        /* \"#utility.yul\":568:690   */\n    tag_385:\n        /* \"#utility.yul\":641:665   */\n      tag_446\n        /* \"#utility.yul\":659:664   */\n      dup2\n        /* \"#utility.yul\":641:665   */\n      tag_384\n      jump\t// in\n    tag_446:\n        /* \"#utility.yul\":634:639   */\n      dup2\n        /* \"#utility.yul\":631:666   */\n      eq\n        /* \"#utility.yul\":621:684   */\n      tag_447\n      jumpi\n        /* \"#utility.yul\":680:681   */\n      0x00\n        /* \"#utility.yul\":677:678   */\n      0x00\n        /* \"#utility.yul\":670:682   */\n      revert\n        /* \"#utility.yul\":621:684   */\n    tag_447:\n        /* \"#utility.yul\":568:690   */\n      pop\n      jump\t// out\n        /* \"#utility.yul\":696:835   */\n    tag_386:\n        /* \"#utility.yul\":742:747   */\n      0x00\n        /* \"#utility.yul\":780:786   */\n      dup2\n        /* \"#utility.yul\":767:787   */\n      calldataload\n        /* \"#utility.yul\":758:787   */\n      swap1\n      pop\n        /* \"#utility.yul\":796:829   */\n      tag_449\n        /* \"#utility.yul\":823:828   */\n      dup2\n        /* \"#utility.yul\":796:829   */\n      tag_385\n      jump\t// in\n    tag_449:\n        /* \"#utility.yul\":696:835   */\n      swap3\n      swap2\n      pop\n      pop\n      jump\t// out\n        /* \"#utility.yul\":841:927   */\n    tag_387:\n        /* \"#utility.yul\":876:883   */\n      0x00\n        /* \"#utility.yul\":916:920   */\n      0xff\n        /* \"#utility.yul\":909:914   */\n      dup3\n        /* \"#utility.yul\":905:921   */\n      and\n        /* \"#utility.yul\":894:921   */\n      swap1\n      pop\n        /* \"#utility.yul\":841:927   */\n      swap2\n      swap1\n      pop\n      jump\t// out\n        /* \"#utility.yul\":933:1051   */\n    tag_388:\n        /* \"#utility.yul\":1004:1026   */\n      tag_452\n        /* \"#utility.yul\":1020:1025   */\n      dup2\n        /* \"#utility.yul\":1004:1026   */\n      tag_387\n      jump\t// in\n    tag_452:\n        /* \"#utility.yul\":997:1002   */\n      dup2\n        /* \"#utility.yul\":994:1027   */\n      eq\n        /* \"#utility.yul\":984:1045   */\n      tag_453\n      jumpi\n        /* \"#utility.yul\":1041:1042   */\n      0x00\n        /* \"#utility.yul\":1038:1039   */\n      0x00\n        /* \"#utility.yul\":1031:1043   */\n      revert\n        /* \"#utility.yul\":984:1045   */\n    tag_453:\n        /* \"#utility.yul\":933:1051   */\n      pop\n      jump\t// out\n        /* \"#utility.yul\":1057:1192   */\n    tag_389:\n        /* \"#utility.yul\":1101:1106   */\n      0x00\n        /* \"#utility.yul\":1139:1145   */\n      dup2\n        /* \"#utility.yul\":1126:1146   */\n      calldataload\n        /* \"#utility.yul\":1117:1146   */\n      swap1\n      pop\n        /* \"#utility.yul\":1155:1186   */\n      tag_455\n        /* \"#utility.yul\":1180:1185   */\n      dup2\n        /* \"#utility.yul\":1155:1186   */\n      tag_388\n      jump\t// in\n    tag_455:\n        /* \"#utility.yul\":1057:1192   */\n      swap3\n      swap2\n      pop\n      pop\n      jump\t// out\n        /* \"#utility.yul\":1198:1813   */\n    tag_47:\n        /* \"#utility.yul\":1273:1279   */\n      0x00\n        /* \"#utility.yul\":1281:1287   */\n      0x00\n        /* \"#utility.yul\":1289:1295   */\n      0x00\n        /* \"#utility.yul\":1338:1340   */\n      0x60\n        /* \"#utility.yul\":1326:1335   */\n      dup5\n        /* \"#utility.yul\":1317:1324   */\n      dup7\n        /* \"#utility.yul\":1313:1336   */\n      sub\n        /* \"#utility.yul\":1309:1341   */\n      slt\n        /* \"#utility.yul\":1306:1425   */\n      iszero\n      tag_457\n      jumpi\n        /* \"#utility.yul\":1344:1423   */\n      tag_458\n      tag_381\n      jump\t// in\n    tag_458:\n        /* \"#utility.yul\":1306:1425   */\n    tag_457:\n        /* \"#utility.yul\":1464:1465   */\n      0x00\n        /* \"#utility.yul\":1489:1542   */\n      tag_459\n        /* \"#utility.yul\":1534:1541   */\n      dup7\n        /* \"#utility.yul\":1525:1531   */\n      dup3\n        /* \"#utility.yul\":1514:1523   */\n      dup8\n        /* \"#utility.yul\":1510:1532   */\n      add\n        /* \"#utility.yul\":1489:1542   */\n      tag_386\n      jump\t// in\n    tag_459:\n        /* \"#utility.yul\":1479:1542   */\n      swap4\n      pop\n        /* \"#utility.yul\":1435:1552   */\n      pop\n        /* \"#utility.yul\":1591:1593   */\n      0x20\n        /* \"#utility.yul\":1617:1670   */\n      tag_460\n        /* \"#utility.yul\":1662:1669   */\n      dup7\n        /* \"#utility.yul\":1653:1659   */\n      dup3\n        /* \"#utility.yul\":1642:1651   */\n      dup8\n        /* \"#utility.yul\":1638:1660   */\n      add\n        /* \"#utility.yul\":1617:1670   */\n      tag_386\n      jump\t// in\n    tag_460:\n        /* \"#utility.yul\":1607:1670   */\n      swap3\n      pop\n        /* \"#utility.yul\":1562:1680   */\n      pop\n        /* \"#utility.yul\":1719:1721   */\n      0x40\n        /* \"#utility.yul\":1745:1796   */\n      tag_461\n        /* \"#utility.yul\":1788:1795   */\n      dup7\n        /* \"#utility.yul\":1779:1785   */\n      dup3\n        /* \"#utility.yul\":1768:1777   */\n      dup8\n        /* \"#utility.yul\":1764:1786   */\n      add\n        /* \"#utility.yul\":1745:1796   */\n      tag_389\n      jump\t// in\n    tag_461:\n        /* \"#utility.yul\":1735:1796   */\n      swap2\n      pop\n        /* \"#utility.yul\":1690:1806   */\n      pop\n        /* \"#utility.yul\":1198:1813   */\n      swap3\n      pop\n      swap3\n      pop\n      swap3\n      jump\t// out\n        /* \"#utility.yul\":1819:2148   */\n    tag_52:\n        /* \"#utility.yul\":1878:1884   */\n      0x00\n        /* \"#utility.yul\":1927:1929   */\n      0x20\n        /* \"#utility.yul\":1915:1924   */\n      dup3\n        /* \"#utility.yul\":1906:1913   */\n      dup5\n        /* \"#utility.yul\":1902:1925   */\n      sub\n        /* \"#utility.yul\":1898:1930   */\n      slt\n        /* \"#utility.yul\":1895:2014   */\n      iszero\n      tag_463\n      jumpi\n        /* \"#utility.yul\":1933:2012   */\n      tag_464\n      tag_381\n      jump\t// in\n    tag_464:\n        /* \"#utility.yul\":1895:2014   */\n    tag_463:\n        /* \"#utility.yul\":2053:2054   */\n      0x00\n        /* \"#utility.yul\":2078:2131   */\n      tag_465\n        /* \"#utility.yul\":2123:2130   */\n      dup5\n        /* \"#utility.yul\":2114:2120   */\n      dup3\n        /* \"#utility.yul\":2103:2112   */\n      dup6\n        /* \"#utility.yul\":2099:2121   */\n      add\n        /* \"#utility.yul\":2078:2131   */\n      tag_386\n      jump\t// in\n    tag_465:\n        /* \"#utility.yul\":2068:2131   */\n      swap2\n      pop\n        /* \"#utility.yul\":2024:2141   */\n      pop\n        /* \"#utility.yul\":1819:2148   */\n      swap3\n      swap2\n      pop\n      pop\n      jump\t// out\n        /* \"#utility.yul\":2154:2628   */\n    tag_57:\n        /* \"#utility.yul\":2222:2228   */\n      0x00\n        /* \"#utility.yul\":2230:2236   */\n      0x00\n        /* \"#utility.yul\":2279:2281   */\n      0x40\n        /* \"#utility.yul\":2267:2276   */\n      dup4\n        /* \"#utility.yul\":2258:2265   */\n      dup6\n        /* \"#utility.yul\":2254:2277   */\n      sub\n        /* \"#utility.yul\":2250:2282   */\n      slt\n        /* \"#utility.yul\":2247:2366   */\n      iszero\n      tag_467\n      jumpi\n        /* \"#utility.yul\":2285:2364   */\n      tag_468\n      tag_381\n      jump\t// in\n    tag_468:\n        /* \"#utility.yul\":2247:2366   */\n    tag_467:\n        /* \"#utility.yul\":2405:2406   */\n      0x00\n        /* \"#utility.yul\":2430:2483   */\n      tag_469\n        /* \"#utility.yul\":2475:2482   */\n      dup6\n        /* \"#utility.yul\":2466:2472   */\n      dup3\n        /* \"#utility.yul\":2455:2464   */\n      dup7\n        /* \"#utility.yul\":2451:2473   */\n      add\n        /* \"#utility.yul\":2430:2483   */\n      tag_386\n      jump\t// in\n    tag_469:\n        /* \"#utility.yul\":2420:2483   */\n      swap3\n      pop\n        /* \"#utility.yul\":2376:2493   */\n      pop\n        /* \"#utility.yul\":2532:2534   */\n      0x20\n        /* \"#utility.yul\":2558:2611   */\n      tag_470\n        /* \"#utility.yul\":2603:2610   */\n      dup6\n        /* \"#utility.yul\":2594:2600   */\n      dup3\n        /* \"#utility.yul\":2583:2592   */\n      dup7\n        /* \"#utility.yul\":2579:2601   */\n      add\n        /* \"#utility.yul\":2558:2611   */\n      tag_386\n      jump\t// in\n    tag_470:\n        /* \"#utility.yul\":2548:2611   */\n      swap2\n      pop\n        /* \"#utility.yul\":2503:2621   */\n      pop\n        /* \"#utility.yul\":2154:2628   */\n      swap3\n      pop\n      swap3\n      swap1\n      pop\n      jump\t// out\n        /* \"#utility.yul\":2634:2711   */\n    tag_390:\n        /* \"#utility.yul\":2671:2678   */\n      0x00\n        /* \"#utility.yul\":2700:2705   */\n      dup2\n        /* \"#utility.yul\":2689:2705   */\n      swap1\n      pop\n        /* \"#utility.yul\":2634:2711   */\n      swap2\n      swap1\n      pop\n      jump\t// out\n        /* \"#utility.yul\":2717:2835   */\n    tag_391:\n        /* \"#utility.yul\":2804:2828   */\n      tag_473\n        /* \"#utility.yul\":2822:2827   */\n      dup2\n        /* \"#utility.yul\":2804:2828   */\n      tag_390\n      jump\t// in\n    tag_473:\n        /* \"#utility.yul\":2799:2802   */\n      dup3\n        /* \"#utility.yul\":2792:2829   */\n      mstore\n        /* \"#utility.yul\":2717:2835   */\n      pop\n      pop\n      jump\t// out\n        /* \"#utility.yul\":2841:3063   */\n    tag_60:\n        /* \"#utility.yul\":2934:2938   */\n      0x00\n        /* \"#utility.yul\":2972:2974   */\n      0x20\n        /* \"#utility.yul\":2961:2970   */\n      dup3\n        /* \"#utility.yul\":2957:2975   */\n      add\n        /* \"#utility.yul\":2949:2975   */\n      swap1\n      pop\n        /* \"#utility.yul\":2985:3056   */\n      tag_475\n        /* \"#utility.yul\":3053:3054   */\n      0x00\n        /* \"#utility.yul\":3042:3051   */\n      dup4\n        /* \"#utility.yul\":3038:3055   */\n      add\n        /* \"#utility.yul\":3029:3035   */\n      dup5\n        /* \"#utility.yul\":2985:3056   */\n      tag_391\n      jump\t// in\n    tag_475:\n        /* \"#utility.yul\":2841:3063   */\n      swap3\n      swap2\n      pop\n      pop\n      jump\t// out\n        /* \"#utility.yul\":3069:3177   */\n    tag_392:\n        /* \"#utility.yul\":3146:3170   */\n      tag_477\n        /* \"#utility.yul\":3164:3169   */\n      dup2\n        /* \"#utility.yul\":3146:3170   */\n      tag_384\n      jump\t// in\n    tag_477:\n        /* \"#utility.yul\":3141:3144   */\n      dup3\n        /* \"#utility.yul\":3134:3171   */\n      mstore\n        /* \"#utility.yul\":3069:3177   */\n      pop\n      pop\n      jump\t// out\n        /* \"#utility.yul\":3183:3285   */\n    tag_393:\n        /* \"#utility.yul\":3256:3278   */\n      tag_479\n        /* \"#utility.yul\":3272:3277   */\n      dup2\n        /* \"#utility.yul\":3256:3278   */\n      tag_387\n      jump\t// in\n    tag_479:\n        /* \"#utility.yul\":3251:3254   */\n      dup3\n        /* \"#utility.yul\":3244:3279   */\n      mstore\n        /* \"#utility.yul\":3183:3285   */\n      pop\n      pop\n      jump\t// out\n        /* \"#utility.yul\":3291:3381   */\n    tag_394:\n        /* \"#utility.yul\":3325:3332   */\n      0x00\n        /* \"#utility.yul\":3368:3373   */\n      dup2\n        /* \"#utility.yul\":3361:3374   */\n      iszero\n        /* \"#utility.yul\":3354:3375   */\n      iszero\n        /* \"#utility.yul\":3343:3375   */\n      swap1\n      pop\n        /* \"#utility.yul\":3291:3381   */\n      swap2\n      swap1\n      pop\n      jump\t// out\n        /* \"#utility.yul\":3387:3486   */\n    tag_395:\n        /* \"#utility.yul\":3458:3479   */\n      tag_482\n        /* \"#utility.yul\":3473:3478   */\n      dup2\n        /* \"#utility.yul\":3458:3479   */\n      tag_394\n      jump\t// in\n    tag_482:\n        /* \"#utility.yul\":3453:3456   */\n      dup3\n        /* \"#utility.yul\":3446:3480   */\n      mstore\n        /* \"#utility.yul\":3387:3486   */\n      pop\n      pop\n      jump\t// out\n        /* \"#utility.yul\":3558:4426   */\n    tag_396:\n        /* \"#utility.yul\":3707:3711   */\n      0x80\n        /* \"#utility.yul\":3702:3705   */\n      dup3\n        /* \"#utility.yul\":3698:3712   */\n      add\n        /* \"#utility.yul\":3799:3803   */\n      0x00\n        /* \"#utility.yul\":3792:3797   */\n      dup3\n        /* \"#utility.yul\":3788:3804   */\n      add\n        /* \"#utility.yul\":3782:3805   */\n      mload\n        /* \"#utility.yul\":3818:3881   */\n      tag_484\n        /* \"#utility.yul\":3875:3879   */\n      0x00\n        /* \"#utility.yul\":3870:3873   */\n      dup6\n        /* \"#utility.yul\":3866:3880   */\n      add\n        /* \"#utility.yul\":3852:3864   */\n      dup3\n        /* \"#utility.yul\":3818:3881   */\n      tag_392\n      jump\t// in\n    tag_484:\n        /* \"#utility.yul\":3722:3891   */\n      pop\n        /* \"#utility.yul\":3981:3985   */\n      0x20\n        /* \"#utility.yul\":3974:3979   */\n      dup3\n        /* \"#utility.yul\":3970:3986   */\n      add\n        /* \"#utility.yul\":3964:3987   */\n      mload\n        /* \"#utility.yul\":4000:4063   */\n      tag_485\n        /* \"#utility.yul\":4057:4061   */\n      0x20\n        /* \"#utility.yul\":4052:4055   */\n      dup6\n        /* \"#utility.yul\":4048:4062   */\n      add\n        /* \"#utility.yul\":4034:4046   */\n      dup3\n        /* \"#utility.yul\":4000:4063   */\n      tag_392\n      jump\t// in\n    tag_485:\n        /* \"#utility.yul\":3901:4073   */\n      pop\n        /* \"#utility.yul\":4159:4163   */\n      0x40\n        /* \"#utility.yul\":4152:4157   */\n      dup3\n        /* \"#utility.yul\":4148:4164   */\n      add\n        /* \"#utility.yul\":4142:4165   */\n      mload\n        /* \"#utility.yul\":4178:4237   */\n      tag_486\n        /* \"#utility.yul\":4231:4235   */\n      0x40\n        /* \"#utility.yul\":4226:4229   */\n      dup6\n        /* \"#utility.yul\":4222:4236   */\n      add\n        /* \"#utility.yul\":4208:4220   */\n      dup3\n        /* \"#utility.yul\":4178:4237   */\n      tag_393\n      jump\t// in\n    tag_486:\n        /* \"#utility.yul\":4083:4247   */\n      pop\n        /* \"#utility.yul\":4333:4337   */\n      0x60\n        /* \"#utility.yul\":4326:4331   */\n      dup3\n        /* \"#utility.yul\":4322:4338   */\n      add\n        /* \"#utility.yul\":4316:4339   */\n      mload\n        /* \"#utility.yul\":4352:4409   */\n      tag_487\n        /* \"#utility.yul\":4403:4407   */\n      0x60\n        /* \"#utility.yul\":4398:4401   */\n      dup6\n        /* \"#utility.yul\":4394:4408   */\n      add\n        /* \"#utility.yul\":4380:4392   */\n      dup3\n        /* \"#utility.yul\":4352:4409   */\n      tag_395\n      jump\t// in\n    tag_487:\n        /* \"#utility.yul\":4257:4419   */\n      pop\n        /* \"#utility.yul\":3676:4426   */\n      pop\n        /* \"#utility.yul\":3558:4426   */\n      pop\n      pop\n      jump\t// out\n        /* \"#utility.yul\":4432:4759   */\n    tag_66:\n        /* \"#utility.yul\":4577:4581   */\n      0x00\n        /* \"#utility.yul\":4615:4618   */\n      0x80\n        /* \"#utility.yul\":4604:4613   */\n      dup3\n        /* \"#utility.yul\":4600:4619   */\n      add\n        /* \"#utility.yul\":4592:4619   */\n      swap1\n      pop\n        /* \"#utility.yul\":4629:4752   */\n      tag_489\n        /* \"#utility.yul\":4749:4750   */\n      0x00\n        /* \"#utility.yul\":4738:4747   */\n      dup4\n        /* \"#utility.yul\":4734:4751   */\n      add\n        /* \"#utility.yul\":4725:4731   */\n      dup5\n        /* \"#utility.yul\":4629:4752   */\n      tag_396\n      jump\t// in\n    tag_489:\n        /* \"#utility.yul\":4432:4759   */\n      swap3\n      swap2\n      pop\n      pop\n      jump\t// out\n        /* \"#utility.yul\":4765:4887   */\n    tag_397:\n        /* \"#utility.yul\":4838:4862   */\n      tag_491\n        /* \"#utility.yul\":4856:4861   */\n      dup2\n        /* \"#utility.yul\":4838:4862   */\n      tag_390\n      jump\t// in\n    tag_491:\n        /* \"#utility.yul\":4831:4836   */\n      dup2\n        /* \"#utility.yul\":4828:4863   */\n      eq\n        /* \"#utility.yul\":4818:4881   */\n      tag_492\n      jumpi\n        /* \"#utility.yul\":4877:4878   */\n      0x00\n        /* \"#utility.yul\":4874:4875   */\n      0x00\n        /* \"#utility.yul\":4867:4879   */\n      revert\n        /* \"#utility.yul\":4818:4881   */\n    tag_492:\n        /* \"#utility.yul\":4765:4887   */\n      pop\n      jump\t// out\n        /* \"#utility.yul\":4893:5032   */\n    tag_398:\n        /* \"#utility.yul\":4939:4944   */\n      0x00\n        /* \"#utility.yul\":4977:4983   */\n      dup2\n        /* \"#utility.yul\":4964:4984   */\n      calldataload\n        /* \"#utility.yul\":4955:4984   */\n      swap1\n      pop\n        /* \"#utility.yul\":4993:5026   */\n      tag_494\n        /* \"#utility.yul\":5020:5025   */\n      dup2\n        /* \"#utility.yul\":4993:5026   */\n      tag_397\n      jump\t// in\n    tag_494:\n        /* \"#utility.yul\":4893:5032   */\n      swap3\n      swap2\n      pop\n      pop\n      jump\t// out\n        /* \"#utility.yul\":5038:5512   */\n    tag_79:\n        /* \"#utility.yul\":5106:5112   */\n      0x00\n        /* \"#utility.yul\":5114:5120   */\n      0x00\n        /* \"#utility.yul\":5163:5165   */\n      0x40\n        /* \"#utility.yul\":5151:5160   */\n      dup4\n        /* \"#utility.yul\":5142:5149   */\n      dup6\n        /* \"#utility.yul\":5138:5161   */\n      sub\n        /* \"#utility.yul\":5134:5166   */\n      slt\n        /* \"#utility.yul\":5131:5250   */\n      iszero\n      tag_496\n      jumpi\n        /* \"#utility.yul\":5169:5248   */\n      tag_497\n      tag_381\n      jump\t// in\n    tag_497:\n        /* \"#utility.yul\":5131:5250   */\n    tag_496:\n        /* \"#utility.yul\":5289:5290   */\n      0x00\n        /* \"#utility.yul\":5314:5367   */\n      tag_498\n        /* \"#utility.yul\":5359:5366   */\n      dup6\n        /* \"#utility.yul\":5350:5356   */\n      dup3\n        /* \"#utility.yul\":5339:5348   */\n      dup7\n        /* \"#utility.yul\":5335:5357   */\n      add\n        /* \"#utility.yul\":5314:5367   */\n      tag_386\n      jump\t// in\n    tag_498:\n        /* \"#utility.yul\":5304:5367   */\n      swap3\n      pop\n        /* \"#utility.yul\":5260:5377   */\n      pop\n        /* \"#utility.yul\":5416:5418   */\n      0x20\n        /* \"#utility.yul\":5442:5495   */\n      tag_499\n        /* \"#utility.yul\":5487:5494   */\n      dup6\n        /* \"#utility.yul\":5478:5484   */\n      dup3\n        /* \"#utility.yul\":5467:5476   */\n      dup7\n        /* \"#utility.yul\":5463:5485   */\n      add\n        /* \"#utility.yul\":5442:5495   */\n      tag_398\n      jump\t// in\n    tag_499:\n        /* \"#utility.yul\":5432:5495   */\n      swap2\n      pop\n        /* \"#utility.yul\":5387:5505   */\n      pop\n        /* \"#utility.yul\":5038:5512   */\n      swap3\n      pop\n      swap3\n      swap1\n      pop\n      jump\t// out\n        /* \"#utility.yul\":5518:5627   */\n    tag_399:\n        /* \"#utility.yul\":5599:5620   */\n      tag_501\n        /* \"#utility.yul\":5614:5619   */\n      dup2\n        /* \"#utility.yul\":5599:5620   */\n      tag_394\n      jump\t// in\n    tag_501:\n        /* \"#utility.yul\":5594:5597   */\n      dup3\n        /* \"#utility.yul\":5587:5621   */\n      mstore\n        /* \"#utility.yul\":5518:5627   */\n      pop\n      pop\n      jump\t// out\n        /* \"#utility.yul\":5633:5843   */\n    tag_91:\n        /* \"#utility.yul\":5720:5724   */\n      0x00\n        /* \"#utility.yul\":5758:5760   */\n      0x20\n        /* \"#utility.yul\":5747:5756   */\n      dup3\n        /* \"#utility.yul\":5743:5761   */\n      add\n        /* \"#utility.yul\":5735:5761   */\n      swap1\n      pop\n        /* \"#utility.yul\":5771:5836   */\n      tag_503\n        /* \"#utility.yul\":5833:5834   */\n      0x00\n        /* \"#utility.yul\":5822:5831   */\n      dup4\n        /* \"#utility.yul\":5818:5835   */\n      add\n        /* \"#utility.yul\":5809:5815   */\n      dup5\n        /* \"#utility.yul\":5771:5836   */\n      tag_399\n      jump\t// in\n    tag_503:\n        /* \"#utility.yul\":5633:5843   */\n      swap3\n      swap2\n      pop\n      pop\n      jump\t// out\n        /* \"#utility.yul\":5849:5963   */\n    tag_400:\n        /* \"#utility.yul\":5916:5922   */\n      0x00\n        /* \"#utility.yul\":5950:5955   */\n      dup2\n        /* \"#utility.yul\":5944:5956   */\n      mload\n        /* \"#utility.yul\":5934:5956   */\n      swap1\n      pop\n        /* \"#utility.yul\":5849:5963   */\n      swap2\n      swap1\n      pop\n      jump\t// out\n        /* \"#utility.yul\":5969:6153   */\n    tag_401:\n        /* \"#utility.yul\":6068:6079   */\n      0x00\n        /* \"#utility.yul\":6102:6108   */\n      dup3\n        /* \"#utility.yul\":6097:6100   */\n      dup3\n        /* \"#utility.yul\":6090:6109   */\n      mstore\n        /* \"#utility.yul\":6142:6146   */\n      0x20\n        /* \"#utility.yul\":6137:6140   */\n      dup3\n        /* \"#utility.yul\":6133:6147   */\n      add\n        /* \"#utility.yul\":6118:6147   */\n      swap1\n      pop\n        /* \"#utility.yul\":5969:6153   */\n      swap3\n      swap2\n      pop\n      pop\n      jump\t// out\n        /* \"#utility.yul\":6159:6291   */\n    tag_402:\n        /* \"#utility.yul\":6226:6230   */\n      0x00\n        /* \"#utility.yul\":6249:6252   */\n      dup2\n        /* \"#utility.yul\":6241:6252   */\n      swap1\n      pop\n        /* \"#utility.yul\":6279:6283   */\n      0x20\n        /* \"#utility.yul\":6274:6277   */\n      dup3\n        /* \"#utility.yul\":6270:6284   */\n      add\n        /* \"#utility.yul\":6262:6284   */\n      swap1\n      pop\n        /* \"#utility.yul\":6159:6291   */\n      swap2\n      swap1\n      pop\n      jump\t// out\n        /* \"#utility.yul\":6297:6476   */\n    tag_403:\n        /* \"#utility.yul\":6366:6376   */\n      0x00\n        /* \"#utility.yul\":6387:6433   */\n      tag_508\n        /* \"#utility.yul\":6429:6432   */\n      dup4\n        /* \"#utility.yul\":6421:6427   */\n      dup4\n        /* \"#utility.yul\":6387:6433   */\n      tag_392\n      jump\t// in\n    tag_508:\n        /* \"#utility.yul\":6465:6469   */\n      0x20\n        /* \"#utility.yul\":6460:6463   */\n      dup4\n        /* \"#utility.yul\":6456:6470   */\n      add\n        /* \"#utility.yul\":6442:6470   */\n      swap1\n      pop\n        /* \"#utility.yul\":6297:6476   */\n      swap3\n      swap2\n      pop\n      pop\n      jump\t// out\n        /* \"#utility.yul\":6482:6595   */\n    tag_404:\n        /* \"#utility.yul\":6552:6556   */\n      0x00\n        /* \"#utility.yul\":6584:6588   */\n      0x20\n        /* \"#utility.yul\":6579:6582   */\n      dup3\n        /* \"#utility.yul\":6575:6589   */\n      add\n        /* \"#utility.yul\":6567:6589   */\n      swap1\n      pop\n        /* \"#utility.yul\":6482:6595   */\n      swap2\n      swap1\n      pop\n      jump\t// out\n        /* \"#utility.yul\":6631:7363   */\n    tag_405:\n        /* \"#utility.yul\":6750:6753   */\n      0x00\n        /* \"#utility.yul\":6779:6833   */\n      tag_511\n        /* \"#utility.yul\":6827:6832   */\n      dup3\n        /* \"#utility.yul\":6779:6833   */\n      tag_400\n      jump\t// in\n    tag_511:\n        /* \"#utility.yul\":6849:6935   */\n      tag_512\n        /* \"#utility.yul\":6928:6934   */\n      dup2\n        /* \"#utility.yul\":6923:6926   */\n      dup6\n        /* \"#utility.yul\":6849:6935   */\n      tag_401\n      jump\t// in\n    tag_512:\n        /* \"#utility.yul\":6842:6935   */\n      swap4\n      pop\n        /* \"#utility.yul\":6959:7015   */\n      tag_513\n        /* \"#utility.yul\":7009:7014   */\n      dup4\n        /* \"#utility.yul\":6959:7015   */\n      tag_402\n      jump\t// in\n    tag_513:\n        /* \"#utility.yul\":7038:7045   */\n      dup1\n        /* \"#utility.yul\":7069:7070   */\n      0x00\n        /* \"#utility.yul\":7054:7338   */\n    tag_514:\n        /* \"#utility.yul\":7079:7085   */\n      dup4\n        /* \"#utility.yul\":7076:7077   */\n      dup2\n        /* \"#utility.yul\":7073:7086   */\n      lt\n        /* \"#utility.yul\":7054:7338   */\n      iszero\n      tag_516\n      jumpi\n        /* \"#utility.yul\":7155:7161   */\n      dup2\n        /* \"#utility.yul\":7149:7162   */\n      mload\n        /* \"#utility.yul\":7182:7245   */\n      tag_517\n        /* \"#utility.yul\":7241:7244   */\n      dup9\n        /* \"#utility.yul\":7226:7239   */\n      dup3\n        /* \"#utility.yul\":7182:7245   */\n      tag_403\n      jump\t// in\n    tag_517:\n        /* \"#utility.yul\":7175:7245   */\n      swap8\n      pop\n        /* \"#utility.yul\":7268:7328   */\n      tag_518\n        /* \"#utility.yul\":7321:7327   */\n      dup4\n        /* \"#utility.yul\":7268:7328   */\n      tag_404\n      jump\t// in\n    tag_518:\n        /* \"#utility.yul\":7258:7328   */\n      swap3\n      pop\n        /* \"#utility.yul\":7114:7338   */\n      pop\n        /* \"#utility.yul\":7101:7102   */\n      0x01\n        /* \"#utility.yul\":7098:7099   */\n      dup2\n        /* \"#utility.yul\":7094:7103   */\n      add\n        /* \"#utility.yul\":7089:7103   */\n      swap1\n      pop\n        /* \"#utility.yul\":7054:7338   */\n      jump(tag_514)\n    tag_516:\n        /* \"#utility.yul\":7058:7072   */\n      pop\n        /* \"#utility.yul\":7354:7357   */\n      dup6\n        /* \"#utility.yul\":7347:7357   */\n      swap4\n      pop\n        /* \"#utility.yul\":6755:7363   */\n      pop\n      pop\n      pop\n        /* \"#utility.yul\":6631:7363   */\n      swap3\n      swap2\n      pop\n      pop\n      jump\t// out\n        /* \"#utility.yul\":7369:7742   */\n    tag_96:\n        /* \"#utility.yul\":7512:7516   */\n      0x00\n        /* \"#utility.yul\":7550:7552   */\n      0x20\n        /* \"#utility.yul\":7539:7548   */\n      dup3\n        /* \"#utility.yul\":7535:7553   */\n      add\n        /* \"#utility.yul\":7527:7553   */\n      swap1\n      pop\n        /* \"#utility.yul\":7599:7608   */\n      dup2\n        /* \"#utility.yul\":7593:7597   */\n      dup2\n        /* \"#utility.yul\":7589:7609   */\n      sub\n        /* \"#utility.yul\":7585:7586   */\n      0x00\n        /* \"#utility.yul\":7574:7583   */\n      dup4\n        /* \"#utility.yul\":7570:7587   */\n      add\n        /* \"#utility.yul\":7563:7610   */\n      mstore\n        /* \"#utility.yul\":7627:7735   */\n      tag_520\n        /* \"#utility.yul\":7730:7734   */\n      dup2\n        /* \"#utility.yul\":7721:7727   */\n      dup5\n        /* \"#utility.yul\":7627:7735   */\n      tag_405\n      jump\t// in\n    tag_520:\n        /* \"#utility.yul\":7619:7735   */\n      swap1\n      pop\n        /* \"#utility.yul\":7369:7742   */\n      swap3\n      swap2\n      pop\n      pop\n      jump\t// out\n        /* \"#utility.yul\":7748:7866   */\n    tag_406:\n        /* \"#utility.yul\":7835:7859   */\n      tag_522\n        /* \"#utility.yul\":7853:7858   */\n      dup2\n        /* \"#utility.yul\":7835:7859   */\n      tag_384\n      jump\t// in\n    tag_522:\n        /* \"#utility.yul\":7830:7833   */\n      dup3\n        /* \"#utility.yul\":7823:7860   */\n      mstore\n        /* \"#utility.yul\":7748:7866   */\n      pop\n      pop\n      jump\t// out\n        /* \"#utility.yul\":7872:7984   */\n    tag_407:\n        /* \"#utility.yul\":7955:7977   */\n      tag_524\n        /* \"#utility.yul\":7971:7976   */\n      dup2\n        /* \"#utility.yul\":7955:7977   */\n      tag_387\n      jump\t// in\n    tag_524:\n        /* \"#utility.yul\":7950:7953   */\n      dup3\n        /* \"#utility.yul\":7943:7978   */\n      mstore\n        /* \"#utility.yul\":7872:7984   */\n      pop\n      pop\n      jump\t// out\n        /* \"#utility.yul\":7990:8523   */\n    tag_106:\n        /* \"#utility.yul\":8157:8161   */\n      0x00\n        /* \"#utility.yul\":8195:8198   */\n      0x80\n        /* \"#utility.yul\":8184:8193   */\n      dup3\n        /* \"#utility.yul\":8180:8199   */\n      add\n        /* \"#utility.yul\":8172:8199   */\n      swap1\n      pop\n        /* \"#utility.yul\":8209:8280   */\n      tag_526\n        /* \"#utility.yul\":8277:8278   */\n      0x00\n        /* \"#utility.yul\":8266:8275   */\n      dup4\n        /* \"#utility.yul\":8262:8279   */\n      add\n        /* \"#utility.yul\":8253:8259   */\n      dup8\n        /* \"#utility.yul\":8209:8280   */\n      tag_406\n      jump\t// in\n    tag_526:\n        /* \"#utility.yul\":8290:8362   */\n      tag_527\n        /* \"#utility.yul\":8358:8360   */\n      0x20\n        /* \"#utility.yul\":8347:8356   */\n      dup4\n        /* \"#utility.yul\":8343:8361   */\n      add\n        /* \"#utility.yul\":8334:8340   */\n      dup7\n        /* \"#utility.yul\":8290:8362   */\n      tag_406\n      jump\t// in\n    tag_527:\n        /* \"#utility.yul\":8372:8440   */\n      tag_528\n        /* \"#utility.yul\":8436:8438   */\n      0x40\n        /* \"#utility.yul\":8425:8434   */\n      dup4\n        /* \"#utility.yul\":8421:8439   */\n      add\n        /* \"#utility.yul\":8412:8418   */\n      dup6\n        /* \"#utility.yul\":8372:8440   */\n      tag_407\n      jump\t// in\n    tag_528:\n        /* \"#utility.yul\":8450:8516   */\n      tag_529\n        /* \"#utility.yul\":8512:8514   */\n      0x60\n        /* \"#utility.yul\":8501:8510   */\n      dup4\n        /* \"#utility.yul\":8497:8515   */\n      add\n        /* \"#utility.yul\":8488:8494   */\n      dup5\n        /* \"#utility.yul\":8450:8516   */\n      tag_399\n      jump\t// in\n    tag_529:\n        /* \"#utility.yul\":7990:8523   */\n      swap6\n      swap5\n      pop\n      pop\n      pop\n      pop\n      pop\n      jump\t// out\n        /* \"#utility.yul\":8529:8751   */\n    tag_126:\n        /* \"#utility.yul\":8622:8626   */\n      0x00\n        /* \"#utility.yul\":8660:8662   */\n      0x20\n        /* \"#utility.yul\":8649:8658   */\n      dup3\n        /* \"#utility.yul\":8645:8663   */\n      add\n        /* \"#utility.yul\":8637:8663   */\n      swap1\n      pop\n        /* \"#utility.yul\":8673:8744   */\n      tag_531\n        /* \"#utility.yul\":8741:8742   */\n      0x00\n        /* \"#utility.yul\":8730:8739   */\n      dup4\n        /* \"#utility.yul\":8726:8743   */\n      add\n        /* \"#utility.yul\":8717:8723   */\n      dup5\n        /* \"#utility.yul\":8673:8744   */\n      tag_406\n      jump\t// in\n    tag_531:\n        /* \"#utility.yul\":8529:8751   */\n      swap3\n      swap2\n      pop\n      pop\n      jump\t// out\n        /* \"#utility.yul\":8757:9086   */\n    tag_130:\n        /* \"#utility.yul\":8816:8822   */\n      0x00\n        /* \"#utility.yul\":8865:8867   */\n      0x20\n        /* \"#utility.yul\":8853:8862   */\n      dup3\n        /* \"#utility.yul\":8844:8851   */\n      dup5\n        /* \"#utility.yul\":8840:8863   */\n      sub\n        /* \"#utility.yul\":8836:8868   */\n      slt\n        /* \"#utility.yul\":8833:8952   */\n      iszero\n      tag_533\n      jumpi\n        /* \"#utility.yul\":8871:8950   */\n      tag_534\n      tag_381\n      jump\t// in\n    tag_534:\n        /* \"#utility.yul\":8833:8952   */\n    tag_533:\n        /* \"#utility.yul\":8991:8992   */\n      0x00\n        /* \"#utility.yul\":9016:9069   */\n      tag_535\n        /* \"#utility.yul\":9061:9068   */\n      dup5\n        /* \"#utility.yul\":9052:9058   */\n      dup3\n        /* \"#utility.yul\":9041:9050   */\n      dup6\n        /* \"#utility.yul\":9037:9059   */\n      add\n        /* \"#utility.yul\":9016:9069   */\n      tag_398\n      jump\t// in\n    tag_535:\n        /* \"#utility.yul\":9006:9069   */\n      swap2\n      pop\n        /* \"#utility.yul\":8962:9079   */\n      pop\n        /* \"#utility.yul\":8757:9086   */\n      swap3\n      swap2\n      pop\n      pop\n      jump\t// out\n        /* \"#utility.yul\":9092:9152   */\n    tag_408:\n        /* \"#utility.yul\":9120:9123   */\n      0x00\n        /* \"#utility.yul\":9141:9146   */\n      dup2\n        /* \"#utility.yul\":9134:9146   */\n      swap1\n      pop\n        /* \"#utility.yul\":9092:9152   */\n      swap2\n      swap1\n      pop\n      jump\t// out\n        /* \"#utility.yul\":9158:9300   */\n    tag_409:\n        /* \"#utility.yul\":9208:9217   */\n      0x00\n        /* \"#utility.yul\":9241:9294   */\n      tag_538\n        /* \"#utility.yul\":9259:9293   */\n      tag_539\n        /* \"#utility.yul\":9268:9292   */\n      tag_540\n        /* \"#utility.yul\":9286:9291   */\n      dup5\n        /* \"#utility.yul\":9268:9292   */\n      tag_383\n      jump\t// in\n    tag_540:\n        /* \"#utility.yul\":9259:9293   */\n      tag_408\n      jump\t// in\n    tag_539:\n        /* \"#utility.yul\":9241:9294   */\n      tag_383\n      jump\t// in\n    tag_538:\n        /* \"#utility.yul\":9228:9294   */\n      swap1\n      pop\n        /* \"#utility.yul\":9158:9300   */\n      swap2\n      swap1\n      pop\n      jump\t// out\n        /* \"#utility.yul\":9306:9432   */\n    tag_410:\n        /* \"#utility.yul\":9356:9365   */\n      0x00\n        /* \"#utility.yul\":9389:9426   */\n      tag_542\n        /* \"#utility.yul\":9420:9425   */\n      dup3\n        /* \"#utility.yul\":9389:9426   */\n      tag_409\n      jump\t// in\n    tag_542:\n        /* \"#utility.yul\":9376:9426   */\n      swap1\n      pop\n        /* \"#utility.yul\":9306:9432   */\n      swap2\n      swap1\n      pop\n      jump\t// out\n        /* \"#utility.yul\":9438:9592   */\n    tag_411:\n        /* \"#utility.yul\":9516:9525   */\n      0x00\n        /* \"#utility.yul\":9549:9586   */\n      tag_544\n        /* \"#utility.yul\":9580:9585   */\n      dup3\n        /* \"#utility.yul\":9549:9586   */\n      tag_410\n      jump\t// in\n    tag_544:\n        /* \"#utility.yul\":9536:9586   */\n      swap1\n      pop\n        /* \"#utility.yul\":9438:9592   */\n      swap2\n      swap1\n      pop\n      jump\t// out\n        /* \"#utility.yul\":9598:9785   */\n    tag_412:\n        /* \"#utility.yul\":9713:9778   */\n      tag_546\n        /* \"#utility.yul\":9772:9777   */\n      dup2\n        /* \"#utility.yul\":9713:9778   */\n      tag_411\n      jump\t// in\n    tag_546:\n        /* \"#utility.yul\":9708:9711   */\n      dup3\n        /* \"#utility.yul\":9701:9779   */\n      mstore\n        /* \"#utility.yul\":9598:9785   */\n      pop\n      pop\n      jump\t// out\n        /* \"#utility.yul\":9791:10069   */\n    tag_141:\n        /* \"#utility.yul\":9912:9916   */\n      0x00\n        /* \"#utility.yul\":9950:9952   */\n      0x20\n        /* \"#utility.yul\":9939:9948   */\n      dup3\n        /* \"#utility.yul\":9935:9953   */\n      add\n        /* \"#utility.yul\":9927:9953   */\n      swap1\n      pop\n        /* \"#utility.yul\":9963:10062   */\n      tag_548\n        /* \"#utility.yul\":10059:10060   */\n      0x00\n        /* \"#utility.yul\":10048:10057   */\n      dup4\n        /* \"#utility.yul\":10044:10061   */\n      add\n        /* \"#utility.yul\":10035:10041   */\n      dup5\n        /* \"#utility.yul\":9963:10062   */\n      tag_412\n      jump\t// in\n    tag_548:\n        /* \"#utility.yul\":9791:10069   */\n      swap3\n      swap2\n      pop\n      pop\n      jump\t// out\n        /* \"#utility.yul\":10075:10289   */\n    tag_146:\n        /* \"#utility.yul\":10164:10168   */\n      0x00\n        /* \"#utility.yul\":10202:10204   */\n      0x20\n        /* \"#utility.yul\":10191:10200   */\n      dup3\n        /* \"#utility.yul\":10187:10205   */\n      add\n        /* \"#utility.yul\":10179:10205   */\n      swap1\n      pop\n        /* \"#utility.yul\":10215:10282   */\n      tag_550\n        /* \"#utility.yul\":10279:10280   */\n      0x00\n        /* \"#utility.yul\":10268:10277   */\n      dup4\n        /* \"#utility.yul\":10264:10281   */\n      add\n        /* \"#utility.yul\":10255:10261   */\n      dup5\n        /* \"#utility.yul\":10215:10282   */\n      tag_407\n      jump\t// in\n    tag_550:\n        /* \"#utility.yul\":10075:10289   */\n      swap3\n      swap2\n      pop\n      pop\n      jump\t// out\n        /* \"#utility.yul\":10295:10409   */\n    tag_413:\n        /* \"#utility.yul\":10362:10368   */\n      0x00\n        /* \"#utility.yul\":10396:10401   */\n      dup2\n        /* \"#utility.yul\":10390:10402   */\n      mload\n        /* \"#utility.yul\":10380:10402   */\n      swap1\n      pop\n        /* \"#utility.yul\":10295:10409   */\n      swap2\n      swap1\n      pop\n      jump\t// out\n        /* \"#utility.yul\":10415:10599   */\n    tag_414:\n        /* \"#utility.yul\":10514:10525   */\n      0x00\n        /* \"#utility.yul\":10548:10554   */\n      dup3\n        /* \"#utility.yul\":10543:10546   */\n      dup3\n        /* \"#utility.yul\":10536:10555   */\n      mstore\n        /* \"#utility.yul\":10588:10592   */\n      0x20\n        /* \"#utility.yul\":10583:10586   */\n      dup3\n        /* \"#utility.yul\":10579:10593   */\n      add\n        /* \"#utility.yul\":10564:10593   */\n      swap1\n      pop\n        /* \"#utility.yul\":10415:10599   */\n      swap3\n      swap2\n      pop\n      pop\n      jump\t// out\n        /* \"#utility.yul\":10605:10737   */\n    tag_415:\n        /* \"#utility.yul\":10672:10676   */\n      0x00\n        /* \"#utility.yul\":10695:10698   */\n      dup2\n        /* \"#utility.yul\":10687:10698   */\n      swap1\n      pop\n        /* \"#utility.yul\":10725:10729   */\n      0x20\n        /* \"#utility.yul\":10720:10723   */\n      dup3\n        /* \"#utility.yul\":10716:10730   */\n      add\n        /* \"#utility.yul\":10708:10730   */\n      swap1\n      pop\n        /* \"#utility.yul\":10605:10737   */\n      swap2\n      swap1\n      pop\n      jump\t// out\n        /* \"#utility.yul\":10743:10851   */\n    tag_416:\n        /* \"#utility.yul\":10820:10844   */\n      tag_555\n        /* \"#utility.yul\":10838:10843   */\n      dup2\n        /* \"#utility.yul\":10820:10844   */\n      tag_390\n      jump\t// in\n    tag_555:\n        /* \"#utility.yul\":10815:10818   */\n      dup3\n        /* \"#utility.yul\":10808:10845   */\n      mstore\n        /* \"#utility.yul\":10743:10851   */\n      pop\n      pop\n      jump\t// out\n        /* \"#utility.yul\":10857:11036   */\n    tag_417:\n        /* \"#utility.yul\":10926:10936   */\n      0x00\n        /* \"#utility.yul\":10947:10993   */\n      tag_557\n        /* \"#utility.yul\":10989:10992   */\n      dup4\n        /* \"#utility.yul\":10981:10987   */\n      dup4\n        /* \"#utility.yul\":10947:10993   */\n      tag_416\n      jump\t// in\n    tag_557:\n        /* \"#utility.yul\":11025:11029   */\n      0x20\n        /* \"#utility.yul\":11020:11023   */\n      dup4\n        /* \"#utility.yul\":11016:11030   */\n      add\n        /* \"#utility.yul\":11002:11030   */\n      swap1\n      pop\n        /* \"#utility.yul\":10857:11036   */\n      swap3\n      swap2\n      pop\n      pop\n      jump\t// out\n        /* \"#utility.yul\":11042:11155   */\n    tag_418:\n        /* \"#utility.yul\":11112:11116   */\n      0x00\n        /* \"#utility.yul\":11144:11148   */\n      0x20\n        /* \"#utility.yul\":11139:11142   */\n      dup3\n        /* \"#utility.yul\":11135:11149   */\n      add\n        /* \"#utility.yul\":11127:11149   */\n      swap1\n      pop\n        /* \"#utility.yul\":11042:11155   */\n      swap2\n      swap1\n      pop\n      jump\t// out\n        /* \"#utility.yul\":11191:11923   */\n    tag_419:\n        /* \"#utility.yul\":11310:11313   */\n      0x00\n        /* \"#utility.yul\":11339:11393   */\n      tag_560\n        /* \"#utility.yul\":11387:11392   */\n      dup3\n        /* \"#utility.yul\":11339:11393   */\n      tag_413\n      jump\t// in\n    tag_560:\n        /* \"#utility.yul\":11409:11495   */\n      tag_561\n        /* \"#utility.yul\":11488:11494   */\n      dup2\n        /* \"#utility.yul\":11483:11486   */\n      dup6\n        /* \"#utility.yul\":11409:11495   */\n      tag_414\n      jump\t// in\n    tag_561:\n        /* \"#utility.yul\":11402:11495   */\n      swap4\n      pop\n        /* \"#utility.yul\":11519:11575   */\n      tag_562\n        /* \"#utility.yul\":11569:11574   */\n      dup4\n        /* \"#utility.yul\":11519:11575   */\n      tag_415\n      jump\t// in\n    tag_562:\n        /* \"#utility.yul\":11598:11605   */\n      dup1\n        /* \"#utility.yul\":11629:11630   */\n      0x00\n        /* \"#utility.yul\":11614:11898   */\n    tag_563:\n        /* \"#utility.yul\":11639:11645   */\n      dup4\n        /* \"#utility.yul\":11636:11637   */\n      dup2\n        /* \"#utility.yul\":11633:11646   */\n      lt\n        /* \"#utility.yul\":11614:11898   */\n      iszero\n      tag_565\n      jumpi\n        /* \"#utility.yul\":11715:11721   */\n      dup2\n        /* \"#utility.yul\":11709:11722   */\n      mload\n        /* \"#utility.yul\":11742:11805   */\n      tag_566\n        /* \"#utility.yul\":11801:11804   */\n      dup9\n        /* \"#utility.yul\":11786:11799   */\n      dup3\n        /* \"#utility.yul\":11742:11805   */\n      tag_417\n      jump\t// in\n    tag_566:\n        /* \"#utility.yul\":11735:11805   */\n      swap8\n      pop\n        /* \"#utility.yul\":11828:11888   */\n      tag_567\n        /* \"#utility.yul\":11881:11887   */\n      dup4\n        /* \"#utility.yul\":11828:11888   */\n      tag_418\n      jump\t// in\n    tag_567:\n        /* \"#utility.yul\":11818:11888   */\n      swap3\n      pop\n        /* \"#utility.yul\":11674:11898   */\n      pop\n        /* \"#utility.yul\":11661:11662   */\n      0x01\n        /* \"#utility.yul\":11658:11659   */\n      dup2\n        /* \"#utility.yul\":11654:11663   */\n      add\n        /* \"#utility.yul\":11649:11663   */\n      swap1\n      pop\n        /* \"#utility.yul\":11614:11898   */\n      jump(tag_563)\n    tag_565:\n        /* \"#utility.yul\":11618:11632   */\n      pop\n        /* \"#utility.yul\":11914:11917   */\n      dup6\n        /* \"#utility.yul\":11907:11917   */\n      swap4\n      pop\n        /* \"#utility.yul\":11315:11923   */\n      pop\n      pop\n      pop\n        /* \"#utility.yul\":11191:11923   */\n      swap3\n      swap2\n      pop\n      pop\n      jump\t// out\n        /* \"#utility.yul\":11929:12563   */\n    tag_152:\n        /* \"#utility.yul\":12150:12154   */\n      0x00\n        /* \"#utility.yul\":12188:12190   */\n      0x40\n        /* \"#utility.yul\":12177:12186   */\n      dup3\n        /* \"#utility.yul\":12173:12191   */\n      add\n        /* \"#utility.yul\":12165:12191   */\n      swap1\n      pop\n        /* \"#utility.yul\":12237:12246   */\n      dup2\n        /* \"#utility.yul\":12231:12235   */\n      dup2\n        /* \"#utility.yul\":12227:12247   */\n      sub\n        /* \"#utility.yul\":12223:12224   */\n      0x00\n        /* \"#utility.yul\":12212:12221   */\n      dup4\n        /* \"#utility.yul\":12208:12225   */\n      add\n        /* \"#utility.yul\":12201:12248   */\n      mstore\n        /* \"#utility.yul\":12265:12373   */\n      tag_569\n        /* \"#utility.yul\":12368:12372   */\n      dup2\n        /* \"#utility.yul\":12359:12365   */\n      dup6\n        /* \"#utility.yul\":12265:12373   */\n      tag_405\n      jump\t// in\n    tag_569:\n        /* \"#utility.yul\":12257:12373   */\n      swap1\n      pop\n        /* \"#utility.yul\":12420:12429   */\n      dup2\n        /* \"#utility.yul\":12414:12418   */\n      dup2\n        /* \"#utility.yul\":12410:12430   */\n      sub\n        /* \"#utility.yul\":12405:12407   */\n      0x20\n        /* \"#utility.yul\":12394:12403   */\n      dup4\n        /* \"#utility.yul\":12390:12408   */\n      add\n        /* \"#utility.yul\":12383:12431   */\n      mstore\n        /* \"#utility.yul\":12448:12556   */\n      tag_570\n        /* \"#utility.yul\":12551:12555   */\n      dup2\n        /* \"#utility.yul\":12542:12548   */\n      dup5\n        /* \"#utility.yul\":12448:12556   */\n      tag_419\n      jump\t// in\n    tag_570:\n        /* \"#utility.yul\":12440:12556   */\n      swap1\n      pop\n        /* \"#utility.yul\":11929:12563   */\n      swap4\n      swap3\n      pop\n      pop\n      pop\n      jump\t// out\n        /* \"#utility.yul\":12569:12749   */\n    tag_420:\n        /* \"#utility.yul\":12617:12694   */\n      0x4e487b7100000000000000000000000000000000000000000000000000000000\n        /* \"#utility.yul\":12614:12615   */\n      0x00\n        /* \"#utility.yul\":12607:12695   */\n      mstore\n        /* \"#utility.yul\":12714:12718   */\n      0x11\n        /* \"#utility.yul\":12711:12712   */\n      0x04\n        /* \"#utility.yul\":12704:12719   */\n      mstore\n        /* \"#utility.yul\":12738:12742   */\n      0x24\n        /* \"#utility.yul\":12735:12736   */\n      0x00\n        /* \"#utility.yul\":12728:12743   */\n      revert\n        /* \"#utility.yul\":12755:12946   */\n    tag_188:\n        /* \"#utility.yul\":12795:12798   */\n      0x00\n        /* \"#utility.yul\":12814:12834   */\n      tag_573\n        /* \"#utility.yul\":12832:12833   */\n      dup3\n        /* \"#utility.yul\":12814:12834   */\n      tag_390\n      jump\t// in\n    tag_573:\n        /* \"#utility.yul\":12809:12834   */\n      swap2\n      pop\n        /* \"#utility.yul\":12848:12868   */\n      tag_574\n        /* \"#utility.yul\":12866:12867   */\n      dup4\n        /* \"#utility.yul\":12848:12868   */\n      tag_390\n      jump\t// in\n    tag_574:\n        /* \"#utility.yul\":12843:12868   */\n      swap3\n      pop\n        /* \"#utility.yul\":12891:12892   */\n      dup3\n        /* \"#utility.yul\":12888:12889   */\n      dup3\n        /* \"#utility.yul\":12884:12893   */\n      add\n        /* \"#utility.yul\":12877:12893   */\n      swap1\n      pop\n        /* \"#utility.yul\":12912:12915   */\n      dup1\n        /* \"#utility.yul\":12909:12910   */\n      dup3\n        /* \"#utility.yul\":12906:12916   */\n      gt\n        /* \"#utility.yul\":12903:12939   */\n      iszero\n      tag_575\n      jumpi\n        /* \"#utility.yul\":12919:12937   */\n      tag_576\n      tag_420\n      jump\t// in\n    tag_576:\n        /* \"#utility.yul\":12903:12939   */\n    tag_575:\n        /* \"#utility.yul\":12755:12946   */\n      swap3\n      swap2\n      pop\n      pop\n      jump\t// out\n        /* \"#utility.yul\":12952:13284   */\n    tag_192:\n        /* \"#utility.yul\":13073:13077   */\n      0x00\n        /* \"#utility.yul\":13111:13113   */\n      0x40\n        /* \"#utility.yul\":13100:13109   */\n      dup3\n        /* \"#utility.yul\":13096:13114   */\n      add\n        /* \"#utility.yul\":13088:13114   */\n      swap1\n      pop\n        /* \"#utility.yul\":13124:13195   */\n      tag_578\n        /* \"#utility.yul\":13192:13193   */\n      0x00\n        /* \"#utility.yul\":13181:13190   */\n      dup4\n        /* \"#utility.yul\":13177:13194   */\n      add\n        /* \"#utility.yul\":13168:13174   */\n      dup6\n        /* \"#utility.yul\":13124:13195   */\n      tag_391\n      jump\t// in\n    tag_578:\n        /* \"#utility.yul\":13205:13277   */\n      tag_579\n        /* \"#utility.yul\":13273:13275   */\n      0x20\n        /* \"#utility.yul\":13262:13271   */\n      dup4\n        /* \"#utility.yul\":13258:13276   */\n      add\n        /* \"#utility.yul\":13249:13255   */\n      dup5\n        /* \"#utility.yul\":13205:13277   */\n      tag_391\n      jump\t// in\n    tag_579:\n        /* \"#utility.yul\":12952:13284   */\n      swap4\n      swap3\n      pop\n      pop\n      pop\n      jump\t// out\n        /* \"#utility.yul\":13290:13459   */\n    tag_421:\n        /* \"#utility.yul\":13374:13385   */\n      0x00\n        /* \"#utility.yul\":13408:13414   */\n      dup3\n        /* \"#utility.yul\":13403:13406   */\n      dup3\n        /* \"#utility.yul\":13396:13415   */\n      mstore\n        /* \"#utility.yul\":13448:13452   */\n      0x20\n        /* \"#utility.yul\":13443:13446   */\n      dup3\n        /* \"#utility.yul\":13439:13453   */\n      add\n        /* \"#utility.yul\":13424:13453   */\n      swap1\n      pop\n        /* \"#utility.yul\":13290:13459   */\n      swap3\n      swap2\n      pop\n      pop\n      jump\t// out\n        /* \"#utility.yul\":13465:13644   */\n    tag_422:\n        /* \"#utility.yul\":13605:13636   */\n      0x557365206465706f73697445544820666f72206e617469766520455448000000\n        /* \"#utility.yul\":13601:13602   */\n      0x00\n        /* \"#utility.yul\":13593:13599   */\n      dup3\n        /* \"#utility.yul\":13589:13603   */\n      add\n        /* \"#utility.yul\":13582:13637   */\n      mstore\n        /* \"#utility.yul\":13465:13644   */\n      pop\n      jump\t// out\n        /* \"#utility.yul\":13650:14016   */\n    tag_423:\n        /* \"#utility.yul\":13792:13795   */\n      0x00\n        /* \"#utility.yul\":13813:13880   */\n      tag_583\n        /* \"#utility.yul\":13877:13879   */\n      0x1d\n        /* \"#utility.yul\":13872:13875   */\n      dup4\n        /* \"#utility.yul\":13813:13880   */\n      tag_421\n      jump\t// in\n    tag_583:\n        /* \"#utility.yul\":13806:13880   */\n      swap2\n      pop\n        /* \"#utility.yul\":13889:13982   */\n      tag_584\n        /* \"#utility.yul\":13978:13981   */\n      dup3\n        /* \"#utility.yul\":13889:13982   */\n      tag_422\n      jump\t// in\n    tag_584:\n        /* \"#utility.yul\":14007:14009   */\n      0x20\n        /* \"#utility.yul\":14002:14005   */\n      dup3\n        /* \"#utility.yul\":13998:14010   */\n      add\n        /* \"#utility.yul\":13991:14010   */\n      swap1\n      pop\n        /* \"#utility.yul\":13650:14016   */\n      swap2\n      swap1\n      pop\n      jump\t// out\n        /* \"#utility.yul\":14022:14441   */\n    tag_219:\n        /* \"#utility.yul\":14188:14192   */\n      0x00\n        /* \"#utility.yul\":14226:14228   */\n      0x20\n        /* \"#utility.yul\":14215:14224   */\n      dup3\n        /* \"#utility.yul\":14211:14229   */\n      add\n        /* \"#utility.yul\":14203:14229   */\n      swap1\n      pop\n        /* \"#utility.yul\":14275:14284   */\n      dup2\n        /* \"#utility.yul\":14269:14273   */\n      dup2\n        /* \"#utility.yul\":14265:14285   */\n      sub\n        /* \"#utility.yul\":14261:14262   */\n      0x00\n        /* \"#utility.yul\":14250:14259   */\n      dup4\n        /* \"#utility.yul\":14246:14263   */\n      add\n        /* \"#utility.yul\":14239:14286   */\n      mstore\n        /* \"#utility.yul\":14303:14434   */\n      tag_586\n        /* \"#utility.yul\":14429:14433   */\n      dup2\n        /* \"#utility.yul\":14303:14434   */\n      tag_423\n      jump\t// in\n    tag_586:\n        /* \"#utility.yul\":14295:14434   */\n      swap1\n      pop\n        /* \"#utility.yul\":14022:14441   */\n      swap2\n      swap1\n      pop\n      jump\t// out\n        /* \"#utility.yul\":14447:14590   */\n    tag_424:\n        /* \"#utility.yul\":14504:14509   */\n      0x00\n        /* \"#utility.yul\":14535:14541   */\n      dup2\n        /* \"#utility.yul\":14529:14542   */\n      mload\n        /* \"#utility.yul\":14520:14542   */\n      swap1\n      pop\n        /* \"#utility.yul\":14551:14584   */\n      tag_588\n        /* \"#utility.yul\":14578:14583   */\n      dup2\n        /* \"#utility.yul\":14551:14584   */\n      tag_397\n      jump\t// in\n    tag_588:\n        /* \"#utility.yul\":14447:14590   */\n      swap3\n      swap2\n      pop\n      pop\n      jump\t// out\n        /* \"#utility.yul\":14596:14947   */\n    tag_224:\n        /* \"#utility.yul\":14666:14672   */\n      0x00\n        /* \"#utility.yul\":14715:14717   */\n      0x20\n        /* \"#utility.yul\":14703:14712   */\n      dup3\n        /* \"#utility.yul\":14694:14701   */\n      dup5\n        /* \"#utility.yul\":14690:14713   */\n      sub\n        /* \"#utility.yul\":14686:14718   */\n      slt\n        /* \"#utility.yul\":14683:14802   */\n      iszero\n      tag_590\n      jumpi\n        /* \"#utility.yul\":14721:14800   */\n      tag_591\n      tag_381\n      jump\t// in\n    tag_591:\n        /* \"#utility.yul\":14683:14802   */\n    tag_590:\n        /* \"#utility.yul\":14841:14842   */\n      0x00\n        /* \"#utility.yul\":14866:14930   */\n      tag_592\n        /* \"#utility.yul\":14922:14929   */\n      dup5\n        /* \"#utility.yul\":14913:14919   */\n      dup3\n        /* \"#utility.yul\":14902:14911   */\n      dup6\n        /* \"#utility.yul\":14898:14920   */\n      add\n        /* \"#utility.yul\":14866:14930   */\n      tag_424\n      jump\t// in\n    tag_592:\n        /* \"#utility.yul\":14856:14930   */\n      swap2\n      pop\n        /* \"#utility.yul\":14812:14940   */\n      pop\n        /* \"#utility.yul\":14596:14947   */\n      swap3\n      swap2\n      pop\n      pop\n      jump\t// out\n        /* \"#utility.yul\":14953:15147   */\n    tag_232:\n        /* \"#utility.yul\":14993:14997   */\n      0x00\n        /* \"#utility.yul\":15013:15033   */\n      tag_594\n        /* \"#utility.yul\":15031:15032   */\n      dup3\n        /* \"#utility.yul\":15013:15033   */\n      tag_390\n      jump\t// in\n    tag_594:\n        /* \"#utility.yul\":15008:15033   */\n      swap2\n      pop\n        /* \"#utility.yul\":15047:15067   */\n      tag_595\n        /* \"#utility.yul\":15065:15066   */\n      dup4\n        /* \"#utility.yul\":15047:15067   */\n      tag_390\n      jump\t// in\n    tag_595:\n        /* \"#utility.yul\":15042:15067   */\n      swap3\n      pop\n        /* \"#utility.yul\":15091:15092   */\n      dup3\n        /* \"#utility.yul\":15088:15089   */\n      dup3\n        /* \"#utility.yul\":15084:15093   */\n      sub\n        /* \"#utility.yul\":15076:15093   */\n      swap1\n      pop\n        /* \"#utility.yul\":15115:15116   */\n      dup2\n        /* \"#utility.yul\":15109:15113   */\n      dup2\n        /* \"#utility.yul\":15106:15117   */\n      gt\n        /* \"#utility.yul\":15103:15140   */\n      iszero\n      tag_596\n      jumpi\n        /* \"#utility.yul\":15120:15138   */\n      tag_597\n      tag_420\n      jump\t// in\n    tag_597:\n        /* \"#utility.yul\":15103:15140   */\n    tag_596:\n        /* \"#utility.yul\":14953:15147   */\n      swap3\n      swap2\n      pop\n      pop\n      jump\t// out\n        /* \"#utility.yul\":15153:15258   */\n    tag_425:\n        /* \"#utility.yul\":15189:15196   */\n      0x00\n        /* \"#utility.yul\":15229:15251   */\n      0xffffffffffffffffffff\n        /* \"#utility.yul\":15222:15227   */\n      dup3\n        /* \"#utility.yul\":15218:15252   */\n      and\n        /* \"#utility.yul\":15207:15252   */\n      swap1\n      pop\n        /* \"#utility.yul\":15153:15258   */\n      swap2\n      swap1\n      pop\n      jump\t// out\n        /* \"#utility.yul\":15264:15384   */\n    tag_426:\n        /* \"#utility.yul\":15336:15359   */\n      tag_600\n        /* \"#utility.yul\":15353:15358   */\n      dup2\n        /* \"#utility.yul\":15336:15359   */\n      tag_425\n      jump\t// in\n    tag_600:\n        /* \"#utility.yul\":15329:15334   */\n      dup2\n        /* \"#utility.yul\":15326:15360   */\n      eq\n        /* \"#utility.yul\":15316:15378   */\n      tag_601\n      jumpi\n        /* \"#utility.yul\":15374:15375   */\n      0x00\n        /* \"#utility.yul\":15371:15372   */\n      0x00\n        /* \"#utility.yul\":15364:15376   */\n      revert\n        /* \"#utility.yul\":15316:15378   */\n    tag_601:\n        /* \"#utility.yul\":15264:15384   */\n      pop\n      jump\t// out\n        /* \"#utility.yul\":15390:15531   */\n    tag_427:\n        /* \"#utility.yul\":15446:15451   */\n      0x00\n        /* \"#utility.yul\":15477:15483   */\n      dup2\n        /* \"#utility.yul\":15471:15484   */\n      mload\n        /* \"#utility.yul\":15462:15484   */\n      swap1\n      pop\n        /* \"#utility.yul\":15493:15525   */\n      tag_603\n        /* \"#utility.yul\":15519:15524   */\n      dup2\n        /* \"#utility.yul\":15493:15525   */\n      tag_426\n      jump\t// in\n    tag_603:\n        /* \"#utility.yul\":15390:15531   */\n      swap3\n      swap2\n      pop\n      pop\n      jump\t// out\n        /* \"#utility.yul\":15537:15613   */\n    tag_428:\n        /* \"#utility.yul\":15573:15580   */\n      0x00\n        /* \"#utility.yul\":15602:15607   */\n      dup2\n        /* \"#utility.yul\":15591:15607   */\n      swap1\n      pop\n        /* \"#utility.yul\":15537:15613   */\n      swap2\n      swap1\n      pop\n      jump\t// out\n        /* \"#utility.yul\":15619:15739   */\n    tag_429:\n        /* \"#utility.yul\":15691:15714   */\n      tag_606\n        /* \"#utility.yul\":15708:15713   */\n      dup2\n        /* \"#utility.yul\":15691:15714   */\n      tag_428\n      jump\t// in\n    tag_606:\n        /* \"#utility.yul\":15684:15689   */\n      dup2\n        /* \"#utility.yul\":15681:15715   */\n      eq\n        /* \"#utility.yul\":15671:15733   */\n      tag_607\n      jumpi\n        /* \"#utility.yul\":15729:15730   */\n      0x00\n        /* \"#utility.yul\":15726:15727   */\n      0x00\n        /* \"#utility.yul\":15719:15731   */\n      revert\n        /* \"#utility.yul\":15671:15733   */\n    tag_607:\n        /* \"#utility.yul\":15619:15739   */\n      pop\n      jump\t// out\n        /* \"#utility.yul\":15745:15886   */\n    tag_430:\n        /* \"#utility.yul\":15801:15806   */\n      0x00\n        /* \"#utility.yul\":15832:15838   */\n      dup2\n        /* \"#utility.yul\":15826:15839   */\n      mload\n        /* \"#utility.yul\":15817:15839   */\n      swap1\n      pop\n        /* \"#utility.yul\":15848:15880   */\n      tag_609\n        /* \"#utility.yul\":15874:15879   */\n      dup2\n        /* \"#utility.yul\":15848:15880   */\n      tag_429\n      jump\t// in\n    tag_609:\n        /* \"#utility.yul\":15745:15886   */\n      swap3\n      swap2\n      pop\n      pop\n      jump\t// out\n        /* \"#utility.yul\":15892:16863   */\n    tag_242:\n        /* \"#utility.yul\":15995:16001   */\n      0x00\n        /* \"#utility.yul\":16003:16009   */\n      0x00\n        /* \"#utility.yul\":16011:16017   */\n      0x00\n        /* \"#utility.yul\":16019:16025   */\n      0x00\n        /* \"#utility.yul\":16027:16033   */\n      0x00\n        /* \"#utility.yul\":16076:16079   */\n      0xa0\n        /* \"#utility.yul\":16064:16073   */\n      dup7\n        /* \"#utility.yul\":16055:16062   */\n      dup9\n        /* \"#utility.yul\":16051:16074   */\n      sub\n        /* \"#utility.yul\":16047:16080   */\n      slt\n        /* \"#utility.yul\":16044:16164   */\n      iszero\n      tag_611\n      jumpi\n        /* \"#utility.yul\":16083:16162   */\n      tag_612\n      tag_381\n      jump\t// in\n    tag_612:\n        /* \"#utility.yul\":16044:16164   */\n    tag_611:\n        /* \"#utility.yul\":16203:16204   */\n      0x00\n        /* \"#utility.yul\":16228:16291   */\n      tag_613\n        /* \"#utility.yul\":16283:16290   */\n      dup9\n        /* \"#utility.yul\":16274:16280   */\n      dup3\n        /* \"#utility.yul\":16263:16272   */\n      dup10\n        /* \"#utility.yul\":16259:16281   */\n      add\n        /* \"#utility.yul\":16228:16291   */\n      tag_427\n      jump\t// in\n    tag_613:\n        /* \"#utility.yul\":16218:16291   */\n      swap6\n      pop\n        /* \"#utility.yul\":16174:16301   */\n      pop\n        /* \"#utility.yul\":16340:16342   */\n      0x20\n        /* \"#utility.yul\":16366:16429   */\n      tag_614\n        /* \"#utility.yul\":16421:16428   */\n      dup9\n        /* \"#utility.yul\":16412:16418   */\n      dup3\n        /* \"#utility.yul\":16401:16410   */\n      dup10\n        /* \"#utility.yul\":16397:16419   */\n      add\n        /* \"#utility.yul\":16366:16429   */\n      tag_430\n      jump\t// in\n    tag_614:\n        /* \"#utility.yul\":16356:16429   */\n      swap5\n      pop\n        /* \"#utility.yul\":16311:16439   */\n      pop\n        /* \"#utility.yul\":16478:16480   */\n      0x40\n        /* \"#utility.yul\":16504:16568   */\n      tag_615\n        /* \"#utility.yul\":16560:16567   */\n      dup9\n        /* \"#utility.yul\":16551:16557   */\n      dup3\n        /* \"#utility.yul\":16540:16549   */\n      dup10\n        /* \"#utility.yul\":16536:16558   */\n      add\n        /* \"#utility.yul\":16504:16568   */\n      tag_424\n      jump\t// in\n    tag_615:\n        /* \"#utility.yul\":16494:16568   */\n      swap4\n      pop\n        /* \"#utility.yul\":16449:16578   */\n      pop\n        /* \"#utility.yul\":16617:16619   */\n      0x60\n        /* \"#utility.yul\":16643:16707   */\n      tag_616\n        /* \"#utility.yul\":16699:16706   */\n      dup9\n        /* \"#utility.yul\":16690:16696   */\n      dup3\n        /* \"#utility.yul\":16679:16688   */\n      dup10\n        /* \"#utility.yul\":16675:16697   */\n      add\n        /* \"#utility.yul\":16643:16707   */\n      tag_424\n      jump\t// in\n    tag_616:\n        /* \"#utility.yul\":16633:16707   */\n      swap3\n      pop\n        /* \"#utility.yul\":16588:16717   */\n      pop\n        /* \"#utility.yul\":16756:16759   */\n      0x80\n        /* \"#utility.yul\":16783:16846   */\n      tag_617\n        /* \"#utility.yul\":16838:16845   */\n      dup9\n        /* \"#utility.yul\":16829:16835   */\n      dup3\n        /* \"#utility.yul\":16818:16827   */\n      dup10\n        /* \"#utility.yul\":16814:16836   */\n      add\n        /* \"#utility.yul\":16783:16846   */\n      tag_427\n      jump\t// in\n    tag_617:\n        /* \"#utility.yul\":16773:16846   */\n      swap2\n      pop\n        /* \"#utility.yul\":16727:16856   */\n      pop\n        /* \"#utility.yul\":15892:16863   */\n      swap3\n      swap6\n      pop\n      swap3\n      swap6\n      swap1\n      swap4\n      pop\n      jump\t// out\n        /* \"#utility.yul\":16869:17060   */\n    tag_246:\n        /* \"#utility.yul\":16907:16911   */\n      0x00\n        /* \"#utility.yul\":16927:16945   */\n      tag_619\n        /* \"#utility.yul\":16943:16944   */\n      dup3\n        /* \"#utility.yul\":16927:16945   */\n      tag_387\n      jump\t// in\n    tag_619:\n        /* \"#utility.yul\":16922:16945   */\n      swap2\n      pop\n        /* \"#utility.yul\":16959:16977   */\n      tag_620\n        /* \"#utility.yul\":16975:16976   */\n      dup4\n        /* \"#utility.yul\":16959:16977   */\n      tag_387\n      jump\t// in\n    tag_620:\n        /* \"#utility.yul\":16954:16977   */\n      swap3\n      pop\n        /* \"#utility.yul\":17001:17002   */\n      dup3\n        /* \"#utility.yul\":16998:16999   */\n      dup3\n        /* \"#utility.yul\":16994:17003   */\n      sub\n        /* \"#utility.yul\":16986:17003   */\n      swap1\n      pop\n        /* \"#utility.yul\":17025:17029   */\n      0xff\n        /* \"#utility.yul\":17019:17023   */\n      dup2\n        /* \"#utility.yul\":17016:17030   */\n      gt\n        /* \"#utility.yul\":17013:17053   */\n      iszero\n      tag_621\n      jumpi\n        /* \"#utility.yul\":17033:17051   */\n      tag_622\n      tag_420\n      jump\t// in\n    tag_622:\n        /* \"#utility.yul\":17013:17053   */\n    tag_621:\n        /* \"#utility.yul\":16869:17060   */\n      swap3\n      swap2\n      pop\n      pop\n      jump\t// out\n        /* \"#utility.yul\":17066:17254   */\n    tag_248:\n        /* \"#utility.yul\":17104:17107   */\n      0x00\n        /* \"#utility.yul\":17123:17141   */\n      tag_624\n        /* \"#utility.yul\":17139:17140   */\n      dup3\n        /* \"#utility.yul\":17123:17141   */\n      tag_387\n      jump\t// in\n    tag_624:\n        /* \"#utility.yul\":17118:17141   */\n      swap2\n      pop\n        /* \"#utility.yul\":17155:17173   */\n      tag_625\n        /* \"#utility.yul\":17171:17172   */\n      dup4\n        /* \"#utility.yul\":17155:17173   */\n      tag_387\n      jump\t// in\n    tag_625:\n        /* \"#utility.yul\":17150:17173   */\n      swap3\n      pop\n        /* \"#utility.yul\":17196:17197   */\n      dup3\n        /* \"#utility.yul\":17193:17194   */\n      dup3\n        /* \"#utility.yul\":17189:17198   */\n      add\n        /* \"#utility.yul\":17182:17198   */\n      swap1\n      pop\n        /* \"#utility.yul\":17219:17223   */\n      0xff\n        /* \"#utility.yul\":17214:17217   */\n      dup2\n        /* \"#utility.yul\":17211:17224   */\n      gt\n        /* \"#utility.yul\":17208:17247   */\n      iszero\n      tag_626\n      jumpi\n        /* \"#utility.yul\":17227:17245   */\n      tag_627\n      tag_420\n      jump\t// in\n    tag_627:\n        /* \"#utility.yul\":17208:17247   */\n    tag_626:\n        /* \"#utility.yul\":17066:17254   */\n      swap3\n      swap2\n      pop\n      pop\n      jump\t// out\n        /* \"#utility.yul\":17260:17670   */\n    tag_250:\n        /* \"#utility.yul\":17300:17307   */\n      0x00\n        /* \"#utility.yul\":17323:17343   */\n      tag_629\n        /* \"#utility.yul\":17341:17342   */\n      dup3\n        /* \"#utility.yul\":17323:17343   */\n      tag_390\n      jump\t// in\n    tag_629:\n        /* \"#utility.yul\":17318:17343   */\n      swap2\n      pop\n        /* \"#utility.yul\":17357:17377   */\n      tag_630\n        /* \"#utility.yul\":17375:17376   */\n      dup4\n        /* \"#utility.yul\":17357:17377   */\n      tag_390\n      jump\t// in\n    tag_630:\n        /* \"#utility.yul\":17352:17377   */\n      swap3\n      pop\n        /* \"#utility.yul\":17412:17413   */\n      dup3\n        /* \"#utility.yul\":17409:17410   */\n      dup3\n        /* \"#utility.yul\":17405:17414   */\n      mul\n        /* \"#utility.yul\":17434:17464   */\n      tag_631\n        /* \"#utility.yul\":17452:17463   */\n      dup2\n        /* \"#utility.yul\":17434:17464   */\n      tag_390\n      jump\t// in\n    tag_631:\n        /* \"#utility.yul\":17423:17464   */\n      swap2\n      pop\n        /* \"#utility.yul\":17613:17614   */\n      dup3\n        /* \"#utility.yul\":17604:17611   */\n      dup3\n        /* \"#utility.yul\":17600:17615   */\n      div\n        /* \"#utility.yul\":17597:17598   */\n      dup5\n        /* \"#utility.yul\":17594:17616   */\n      eq\n        /* \"#utility.yul\":17574:17575   */\n      dup4\n        /* \"#utility.yul\":17567:17576   */\n      iszero\n        /* \"#utility.yul\":17547:17630   */\n      or\n        /* \"#utility.yul\":17524:17663   */\n      tag_632\n      jumpi\n        /* \"#utility.yul\":17643:17661   */\n      tag_633\n      tag_420\n      jump\t// in\n    tag_633:\n        /* \"#utility.yul\":17524:17663   */\n    tag_632:\n        /* \"#utility.yul\":17308:17670   */\n      pop\n        /* \"#utility.yul\":17260:17670   */\n      swap3\n      swap2\n      pop\n      pop\n      jump\t// out\n        /* \"#utility.yul\":17676:17778   */\n    tag_431:\n        /* \"#utility.yul\":17718:17726   */\n      0x00\n        /* \"#utility.yul\":17765:17770   */\n      dup2\n        /* \"#utility.yul\":17762:17763   */\n      0x01\n        /* \"#utility.yul\":17758:17771   */\n      shr\n        /* \"#utility.yul\":17737:17771   */\n      swap1\n      pop\n        /* \"#utility.yul\":17676:17778   */\n      swap2\n      swap1\n      pop\n      jump\t// out\n        /* \"#utility.yul\":17784:18632   */\n    tag_432:\n        /* \"#utility.yul\":17845:17850   */\n      0x00\n        /* \"#utility.yul\":17852:17856   */\n      0x00\n        /* \"#utility.yul\":17876:17882   */\n      dup3\n        /* \"#utility.yul\":17867:17882   */\n      swap2\n      pop\n        /* \"#utility.yul\":17900:17905   */\n      dup4\n        /* \"#utility.yul\":17891:17905   */\n      swap1\n      pop\n        /* \"#utility.yul\":17914:18626   */\n    tag_636:\n        /* \"#utility.yul\":17935:17936   */\n      0x01\n        /* \"#utility.yul\":17925:17933   */\n      dup6\n        /* \"#utility.yul\":17922:17937   */\n      gt\n        /* \"#utility.yul\":17914:18626   */\n      iszero\n      tag_638\n      jumpi\n        /* \"#utility.yul\":18030:18034   */\n      dup1\n        /* \"#utility.yul\":18025:18028   */\n      dup7\n        /* \"#utility.yul\":18021:18035   */\n      div\n        /* \"#utility.yul\":18015:18019   */\n      dup2\n        /* \"#utility.yul\":18012:18036   */\n      gt\n        /* \"#utility.yul\":18009:18059   */\n      iszero\n      tag_639\n      jumpi\n        /* \"#utility.yul\":18039:18057   */\n      tag_640\n      tag_420\n      jump\t// in\n    tag_640:\n        /* \"#utility.yul\":18009:18059   */\n    tag_639:\n        /* \"#utility.yul\":18089:18090   */\n      0x01\n        /* \"#utility.yul\":18079:18087   */\n      dup6\n        /* \"#utility.yul\":18075:18091   */\n      and\n        /* \"#utility.yul\":18072:18523   */\n      iszero\n      tag_641\n      jumpi\n        /* \"#utility.yul\":18504:18508   */\n      dup1\n        /* \"#utility.yul\":18497:18502   */\n      dup3\n        /* \"#utility.yul\":18493:18509   */\n      mul\n        /* \"#utility.yul\":18484:18509   */\n      swap2\n      pop\n        /* \"#utility.yul\":18072:18523   */\n    tag_641:\n        /* \"#utility.yul\":18554:18558   */\n      dup1\n        /* \"#utility.yul\":18548:18552   */\n      dup2\n        /* \"#utility.yul\":18544:18559   */\n      mul\n        /* \"#utility.yul\":18536:18559   */\n      swap1\n      pop\n        /* \"#utility.yul\":18584:18616   */\n      tag_642\n        /* \"#utility.yul\":18607:18615   */\n      dup6\n        /* \"#utility.yul\":18584:18616   */\n      tag_431\n      jump\t// in\n    tag_642:\n        /* \"#utility.yul\":18572:18616   */\n      swap5\n      pop\n        /* \"#utility.yul\":17914:18626   */\n      jump(tag_636)\n    tag_638:\n        /* \"#utility.yul\":17784:18632   */\n      swap5\n      pop\n      swap5\n      swap3\n      pop\n      pop\n      pop\n      jump\t// out\n        /* \"#utility.yul\":18638:19711   */\n    tag_433:\n        /* \"#utility.yul\":18692:18697   */\n      0x00\n        /* \"#utility.yul\":18883:18891   */\n      dup3\n        /* \"#utility.yul\":18873:18913   */\n      tag_644\n      jumpi\n        /* \"#utility.yul\":18904:18905   */\n      0x01\n        /* \"#utility.yul\":18895:18905   */\n      swap1\n      pop\n        /* \"#utility.yul\":18906:18911   */\n      jump(tag_643)\n        /* \"#utility.yul\":18873:18913   */\n    tag_644:\n        /* \"#utility.yul\":18932:18936   */\n      dup2\n        /* \"#utility.yul\":18922:18958   */\n      tag_645\n      jumpi\n        /* \"#utility.yul\":18949:18950   */\n      0x00\n        /* \"#utility.yul\":18940:18950   */\n      swap1\n      pop\n        /* \"#utility.yul\":18951:18956   */\n      jump(tag_643)\n        /* \"#utility.yul\":18922:18958   */\n    tag_645:\n        /* \"#utility.yul\":19018:19022   */\n      dup2\n        /* \"#utility.yul\":19066:19067   */\n      0x01\n        /* \"#utility.yul\":19061:19088   */\n      dup2\n      eq\n      tag_647\n      jumpi\n        /* \"#utility.yul\":19102:19103   */\n      0x02\n        /* \"#utility.yul\":19097:19288   */\n      dup2\n      eq\n      tag_648\n      jumpi\n        /* \"#utility.yul\":19011:19288   */\n      jump(tag_646)\n        /* \"#utility.yul\":19061:19088   */\n    tag_647:\n        /* \"#utility.yul\":19079:19080   */\n      0x01\n        /* \"#utility.yul\":19070:19080   */\n      swap2\n      pop\n        /* \"#utility.yul\":19081:19086   */\n      pop\n      jump(tag_643)\n        /* \"#utility.yul\":19097:19288   */\n    tag_648:\n        /* \"#utility.yul\":19142:19145   */\n      0xff\n        /* \"#utility.yul\":19132:19140   */\n      dup5\n        /* \"#utility.yul\":19129:19146   */\n      gt\n        /* \"#utility.yul\":19126:19169   */\n      iszero\n      tag_649\n      jumpi\n        /* \"#utility.yul\":19149:19167   */\n      tag_650\n      tag_420\n      jump\t// in\n    tag_650:\n        /* \"#utility.yul\":19126:19169   */\n    tag_649:\n        /* \"#utility.yul\":19198:19206   */\n      dup4\n        /* \"#utility.yul\":19195:19196   */\n      0x02\n        /* \"#utility.yul\":19191:19207   */\n      exp\n        /* \"#utility.yul\":19182:19207   */\n      swap2\n      pop\n        /* \"#utility.yul\":19233:19236   */\n      dup5\n        /* \"#utility.yul\":19226:19231   */\n      dup3\n        /* \"#utility.yul\":19223:19237   */\n      gt\n        /* \"#utility.yul\":19220:19260   */\n      iszero\n      tag_651\n      jumpi\n        /* \"#utility.yul\":19240:19258   */\n      tag_652\n      tag_420\n      jump\t// in\n    tag_652:\n        /* \"#utility.yul\":19220:19260   */\n    tag_651:\n        /* \"#utility.yul\":19273:19278   */\n      pop\n      jump(tag_643)\n        /* \"#utility.yul\":19011:19288   */\n    tag_646:\n      pop\n        /* \"#utility.yul\":19397:19399   */\n      0x20\n        /* \"#utility.yul\":19387:19395   */\n      dup4\n        /* \"#utility.yul\":19384:19400   */\n      lt\n        /* \"#utility.yul\":19378:19381   */\n      0x0133\n        /* \"#utility.yul\":19372:19376   */\n      dup4\n        /* \"#utility.yul\":19369:19382   */\n      lt\n        /* \"#utility.yul\":19365:19401   */\n      and\n        /* \"#utility.yul\":19347:19349   */\n      0x4e\n        /* \"#utility.yul\":19337:19345   */\n      dup5\n        /* \"#utility.yul\":19334:19350   */\n      lt\n        /* \"#utility.yul\":19329:19331   */\n      0x0b\n        /* \"#utility.yul\":19323:19327   */\n      dup5\n        /* \"#utility.yul\":19320:19332   */\n      lt\n        /* \"#utility.yul\":19316:19351   */\n      and\n        /* \"#utility.yul\":19300:19411   */\n      or\n        /* \"#utility.yul\":19297:19543   */\n      iszero\n      tag_653\n      jumpi\n        /* \"#utility.yul\":19453:19461   */\n      dup3\n        /* \"#utility.yul\":19447:19451   */\n      dup3\n        /* \"#utility.yul\":19443:19462   */\n      exp\n        /* \"#utility.yul\":19434:19462   */\n      swap1\n      pop\n        /* \"#utility.yul\":19488:19491   */\n      dup4\n        /* \"#utility.yul\":19481:19486   */\n      dup2\n        /* \"#utility.yul\":19478:19492   */\n      gt\n        /* \"#utility.yul\":19475:19515   */\n      iszero\n      tag_654\n      jumpi\n        /* \"#utility.yul\":19495:19513   */\n      tag_655\n      tag_420\n      jump\t// in\n    tag_655:\n        /* \"#utility.yul\":19475:19515   */\n    tag_654:\n        /* \"#utility.yul\":19528:19533   */\n      jump(tag_643)\n        /* \"#utility.yul\":19297:19543   */\n    tag_653:\n        /* \"#utility.yul\":19568:19610   */\n      tag_656\n        /* \"#utility.yul\":19606:19609   */\n      dup5\n        /* \"#utility.yul\":19596:19604   */\n      dup5\n        /* \"#utility.yul\":19590:19594   */\n      dup5\n        /* \"#utility.yul\":19587:19588   */\n      0x01\n        /* \"#utility.yul\":19568:19610   */\n      tag_432\n      jump\t// in\n    tag_656:\n        /* \"#utility.yul\":19553:19610   */\n      swap3\n      pop\n      swap1\n      pop\n        /* \"#utility.yul\":19642:19646   */\n      dup2\n        /* \"#utility.yul\":19637:19640   */\n      dup5\n        /* \"#utility.yul\":19633:19647   */\n      div\n        /* \"#utility.yul\":19626:19631   */\n      dup2\n        /* \"#utility.yul\":19623:19648   */\n      gt\n        /* \"#utility.yul\":19620:19671   */\n      iszero\n      tag_657\n      jumpi\n        /* \"#utility.yul\":19651:19669   */\n      tag_658\n      tag_420\n      jump\t// in\n    tag_658:\n        /* \"#utility.yul\":19620:19671   */\n    tag_657:\n        /* \"#utility.yul\":19700:19704   */\n      dup2\n        /* \"#utility.yul\":19693:19698   */\n      dup2\n        /* \"#utility.yul\":19689:19705   */\n      mul\n        /* \"#utility.yul\":19680:19705   */\n      swap1\n      pop\n        /* \"#utility.yul\":18638:19711   */\n    tag_643:\n      swap4\n      swap3\n      pop\n      pop\n      pop\n      jump\t// out\n        /* \"#utility.yul\":19717:20002   */\n    tag_252:\n        /* \"#utility.yul\":19777:19782   */\n      0x00\n        /* \"#utility.yul\":19801:19824   */\n      tag_660\n        /* \"#utility.yul\":19819:19823   */\n      dup3\n        /* \"#utility.yul\":19801:19824   */\n      tag_390\n      jump\t// in\n    tag_660:\n        /* \"#utility.yul\":19793:19824   */\n      swap2\n      pop\n        /* \"#utility.yul\":19845:19872   */\n      tag_661\n        /* \"#utility.yul\":19863:19871   */\n      dup4\n        /* \"#utility.yul\":19845:19872   */\n      tag_390\n      jump\t// in\n    tag_661:\n        /* \"#utility.yul\":19833:19872   */\n      swap3\n      pop\n        /* \"#utility.yul\":19891:19995   */\n      tag_662\n        /* \"#utility.yul\":19928:19994   */\n      0xffffffffffffffffffffffffffffffffffffffffffffffffffffffffffffffff\n        /* \"#utility.yul\":19918:19926   */\n      dup5\n        /* \"#utility.yul\":19912:19916   */\n      dup5\n        /* \"#utility.yul\":19891:19995   */\n      tag_433\n      jump\t// in\n    tag_662:\n        /* \"#utility.yul\":19882:19995   */\n      swap1\n      pop\n        /* \"#utility.yul\":19717:20002   */\n      swap3\n      swap2\n      pop\n      pop\n      jump\t// out\n        /* \"#utility.yul\":20008:20188   */\n    tag_434:\n        /* \"#utility.yul\":20056:20133   */\n      0x4e487b7100000000000000000000000000000000000000000000000000000000\n        /* \"#utility.yul\":20053:20054   */\n      0x00\n        /* \"#utility.yul\":20046:20134   */\n      mstore\n        /* \"#utility.yul\":20153:20157   */\n      0x12\n        /* \"#utility.yul\":20150:20151   */\n      0x04\n        /* \"#utility.yul\":20143:20158   */\n      mstore\n        /* \"#utility.yul\":20177:20181   */\n      0x24\n        /* \"#utility.yul\":20174:20175   */\n      0x00\n        /* \"#utility.yul\":20167:20182   */\n      revert\n        /* \"#utility.yul\":20194:20379   */\n    tag_255:\n        /* \"#utility.yul\":20234:20235   */\n      0x00\n        /* \"#utility.yul\":20251:20271   */\n      tag_665\n        /* \"#utility.yul\":20269:20270   */\n      dup3\n        /* \"#utility.yul\":20251:20271   */\n      tag_390\n      jump\t// in\n    tag_665:\n        /* \"#utility.yul\":20246:20271   */\n      swap2\n      pop\n        /* \"#utility.yul\":20285:20305   */\n      tag_666\n        /* \"#utility.yul\":20303:20304   */\n      dup4\n        /* \"#utility.yul\":20285:20305   */\n      tag_390\n      jump\t// in\n    tag_666:\n        /* \"#utility.yul\":20280:20305   */\n      swap3\n      pop\n        /* \"#utility.yul\":20324:20325   */\n      dup3\n        /* \"#utility.yul\":20314:20349   */\n      tag_667\n      jumpi\n        /* \"#utility.yul\":20329:20347   */\n      tag_668\n      tag_434\n      jump\t// in\n    tag_668:\n        /* \"#utility.yul\":20314:20349   */\n    tag_667:\n        /* \"#utility.yul\":20371:20372   */\n      dup3\n        /* \"#utility.yul\":20368:20369   */\n      dup3\n        /* \"#utility.yul\":20364:20373   */\n      div\n        /* \"#utility.yul\":20359:20373   */\n      swap1\n      pop\n        /* \"#utility.yul\":20194:20379   */\n      swap3\n      swap2\n      pop\n      pop\n      jump\t// out\n        /* \"#utility.yul\":20385:20565   */\n    tag_284:\n        /* \"#utility.yul\":20433:20510   */\n      0x4e487b7100000000000000000000000000000000000000000000000000000000\n        /* \"#utility.yul\":20430:20431   */\n      0x00\n        /* \"#utility.yul\":20423:20511   */\n      mstore\n        /* \"#utility.yul\":20530:20534   */\n      0x41\n        /* \"#utility.yul\":20527:20528   */\n      0x04\n        /* \"#utility.yul\":20520:20535   */\n      mstore\n        /* \"#utility.yul\":20554:20558   */\n      0x24\n        /* \"#utility.yul\":20551:20552   */\n      0x00\n        /* \"#utility.yul\":20544:20559   */\n      revert\n        /* \"#utility.yul\":20571:20751   */\n    tag_291:\n        /* \"#utility.yul\":20619:20696   */\n      0x4e487b7100000000000000000000000000000000000000000000000000000000\n        /* \"#utility.yul\":20616:20617   */\n      0x00\n        /* \"#utility.yul\":20609:20697   */\n      mstore\n        /* \"#utility.yul\":20716:20720   */\n      0x32\n        /* \"#utility.yul\":20713:20714   */\n      0x04\n        /* \"#utility.yul\":20706:20721   */\n      mstore\n        /* \"#utility.yul\":20740:20744   */\n      0x24\n        /* \"#utility.yul\":20737:20738   */\n      0x00\n        /* \"#utility.yul\":20730:20745   */\n      revert\n        /* \"#utility.yul\":20757:20904   */\n    tag_435:\n        /* \"#utility.yul\":20858:20869   */\n      0x00\n        /* \"#utility.yul\":20895:20898   */\n      dup2\n        /* \"#utility.yul\":20880:20898   */\n      swap1\n      pop\n        /* \"#utility.yul\":20757:20904   */\n      swap3\n      swap2\n      pop\n      pop\n      jump\t// out\n        /* \"#utility.yul\":20910:21024   */\n    tag_436:\n      pop\n      jump\t// out\n        /* \"#utility.yul\":21030:21428   */\n    tag_437:\n        /* \"#utility.yul\":21189:21192   */\n      0x00\n        /* \"#utility.yul\":21210:21293   */\n      tag_674\n        /* \"#utility.yul\":21291:21292   */\n      0x00\n        /* \"#utility.yul\":21286:21289   */\n      dup4\n        /* \"#utility.yul\":21210:21293   */\n      tag_435\n      jump\t// in\n    tag_674:\n        /* \"#utility.yul\":21203:21293   */\n      swap2\n      pop\n        /* \"#utility.yul\":21302:21395   */\n      tag_675\n        /* \"#utility.yul\":21391:21394   */\n      dup3\n        /* \"#utility.yul\":21302:21395   */\n      tag_436\n      jump\t// in\n    tag_675:\n        /* \"#utility.yul\":21420:21421   */\n      0x00\n        /* \"#utility.yul\":21415:21418   */\n      dup3\n        /* \"#utility.yul\":21411:21422   */\n      add\n        /* \"#utility.yul\":21404:21422   */\n      swap1\n      pop\n        /* \"#utility.yul\":21030:21428   */\n      swap2\n      swap1\n      pop\n      jump\t// out\n        /* \"#utility.yul\":21434:21813   */\n    tag_324:\n        /* \"#utility.yul\":21618:21621   */\n      0x00\n        /* \"#utility.yul\":21640:21787   */\n      tag_677\n        /* \"#utility.yul\":21783:21786   */\n      dup3\n        /* \"#utility.yul\":21640:21787   */\n      tag_437\n      jump\t// in\n    tag_677:\n        /* \"#utility.yul\":21633:21787   */\n      swap2\n      pop\n        /* \"#utility.yul\":21804:21807   */\n      dup2\n        /* \"#utility.yul\":21797:21807   */\n      swap1\n      pop\n        /* \"#utility.yul\":21434:21813   */\n      swap2\n      swap1\n      pop\n      jump\t// out\n        /* \"#utility.yul\":21819:22100   */\n    tag_354:\n        /* \"#utility.yul\":21877:21882   */\n      0x00\n        /* \"#utility.yul\":21901:21924   */\n      tag_679\n        /* \"#utility.yul\":21919:21923   */\n      dup3\n        /* \"#utility.yul\":21901:21924   */\n      tag_390\n      jump\t// in\n    tag_679:\n        /* \"#utility.yul\":21893:21924   */\n      swap2\n      pop\n        /* \"#utility.yul\":21945:21970   */\n      tag_680\n        /* \"#utility.yul\":21961:21969   */\n      dup4\n        /* \"#utility.yul\":21945:21970   */\n      tag_387\n      jump\t// in\n    tag_680:\n        /* \"#utility.yul\":21933:21970   */\n      swap3\n      pop\n        /* \"#utility.yul\":21989:22093   */\n      tag_681\n        /* \"#utility.yul\":22026:22092   */\n      0xffffffffffffffffffffffffffffffffffffffffffffffffffffffffffffffff\n        /* \"#utility.yul\":22016:22024   */\n      dup5\n        /* \"#utility.yul\":22010:22014   */\n      dup5\n        /* \"#utility.yul\":21989:22093   */\n      tag_433\n      jump\t// in\n    tag_681:\n        /* \"#utility.yul\":21980:22093   */\n      swap1\n      pop\n        /* \"#utility.yul\":21819:22100   */\n      swap3\n      swap2\n      pop\n      pop\n      jump\t// out\n        /* \"#utility.yul\":22106:22548   */\n    tag_366:\n        /* \"#utility.yul\":22255:22259   */\n      0x00\n        /* \"#utility.yul\":22293:22295   */\n      0x60\n        /* \"#utility.yul\":22282:22291   */\n      dup3\n        /* \"#utility.yul\":22278:22296   */\n      add\n        /* \"#utility.yul\":22270:22296   */\n      swap1\n      pop\n        /* \"#utility.yul\":22306:22377   */\n      tag_683\n        /* \"#utility.yul\":22374:22375   */\n      0x00\n        /* \"#utility.yul\":22363:22372   */\n      dup4\n        /* \"#utility.yul\":22359:22376   */\n      add\n        /* \"#utility.yul\":22350:22356   */\n      dup7\n        /* \"#utility.yul\":22306:22377   */\n      tag_406\n      jump\t// in\n    tag_683:\n        /* \"#utility.yul\":22387:22459   */\n      tag_684\n        /* \"#utility.yul\":22455:22457   */\n      0x20\n        /* \"#utility.yul\":22444:22453   */\n      dup4\n        /* \"#utility.yul\":22440:22458   */\n      add\n        /* \"#utility.yul\":22431:22437   */\n      dup6\n        /* \"#utility.yul\":22387:22459   */\n      tag_406\n      jump\t// in\n    tag_684:\n        /* \"#utility.yul\":22469:22541   */\n      tag_685\n        /* \"#utility.yul\":22537:22539   */\n      0x40\n        /* \"#utility.yul\":22526:22535   */\n      dup4\n        /* \"#utility.yul\":22522:22540   */\n      add\n        /* \"#utility.yul\":22513:22519   */\n      dup5\n        /* \"#utility.yul\":22469:22541   */\n      tag_391\n      jump\t// in\n    tag_685:\n        /* \"#utility.yul\":22106:22548   */\n      swap5\n      swap4\n      pop\n      pop\n      pop\n      pop\n      jump\t// out\n        /* \"#utility.yul\":22554:22886   */\n    tag_372:\n        /* \"#utility.yul\":22675:22679   */\n      0x00\n        /* \"#utility.yul\":22713:22715   */\n      0x40\n        /* \"#utility.yul\":22702:22711   */\n      dup3\n        /* \"#utility.yul\":22698:22716   */\n      add\n        /* \"#utility.yul\":22690:22716   */\n      swap1\n      pop\n        /* \"#utility.yul\":22726:22797   */\n      tag_687\n        /* \"#utility.yul\":22794:22795   */\n      0x00\n        /* \"#utility.yul\":22783:22792   */\n      dup4\n        /* \"#utility.yul\":22779:22796   */\n      add\n        /* \"#utility.yul\":22770:22776   */\n      dup6\n        /* \"#utility.yul\":22726:22797   */\n      tag_406\n      jump\t// in\n    tag_687:\n        /* \"#utility.yul\":22807:22879   */\n      tag_688\n        /* \"#utility.yul\":22875:22877   */\n      0x20\n        /* \"#utility.yul\":22864:22873   */\n      dup4\n        /* \"#utility.yul\":22860:22878   */\n      add\n        /* \"#utility.yul\":22851:22857   */\n      dup5\n        /* \"#utility.yul\":22807:22879   */\n      tag_391\n      jump\t// in\n    tag_688:\n        /* \"#utility.yul\":22554:22886   */\n      swap4\n      swap3\n      pop\n      pop\n      pop\n      jump\t// out\n\n    auxdata: 0xa2646970667358221220ba0867a039def36ecec5a0755164b21af033fd843ea534cc01ca55e89317a2ba64736f6c634300081e0033\n}\n",
				"bytecode": {
					"linkReferences": {},
					"object": "60c060405234801561000f575f5ffd5b50604051613c70380380613c7083398181016040528101906100319190610560565b335f73ffffffffffffffffffffffffffffffffffffffff168173ffffffffffffffffffffffffffffffffffffffff16036100a2575f6040517f1e4fbdf700000000000000000000000000000000000000000000000000000000815260040161009991906105bf565b60405180910390fd5b6100b18161040e60201b60201c565b505f73ffffffffffffffffffffffffffffffffffffffff168173ffffffffffffffffffffffffffffffffffffffff1603610117576040517f52cc3f7d00000000000000000000000000000000000000000000000000000000815260040160405180910390fd5b5f83148061012457505f82145b1561015b576040517f2c5211c600000000000000000000000000000000000000000000000000000000815260040160405180910390fd5b828210156101a25782826040517f63c47b070000000000000000000000000000000000000000000000000000000081526004016101999291906105e7565b60405180910390fd5b8260a0818152505081608081815250508060065f6101000a81548173ffffffffffffffffffffffffffffffffffffffff021916908373ffffffffffffffffffffffffffffffffffffffff16021790555060405180608001604052808273ffffffffffffffffffffffffffffffffffffffff1681526020015f73ffffffffffffffffffffffffffffffffffffffff168152602001601260ff1681526020016001151581525060025f5f73ffffffffffffffffffffffffffffffffffffffff1673ffffffffffffffffffffffffffffffffffffffff1681526020019081526020015f205f820151815f015f6101000a81548173ffffffffffffffffffffffffffffffffffffffff021916908373ffffffffffffffffffffffffffffffffffffffff1602179055506020820151816001015f6101000a81548173ffffffffffffffffffffffffffffffffffffffff021916908373ffffffffffffffffffffffffffffffffffffffff16021790555060408201518160010160146101000a81548160ff021916908360ff16021790555060608201518160010160156101000a81548160ff02191690831515021790555090505060075f908060018154018082558091505060019003905f5260205f20015f9091909190916101000a81548173ffffffffffffffffffffffffffffffffffffffff021916908373ffffffffffffffffffffffffffffffffffffffff160217905550600160085f3373ffffffffffffffffffffffffffffffffffffffff1673ffffffffffffffffffffffffffffffffffffffff1681526020019081526020015f205f6101000a81548160ff02191690831515021790555050505061060e565b5f5f5f9054906101000a900473ffffffffffffffffffffffffffffffffffffffff169050815f5f6101000a81548173ffffffffffffffffffffffffffffffffffffffff021916908373ffffffffffffffffffffffffffffffffffffffff1602179055508173ffffffffffffffffffffffffffffffffffffffff168173ffffffffffffffffffffffffffffffffffffffff167f8be0079c531659141344cd1fd0a4f28419497f9722a3daafe3b4186f6b6457e060405160405180910390a35050565b5f5ffd5b5f819050919050565b6104e5816104d3565b81146104ef575f5ffd5b50565b5f81519050610500816104dc565b92915050565b5f73ffffffffffffffffffffffffffffffffffffffff82169050919050565b5f61052f82610506565b9050919050565b61053f81610525565b8114610549575f5ffd5b50565b5f8151905061055a81610536565b92915050565b5f5f5f60608486031215610577576105766104cf565b5b5f610584868287016104f2565b9350506020610595868287016104f2565b92505060406105a68682870161054c565b9150509250925092565b6105b981610525565b82525050565b5f6020820190506105d25f8301846105b0565b92915050565b6105e1816104d3565b82525050565b5f6040820190506105fa5f8301856105d8565b61060760208301846105d8565b9392505050565b60805160a05161361e6106525f395f818161194d01528181612070015261209901525f81816107ba015281816107fd01528181610faa0152611975015261361e5ff3fe6080604052600436106101c4575f3560e01c806382ee0d1d116100f6578063c53d6ce111610094578063eea88c5111610063578063eea88c5114610697578063f2fde38b146106c1578063f3fef3a3146106e9578063f6326fb314610711576101df565b8063c53d6ce1146105b8578063d4fac45d146105f5578063e62615c614610631578063eced55261461066d576101df565b80639f224f35116100d05780639f224f35146104fe578063a734f06e1461053a578063af7665ce14610564578063be406e6c1461058e576101df565b806382ee0d1d1461048057806387be0faf146104aa5780638da5cb5b146104d4576101df565b80633a3d1f98116101635780635fa7b5841161013d5780635fa7b584146103db57806368c4ac26146104035780637048027514610442578063715018a61461046a576101df565b80633a3d1f9814610339578063429b62e5146103755780635f5817e3146103b1576101df565b80631f69565f1161019f5780631f69565f1461026f57806321e855a0146102ab5780632a441767146102d5578063338b5dea14610311576101df565b8062a51ee4146101e35780631785f53c1461020b5780631dab033514610233576101df565b366101df575f3411156101dd576101dc335f3461071b565b5b005b5f5ffd5b3480156101ee575f5ffd5b5061020960048036038101906102049190612aca565b6109e4565b005b348015610216575f5ffd5b50610231600480360381019061022c9190612b1a565b610dae565b005b34801561023e575f5ffd5b5061025960048036038101906102549190612b45565b610e50565b6040516102669190612b9b565b60405180910390f35b34801561027a575f5ffd5b5061029560048036038101906102909190612b1a565b610e70565b6040516102a29190612c3f565b60405180910390f35b3480156102b6575f5ffd5b506102bf610fa8565b6040516102cc9190612b9b565b60405180910390f35b3480156102e0575f5ffd5b506102fb60048036038101906102f69190612b45565b610fcc565b6040516103089190612b9b565b60405180910390f35b34801561031c575f5ffd5b5061033760048036038101906103329190612c82565b610fec565b005b348015610344575f5ffd5b5061035f600480360381019061035a9190612c82565b61126a565b60405161036c9190612b9b565b60405180910390f35b348015610380575f5ffd5b5061039b60048036038101906103969190612b1a565b61156a565b6040516103a89190612ccf565b60405180910390f35b3480156103bc575f5ffd5b506103c5611587565b6040516103d29190612d90565b60405180910390f35b3480156103e6575f5ffd5b5061040160048036038101906103fc9190612b1a565b611612565b005b34801561040e575f5ffd5b5061042960048036038101906104249190612b1a565b6117ac565b6040516104399493929190612dce565b60405180910390f35b34801561044d575f5ffd5b5061046860048036038101906104639190612b1a565b611830565b005b348015610475575f5ffd5b5061047e611938565b005b34801561048b575f5ffd5b5061049461194b565b6040516104a19190612b9b565b60405180910390f35b3480156104b5575f5ffd5b506104be61196f565b6040516104cb9190612b9b565b60405180910390f35b3480156104df575f5ffd5b506104e86119a3565b6040516104f59190612e11565b60405180910390f35b348015610509575f5ffd5b50610524600480360381019061051f9190612e2a565b6119ca565b6040516105319190612e11565b60405180910390f35b348015610545575f5ffd5b5061054e611a05565b60405161055b9190612e11565b60405180910390f35b34801561056f575f5ffd5b50610578611a09565b6040516105859190612eb0565b60405180910390f35b348015610599575f5ffd5b506105a2611a2e565b6040516105af9190612ec9565b60405180910390f35b3480156105c3575f5ffd5b506105de60048036038101906105d99190612b1a565b611a33565b6040516105ec929190612f99565b60405180910390f35b348015610600575f5ffd5b5061061b60048036038101906106169190612b45565b611c04565b6040516106289190612b9b565b60405180910390f35b34801561063c575f5ffd5b5061065760048036038101906106529190612b45565b611d19565b6040516106649190612b9b565b60405180910390f35b348015610678575f5ffd5b50610681611e3c565b60405161068e9190612b9b565b60405180910390f35b3480156106a2575f5ffd5b506106ab611e48565b6040516106b89190612b9b565b60405180910390f35b3480156106cc575f5ffd5b506106e760048036038101906106e29190612b1a565b611e4e565b005b3480156106f4575f5ffd5b5061070f600480360381019061070a9190612c82565b611ed2565b005b610719612385565b005b8160025f8273ffffffffffffffffffffffffffffffffffffffff1673ffffffffffffffffffffffffffffffffffffffff1681526020019081526020015f2060010160159054906101000a900460ff166107ab57806040517f06439c6b0000000000000000000000000000000000000000000000000000000081526004016107a29190612e11565b60405180910390fd5b5f6107b684846123cd565b90507f0000000000000000000000000000000000000000000000000000000000000000816005546107e79190612ffb565b111561085957806005546107fb9190612ffb565b7f00000000000000000000000000000000000000000000000000000000000000006040517f63c47b0700000000000000000000000000000000000000000000000000000000815260040161085092919061302e565b60405180910390fd5b8260015f8773ffffffffffffffffffffffffffffffffffffffff1673ffffffffffffffffffffffffffffffffffffffff1681526020019081526020015f205f015f8673ffffffffffffffffffffffffffffffffffffffff1673ffffffffffffffffffffffffffffffffffffffff1681526020019081526020015f205f828254019250508190555060035f8673ffffffffffffffffffffffffffffffffffffffff1673ffffffffffffffffffffffffffffffffffffffff1681526020019081526020015f205f8573ffffffffffffffffffffffffffffffffffffffff1673ffffffffffffffffffffffffffffffffffffffff1681526020019081526020015f205f81548092919060010191905055508060055f82825401925050819055508373ffffffffffffffffffffffffffffffffffffffff168573ffffffffffffffffffffffffffffffffffffffff167ff5681f9d0db1b911ac18ee83d515a1cf1051853a9eae418316a2fdf7dea427c585846040516109d592919061302e565b60405180910390a35050505050565b6109ec6126f6565b5f73ffffffffffffffffffffffffffffffffffffffff168373ffffffffffffffffffffffffffffffffffffffff1603610a51576040517f1eb00b0600000000000000000000000000000000000000000000000000000000815260040160405180910390fd5b5f73ffffffffffffffffffffffffffffffffffffffff168273ffffffffffffffffffffffffffffffffffffffff1603610ab6576040517f52cc3f7d00000000000000000000000000000000000000000000000000000000815260040160405180910390fd5b5f8160ff161480610aca575060128160ff16115b15610b01576040517fd25598a000000000000000000000000000000000000000000000000000000000815260040160405180910390fd5b60025f8473ffffffffffffffffffffffffffffffffffffffff1673ffffffffffffffffffffffffffffffffffffffff1681526020019081526020015f2060010160159054906101000a900460ff1615610b86576040517f630b374b00000000000000000000000000000000000000000000000000000000815260040160405180910390fd5b60405180608001604052808373ffffffffffffffffffffffffffffffffffffffff1681526020018473ffffffffffffffffffffffffffffffffffffffff1681526020018260ff1681526020016001151581525060025f8573ffffffffffffffffffffffffffffffffffffffff1673ffffffffffffffffffffffffffffffffffffffff1681526020019081526020015f205f820151815f015f6101000a81548173ffffffffffffffffffffffffffffffffffffffff021916908373ffffffffffffffffffffffffffffffffffffffff1602179055506020820151816001015f6101000a81548173ffffffffffffffffffffffffffffffffffffffff021916908373ffffffffffffffffffffffffffffffffffffffff16021790555060408201518160010160146101000a81548160ff021916908360ff16021790555060608201518160010160156101000a81548160ff021916908315150217905550905050600783908060018154018082558091505060019003905f5260205f20015f9091909190916101000a81548173ffffffffffffffffffffffffffffffffffffffff021916908373ffffffffffffffffffffffffffffffffffffffff1602179055508173ffffffffffffffffffffffffffffffffffffffff168373ffffffffffffffffffffffffffffffffffffffff167f45a26a460d33c4b7f3733844536d895f16b0f87524ad613b4fda44911f96525783604051610da19190612ec9565b60405180910390a3505050565b610db66126f6565b5f60085f8373ffffffffffffffffffffffffffffffffffffffff1673ffffffffffffffffffffffffffffffffffffffff1681526020019081526020015f205f6101000a81548160ff0219169083151502179055508073ffffffffffffffffffffffffffffffffffffffff167fa3b62bc36326052d97ea62d63c3d60308ed4c3ea8ac079dd8499f1e9c4f80c0f60405160405180910390a250565b6003602052815f5260405f20602052805f5260405f205f91509150505481565b610e786129e1565b60025f8373ffffffffffffffffffffffffffffffffffffffff1673ffffffffffffffffffffffffffffffffffffffff1681526020019081526020015f206040518060800160405290815f82015f9054906101000a900473ffffffffffffffffffffffffffffffffffffffff1673ffffffffffffffffffffffffffffffffffffffff1673ffffffffffffffffffffffffffffffffffffffff168152602001600182015f9054906101000a900473ffffffffffffffffffffffffffffffffffffffff1673ffffffffffffffffffffffffffffffffffffffff1673ffffffffffffffffffffffffffffffffffffffff1681526020016001820160149054906101000a900460ff1660ff1660ff1681526020016001820160159054906101000a900460ff1615151515815250509050919050565b7f000000000000000000000000000000000000000000000000000000000000000081565b6004602052815f5260405f20602052805f5260405f205f91509150505481565b805f8103611026576040517f2c5211c600000000000000000000000000000000000000000000000000000000815260040160405180910390fd5b8260025f8273ffffffffffffffffffffffffffffffffffffffff1673ffffffffffffffffffffffffffffffffffffffff1681526020019081526020015f2060010160159054906101000a900460ff166110b657806040517f06439c6b0000000000000000000000000000000000000000000000000000000081526004016110ad9190612e11565b60405180910390fd5b5f73ffffffffffffffffffffffffffffffffffffffff168473ffffffffffffffffffffffffffffffffffffffff1603611124576040517f08c379a000000000000000000000000000000000000000000000000000000000815260040161111b906130af565b60405180910390fd5b5f8473ffffffffffffffffffffffffffffffffffffffff166370a08231306040518263ffffffff1660e01b815260040161115e9190612e11565b602060405180830381865afa158015611179573d5f5f3e3d5ffd5b505050506040513d601f19601f8201168201806040525081019061119d91906130e1565b90506111cc3330868873ffffffffffffffffffffffffffffffffffffffff1661277d909392919063ffffffff16565b5f8573ffffffffffffffffffffffffffffffffffffffff166370a08231306040518263ffffffff1660e01b81526004016112069190612e11565b602060405180830381865afa158015611221573d5f5f3e3d5ffd5b505050506040513d601f19601f8201168201806040525081019061124591906130e1565b90505f8282611254919061310c565b905061126133888361071b565b50505050505050565b5f8260025f8273ffffffffffffffffffffffffffffffffffffffff1673ffffffffffffffffffffffffffffffffffffffff1681526020019081526020015f2060010160159054906101000a900460ff166112fb57806040517f06439c6b0000000000000000000000000000000000000000000000000000000081526004016112f29190612e11565b60405180910390fd5b5f830361130a575f9150611563565b5f60025f8673ffffffffffffffffffffffffffffffffffffffff1673ffffffffffffffffffffffffffffffffffffffff1681526020019081526020015f206040518060800160405290815f82015f9054906101000a900473ffffffffffffffffffffffffffffffffffffffff1673ffffffffffffffffffffffffffffffffffffffff1673ffffffffffffffffffffffffffffffffffffffff168152602001600182015f9054906101000a900473ffffffffffffffffffffffffffffffffffffffff1673ffffffffffffffffffffffffffffffffffffffff1673ffffffffffffffffffffffffffffffffffffffff1681526020016001820160149054906101000a900460ff1660ff1660ff1681526020016001820160159054906101000a900460ff16151515158152505090505f815f015190505f8173ffffffffffffffffffffffffffffffffffffffff1663feaf968c6040518163ffffffff1660e01b815260040160a060405180830381865afa158015611487573d5f5f3e3d5ffd5b505050506040513d601f19601f820116820180604052508101906114ab91906131b1565b5050509150505f81136114ea576040517f7dfa876300000000000000000000000000000000000000000000000000000000815260040160405180910390fd5b5f8190505f601290506012856040015160ff1614611525576008856040015160126115159190613228565b61151f919061325c565b60ff1690505b670de0b6b3a7640000826115399190613290565b81600a6115469190613400565b896115519190613290565b61155b9190613477565b965050505050505b5092915050565b6008602052805f5260405f205f915054906101000a900460ff1681565b6060600780548060200260200160405190810160405280929190818152602001828054801561160857602002820191905f5260205f20905b815f9054906101000a900473ffffffffffffffffffffffffffffffffffffffff1673ffffffffffffffffffffffffffffffffffffffff16815260200190600101908083116115bf575b5050505050905090565b61161a6126f6565b5f73ffffffffffffffffffffffffffffffffffffffff168173ffffffffffffffffffffffffffffffffffffffff160361167f576040517f1eb00b0600000000000000000000000000000000000000000000000000000000815260040160405180910390fd5b60025f8273ffffffffffffffffffffffffffffffffffffffff1673ffffffffffffffffffffffffffffffffffffffff1681526020019081526020015f2060010160159054906101000a900460ff1661170e57806040517f06439c6b0000000000000000000000000000000000000000000000000000000081526004016117059190612e11565b60405180910390fd5b5f60025f8373ffffffffffffffffffffffffffffffffffffffff1673ffffffffffffffffffffffffffffffffffffffff1681526020019081526020015f2060010160156101000a81548160ff0219169083151502179055508073ffffffffffffffffffffffffffffffffffffffff167f4c910b69fe65a61f7531b9c5042b2329ca7179c77290aa7e2eb3afa3c8511fd360405160405180910390a250565b6002602052805f5260405f205f91509050805f015f9054906101000a900473ffffffffffffffffffffffffffffffffffffffff1690806001015f9054906101000a900473ffffffffffffffffffffffffffffffffffffffff16908060010160149054906101000a900460ff16908060010160159054906101000a900460ff16905084565b6118386126f6565b5f73ffffffffffffffffffffffffffffffffffffffff168173ffffffffffffffffffffffffffffffffffffffff160361189d576040517f1eb00b0600000000000000000000000000000000000000000000000000000000815260040160405180910390fd5b600160085f8373ffffffffffffffffffffffffffffffffffffffff1673ffffffffffffffffffffffffffffffffffffffff1681526020019081526020015f205f6101000a81548160ff0219169083151502179055508073ffffffffffffffffffffffffffffffffffffffff167f44d6d25963f097ad14f29f06854a01f575648a1ef82f30e562ccd3889717e33960405160405180910390a250565b6119406126f6565b6119495f6127ff565b565b7f000000000000000000000000000000000000000000000000000000000000000081565b5f6005547f000000000000000000000000000000000000000000000000000000000000000061199e919061310c565b905090565b5f5f5f9054906101000a900473ffffffffffffffffffffffffffffffffffffffff16905090565b600781815481106119d9575f80fd5b905f5260205f20015f915054906101000a900473ffffffffffffffffffffffffffffffffffffffff1681565b5f81565b60065f9054906101000a900473ffffffffffffffffffffffffffffffffffffffff1681565b600681565b6060806007805480602002602001604051908101604052809291908181526020018280548015611ab557602002820191905f5260205f20905b815f9054906101000a900473ffffffffffffffffffffffffffffffffffffffff1673ffffffffffffffffffffffffffffffffffffffff1681526020019060010190808311611a6c575b5050505050915060078054905067ffffffffffffffff811115611adb57611ada6134a7565b5b604051908082528060200260200182016040528015611b095781602001602082028036833780820191505090505b5090505f5f90505b600780549050811015611bfe5760015f8573ffffffffffffffffffffffffffffffffffffffff1673ffffffffffffffffffffffffffffffffffffffff1681526020019081526020015f205f015f60078381548110611b7257611b716134d4565b5b905f5260205f20015f9054906101000a900473ffffffffffffffffffffffffffffffffffffffff1673ffffffffffffffffffffffffffffffffffffffff1673ffffffffffffffffffffffffffffffffffffffff1681526020019081526020015f2054828281518110611be757611be66134d4565b5b602002602001018181525050806001019050611b11565b50915091565b5f8160025f8273ffffffffffffffffffffffffffffffffffffffff1673ffffffffffffffffffffffffffffffffffffffff1681526020019081526020015f2060010160159054906101000a900460ff16611c9557806040517f06439c6b000000000000000000000000000000000000000000000000000000008152600401611c8c9190612e11565b60405180910390fd5b60015f8573ffffffffffffffffffffffffffffffffffffffff1673ffffffffffffffffffffffffffffffffffffffff1681526020019081526020015f205f015f8473ffffffffffffffffffffffffffffffffffffffff1673ffffffffffffffffffffffffffffffffffffffff1681526020019081526020015f205491505092915050565b5f8160025f8273ffffffffffffffffffffffffffffffffffffffff1673ffffffffffffffffffffffffffffffffffffffff1681526020019081526020015f2060010160159054906101000a900460ff16611daa57806040517f06439c6b000000000000000000000000000000000000000000000000000000008152600401611da19190612e11565b60405180910390fd5b5f60015f8673ffffffffffffffffffffffffffffffffffffffff1673ffffffffffffffffffffffffffffffffffffffff1681526020019081526020015f205f015f8573ffffffffffffffffffffffffffffffffffffffff1673ffffffffffffffffffffffffffffffffffffffff1681526020019081526020015f20549050611e3284826123cd565b9250505092915050565b670de0b6b3a764000081565b60055481565b611e566126f6565b5f73ffffffffffffffffffffffffffffffffffffffff168173ffffffffffffffffffffffffffffffffffffffff1603611ec6575f6040517f1e4fbdf7000000000000000000000000000000000000000000000000000000008152600401611ebd9190612e11565b60405180910390fd5b611ecf816127ff565b50565b805f8103611f0c576040517f2c5211c600000000000000000000000000000000000000000000000000000000815260040160405180910390fd5b8260025f8273ffffffffffffffffffffffffffffffffffffffff1673ffffffffffffffffffffffffffffffffffffffff1681526020019081526020015f2060010160159054906101000a900460ff16611f9c57806040517f06439c6b000000000000000000000000000000000000000000000000000000008152600401611f939190612e11565b60405180910390fd5b5f60015f3373ffffffffffffffffffffffffffffffffffffffff1673ffffffffffffffffffffffffffffffffffffffff1681526020019081526020015f205f015f8673ffffffffffffffffffffffffffffffffffffffff1673ffffffffffffffffffffffffffffffffffffffff1681526020019081526020015f20549050808411156120615783816040517fcf47918100000000000000000000000000000000000000000000000000000000815260040161205892919061302e565b60405180910390fd5b5f61206c86866123cd565b90507f00000000000000000000000000000000000000000000000000000000000000008111156120f557807f00000000000000000000000000000000000000000000000000000000000000006040517fb945e2d80000000000000000000000000000000000000000000000000000000081526004016120ec92919061302e565b60405180910390fd5b8460015f3373ffffffffffffffffffffffffffffffffffffffff1673ffffffffffffffffffffffffffffffffffffffff1681526020019081526020015f205f015f8873ffffffffffffffffffffffffffffffffffffffff1673ffffffffffffffffffffffffffffffffffffffff1681526020019081526020015f205f828254039250508190555060045f3373ffffffffffffffffffffffffffffffffffffffff1673ffffffffffffffffffffffffffffffffffffffff1681526020019081526020015f205f8773ffffffffffffffffffffffffffffffffffffffff1673ffffffffffffffffffffffffffffffffffffffff1681526020019081526020015f205f81548092919060010191905055508060055f82825403925050819055508573ffffffffffffffffffffffffffffffffffffffff163373ffffffffffffffffffffffffffffffffffffffff167f91fb9d98b786c57d74c099ccd2beca1739e9f6a81fb49001ca465c4b7591bbe2878460405161227192919061302e565b60405180910390a35f73ffffffffffffffffffffffffffffffffffffffff168673ffffffffffffffffffffffffffffffffffffffff1603612351575f3373ffffffffffffffffffffffffffffffffffffffff16866040516122d19061352e565b5f6040518083038185875af1925050503d805f811461230b576040519150601f19603f3d011682016040523d82523d5f602084013e612310565b606091505b505090508061234b576040517f90b8ec1800000000000000000000000000000000000000000000000000000000815260040160405180910390fd5b5061237d565b61237c33868873ffffffffffffffffffffffffffffffffffffffff166128c09092919063ffffffff16565b5b505050505050565b345f81036123bf576040517f2c5211c600000000000000000000000000000000000000000000000000000000815260040160405180910390fd5b6123ca335f3461071b565b50565b5f8260025f8273ffffffffffffffffffffffffffffffffffffffff1673ffffffffffffffffffffffffffffffffffffffff1681526020019081526020015f2060010160159054906101000a900460ff1661245e57806040517f06439c6b0000000000000000000000000000000000000000000000000000000081526004016124559190612e11565b60405180910390fd5b5f830361246d575f91506126ef565b5f60025f8673ffffffffffffffffffffffffffffffffffffffff1673ffffffffffffffffffffffffffffffffffffffff1681526020019081526020015f206040518060800160405290815f82015f9054906101000a900473ffffffffffffffffffffffffffffffffffffffff1673ffffffffffffffffffffffffffffffffffffffff1673ffffffffffffffffffffffffffffffffffffffff168152602001600182015f9054906101000a900473ffffffffffffffffffffffffffffffffffffffff1673ffffffffffffffffffffffffffffffffffffffff1673ffffffffffffffffffffffffffffffffffffffff1681526020016001820160149054906101000a900460ff1660ff1660ff1681526020016001820160159054906101000a900460ff16151515158152505090505f815f015190505f8173ffffffffffffffffffffffffffffffffffffffff1663feaf968c6040518163ffffffff1660e01b815260040160a060405180830381865afa1580156125ea573d5f5f3e3d5ffd5b505050506040513d601f19601f8201168201806040525081019061260e91906131b1565b5050509150505f811361264d576040517f7dfa876300000000000000000000000000000000000000000000000000000000815260040160405180910390fd5b5f8190505f601290506012856040015160ff1614612688576008856040015160126126789190613228565b612682919061325c565b60ff1690505b5f81600a6126969190613400565b670de0b6b3a7640000848b6126ab9190613290565b6126b59190613290565b6126bf9190613477565b9050600660126126cf9190613228565b600a6126db9190613542565b816126e69190613477565b97505050505050505b5092915050565b6126fe61293f565b73ffffffffffffffffffffffffffffffffffffffff1661271c6119a3565b73ffffffffffffffffffffffffffffffffffffffff161461277b5761273f61293f565b6040517f118cdaa70000000000000000000000000000000000000000000000000000000081526004016127729190612e11565b60405180910390fd5b565b6127f9848573ffffffffffffffffffffffffffffffffffffffff166323b872dd8686866040516024016127b29392919061358c565b604051602081830303815290604052915060e01b6020820180517bffffffffffffffffffffffffffffffffffffffffffffffffffffffff8381831617835250505050612946565b50505050565b5f5f5f9054906101000a900473ffffffffffffffffffffffffffffffffffffffff169050815f5f6101000a81548173ffffffffffffffffffffffffffffffffffffffff021916908373ffffffffffffffffffffffffffffffffffffffff1602179055508173ffffffffffffffffffffffffffffffffffffffff168173ffffffffffffffffffffffffffffffffffffffff167f8be0079c531659141344cd1fd0a4f28419497f9722a3daafe3b4186f6b6457e060405160405180910390a35050565b61293a838473ffffffffffffffffffffffffffffffffffffffff1663a9059cbb85856040516024016128f39291906135c1565b604051602081830303815290604052915060e01b6020820180517bffffffffffffffffffffffffffffffffffffffffffffffffffffffff8381831617835250505050612946565b505050565b5f33905090565b5f5f60205f8451602086015f885af180612965576040513d5f823e3d81fd5b3d92505f519150505f821461297e576001811415612999565b5f8473ffffffffffffffffffffffffffffffffffffffff163b145b156129db57836040517f5274afe70000000000000000000000000000000000000000000000000000000081526004016129d29190612e11565b60405180910390fd5b50505050565b60405180608001604052805f73ffffffffffffffffffffffffffffffffffffffff1681526020015f73ffffffffffffffffffffffffffffffffffffffff1681526020015f60ff1681526020015f151581525090565b5f5ffd5b5f73ffffffffffffffffffffffffffffffffffffffff82169050919050565b5f612a6382612a3a565b9050919050565b612a7381612a59565b8114612a7d575f5ffd5b50565b5f81359050612a8e81612a6a565b92915050565b5f60ff82169050919050565b612aa981612a94565b8114612ab3575f5ffd5b50565b5f81359050612ac481612aa0565b92915050565b5f5f5f60608486031215612ae157612ae0612a36565b5b5f612aee86828701612a80565b9350506020612aff86828701612a80565b9250506040612b1086828701612ab6565b9150509250925092565b5f60208284031215612b2f57612b2e612a36565b5b5f612b3c84828501612a80565b91505092915050565b5f5f60408385031215612b5b57612b5a612a36565b5b5f612b6885828601612a80565b9250506020612b7985828601612a80565b9150509250929050565b5f819050919050565b612b9581612b83565b82525050565b5f602082019050612bae5f830184612b8c565b92915050565b612bbd81612a59565b82525050565b612bcc81612a94565b82525050565b5f8115159050919050565b612be681612bd2565b82525050565b608082015f820151612c005f850182612bb4565b506020820151612c136020850182612bb4565b506040820151612c266040850182612bc3565b506060820151612c396060850182612bdd565b50505050565b5f608082019050612c525f830184612bec565b92915050565b612c6181612b83565b8114612c6b575f5ffd5b50565b5f81359050612c7c81612c58565b92915050565b5f5f60408385031215612c9857612c97612a36565b5b5f612ca585828601612a80565b9250506020612cb685828601612c6e565b9150509250929050565b612cc981612bd2565b82525050565b5f602082019050612ce25f830184612cc0565b92915050565b5f81519050919050565b5f82825260208201905092915050565b5f819050602082019050919050565b5f612d1c8383612bb4565b60208301905092915050565b5f602082019050919050565b5f612d3e82612ce8565b612d488185612cf2565b9350612d5383612d02565b805f5b83811015612d83578151612d6a8882612d11565b9750612d7583612d28565b925050600181019050612d56565b5085935050505092915050565b5f6020820190508181035f830152612da88184612d34565b905092915050565b612db981612a59565b82525050565b612dc881612a94565b82525050565b5f608082019050612de15f830187612db0565b612dee6020830186612db0565b612dfb6040830185612dbf565b612e086060830184612cc0565b95945050505050565b5f602082019050612e245f830184612db0565b92915050565b5f60208284031215612e3f57612e3e612a36565b5b5f612e4c84828501612c6e565b91505092915050565b5f819050919050565b5f612e78612e73612e6e84612a3a565b612e55565b612a3a565b9050919050565b5f612e8982612e5e565b9050919050565b5f612e9a82612e7f565b9050919050565b612eaa81612e90565b82525050565b5f602082019050612ec35f830184612ea1565b92915050565b5f602082019050612edc5f830184612dbf565b92915050565b5f81519050919050565b5f82825260208201905092915050565b5f819050602082019050919050565b612f1481612b83565b82525050565b5f612f258383612f0b565b60208301905092915050565b5f602082019050919050565b5f612f4782612ee2565b612f518185612eec565b9350612f5c83612efc565b805f5b83811015612f8c578151612f738882612f1a565b9750612f7e83612f31565b925050600181019050612f5f565b5085935050505092915050565b5f6040820190508181035f830152612fb18185612d34565b90508181036020830152612fc58184612f3d565b90509392505050565b7f4e487b71000000000000000000000000000000000000000000000000000000005f52601160045260245ffd5b5f61300582612b83565b915061301083612b83565b925082820190508082111561302857613027612fce565b5b92915050565b5f6040820190506130415f830185612b8c565b61304e6020830184612b8c565b9392505050565b5f82825260208201905092915050565b7f557365206465706f73697445544820666f72206e6174697665204554480000005f82015250565b5f613099601d83613055565b91506130a482613065565b602082019050919050565b5f6020820190508181035f8301526130c68161308d565b9050919050565b5f815190506130db81612c58565b92915050565b5f602082840312156130f6576130f5612a36565b5b5f613103848285016130cd565b91505092915050565b5f61311682612b83565b915061312183612b83565b925082820390508181111561313957613138612fce565b5b92915050565b5f69ffffffffffffffffffff82169050919050565b61315d8161313f565b8114613167575f5ffd5b50565b5f8151905061317881613154565b92915050565b5f819050919050565b6131908161317e565b811461319a575f5ffd5b50565b5f815190506131ab81613187565b92915050565b5f5f5f5f5f60a086880312156131ca576131c9612a36565b5b5f6131d78882890161316a565b95505060206131e88882890161319d565b94505060406131f9888289016130cd565b935050606061320a888289016130cd565b925050608061321b8882890161316a565b9150509295509295909350565b5f61323282612a94565b915061323d83612a94565b9250828203905060ff81111561325657613255612fce565b5b92915050565b5f61326682612a94565b915061327183612a94565b9250828201905060ff81111561328a57613289612fce565b5b92915050565b5f61329a82612b83565b91506132a583612b83565b92508282026132b381612b83565b915082820484148315176132ca576132c9612fce565b5b5092915050565b5f8160011c9050919050565b5f5f8291508390505b60018511156133265780860481111561330257613301612fce565b5b60018516156133115780820291505b808102905061331f856132d1565b94506132e6565b94509492505050565b5f8261333e57600190506133f9565b8161334b575f90506133f9565b8160018114613361576002811461336b5761339a565b60019150506133f9565b60ff84111561337d5761337c612fce565b5b8360020a91508482111561339457613393612fce565b5b506133f9565b5060208310610133831016604e8410600b84101617156133cf5782820a9050838111156133ca576133c9612fce565b5b6133f9565b6133dc84848460016132dd565b925090508184048111156133f3576133f2612fce565b5b81810290505b9392505050565b5f61340a82612b83565b915061341583612b83565b92506134427fffffffffffffffffffffffffffffffffffffffffffffffffffffffffffffffff848461332f565b905092915050565b7f4e487b71000000000000000000000000000000000000000000000000000000005f52601260045260245ffd5b5f61348182612b83565b915061348c83612b83565b92508261349c5761349b61344a565b5b828204905092915050565b7f4e487b71000000000000000000000000000000000000000000000000000000005f52604160045260245ffd5b7f4e487b71000000000000000000000000000000000000000000000000000000005f52603260045260245ffd5b5f81905092915050565b50565b5f6135195f83613501565b91506135248261350b565b5f82019050919050565b5f6135388261350e565b9150819050919050565b5f61354c82612b83565b915061355783612a94565b92506135847fffffffffffffffffffffffffffffffffffffffffffffffffffffffffffffffff848461332f565b905092915050565b5f60608201905061359f5f830186612db0565b6135ac6020830185612db0565b6135b96040830184612b8c565b949350505050565b5f6040820190506135d45f830185612db0565b6135e16020830184612b8c565b939250505056fea2646970667358221220ba0867a039def36ecec5a0755164b21af033fd843ea534cc01ca55e89317a2ba64736f6c634300081e0033",
					"opcodes": "PUSH1 0xC0 PUSH1 0x40 MSTORE CALLVALUE DUP1 ISZERO PUSH2 0xF JUMPI PUSH0 PUSH0 REVERT JUMPDEST POP PUSH1 0x40 MLOAD PUSH2 0x3C70 CODESIZE SUB DUP1 PUSH2 0x3C70 DUP4 CODECOPY DUP2 DUP2 ADD PUSH1 0x40 MSTORE DUP2 ADD SWAP1 PUSH2 0x31 SWAP2 SWAP1 PUSH2 0x560 JUMP JUMPDEST CALLER PUSH0 PUSH20 0xFFFFFFFFFFFFFFFFFFFFFFFFFFFFFFFFFFFFFFFF AND DUP2 PUSH20 0xFFFFFFFFFFFFFFFFFFFFFFFFFFFFFFFFFFFFFFFF AND SUB PUSH2 0xA2 JUMPI PUSH0 PUSH1 0x40 MLOAD PUSH32 0x1E4FBDF700000000000000000000000000000000000000000000000000000000 DUP2 MSTORE PUSH1 0x4 ADD PUSH2 0x99 SWAP2 SWAP1 PUSH2 0x5BF JUMP JUMPDEST PUSH1 0x40 MLOAD DUP1 SWAP2 SUB SWAP1 REVERT JUMPDEST PUSH2 0xB1 DUP2 PUSH2 0x40E PUSH1 0x20 SHL PUSH1 0x20 SHR JUMP JUMPDEST POP PUSH0 PUSH20 0xFFFFFFFFFFFFFFFFFFFFFFFFFFFFFFFFFFFFFFFF AND DUP2 PUSH20 0xFFFFFFFFFFFFFFFFFFFFFFFFFFFFFFFFFFFFFFFF AND SUB PUSH2 0x117 JUMPI PUSH1 0x40 MLOAD PUSH32 0x52CC3F7D00000000000000000000000000000000000000000000000000000000 DUP2 MSTORE PUSH1 0x4 ADD PUSH1 0x40 MLOAD DUP1 SWAP2 SUB SWAP1 REVERT JUMPDEST PUSH0 DUP4 EQ DUP1 PUSH2 0x124 JUMPI POP PUSH0 DUP3 EQ JUMPDEST ISZERO PUSH2 0x15B JUMPI PUSH1 0x40 MLOAD PUSH32 0x2C5211C600000000000000000000000000000000000000000000000000000000 DUP2 MSTORE PUSH1 0x4 ADD PUSH1 0x40 MLOAD DUP1 SWAP2 SUB SWAP1 REVERT JUMPDEST DUP3 DUP3 LT ISZERO PUSH2 0x1A2 JUMPI DUP3 DUP3 PUSH1 0x40 MLOAD PUSH32 0x63C47B0700000000000000000000000000000000000000000000000000000000 DUP2 MSTORE PUSH1 0x4 ADD PUSH2 0x199 SWAP3 SWAP2 SWAP1 PUSH2 0x5E7 JUMP JUMPDEST PUSH1 0x40 MLOAD DUP1 SWAP2 SUB SWAP1 REVERT JUMPDEST DUP3 PUSH1 0xA0 DUP2 DUP2 MSTORE POP POP DUP2 PUSH1 0x80 DUP2 DUP2 MSTORE POP POP DUP1 PUSH1 0x6 PUSH0 PUSH2 0x100 EXP DUP2 SLOAD DUP2 PUSH20 0xFFFFFFFFFFFFFFFFFFFFFFFFFFFFFFFFFFFFFFFF MUL NOT AND SWAP1 DUP4 PUSH20 0xFFFFFFFFFFFFFFFFFFFFFFFFFFFFFFFFFFFFFFFF AND MUL OR SWAP1 SSTORE POP PUSH1 0x40 MLOAD DUP1 PUSH1 0x80 ADD PUSH1 0x40 MSTORE DUP1 DUP3 PUSH20 0xFFFFFFFFFFFFFFFFFFFFFFFFFFFFFFFFFFFFFFFF AND DUP2 MSTORE PUSH1 0x20 ADD PUSH0 PUSH20 0xFFFFFFFFFFFFFFFFFFFFFFFFFFFFFFFFFFFFFFFF AND DUP2 MSTORE PUSH1 0x20 ADD PUSH1 0x12 PUSH1 0xFF AND DUP2 MSTORE PUSH1 0x20 ADD PUSH1 0x1 ISZERO ISZERO DUP2 MSTORE POP PUSH1 0x2 PUSH0 PUSH0 PUSH20 0xFFFFFFFFFFFFFFFFFFFFFFFFFFFFFFFFFFFFFFFF AND PUSH20 0xFFFFFFFFFFFFFFFFFFFFFFFFFFFFFFFFFFFFFFFF AND DUP2 MSTORE PUSH1 0x20 ADD SWAP1 DUP2 MSTORE PUSH1 0x20 ADD PUSH0 KECCAK256 PUSH0 DUP3 ADD MLOAD DUP2 PUSH0 ADD PUSH0 PUSH2 0x100 EXP DUP2 SLOAD DUP2 PUSH20 0xFFFFFFFFFFFFFFFFFFFFFFFFFFFFFFFFFFFFFFFF MUL NOT AND SWAP1 DUP4 PUSH20 0xFFFFFFFFFFFFFFFFFFFFFFFFFFFFFFFFFFFFFFFF AND MUL OR SWAP1 SSTORE POP PUSH1 0x20 DUP3 ADD MLOAD DUP2 PUSH1 0x1 ADD PUSH0 PUSH2 0x100 EXP DUP2 SLOAD DUP2 PUSH20 0xFFFFFFFFFFFFFFFFFFFFFFFFFFFFFFFFFFFFFFFF MUL NOT AND SWAP1 DUP4 PUSH20 0xFFFFFFFFFFFFFFFFFFFFFFFFFFFFFFFFFFFFFFFF AND MUL OR SWAP1 SSTORE POP PUSH1 0x40 DUP3 ADD MLOAD DUP2 PUSH1 0x1 ADD PUSH1 0x14 PUSH2 0x100 EXP DUP2 SLOAD DUP2 PUSH1 0xFF MUL NOT AND SWAP1 DUP4 PUSH1 0xFF AND MUL OR SWAP1 SSTORE POP PUSH1 0x60 DUP3 ADD MLOAD DUP2 PUSH1 0x1 ADD PUSH1 0x15 PUSH2 0x100 EXP DUP2 SLOAD DUP2 PUSH1 0xFF MUL NOT AND SWAP1 DUP4 ISZERO ISZERO MUL OR SWAP1 SSTORE POP SWAP1 POP POP PUSH1 0x7 PUSH0 SWAP1 DUP1 PUSH1 0x1 DUP2 SLOAD ADD DUP1 DUP3 SSTORE DUP1 SWAP2 POP POP PUSH1 0x1 SWAP1 SUB SWAP1 PUSH0 MSTORE PUSH1 0x20 PUSH0 KECCAK256 ADD PUSH0 SWAP1 SWAP2 SWAP1 SWAP2 SWAP1 SWAP2 PUSH2 0x100 EXP DUP2 SLOAD DUP2 PUSH20 0xFFFFFFFFFFFFFFFFFFFFFFFFFFFFFFFFFFFFFFFF MUL NOT AND SWAP1 DUP4 PUSH20 0xFFFFFFFFFFFFFFFFFFFFFFFFFFFFFFFFFFFFFFFF AND MUL OR SWAP1 SSTORE POP PUSH1 0x1 PUSH1 0x8 PUSH0 CALLER PUSH20 0xFFFFFFFFFFFFFFFFFFFFFFFFFFFFFFFFFFFFFFFF AND PUSH20 0xFFFFFFFFFFFFFFFFFFFFFFFFFFFFFFFFFFFFFFFF AND DUP2 MSTORE PUSH1 0x20 ADD SWAP1 DUP2 MSTORE PUSH1 0x20 ADD PUSH0 KECCAK256 PUSH0 PUSH2 0x100 EXP DUP2 SLOAD DUP2 PUSH1 0xFF MUL NOT AND SWAP1 DUP4 ISZERO ISZERO MUL OR SWAP1 SSTORE POP POP POP POP PUSH2 0x60E JUMP JUMPDEST PUSH0 PUSH0 PUSH0 SWAP1 SLOAD SWAP1 PUSH2 0x100 EXP SWAP1 DIV PUSH20 0xFFFFFFFFFFFFFFFFFFFFFFFFFFFFFFFFFFFFFFFF AND SWAP1 POP DUP2 PUSH0 PUSH0 PUSH2 0x100 EXP DUP2 SLOAD DUP2 PUSH20 0xFFFFFFFFFFFFFFFFFFFFFFFFFFFFFFFFFFFFFFFF MUL NOT AND SWAP1 DUP4 PUSH20 0xFFFFFFFFFFFFFFFFFFFFFFFFFFFFFFFFFFFFFFFF AND MUL OR SWAP1 SSTORE POP DUP2 PUSH20 0xFFFFFFFFFFFFFFFFFFFFFFFFFFFFFFFFFFFFFFFF AND DUP2 PUSH20 0xFFFFFFFFFFFFFFFFFFFFFFFFFFFFFFFFFFFFFFFF AND PUSH32 0x8BE0079C531659141344CD1FD0A4F28419497F9722A3DAAFE3B4186F6B6457E0 PUSH1 0x40 MLOAD PUSH1 0x40 MLOAD DUP1 SWAP2 SUB SWAP1 LOG3 POP POP JUMP JUMPDEST PUSH0 PUSH0 REVERT JUMPDEST PUSH0 DUP2 SWAP1 POP SWAP2 SWAP1 POP JUMP JUMPDEST PUSH2 0x4E5 DUP2 PUSH2 0x4D3 JUMP JUMPDEST DUP2 EQ PUSH2 0x4EF JUMPI PUSH0 PUSH0 REVERT JUMPDEST POP JUMP JUMPDEST PUSH0 DUP2 MLOAD SWAP1 POP PUSH2 0x500 DUP2 PUSH2 0x4DC JUMP JUMPDEST SWAP3 SWAP2 POP POP JUMP JUMPDEST PUSH0 PUSH20 0xFFFFFFFFFFFFFFFFFFFFFFFFFFFFFFFFFFFFFFFF DUP3 AND SWAP1 POP SWAP2 SWAP1 POP JUMP JUMPDEST PUSH0 PUSH2 0x52F DUP3 PUSH2 0x506 JUMP JUMPDEST SWAP1 POP SWAP2 SWAP1 POP JUMP JUMPDEST PUSH2 0x53F DUP2 PUSH2 0x525 JUMP JUMPDEST DUP2 EQ PUSH2 0x549 JUMPI PUSH0 PUSH0 REVERT JUMPDEST POP JUMP JUMPDEST PUSH0 DUP2 MLOAD SWAP1 POP PUSH2 0x55A DUP2 PUSH2 0x536 JUMP JUMPDEST SWAP3 SWAP2 POP POP JUMP JUMPDEST PUSH0 PUSH0 PUSH0 PUSH1 0x60 DUP5 DUP7 SUB SLT ISZERO PUSH2 0x577 JUMPI PUSH2 0x576 PUSH2 0x4CF JUMP JUMPDEST JUMPDEST PUSH0 PUSH2 0x584 DUP7 DUP3 DUP8 ADD PUSH2 0x4F2 JUMP JUMPDEST SWAP4 POP POP PUSH1 0x20 PUSH2 0x595 DUP7 DUP3 DUP8 ADD PUSH2 0x4F2 JUMP JUMPDEST SWAP3 POP POP PUSH1 0x40 PUSH2 0x5A6 DUP7 DUP3 DUP8 ADD PUSH2 0x54C JUMP JUMPDEST SWAP2 POP POP SWAP3 POP SWAP3 POP SWAP3 JUMP JUMPDEST PUSH2 0x5B9 DUP2 PUSH2 0x525 JUMP JUMPDEST DUP3 MSTORE POP POP JUMP JUMPDEST PUSH0 PUSH1 0x20 DUP3 ADD SWAP1 POP PUSH2 0x5D2 PUSH0 DUP4 ADD DUP5 PUSH2 0x5B0 JUMP JUMPDEST SWAP3 SWAP2 POP POP JUMP JUMPDEST PUSH2 0x5E1 DUP2 PUSH2 0x4D3 JUMP JUMPDEST DUP3 MSTORE POP POP JUMP JUMPDEST PUSH0 PUSH1 0x40 DUP3 ADD SWAP1 POP PUSH2 0x5FA PUSH0 DUP4 ADD DUP6 PUSH2 0x5D8 JUMP JUMPDEST PUSH2 0x607 PUSH1 0x20 DUP4 ADD DUP5 PUSH2 0x5D8 JUMP JUMPDEST SWAP4 SWAP3 POP POP POP JUMP JUMPDEST PUSH1 0x80 MLOAD PUSH1 0xA0 MLOAD PUSH2 0x361E PUSH2 0x652 PUSH0 CODECOPY PUSH0 DUP2 DUP2 PUSH2 0x194D ADD MSTORE DUP2 DUP2 PUSH2 0x2070 ADD MSTORE PUSH2 0x2099 ADD MSTORE PUSH0 DUP2 DUP2 PUSH2 0x7BA ADD MSTORE DUP2 DUP2 PUSH2 0x7FD ADD MSTORE DUP2 DUP2 PUSH2 0xFAA ADD MSTORE PUSH2 0x1975 ADD MSTORE PUSH2 0x361E PUSH0 RETURN INVALID PUSH1 0x80 PUSH1 0x40 MSTORE PUSH1 0x4 CALLDATASIZE LT PUSH2 0x1C4 JUMPI PUSH0 CALLDATALOAD PUSH1 0xE0 SHR DUP1 PUSH4 0x82EE0D1D GT PUSH2 0xF6 JUMPI DUP1 PUSH4 0xC53D6CE1 GT PUSH2 0x94 JUMPI DUP1 PUSH4 0xEEA88C51 GT PUSH2 0x63 JUMPI DUP1 PUSH4 0xEEA88C51 EQ PUSH2 0x697 JUMPI DUP1 PUSH4 0xF2FDE38B EQ PUSH2 0x6C1 JUMPI DUP1 PUSH4 0xF3FEF3A3 EQ PUSH2 0x6E9 JUMPI DUP1 PUSH4 0xF6326FB3 EQ PUSH2 0x711 JUMPI PUSH2 0x1DF JUMP JUMPDEST DUP1 PUSH4 0xC53D6CE1 EQ PUSH2 0x5B8 JUMPI DUP1 PUSH4 0xD4FAC45D EQ PUSH2 0x5F5 JUMPI DUP1 PUSH4 0xE62615C6 EQ PUSH2 0x631 JUMPI DUP1 PUSH4 0xECED5526 EQ PUSH2 0x66D JUMPI PUSH2 0x1DF JUMP JUMPDEST DUP1 PUSH4 0x9F224F35 GT PUSH2 0xD0 JUMPI DUP1 PUSH4 0x9F224F35 EQ PUSH2 0x4FE JUMPI DUP1 PUSH4 0xA734F06E EQ PUSH2 0x53A JUMPI DUP1 PUSH4 0xAF7665CE EQ PUSH2 0x564 JUMPI DUP1 PUSH4 0xBE406E6C EQ PUSH2 0x58E JUMPI PUSH2 0x1DF JUMP JUMPDEST DUP1 PUSH4 0x82EE0D1D EQ PUSH2 0x480 JUMPI DUP1 PUSH4 0x87BE0FAF EQ PUSH2 0x4AA JUMPI DUP1 PUSH4 0x8DA5CB5B EQ PUSH2 0x4D4 JUMPI PUSH2 0x1DF JUMP JUMPDEST DUP1 PUSH4 0x3A3D1F98 GT PUSH2 0x163 JUMPI DUP1 PUSH4 0x5FA7B584 GT PUSH2 0x13D JUMPI DUP1 PUSH4 0x5FA7B584 EQ PUSH2 0x3DB JUMPI DUP1 PUSH4 0x68C4AC26 EQ PUSH2 0x403 JUMPI DUP1 PUSH4 0x70480275 EQ PUSH2 0x442 JUMPI DUP1 PUSH4 0x715018A6 EQ PUSH2 0x46A JUMPI PUSH2 0x1DF JUMP JUMPDEST DUP1 PUSH4 0x3A3D1F98 EQ PUSH2 0x339 JUMPI DUP1 PUSH4 0x429B62E5 EQ PUSH2 0x375 JUMPI DUP1 PUSH4 0x5F5817E3 EQ PUSH2 0x3B1 JUMPI PUSH2 0x1DF JUMP JUMPDEST DUP1 PUSH4 0x1F69565F GT PUSH2 0x19F JUMPI DUP1 PUSH4 0x1F69565F EQ PUSH2 0x26F JUMPI DUP1 PUSH4 0x21E855A0 EQ PUSH2 0x2AB JUMPI DUP1 PUSH4 0x2A441767 EQ PUSH2 0x2D5 JUMPI DUP1 PUSH4 0x338B5DEA EQ PUSH2 0x311 JUMPI PUSH2 0x1DF JUMP JUMPDEST DUP1 PUSH3 0xA51EE4 EQ PUSH2 0x1E3 JUMPI DUP1 PUSH4 0x1785F53C EQ PUSH2 0x20B JUMPI DUP1 PUSH4 0x1DAB0335 EQ PUSH2 0x233 JUMPI PUSH2 0x1DF JUMP JUMPDEST CALLDATASIZE PUSH2 0x1DF JUMPI PUSH0 CALLVALUE GT ISZERO PUSH2 0x1DD JUMPI PUSH2 0x1DC CALLER PUSH0 CALLVALUE PUSH2 0x71B JUMP JUMPDEST JUMPDEST STOP JUMPDEST PUSH0 PUSH0 REVERT JUMPDEST CALLVALUE DUP1 ISZERO PUSH2 0x1EE JUMPI PUSH0 PUSH0 REVERT JUMPDEST POP PUSH2 0x209 PUSH1 0x4 DUP1 CALLDATASIZE SUB DUP2 ADD SWAP1 PUSH2 0x204 SWAP2 SWAP1 PUSH2 0x2ACA JUMP JUMPDEST PUSH2 0x9E4 JUMP JUMPDEST STOP JUMPDEST CALLVALUE DUP1 ISZERO PUSH2 0x216 JUMPI PUSH0 PUSH0 REVERT JUMPDEST POP PUSH2 0x231 PUSH1 0x4 DUP1 CALLDATASIZE SUB DUP2 ADD SWAP1 PUSH2 0x22C SWAP2 SWAP1 PUSH2 0x2B1A JUMP JUMPDEST PUSH2 0xDAE JUMP JUMPDEST STOP JUMPDEST CALLVALUE DUP1 ISZERO PUSH2 0x23E JUMPI PUSH0 PUSH0 REVERT JUMPDEST POP PUSH2 0x259 PUSH1 0x4 DUP1 CALLDATASIZE SUB DUP2 ADD SWAP1 PUSH2 0x254 SWAP2 SWAP1 PUSH2 0x2B45 JUMP JUMPDEST PUSH2 0xE50 JUMP JUMPDEST PUSH1 0x40 MLOAD PUSH2 0x266 SWAP2 SWAP1 PUSH2 0x2B9B JUMP JUMPDEST PUSH1 0x40 MLOAD DUP1 SWAP2 SUB SWAP1 RETURN JUMPDEST CALLVALUE DUP1 ISZERO PUSH2 0x27A JUMPI PUSH0 PUSH0 REVERT JUMPDEST POP PUSH2 0x295 PUSH1 0x4 DUP1 CALLDATASIZE SUB DUP2 ADD SWAP1 PUSH2 0x290 SWAP2 SWAP1 PUSH2 0x2B1A JUMP JUMPDEST PUSH2 0xE70 JUMP JUMPDEST PUSH1 0x40 MLOAD PUSH2 0x2A2 SWAP2 SWAP1 PUSH2 0x2C3F JUMP JUMPDEST PUSH1 0x40 MLOAD DUP1 SWAP2 SUB SWAP1 RETURN JUMPDEST CALLVALUE DUP1 ISZERO PUSH2 0x2B6 JUMPI PUSH0 PUSH0 REVERT JUMPDEST POP PUSH2 0x2BF PUSH2 0xFA8 JUMP JUMPDEST PUSH1 0x40 MLOAD PUSH2 0x2CC SWAP2 SWAP1 PUSH2 0x2B9B JUMP JUMPDEST PUSH1 0x40 MLOAD DUP1 SWAP2 SUB SWAP1 RETURN JUMPDEST CALLVALUE DUP1 ISZERO PUSH2 0x2E0 JUMPI PUSH0 PUSH0 REVERT JUMPDEST POP PUSH2 0x2FB PUSH1 0x4 DUP1 CALLDATASIZE SUB DUP2 ADD SWAP1 PUSH2 0x2F6 SWAP2 SWAP1 PUSH2 0x2B45 JUMP JUMPDEST PUSH2 0xFCC JUMP JUMPDEST PUSH1 0x40 MLOAD PUSH2 0x308 SWAP2 SWAP1 PUSH2 0x2B9B JUMP JUMPDEST PUSH1 0x40 MLOAD DUP1 SWAP2 SUB SWAP1 RETURN JUMPDEST CALLVALUE DUP1 ISZERO PUSH2 0x31C JUMPI PUSH0 PUSH0 REVERT JUMPDEST POP PUSH2 0x337 PUSH1 0x4 DUP1 CALLDATASIZE SUB DUP2 ADD SWAP1 PUSH2 0x332 SWAP2 SWAP1 PUSH2 0x2C82 JUMP JUMPDEST PUSH2 0xFEC JUMP JUMPDEST STOP JUMPDEST CALLVALUE DUP1 ISZERO PUSH2 0x344 JUMPI PUSH0 PUSH0 REVERT JUMPDEST POP PUSH2 0x35F PUSH1 0x4 DUP1 CALLDATASIZE SUB DUP2 ADD SWAP1 PUSH2 0x35A SWAP2 SWAP1 PUSH2 0x2C82 JUMP JUMPDEST PUSH2 0x126A JUMP JUMPDEST PUSH1 0x40 MLOAD PUSH2 0x36C SWAP2 SWAP1 PUSH2 0x2B9B JUMP JUMPDEST PUSH1 0x40 MLOAD DUP1 SWAP2 SUB SWAP1 RETURN JUMPDEST CALLVALUE DUP1 ISZERO PUSH2 0x380 JUMPI PUSH0 PUSH0 REVERT JUMPDEST POP PUSH2 0x39B PUSH1 0x4 DUP1 CALLDATASIZE SUB DUP2 ADD SWAP1 PUSH2 0x396 SWAP2 SWAP1 PUSH2 0x2B1A JUMP JUMPDEST PUSH2 0x156A JUMP JUMPDEST PUSH1 0x40 MLOAD PUSH2 0x3A8 SWAP2 SWAP1 PUSH2 0x2CCF JUMP JUMPDEST PUSH1 0x40 MLOAD DUP1 SWAP2 SUB SWAP1 RETURN JUMPDEST CALLVALUE DUP1 ISZERO PUSH2 0x3BC JUMPI PUSH0 PUSH0 REVERT JUMPDEST POP PUSH2 0x3C5 PUSH2 0x1587 JUMP JUMPDEST PUSH1 0x40 MLOAD PUSH2 0x3D2 SWAP2 SWAP1 PUSH2 0x2D90 JUMP JUMPDEST PUSH1 0x40 MLOAD DUP1 SWAP2 SUB SWAP1 RETURN JUMPDEST CALLVALUE DUP1 ISZERO PUSH2 0x3E6 JUMPI PUSH0 PUSH0 REVERT JUMPDEST POP PUSH2 0x401 PUSH1 0x4 DUP1 CALLDATASIZE SUB DUP2 ADD SWAP1 PUSH2 0x3FC SWAP2 SWAP1 PUSH2 0x2B1A JUMP JUMPDEST PUSH2 0x1612 JUMP JUMPDEST STOP JUMPDEST CALLVALUE DUP1 ISZERO PUSH2 0x40E JUMPI PUSH0 PUSH0 REVERT JUMPDEST POP PUSH2 0x429 PUSH1 0x4 DUP1 CALLDATASIZE SUB DUP2 ADD SWAP1 PUSH2 0x424 SWAP2 SWAP1 PUSH2 0x2B1A JUMP JUMPDEST PUSH2 0x17AC JUMP JUMPDEST PUSH1 0x40 MLOAD PUSH2 0x439 SWAP5 SWAP4 SWAP3 SWAP2 SWAP1 PUSH2 0x2DCE JUMP JUMPDEST PUSH1 0x40 MLOAD DUP1 SWAP2 SUB SWAP1 RETURN JUMPDEST CALLVALUE DUP1 ISZERO PUSH2 0x44D JUMPI PUSH0 PUSH0 REVERT JUMPDEST POP PUSH2 0x468 PUSH1 0x4 DUP1 CALLDATASIZE SUB DUP2 ADD SWAP1 PUSH2 0x463 SWAP2 SWAP1 PUSH2 0x2B1A JUMP JUMPDEST PUSH2 0x1830 JUMP JUMPDEST STOP JUMPDEST CALLVALUE DUP1 ISZERO PUSH2 0x475 JUMPI PUSH0 PUSH0 REVERT JUMPDEST POP PUSH2 0x47E PUSH2 0x1938 JUMP JUMPDEST STOP JUMPDEST CALLVALUE DUP1 ISZERO PUSH2 0x48B JUMPI PUSH0 PUSH0 REVERT JUMPDEST POP PUSH2 0x494 PUSH2 0x194B JUMP JUMPDEST PUSH1 0x40 MLOAD PUSH2 0x4A1 SWAP2 SWAP1 PUSH2 0x2B9B JUMP JUMPDEST PUSH1 0x40 MLOAD DUP1 SWAP2 SUB SWAP1 RETURN JUMPDEST CALLVALUE DUP1 ISZERO PUSH2 0x4B5 JUMPI PUSH0 PUSH0 REVERT JUMPDEST POP PUSH2 0x4BE PUSH2 0x196F JUMP JUMPDEST PUSH1 0x40 MLOAD PUSH2 0x4CB SWAP2 SWAP1 PUSH2 0x2B9B JUMP JUMPDEST PUSH1 0x40 MLOAD DUP1 SWAP2 SUB SWAP1 RETURN JUMPDEST CALLVALUE DUP1 ISZERO PUSH2 0x4DF JUMPI PUSH0 PUSH0 REVERT JUMPDEST POP PUSH2 0x4E8 PUSH2 0x19A3 JUMP JUMPDEST PUSH1 0x40 MLOAD PUSH2 0x4F5 SWAP2 SWAP1 PUSH2 0x2E11 JUMP JUMPDEST PUSH1 0x40 MLOAD DUP1 SWAP2 SUB SWAP1 RETURN JUMPDEST CALLVALUE DUP1 ISZERO PUSH2 0x509 JUMPI PUSH0 PUSH0 REVERT JUMPDEST POP PUSH2 0x524 PUSH1 0x4 DUP1 CALLDATASIZE SUB DUP2 ADD SWAP1 PUSH2 0x51F SWAP2 SWAP1 PUSH2 0x2E2A JUMP JUMPDEST PUSH2 0x19CA JUMP JUMPDEST PUSH1 0x40 MLOAD PUSH2 0x531 SWAP2 SWAP1 PUSH2 0x2E11 JUMP JUMPDEST PUSH1 0x40 MLOAD DUP1 SWAP2 SUB SWAP1 RETURN JUMPDEST CALLVALUE DUP1 ISZERO PUSH2 0x545 JUMPI PUSH0 PUSH0 REVERT JUMPDEST POP PUSH2 0x54E PUSH2 0x1A05 JUMP JUMPDEST PUSH1 0x40 MLOAD PUSH2 0x55B SWAP2 SWAP1 PUSH2 0x2E11 JUMP JUMPDEST PUSH1 0x40 MLOAD DUP1 SWAP2 SUB SWAP1 RETURN JUMPDEST CALLVALUE DUP1 ISZERO PUSH2 0x56F JUMPI PUSH0 PUSH0 REVERT JUMPDEST POP PUSH2 0x578 PUSH2 0x1A09 JUMP JUMPDEST PUSH1 0x40 MLOAD PUSH2 0x585 SWAP2 SWAP1 PUSH2 0x2EB0 JUMP JUMPDEST PUSH1 0x40 MLOAD DUP1 SWAP2 SUB SWAP1 RETURN JUMPDEST CALLVALUE DUP1 ISZERO PUSH2 0x599 JUMPI PUSH0 PUSH0 REVERT JUMPDEST POP PUSH2 0x5A2 PUSH2 0x1A2E JUMP JUMPDEST PUSH1 0x40 MLOAD PUSH2 0x5AF SWAP2 SWAP1 PUSH2 0x2EC9 JUMP JUMPDEST PUSH1 0x40 MLOAD DUP1 SWAP2 SUB SWAP1 RETURN JUMPDEST CALLVALUE DUP1 ISZERO PUSH2 0x5C3 JUMPI PUSH0 PUSH0 REVERT JUMPDEST POP PUSH2 0x5DE PUSH1 0x4 DUP1 CALLDATASIZE SUB DUP2 ADD SWAP1 PUSH2 0x5D9 SWAP2 SWAP1 PUSH2 0x2B1A JUMP JUMPDEST PUSH2 0x1A33 JUMP JUMPDEST PUSH1 0x40 MLOAD PUSH2 0x5EC SWAP3 SWAP2 SWAP1 PUSH2 0x2F99 JUMP JUMPDEST PUSH1 0x40 MLOAD DUP1 SWAP2 SUB SWAP1 RETURN JUMPDEST CALLVALUE DUP1 ISZERO PUSH2 0x600 JUMPI PUSH0 PUSH0 REVERT JUMPDEST POP PUSH2 0x61B PUSH1 0x4 DUP1 CALLDATASIZE SUB DUP2 ADD SWAP1 PUSH2 0x616 SWAP2 SWAP1 PUSH2 0x2B45 JUMP JUMPDEST PUSH2 0x1C04 JUMP JUMPDEST PUSH1 0x40 MLOAD PUSH2 0x628 SWAP2 SWAP1 PUSH2 0x2B9B JUMP JUMPDEST PUSH1 0x40 MLOAD DUP1 SWAP2 SUB SWAP1 RETURN JUMPDEST CALLVALUE DUP1 ISZERO PUSH2 0x63C JUMPI PUSH0 PUSH0 REVERT JUMPDEST POP PUSH2 0x657 PUSH1 0x4 DUP1 CALLDATASIZE SUB DUP2 ADD SWAP1 PUSH2 0x652 SWAP2 SWAP1 PUSH2 0x2B45 JUMP JUMPDEST PUSH2 0x1D19 JUMP JUMPDEST PUSH1 0x40 MLOAD PUSH2 0x664 SWAP2 SWAP1 PUSH2 0x2B9B JUMP JUMPDEST PUSH1 0x40 MLOAD DUP1 SWAP2 SUB SWAP1 RETURN JUMPDEST CALLVALUE DUP1 ISZERO PUSH2 0x678 JUMPI PUSH0 PUSH0 REVERT JUMPDEST POP PUSH2 0x681 PUSH2 0x1E3C JUMP JUMPDEST PUSH1 0x40 MLOAD PUSH2 0x68E SWAP2 SWAP1 PUSH2 0x2B9B JUMP JUMPDEST PUSH1 0x40 MLOAD DUP1 SWAP2 SUB SWAP1 RETURN JUMPDEST CALLVALUE DUP1 ISZERO PUSH2 0x6A2 JUMPI PUSH0 PUSH0 REVERT JUMPDEST POP PUSH2 0x6AB PUSH2 0x1E48 JUMP JUMPDEST PUSH1 0x40 MLOAD PUSH2 0x6B8 SWAP2 SWAP1 PUSH2 0x2B9B JUMP JUMPDEST PUSH1 0x40 MLOAD DUP1 SWAP2 SUB SWAP1 RETURN JUMPDEST CALLVALUE DUP1 ISZERO PUSH2 0x6CC JUMPI PUSH0 PUSH0 REVERT JUMPDEST POP PUSH2 0x6E7 PUSH1 0x4 DUP1 CALLDATASIZE SUB DUP2 ADD SWAP1 PUSH2 0x6E2 SWAP2 SWAP1 PUSH2 0x2B1A JUMP JUMPDEST PUSH2 0x1E4E JUMP JUMPDEST STOP JUMPDEST CALLVALUE DUP1 ISZERO PUSH2 0x6F4 JUMPI PUSH0 PUSH0 REVERT JUMPDEST POP PUSH2 0x70F PUSH1 0x4 DUP1 CALLDATASIZE SUB DUP2 ADD SWAP1 PUSH2 0x70A SWAP2 SWAP1 PUSH2 0x2C82 JUMP JUMPDEST PUSH2 0x1ED2 JUMP JUMPDEST STOP JUMPDEST PUSH2 0x719 PUSH2 0x2385 JUMP JUMPDEST STOP JUMPDEST DUP2 PUSH1 0x2 PUSH0 DUP3 PUSH20 0xFFFFFFFFFFFFFFFFFFFFFFFFFFFFFFFFFFFFFFFF AND PUSH20 0xFFFFFFFFFFFFFFFFFFFFFFFFFFFFFFFFFFFFFFFF AND DUP2 MSTORE PUSH1 0x20 ADD SWAP1 DUP2 MSTORE PUSH1 0x20 ADD PUSH0 KECCAK256 PUSH1 0x1 ADD PUSH1 0x15 SWAP1 SLOAD SWAP1 PUSH2 0x100 EXP SWAP1 DIV PUSH1 0xFF AND PUSH2 0x7AB JUMPI DUP1 PUSH1 0x40 MLOAD PUSH32 0x6439C6B00000000000000000000000000000000000000000000000000000000 DUP2 MSTORE PUSH1 0x4 ADD PUSH2 0x7A2 SWAP2 SWAP1 PUSH2 0x2E11 JUMP JUMPDEST PUSH1 0x40 MLOAD DUP1 SWAP2 SUB SWAP1 REVERT JUMPDEST PUSH0 PUSH2 0x7B6 DUP5 DUP5 PUSH2 0x23CD JUMP JUMPDEST SWAP1 POP PUSH32 0x0 DUP2 PUSH1 0x5 SLOAD PUSH2 0x7E7 SWAP2 SWAP1 PUSH2 0x2FFB JUMP JUMPDEST GT ISZERO PUSH2 0x859 JUMPI DUP1 PUSH1 0x5 SLOAD PUSH2 0x7FB SWAP2 SWAP1 PUSH2 0x2FFB JUMP JUMPDEST PUSH32 0x0 PUSH1 0x40 MLOAD PUSH32 0x63C47B0700000000000000000000000000000000000000000000000000000000 DUP2 MSTORE PUSH1 0x4 ADD PUSH2 0x850 SWAP3 SWAP2 SWAP1 PUSH2 0x302E JUMP JUMPDEST PUSH1 0x40 MLOAD DUP1 SWAP2 SUB SWAP1 REVERT JUMPDEST DUP3 PUSH1 0x1 PUSH0 DUP8 PUSH20 0xFFFFFFFFFFFFFFFFFFFFFFFFFFFFFFFFFFFFFFFF AND PUSH20 0xFFFFFFFFFFFFFFFFFFFFFFFFFFFFFFFFFFFFFFFF AND DUP2 MSTORE PUSH1 0x20 ADD SWAP1 DUP2 MSTORE PUSH1 0x20 ADD PUSH0 KECCAK256 PUSH0 ADD PUSH0 DUP7 PUSH20 0xFFFFFFFFFFFFFFFFFFFFFFFFFFFFFFFFFFFFFFFF AND PUSH20 0xFFFFFFFFFFFFFFFFFFFFFFFFFFFFFFFFFFFFFFFF AND DUP2 MSTORE PUSH1 0x20 ADD SWAP1 DUP2 MSTORE PUSH1 0x20 ADD PUSH0 KECCAK256 PUSH0 DUP3 DUP3 SLOAD ADD SWAP3 POP POP DUP2 SWAP1 SSTORE POP PUSH1 0x3 PUSH0 DUP7 PUSH20 0xFFFFFFFFFFFFFFFFFFFFFFFFFFFFFFFFFFFFFFFF AND PUSH20 0xFFFFFFFFFFFFFFFFFFFFFFFFFFFFFFFFFFFFFFFF AND DUP2 MSTORE PUSH1 0x20 ADD SWAP1 DUP2 MSTORE PUSH1 0x20 ADD PUSH0 KECCAK256 PUSH0 DUP6 PUSH20 0xFFFFFFFFFFFFFFFFFFFFFFFFFFFFFFFFFFFFFFFF AND PUSH20 0xFFFFFFFFFFFFFFFFFFFFFFFFFFFFFFFFFFFFFFFF AND DUP2 MSTORE PUSH1 0x20 ADD SWAP1 DUP2 MSTORE PUSH1 0x20 ADD PUSH0 KECCAK256 PUSH0 DUP2 SLOAD DUP1 SWAP3 SWAP2 SWAP1 PUSH1 0x1 ADD SWAP2 SWAP1 POP SSTORE POP DUP1 PUSH1 0x5 PUSH0 DUP3 DUP3 SLOAD ADD SWAP3 POP POP DUP2 SWAP1 SSTORE POP DUP4 PUSH20 0xFFFFFFFFFFFFFFFFFFFFFFFFFFFFFFFFFFFFFFFF AND DUP6 PUSH20 0xFFFFFFFFFFFFFFFFFFFFFFFFFFFFFFFFFFFFFFFF AND PUSH32 0xF5681F9D0DB1B911AC18EE83D515A1CF1051853A9EAE418316A2FDF7DEA427C5 DUP6 DUP5 PUSH1 0x40 MLOAD PUSH2 0x9D5 SWAP3 SWAP2 SWAP1 PUSH2 0x302E JUMP JUMPDEST PUSH1 0x40 MLOAD DUP1 SWAP2 SUB SWAP1 LOG3 POP POP POP POP POP JUMP JUMPDEST PUSH2 0x9EC PUSH2 0x26F6 JUMP JUMPDEST PUSH0 PUSH20 0xFFFFFFFFFFFFFFFFFFFFFFFFFFFFFFFFFFFFFFFF AND DUP4 PUSH20 0xFFFFFFFFFFFFFFFFFFFFFFFFFFFFFFFFFFFFFFFF AND SUB PUSH2 0xA51 JUMPI PUSH1 0x40 MLOAD PUSH32 0x1EB00B0600000000000000000000000000000000000000000000000000000000 DUP2 MSTORE PUSH1 0x4 ADD PUSH1 0x40 MLOAD DUP1 SWAP2 SUB SWAP1 REVERT JUMPDEST PUSH0 PUSH20 0xFFFFFFFFFFFFFFFFFFFFFFFFFFFFFFFFFFFFFFFF AND DUP3 PUSH20 0xFFFFFFFFFFFFFFFFFFFFFFFFFFFFFFFFFFFFFFFF AND SUB PUSH2 0xAB6 JUMPI PUSH1 0x40 MLOAD PUSH32 0x52CC3F7D00000000000000000000000000000000000000000000000000000000 DUP2 MSTORE PUSH1 0x4 ADD PUSH1 0x40 MLOAD DUP1 SWAP2 SUB SWAP1 REVERT JUMPDEST PUSH0 DUP2 PUSH1 0xFF AND EQ DUP1 PUSH2 0xACA JUMPI POP PUSH1 0x12 DUP2 PUSH1 0xFF AND GT JUMPDEST ISZERO PUSH2 0xB01 JUMPI PUSH1 0x40 MLOAD PUSH32 0xD25598A000000000000000000000000000000000000000000000000000000000 DUP2 MSTORE PUSH1 0x4 ADD PUSH1 0x40 MLOAD DUP1 SWAP2 SUB SWAP1 REVERT JUMPDEST PUSH1 0x2 PUSH0 DUP5 PUSH20 0xFFFFFFFFFFFFFFFFFFFFFFFFFFFFFFFFFFFFFFFF AND PUSH20 0xFFFFFFFFFFFFFFFFFFFFFFFFFFFFFFFFFFFFFFFF AND DUP2 MSTORE PUSH1 0x20 ADD SWAP1 DUP2 MSTORE PUSH1 0x20 ADD PUSH0 KECCAK256 PUSH1 0x1 ADD PUSH1 0x15 SWAP1 SLOAD SWAP1 PUSH2 0x100 EXP SWAP1 DIV PUSH1 0xFF AND ISZERO PUSH2 0xB86 JUMPI PUSH1 0x40 MLOAD PUSH32 0x630B374B00000000000000000000000000000000000000000000000000000000 DUP2 MSTORE PUSH1 0x4 ADD PUSH1 0x40 MLOAD DUP1 SWAP2 SUB SWAP1 REVERT JUMPDEST PUSH1 0x40 MLOAD DUP1 PUSH1 0x80 ADD PUSH1 0x40 MSTORE DUP1 DUP4 PUSH20 0xFFFFFFFFFFFFFFFFFFFFFFFFFFFFFFFFFFFFFFFF AND DUP2 MSTORE PUSH1 0x20 ADD DUP5 PUSH20 0xFFFFFFFFFFFFFFFFFFFFFFFFFFFFFFFFFFFFFFFF AND DUP2 MSTORE PUSH1 0x20 ADD DUP3 PUSH1 0xFF AND DUP2 MSTORE PUSH1 0x20 ADD PUSH1 0x1 ISZERO ISZERO DUP2 MSTORE POP PUSH1 0x2 PUSH0 DUP6 PUSH20 0xFFFFFFFFFFFFFFFFFFFFFFFFFFFFFFFFFFFFFFFF AND PUSH20 0xFFFFFFFFFFFFFFFFFFFFFFFFFFFFFFFFFFFFFFFF AND DUP2 MSTORE PUSH1 0x20 ADD SWAP1 DUP2 MSTORE PUSH1 0x20 ADD PUSH0 KECCAK256 PUSH0 DUP3 ADD MLOAD DUP2 PUSH0 ADD PUSH0 PUSH2 0x100 EXP DUP2 SLOAD DUP2 PUSH20 0xFFFFFFFFFFFFFFFFFFFFFFFFFFFFFFFFFFFFFFFF MUL NOT AND SWAP1 DUP4 PUSH20 0xFFFFFFFFFFFFFFFFFFFFFFFFFFFFFFFFFFFFFFFF AND MUL OR SWAP1 SSTORE POP PUSH1 0x20 DUP3 ADD MLOAD DUP2 PUSH1 0x1 ADD PUSH0 PUSH2 0x100 EXP DUP2 SLOAD DUP2 PUSH20 0xFFFFFFFFFFFFFFFFFFFFFFFFFFFFFFFFFFFFFFFF MUL NOT AND SWAP1 DUP4 PUSH20 0xFFFFFFFFFFFFFFFFFFFFFFFFFFFFFFFFFFFFFFFF AND MUL OR SWAP1 SSTORE POP PUSH1 0x40 DUP3 ADD MLOAD DUP2 PUSH1 0x1 ADD PUSH1 0x14 PUSH2 0x100 EXP DUP2 SLOAD DUP2 PUSH1 0xFF MUL NOT AND SWAP1 DUP4 PUSH1 0xFF AND MUL OR SWAP1 SSTORE POP PUSH1 0x60 DUP3 ADD MLOAD DUP2 PUSH1 0x1 ADD PUSH1 0x15 PUSH2 0x100 EXP DUP2 SLOAD DUP2 PUSH1 0xFF MUL NOT AND SWAP1 DUP4 ISZERO ISZERO MUL OR SWAP1 SSTORE POP SWAP1 POP POP PUSH1 0x7 DUP4 SWAP1 DUP1 PUSH1 0x1 DUP2 SLOAD ADD DUP1 DUP3 SSTORE DUP1 SWAP2 POP POP PUSH1 0x1 SWAP1 SUB SWAP1 PUSH0 MSTORE PUSH1 0x20 PUSH0 KECCAK256 ADD PUSH0 SWAP1 SWAP2 SWAP1 SWAP2 SWAP1 SWAP2 PUSH2 0x100 EXP DUP2 SLOAD DUP2 PUSH20 0xFFFFFFFFFFFFFFFFFFFFFFFFFFFFFFFFFFFFFFFF MUL NOT AND SWAP1 DUP4 PUSH20 0xFFFFFFFFFFFFFFFFFFFFFFFFFFFFFFFFFFFFFFFF AND MUL OR SWAP1 SSTORE POP DUP2 PUSH20 0xFFFFFFFFFFFFFFFFFFFFFFFFFFFFFFFFFFFFFFFF AND DUP4 PUSH20 0xFFFFFFFFFFFFFFFFFFFFFFFFFFFFFFFFFFFFFFFF AND PUSH32 0x45A26A460D33C4B7F3733844536D895F16B0F87524AD613B4FDA44911F965257 DUP4 PUSH1 0x40 MLOAD PUSH2 0xDA1 SWAP2 SWAP1 PUSH2 0x2EC9 JUMP JUMPDEST PUSH1 0x40 MLOAD DUP1 SWAP2 SUB SWAP1 LOG3 POP POP POP JUMP JUMPDEST PUSH2 0xDB6 PUSH2 0x26F6 JUMP JUMPDEST PUSH0 PUSH1 0x8 PUSH0 DUP4 PUSH20 0xFFFFFFFFFFFFFFFFFFFFFFFFFFFFFFFFFFFFFFFF AND PUSH20 0xFFFFFFFFFFFFFFFFFFFFFFFFFFFFFFFFFFFFFFFF AND DUP2 MSTORE PUSH1 0x20 ADD SWAP1 DUP2 MSTORE PUSH1 0x20 ADD PUSH0 KECCAK256 PUSH0 PUSH2 0x100 EXP DUP2 SLOAD DUP2 PUSH1 0xFF MUL NOT AND SWAP1 DUP4 ISZERO ISZERO MUL OR SWAP1 SSTORE POP DUP1 PUSH20 0xFFFFFFFFFFFFFFFFFFFFFFFFFFFFFFFFFFFFFFFF AND PUSH32 0xA3B62BC36326052D97EA62D63C3D60308ED4C3EA8AC079DD8499F1E9C4F80C0F PUSH1 0x40 MLOAD PUSH1 0x40 MLOAD DUP1 SWAP2 SUB SWAP1 LOG2 POP JUMP JUMPDEST PUSH1 0x3 PUSH1 0x20 MSTORE DUP2 PUSH0 MSTORE PUSH1 0x40 PUSH0 KECCAK256 PUSH1 0x20 MSTORE DUP1 PUSH0 MSTORE PUSH1 0x40 PUSH0 KECCAK256 PUSH0 SWAP2 POP SWAP2 POP POP SLOAD DUP2 JUMP JUMPDEST PUSH2 0xE78 PUSH2 0x29E1 JUMP JUMPDEST PUSH1 0x2 PUSH0 DUP4 PUSH20 0xFFFFFFFFFFFFFFFFFFFFFFFFFFFFFFFFFFFFFFFF AND PUSH20 0xFFFFFFFFFFFFFFFFFFFFFFFFFFFFFFFFFFFFFFFF AND DUP2 MSTORE PUSH1 0x20 ADD SWAP1 DUP2 MSTORE PUSH1 0x20 ADD PUSH0 KECCAK256 PUSH1 0x40 MLOAD DUP1 PUSH1 0x80 ADD PUSH1 0x40 MSTORE SWAP1 DUP2 PUSH0 DUP3 ADD PUSH0 SWAP1 SLOAD SWAP1 PUSH2 0x100 EXP SWAP1 DIV PUSH20 0xFFFFFFFFFFFFFFFFFFFFFFFFFFFFFFFFFFFFFFFF AND PUSH20 0xFFFFFFFFFFFFFFFFFFFFFFFFFFFFFFFFFFFFFFFF AND PUSH20 0xFFFFFFFFFFFFFFFFFFFFFFFFFFFFFFFFFFFFFFFF AND DUP2 MSTORE PUSH1 0x20 ADD PUSH1 0x1 DUP3 ADD PUSH0 SWAP1 SLOAD SWAP1 PUSH2 0x100 EXP SWAP1 DIV PUSH20 0xFFFFFFFFFFFFFFFFFFFFFFFFFFFFFFFFFFFFFFFF AND PUSH20 0xFFFFFFFFFFFFFFFFFFFFFFFFFFFFFFFFFFFFFFFF AND PUSH20 0xFFFFFFFFFFFFFFFFFFFFFFFFFFFFFFFFFFFFFFFF AND DUP2 MSTORE PUSH1 0x20 ADD PUSH1 0x1 DUP3 ADD PUSH1 0x14 SWAP1 SLOAD SWAP1 PUSH2 0x100 EXP SWAP1 DIV PUSH1 0xFF AND PUSH1 0xFF AND PUSH1 0xFF AND DUP2 MSTORE PUSH1 0x20 ADD PUSH1 0x1 DUP3 ADD PUSH1 0x15 SWAP1 SLOAD SWAP1 PUSH2 0x100 EXP SWAP1 DIV PUSH1 0xFF AND ISZERO ISZERO ISZERO ISZERO DUP2 MSTORE POP POP SWAP1 POP SWAP2 SWAP1 POP JUMP JUMPDEST PUSH32 0x0 DUP2 JUMP JUMPDEST PUSH1 0x4 PUSH1 0x20 MSTORE DUP2 PUSH0 MSTORE PUSH1 0x40 PUSH0 KECCAK256 PUSH1 0x20 MSTORE DUP1 PUSH0 MSTORE PUSH1 0x40 PUSH0 KECCAK256 PUSH0 SWAP2 POP SWAP2 POP POP SLOAD DUP2 JUMP JUMPDEST DUP1 PUSH0 DUP2 SUB PUSH2 0x1026 JUMPI PUSH1 0x40 MLOAD PUSH32 0x2C5211C600000000000000000000000000000000000000000000000000000000 DUP2 MSTORE PUSH1 0x4 ADD PUSH1 0x40 MLOAD DUP1 SWAP2 SUB SWAP1 REVERT JUMPDEST DUP3 PUSH1 0x2 PUSH0 DUP3 PUSH20 0xFFFFFFFFFFFFFFFFFFFFFFFFFFFFFFFFFFFFFFFF AND PUSH20 0xFFFFFFFFFFFFFFFFFFFFFFFFFFFFFFFFFFFFFFFF AND DUP2 MSTORE PUSH1 0x20 ADD SWAP1 DUP2 MSTORE PUSH1 0x20 ADD PUSH0 KECCAK256 PUSH1 0x1 ADD PUSH1 0x15 SWAP1 SLOAD SWAP1 PUSH2 0x100 EXP SWAP1 DIV PUSH1 0xFF AND PUSH2 0x10B6 JUMPI DUP1 PUSH1 0x40 MLOAD PUSH32 0x6439C6B00000000000000000000000000000000000000000000000000000000 DUP2 MSTORE PUSH1 0x4 ADD PUSH2 0x10AD SWAP2 SWAP1 PUSH2 0x2E11 JUMP JUMPDEST PUSH1 0x40 MLOAD DUP1 SWAP2 SUB SWAP1 REVERT JUMPDEST PUSH0 PUSH20 0xFFFFFFFFFFFFFFFFFFFFFFFFFFFFFFFFFFFFFFFF AND DUP5 PUSH20 0xFFFFFFFFFFFFFFFFFFFFFFFFFFFFFFFFFFFFFFFF AND SUB PUSH2 0x1124 JUMPI PUSH1 0x40 MLOAD PUSH32 0x8C379A000000000000000000000000000000000000000000000000000000000 DUP2 MSTORE PUSH1 0x4 ADD PUSH2 0x111B SWAP1 PUSH2 0x30AF JUMP JUMPDEST PUSH1 0x40 MLOAD DUP1 SWAP2 SUB SWAP1 REVERT JUMPDEST PUSH0 DUP5 PUSH20 0xFFFFFFFFFFFFFFFFFFFFFFFFFFFFFFFFFFFFFFFF AND PUSH4 0x70A08231 ADDRESS PUSH1 0x40 MLOAD DUP3 PUSH4 0xFFFFFFFF AND PUSH1 0xE0 SHL DUP2 MSTORE PUSH1 0x4 ADD PUSH2 0x115E SWAP2 SWAP1 PUSH2 0x2E11 JUMP JUMPDEST PUSH1 0x20 PUSH1 0x40 MLOAD DUP1 DUP4 SUB DUP2 DUP7 GAS STATICCALL ISZERO DUP1 ISZERO PUSH2 0x1179 JUMPI RETURNDATASIZE PUSH0 PUSH0 RETURNDATACOPY RETURNDATASIZE PUSH0 REVERT JUMPDEST POP POP POP POP PUSH1 0x40 MLOAD RETURNDATASIZE PUSH1 0x1F NOT PUSH1 0x1F DUP3 ADD AND DUP3 ADD DUP1 PUSH1 0x40 MSTORE POP DUP2 ADD SWAP1 PUSH2 0x119D SWAP2 SWAP1 PUSH2 0x30E1 JUMP JUMPDEST SWAP1 POP PUSH2 0x11CC CALLER ADDRESS DUP7 DUP9 PUSH20 0xFFFFFFFFFFFFFFFFFFFFFFFFFFFFFFFFFFFFFFFF AND PUSH2 0x277D SWAP1 SWAP4 SWAP3 SWAP2 SWAP1 PUSH4 0xFFFFFFFF AND JUMP JUMPDEST PUSH0 DUP6 PUSH20 0xFFFFFFFFFFFFFFFFFFFFFFFFFFFFFFFFFFFFFFFF AND PUSH4 0x70A08231 ADDRESS PUSH1 0x40 MLOAD DUP3 PUSH4 0xFFFFFFFF AND PUSH1 0xE0 SHL DUP2 MSTORE PUSH1 0x4 ADD PUSH2 0x1206 SWAP2 SWAP1 PUSH2 0x2E11 JUMP JUMPDEST PUSH1 0x20 PUSH1 0x40 MLOAD DUP1 DUP4 SUB DUP2 DUP7 GAS STATICCALL ISZERO DUP1 ISZERO PUSH2 0x1221 JUMPI RETURNDATASIZE PUSH0 PUSH0 RETURNDATACOPY RETURNDATASIZE PUSH0 REVERT JUMPDEST POP POP POP POP PUSH1 0x40 MLOAD RETURNDATASIZE PUSH1 0x1F NOT PUSH1 0x1F DUP3 ADD AND DUP3 ADD DUP1 PUSH1 0x40 MSTORE POP DUP2 ADD SWAP1 PUSH2 0x1245 SWAP2 SWAP1 PUSH2 0x30E1 JUMP JUMPDEST SWAP1 POP PUSH0 DUP3 DUP3 PUSH2 0x1254 SWAP2 SWAP1 PUSH2 0x310C JUMP JUMPDEST SWAP1 POP PUSH2 0x1261 CALLER DUP9 DUP4 PUSH2 0x71B JUMP JUMPDEST POP POP POP POP POP POP POP JUMP JUMPDEST PUSH0 DUP3 PUSH1 0x2 PUSH0 DUP3 PUSH20 0xFFFFFFFFFFFFFFFFFFFFFFFFFFFFFFFFFFFFFFFF AND PUSH20 0xFFFFFFFFFFFFFFFFFFFFFFFFFFFFFFFFFFFFFFFF AND DUP2 MSTORE PUSH1 0x20 ADD SWAP1 DUP2 MSTORE PUSH1 0x20 ADD PUSH0 KECCAK256 PUSH1 0x1 ADD PUSH1 0x15 SWAP1 SLOAD SWAP1 PUSH2 0x100 EXP SWAP1 DIV PUSH1 0xFF AND PUSH2 0x12FB JUMPI DUP1 PUSH1 0x40 MLOAD PUSH32 0x6439C6B00000000000000000000000000000000000000000000000000000000 DUP2 MSTORE PUSH1 0x4 ADD PUSH2 0x12F2 SWAP2 SWAP1 PUSH2 0x2E11 JUMP JUMPDEST PUSH1 0x40 MLOAD DUP1 SWAP2 SUB SWAP1 REVERT JUMPDEST PUSH0 DUP4 SUB PUSH2 0x130A JUMPI PUSH0 SWAP2 POP PUSH2 0x1563 JUMP JUMPDEST PUSH0 PUSH1 0x2 PUSH0 DUP7 PUSH20 0xFFFFFFFFFFFFFFFFFFFFFFFFFFFFFFFFFFFFFFFF AND PUSH20 0xFFFFFFFFFFFFFFFFFFFFFFFFFFFFFFFFFFFFFFFF AND DUP2 MSTORE PUSH1 0x20 ADD SWAP1 DUP2 MSTORE PUSH1 0x20 ADD PUSH0 KECCAK256 PUSH1 0x40 MLOAD DUP1 PUSH1 0x80 ADD PUSH1 0x40 MSTORE SWAP1 DUP2 PUSH0 DUP3 ADD PUSH0 SWAP1 SLOAD SWAP1 PUSH2 0x100 EXP SWAP1 DIV PUSH20 0xFFFFFFFFFFFFFFFFFFFFFFFFFFFFFFFFFFFFFFFF AND PUSH20 0xFFFFFFFFFFFFFFFFFFFFFFFFFFFFFFFFFFFFFFFF AND PUSH20 0xFFFFFFFFFFFFFFFFFFFFFFFFFFFFFFFFFFFFFFFF AND DUP2 MSTORE PUSH1 0x20 ADD PUSH1 0x1 DUP3 ADD PUSH0 SWAP1 SLOAD SWAP1 PUSH2 0x100 EXP SWAP1 DIV PUSH20 0xFFFFFFFFFFFFFFFFFFFFFFFFFFFFFFFFFFFFFFFF AND PUSH20 0xFFFFFFFFFFFFFFFFFFFFFFFFFFFFFFFFFFFFFFFF AND PUSH20 0xFFFFFFFFFFFFFFFFFFFFFFFFFFFFFFFFFFFFFFFF AND DUP2 MSTORE PUSH1 0x20 ADD PUSH1 0x1 DUP3 ADD PUSH1 0x14 SWAP1 SLOAD SWAP1 PUSH2 0x100 EXP SWAP1 DIV PUSH1 0xFF AND PUSH1 0xFF AND PUSH1 0xFF AND DUP2 MSTORE PUSH1 0x20 ADD PUSH1 0x1 DUP3 ADD PUSH1 0x15 SWAP1 SLOAD SWAP1 PUSH2 0x100 EXP SWAP1 DIV PUSH1 0xFF AND ISZERO ISZERO ISZERO ISZERO DUP2 MSTORE POP POP SWAP1 POP PUSH0 DUP2 PUSH0 ADD MLOAD SWAP1 POP PUSH0 DUP2 PUSH20 0xFFFFFFFFFFFFFFFFFFFFFFFFFFFFFFFFFFFFFFFF AND PUSH4 0xFEAF968C PUSH1 0x40 MLOAD DUP2 PUSH4 0xFFFFFFFF AND PUSH1 0xE0 SHL DUP2 MSTORE PUSH1 0x4 ADD PUSH1 0xA0 PUSH1 0x40 MLOAD DUP1 DUP4 SUB DUP2 DUP7 GAS STATICCALL ISZERO DUP1 ISZERO PUSH2 0x1487 JUMPI RETURNDATASIZE PUSH0 PUSH0 RETURNDATACOPY RETURNDATASIZE PUSH0 REVERT JUMPDEST POP POP POP POP PUSH1 0x40 MLOAD RETURNDATASIZE PUSH1 0x1F NOT PUSH1 0x1F DUP3 ADD AND DUP3 ADD DUP1 PUSH1 0x40 MSTORE POP DUP2 ADD SWAP1 PUSH2 0x14AB SWAP2 SWAP1 PUSH2 0x31B1 JUMP JUMPDEST POP POP POP SWAP2 POP POP PUSH0 DUP2 SGT PUSH2 0x14EA JUMPI PUSH1 0x40 MLOAD PUSH32 0x7DFA876300000000000000000000000000000000000000000000000000000000 DUP2 MSTORE PUSH1 0x4 ADD PUSH1 0x40 MLOAD DUP1 SWAP2 SUB SWAP1 REVERT JUMPDEST PUSH0 DUP2 SWAP1 POP PUSH0 PUSH1 0x12 SWAP1 POP PUSH1 0x12 DUP6 PUSH1 0x40 ADD MLOAD PUSH1 0xFF AND EQ PUSH2 0x1525 JUMPI PUSH1 0x8 DUP6 PUSH1 0x40 ADD MLOAD PUSH1 0x12 PUSH2 0x1515 SWAP2 SWAP1 PUSH2 0x3228 JUMP JUMPDEST PUSH2 0x151F SWAP2 SWAP1 PUSH2 0x325C JUMP JUMPDEST PUSH1 0xFF AND SWAP1 POP JUMPDEST PUSH8 0xDE0B6B3A7640000 DUP3 PUSH2 0x1539 SWAP2 SWAP1 PUSH2 0x3290 JUMP JUMPDEST DUP2 PUSH1 0xA PUSH2 0x1546 SWAP2 SWAP1 PUSH2 0x3400 JUMP JUMPDEST DUP10 PUSH2 0x1551 SWAP2 SWAP1 PUSH2 0x3290 JUMP JUMPDEST PUSH2 0x155B SWAP2 SWAP1 PUSH2 0x3477 JUMP JUMPDEST SWAP7 POP POP POP POP POP POP JUMPDEST POP SWAP3 SWAP2 POP POP JUMP JUMPDEST PUSH1 0x8 PUSH1 0x20 MSTORE DUP1 PUSH0 MSTORE PUSH1 0x40 PUSH0 KECCAK256 PUSH0 SWAP2 POP SLOAD SWAP1 PUSH2 0x100 EXP SWAP1 DIV PUSH1 0xFF AND DUP2 JUMP JUMPDEST PUSH1 0x60 PUSH1 0x7 DUP1 SLOAD DUP1 PUSH1 0x20 MUL PUSH1 0x20 ADD PUSH1 0x40 MLOAD SWAP1 DUP2 ADD PUSH1 0x40 MSTORE DUP1 SWAP3 SWAP2 SWAP1 DUP2 DUP2 MSTORE PUSH1 0x20 ADD DUP3 DUP1 SLOAD DUP1 ISZERO PUSH2 0x1608 JUMPI PUSH1 0x20 MUL DUP3 ADD SWAP2 SWAP1 PUSH0 MSTORE PUSH1 0x20 PUSH0 KECCAK256 SWAP1 JUMPDEST DUP2 PUSH0 SWAP1 SLOAD SWAP1 PUSH2 0x100 EXP SWAP1 DIV PUSH20 0xFFFFFFFFFFFFFFFFFFFFFFFFFFFFFFFFFFFFFFFF AND PUSH20 0xFFFFFFFFFFFFFFFFFFFFFFFFFFFFFFFFFFFFFFFF AND DUP2 MSTORE PUSH1 0x20 ADD SWAP1 PUSH1 0x1 ADD SWAP1 DUP1 DUP4 GT PUSH2 0x15BF JUMPI JUMPDEST POP POP POP POP POP SWAP1 POP SWAP1 JUMP JUMPDEST PUSH2 0x161A PUSH2 0x26F6 JUMP JUMPDEST PUSH0 PUSH20 0xFFFFFFFFFFFFFFFFFFFFFFFFFFFFFFFFFFFFFFFF AND DUP2 PUSH20 0xFFFFFFFFFFFFFFFFFFFFFFFFFFFFFFFFFFFFFFFF AND SUB PUSH2 0x167F JUMPI PUSH1 0x40 MLOAD PUSH32 0x1EB00B0600000000000000000000000000000000000000000000000000000000 DUP2 MSTORE PUSH1 0x4 ADD PUSH1 0x40 MLOAD DUP1 SWAP2 SUB SWAP1 REVERT JUMPDEST PUSH1 0x2 PUSH0 DUP3 PUSH20 0xFFFFFFFFFFFFFFFFFFFFFFFFFFFFFFFFFFFFFFFF AND PUSH20 0xFFFFFFFFFFFFFFFFFFFFFFFFFFFFFFFFFFFFFFFF AND DUP2 MSTORE PUSH1 0x20 ADD SWAP1 DUP2 MSTORE PUSH1 0x20 ADD PUSH0 KECCAK256 PUSH1 0x1 ADD PUSH1 0x15 SWAP1 SLOAD SWAP1 PUSH2 0x100 EXP SWAP1 DIV PUSH1 0xFF AND PUSH2 0x170E JUMPI DUP1 PUSH1 0x40 MLOAD PUSH32 0x6439C6B00000000000000000000000000000000000000000000000000000000 DUP2 MSTORE PUSH1 0x4 ADD PUSH2 0x1705 SWAP2 SWAP1 PUSH2 0x2E11 JUMP JUMPDEST PUSH1 0x40 MLOAD DUP1 SWAP2 SUB SWAP1 REVERT JUMPDEST PUSH0 PUSH1 0x2 PUSH0 DUP4 PUSH20 0xFFFFFFFFFFFFFFFFFFFFFFFFFFFFFFFFFFFFFFFF AND PUSH20 0xFFFFFFFFFFFFFFFFFFFFFFFFFFFFFFFFFFFFFFFF AND DUP2 MSTORE PUSH1 0x20 ADD SWAP1 DUP2 MSTORE PUSH1 0x20 ADD PUSH0 KECCAK256 PUSH1 0x1 ADD PUSH1 0x15 PUSH2 0x100 EXP DUP2 SLOAD DUP2 PUSH1 0xFF MUL NOT AND SWAP1 DUP4 ISZERO ISZERO MUL OR SWAP1 SSTORE POP DUP1 PUSH20 0xFFFFFFFFFFFFFFFFFFFFFFFFFFFFFFFFFFFFFFFF AND PUSH32 0x4C910B69FE65A61F7531B9C5042B2329CA7179C77290AA7E2EB3AFA3C8511FD3 PUSH1 0x40 MLOAD PUSH1 0x40 MLOAD DUP1 SWAP2 SUB SWAP1 LOG2 POP JUMP JUMPDEST PUSH1 0x2 PUSH1 0x20 MSTORE DUP1 PUSH0 MSTORE PUSH1 0x40 PUSH0 KECCAK256 PUSH0 SWAP2 POP SWAP1 POP DUP1 PUSH0 ADD PUSH0 SWAP1 SLOAD SWAP1 PUSH2 0x100 EXP SWAP1 DIV PUSH20 0xFFFFFFFFFFFFFFFFFFFFFFFFFFFFFFFFFFFFFFFF AND SWAP1 DUP1 PUSH1 0x1 ADD PUSH0 SWAP1 SLOAD SWAP1 PUSH2 0x100 EXP SWAP1 DIV PUSH20 0xFFFFFFFFFFFFFFFFFFFFFFFFFFFFFFFFFFFFFFFF AND SWAP1 DUP1 PUSH1 0x1 ADD PUSH1 0x14 SWAP1 SLOAD SWAP1 PUSH2 0x100 EXP SWAP1 DIV PUSH1 0xFF AND SWAP1 DUP1 PUSH1 0x1 ADD PUSH1 0x15 SWAP1 SLOAD SWAP1 PUSH2 0x100 EXP SWAP1 DIV PUSH1 0xFF AND SWAP1 POP DUP5 JUMP JUMPDEST PUSH2 0x1838 PUSH2 0x26F6 JUMP JUMPDEST PUSH0 PUSH20 0xFFFFFFFFFFFFFFFFFFFFFFFFFFFFFFFFFFFFFFFF AND DUP2 PUSH20 0xFFFFFFFFFFFFFFFFFFFFFFFFFFFFFFFFFFFFFFFF AND SUB PUSH2 0x189D JUMPI PUSH1 0x40 MLOAD PUSH32 0x1EB00B0600000000000000000000000000000000000000000000000000000000 DUP2 MSTORE PUSH1 0x4 ADD PUSH1 0x40 MLOAD DUP1 SWAP2 SUB SWAP1 REVERT JUMPDEST PUSH1 0x1 PUSH1 0x8 PUSH0 DUP4 PUSH20 0xFFFFFFFFFFFFFFFFFFFFFFFFFFFFFFFFFFFFFFFF AND PUSH20 0xFFFFFFFFFFFFFFFFFFFFFFFFFFFFFFFFFFFFFFFF AND DUP2 MSTORE PUSH1 0x20 ADD SWAP1 DUP2 MSTORE PUSH1 0x20 ADD PUSH0 KECCAK256 PUSH0 PUSH2 0x100 EXP DUP2 SLOAD DUP2 PUSH1 0xFF MUL NOT AND SWAP1 DUP4 ISZERO ISZERO MUL OR SWAP1 SSTORE POP DUP1 PUSH20 0xFFFFFFFFFFFFFFFFFFFFFFFFFFFFFFFFFFFFFFFF AND PUSH32 0x44D6D25963F097AD14F29F06854A01F575648A1EF82F30E562CCD3889717E339 PUSH1 0x40 MLOAD PUSH1 0x40 MLOAD DUP1 SWAP2 SUB SWAP1 LOG2 POP JUMP JUMPDEST PUSH2 0x1940 PUSH2 0x26F6 JUMP JUMPDEST PUSH2 0x1949 PUSH0 PUSH2 0x27FF JUMP JUMPDEST JUMP JUMPDEST PUSH32 0x0 DUP2 JUMP JUMPDEST PUSH0 PUSH1 0x5 SLOAD PUSH32 0x0 PUSH2 0x199E SWAP2 SWAP1 PUSH2 0x310C JUMP JUMPDEST SWAP1 POP SWAP1 JUMP JUMPDEST PUSH0 PUSH0 PUSH0 SWAP1 SLOAD SWAP1 PUSH2 0x100 EXP SWAP1 DIV PUSH20 0xFFFFFFFFFFFFFFFFFFFFFFFFFFFFFFFFFFFFFFFF AND SWAP1 POP SWAP1 JUMP JUMPDEST PUSH1 0x7 DUP2 DUP2 SLOAD DUP2 LT PUSH2 0x19D9 JUMPI PUSH0 DUP1 REVERT JUMPDEST SWAP1 PUSH0 MSTORE PUSH1 0x20 PUSH0 KECCAK256 ADD PUSH0 SWAP2 POP SLOAD SWAP1 PUSH2 0x100 EXP SWAP1 DIV PUSH20 0xFFFFFFFFFFFFFFFFFFFFFFFFFFFFFFFFFFFFFFFF AND DUP2 JUMP JUMPDEST PUSH0 DUP2 JUMP JUMPDEST PUSH1 0x6 PUSH0 SWAP1 SLOAD SWAP1 PUSH2 0x100 EXP SWAP1 DIV PUSH20 0xFFFFFFFFFFFFFFFFFFFFFFFFFFFFFFFFFFFFFFFF AND DUP2 JUMP JUMPDEST PUSH1 0x6 DUP2 JUMP JUMPDEST PUSH1 0x60 DUP1 PUSH1 0x7 DUP1 SLOAD DUP1 PUSH1 0x20 MUL PUSH1 0x20 ADD PUSH1 0x40 MLOAD SWAP1 DUP2 ADD PUSH1 0x40 MSTORE DUP1 SWAP3 SWAP2 SWAP1 DUP2 DUP2 MSTORE PUSH1 0x20 ADD DUP3 DUP1 SLOAD DUP1 ISZERO PUSH2 0x1AB5 JUMPI PUSH1 0x20 MUL DUP3 ADD SWAP2 SWAP1 PUSH0 MSTORE PUSH1 0x20 PUSH0 KECCAK256 SWAP1 JUMPDEST DUP2 PUSH0 SWAP1 SLOAD SWAP1 PUSH2 0x100 EXP SWAP1 DIV PUSH20 0xFFFFFFFFFFFFFFFFFFFFFFFFFFFFFFFFFFFFFFFF AND PUSH20 0xFFFFFFFFFFFFFFFFFFFFFFFFFFFFFFFFFFFFFFFF AND DUP2 MSTORE PUSH1 0x20 ADD SWAP1 PUSH1 0x1 ADD SWAP1 DUP1 DUP4 GT PUSH2 0x1A6C JUMPI JUMPDEST POP POP POP POP POP SWAP2 POP PUSH1 0x7 DUP1 SLOAD SWAP1 POP PUSH8 0xFFFFFFFFFFFFFFFF DUP2 GT ISZERO PUSH2 0x1ADB JUMPI PUSH2 0x1ADA PUSH2 0x34A7 JUMP JUMPDEST JUMPDEST PUSH1 0x40 MLOAD SWAP1 DUP1 DUP3 MSTORE DUP1 PUSH1 0x20 MUL PUSH1 0x20 ADD DUP3 ADD PUSH1 0x40 MSTORE DUP1 ISZERO PUSH2 0x1B09 JUMPI DUP2 PUSH1 0x20 ADD PUSH1 0x20 DUP3 MUL DUP1 CALLDATASIZE DUP4 CALLDATACOPY DUP1 DUP3 ADD SWAP2 POP POP SWAP1 POP JUMPDEST POP SWAP1 POP PUSH0 PUSH0 SWAP1 POP JUMPDEST PUSH1 0x7 DUP1 SLOAD SWAP1 POP DUP2 LT ISZERO PUSH2 0x1BFE JUMPI PUSH1 0x1 PUSH0 DUP6 PUSH20 0xFFFFFFFFFFFFFFFFFFFFFFFFFFFFFFFFFFFFFFFF AND PUSH20 0xFFFFFFFFFFFFFFFFFFFFFFFFFFFFFFFFFFFFFFFF AND DUP2 MSTORE PUSH1 0x20 ADD SWAP1 DUP2 MSTORE PUSH1 0x20 ADD PUSH0 KECCAK256 PUSH0 ADD PUSH0 PUSH1 0x7 DUP4 DUP2 SLOAD DUP2 LT PUSH2 0x1B72 JUMPI PUSH2 0x1B71 PUSH2 0x34D4 JUMP JUMPDEST JUMPDEST SWAP1 PUSH0 MSTORE PUSH1 0x20 PUSH0 KECCAK256 ADD PUSH0 SWAP1 SLOAD SWAP1 PUSH2 0x100 EXP SWAP1 DIV PUSH20 0xFFFFFFFFFFFFFFFFFFFFFFFFFFFFFFFFFFFFFFFF AND PUSH20 0xFFFFFFFFFFFFFFFFFFFFFFFFFFFFFFFFFFFFFFFF AND PUSH20 0xFFFFFFFFFFFFFFFFFFFFFFFFFFFFFFFFFFFFFFFF AND DUP2 MSTORE PUSH1 0x20 ADD SWAP1 DUP2 MSTORE PUSH1 0x20 ADD PUSH0 KECCAK256 SLOAD DUP3 DUP3 DUP2 MLOAD DUP2 LT PUSH2 0x1BE7 JUMPI PUSH2 0x1BE6 PUSH2 0x34D4 JUMP JUMPDEST JUMPDEST PUSH1 0x20 MUL PUSH1 0x20 ADD ADD DUP2 DUP2 MSTORE POP POP DUP1 PUSH1 0x1 ADD SWAP1 POP PUSH2 0x1B11 JUMP JUMPDEST POP SWAP2 POP SWAP2 JUMP JUMPDEST PUSH0 DUP2 PUSH1 0x2 PUSH0 DUP3 PUSH20 0xFFFFFFFFFFFFFFFFFFFFFFFFFFFFFFFFFFFFFFFF AND PUSH20 0xFFFFFFFFFFFFFFFFFFFFFFFFFFFFFFFFFFFFFFFF AND DUP2 MSTORE PUSH1 0x20 ADD SWAP1 DUP2 MSTORE PUSH1 0x20 ADD PUSH0 KECCAK256 PUSH1 0x1 ADD PUSH1 0x15 SWAP1 SLOAD SWAP1 PUSH2 0x100 EXP SWAP1 DIV PUSH1 0xFF AND PUSH2 0x1C95 JUMPI DUP1 PUSH1 0x40 MLOAD PUSH32 0x6439C6B00000000000000000000000000000000000000000000000000000000 DUP2 MSTORE PUSH1 0x4 ADD PUSH2 0x1C8C SWAP2 SWAP1 PUSH2 0x2E11 JUMP JUMPDEST PUSH1 0x40 MLOAD DUP1 SWAP2 SUB SWAP1 REVERT JUMPDEST PUSH1 0x1 PUSH0 DUP6 PUSH20 0xFFFFFFFFFFFFFFFFFFFFFFFFFFFFFFFFFFFFFFFF AND PUSH20 0xFFFFFFFFFFFFFFFFFFFFFFFFFFFFFFFFFFFFFFFF AND DUP2 MSTORE PUSH1 0x20 ADD SWAP1 DUP2 MSTORE PUSH1 0x20 ADD PUSH0 KECCAK256 PUSH0 ADD PUSH0 DUP5 PUSH20 0xFFFFFFFFFFFFFFFFFFFFFFFFFFFFFFFFFFFFFFFF AND PUSH20 0xFFFFFFFFFFFFFFFFFFFFFFFFFFFFFFFFFFFFFFFF AND DUP2 MSTORE PUSH1 0x20 ADD SWAP1 DUP2 MSTORE PUSH1 0x20 ADD PUSH0 KECCAK256 SLOAD SWAP2 POP POP SWAP3 SWAP2 POP POP JUMP JUMPDEST PUSH0 DUP2 PUSH1 0x2 PUSH0 DUP3 PUSH20 0xFFFFFFFFFFFFFFFFFFFFFFFFFFFFFFFFFFFFFFFF AND PUSH20 0xFFFFFFFFFFFFFFFFFFFFFFFFFFFFFFFFFFFFFFFF AND DUP2 MSTORE PUSH1 0x20 ADD SWAP1 DUP2 MSTORE PUSH1 0x20 ADD PUSH0 KECCAK256 PUSH1 0x1 ADD PUSH1 0x15 SWAP1 SLOAD SWAP1 PUSH2 0x100 EXP SWAP1 DIV PUSH1 0xFF AND PUSH2 0x1DAA JUMPI DUP1 PUSH1 0x40 MLOAD PUSH32 0x6439C6B00000000000000000000000000000000000000000000000000000000 DUP2 MSTORE PUSH1 0x4 ADD PUSH2 0x1DA1 SWAP2 SWAP1 PUSH2 0x2E11 JUMP JUMPDEST PUSH1 0x40 MLOAD DUP1 SWAP2 SUB SWAP1 REVERT JUMPDEST PUSH0 PUSH1 0x1 PUSH0 DUP7 PUSH20 0xFFFFFFFFFFFFFFFFFFFFFFFFFFFFFFFFFFFFFFFF AND PUSH20 0xFFFFFFFFFFFFFFFFFFFFFFFFFFFFFFFFFFFFFFFF AND DUP2 MSTORE PUSH1 0x20 ADD SWAP1 DUP2 MSTORE PUSH1 0x20 ADD PUSH0 KECCAK256 PUSH0 ADD PUSH0 DUP6 PUSH20 0xFFFFFFFFFFFFFFFFFFFFFFFFFFFFFFFFFFFFFFFF AND PUSH20 0xFFFFFFFFFFFFFFFFFFFFFFFFFFFFFFFFFFFFFFFF AND DUP2 MSTORE PUSH1 0x20 ADD SWAP1 DUP2 MSTORE PUSH1 0x20 ADD PUSH0 KECCAK256 SLOAD SWAP1 POP PUSH2 0x1E32 DUP5 DUP3 PUSH2 0x23CD JUMP JUMPDEST SWAP3 POP POP POP SWAP3 SWAP2 POP POP JUMP JUMPDEST PUSH8 0xDE0B6B3A7640000 DUP2 JUMP JUMPDEST PUSH1 0x5 SLOAD DUP2 JUMP JUMPDEST PUSH2 0x1E56 PUSH2 0x26F6 JUMP JUMPDEST PUSH0 PUSH20 0xFFFFFFFFFFFFFFFFFFFFFFFFFFFFFFFFFFFFFFFF AND DUP2 PUSH20 0xFFFFFFFFFFFFFFFFFFFFFFFFFFFFFFFFFFFFFFFF AND SUB PUSH2 0x1EC6 JUMPI PUSH0 PUSH1 0x40 MLOAD PUSH32 0x1E4FBDF700000000000000000000000000000000000000000000000000000000 DUP2 MSTORE PUSH1 0x4 ADD PUSH2 0x1EBD SWAP2 SWAP1 PUSH2 0x2E11 JUMP JUMPDEST PUSH1 0x40 MLOAD DUP1 SWAP2 SUB SWAP1 REVERT JUMPDEST PUSH2 0x1ECF DUP2 PUSH2 0x27FF JUMP JUMPDEST POP JUMP JUMPDEST DUP1 PUSH0 DUP2 SUB PUSH2 0x1F0C JUMPI PUSH1 0x40 MLOAD PUSH32 0x2C5211C600000000000000000000000000000000000000000000000000000000 DUP2 MSTORE PUSH1 0x4 ADD PUSH1 0x40 MLOAD DUP1 SWAP2 SUB SWAP1 REVERT JUMPDEST DUP3 PUSH1 0x2 PUSH0 DUP3 PUSH20 0xFFFFFFFFFFFFFFFFFFFFFFFFFFFFFFFFFFFFFFFF AND PUSH20 0xFFFFFFFFFFFFFFFFFFFFFFFFFFFFFFFFFFFFFFFF AND DUP2 MSTORE PUSH1 0x20 ADD SWAP1 DUP2 MSTORE PUSH1 0x20 ADD PUSH0 KECCAK256 PUSH1 0x1 ADD PUSH1 0x15 SWAP1 SLOAD SWAP1 PUSH2 0x100 EXP SWAP1 DIV PUSH1 0xFF AND PUSH2 0x1F9C JUMPI DUP1 PUSH1 0x40 MLOAD PUSH32 0x6439C6B00000000000000000000000000000000000000000000000000000000 DUP2 MSTORE PUSH1 0x4 ADD PUSH2 0x1F93 SWAP2 SWAP1 PUSH2 0x2E11 JUMP JUMPDEST PUSH1 0x40 MLOAD DUP1 SWAP2 SUB SWAP1 REVERT JUMPDEST PUSH0 PUSH1 0x1 PUSH0 CALLER PUSH20 0xFFFFFFFFFFFFFFFFFFFFFFFFFFFFFFFFFFFFFFFF AND PUSH20 0xFFFFFFFFFFFFFFFFFFFFFFFFFFFFFFFFFFFFFFFF AND DUP2 MSTORE PUSH1 0x20 ADD SWAP1 DUP2 MSTORE PUSH1 0x20 ADD PUSH0 KECCAK256 PUSH0 ADD PUSH0 DUP7 PUSH20 0xFFFFFFFFFFFFFFFFFFFFFFFFFFFFFFFFFFFFFFFF AND PUSH20 0xFFFFFFFFFFFFFFFFFFFFFFFFFFFFFFFFFFFFFFFF AND DUP2 MSTORE PUSH1 0x20 ADD SWAP1 DUP2 MSTORE PUSH1 0x20 ADD PUSH0 KECCAK256 SLOAD SWAP1 POP DUP1 DUP5 GT ISZERO PUSH2 0x2061 JUMPI DUP4 DUP2 PUSH1 0x40 MLOAD PUSH32 0xCF47918100000000000000000000000000000000000000000000000000000000 DUP2 MSTORE PUSH1 0x4 ADD PUSH2 0x2058 SWAP3 SWAP2 SWAP1 PUSH2 0x302E JUMP JUMPDEST PUSH1 0x40 MLOAD DUP1 SWAP2 SUB SWAP1 REVERT JUMPDEST PUSH0 PUSH2 0x206C DUP7 DUP7 PUSH2 0x23CD JUMP JUMPDEST SWAP1 POP PUSH32 0x0 DUP2 GT ISZERO PUSH2 0x20F5 JUMPI DUP1 PUSH32 0x0 PUSH1 0x40 MLOAD PUSH32 0xB945E2D800000000000000000000000000000000000000000000000000000000 DUP2 MSTORE PUSH1 0x4 ADD PUSH2 0x20EC SWAP3 SWAP2 SWAP1 PUSH2 0x302E JUMP JUMPDEST PUSH1 0x40 MLOAD DUP1 SWAP2 SUB SWAP1 REVERT JUMPDEST DUP5 PUSH1 0x1 PUSH0 CALLER PUSH20 0xFFFFFFFFFFFFFFFFFFFFFFFFFFFFFFFFFFFFFFFF AND PUSH20 0xFFFFFFFFFFFFFFFFFFFFFFFFFFFFFFFFFFFFFFFF AND DUP2 MSTORE PUSH1 0x20 ADD SWAP1 DUP2 MSTORE PUSH1 0x20 ADD PUSH0 KECCAK256 PUSH0 ADD PUSH0 DUP9 PUSH20 0xFFFFFFFFFFFFFFFFFFFFFFFFFFFFFFFFFFFFFFFF AND PUSH20 0xFFFFFFFFFFFFFFFFFFFFFFFFFFFFFFFFFFFFFFFF AND DUP2 MSTORE PUSH1 0x20 ADD SWAP1 DUP2 MSTORE PUSH1 0x20 ADD PUSH0 KECCAK256 PUSH0 DUP3 DUP3 SLOAD SUB SWAP3 POP POP DUP2 SWAP1 SSTORE POP PUSH1 0x4 PUSH0 CALLER PUSH20 0xFFFFFFFFFFFFFFFFFFFFFFFFFFFFFFFFFFFFFFFF AND PUSH20 0xFFFFFFFFFFFFFFFFFFFFFFFFFFFFFFFFFFFFFFFF AND DUP2 MSTORE PUSH1 0x20 ADD SWAP1 DUP2 MSTORE PUSH1 0x20 ADD PUSH0 KECCAK256 PUSH0 DUP8 PUSH20 0xFFFFFFFFFFFFFFFFFFFFFFFFFFFFFFFFFFFFFFFF AND PUSH20 0xFFFFFFFFFFFFFFFFFFFFFFFFFFFFFFFFFFFFFFFF AND DUP2 MSTORE PUSH1 0x20 ADD SWAP1 DUP2 MSTORE PUSH1 0x20 ADD PUSH0 KECCAK256 PUSH0 DUP2 SLOAD DUP1 SWAP3 SWAP2 SWAP1 PUSH1 0x1 ADD SWAP2 SWAP1 POP SSTORE POP DUP1 PUSH1 0x5 PUSH0 DUP3 DUP3 SLOAD SUB SWAP3 POP POP DUP2 SWAP1 SSTORE POP DUP6 PUSH20 0xFFFFFFFFFFFFFFFFFFFFFFFFFFFFFFFFFFFFFFFF AND CALLER PUSH20 0xFFFFFFFFFFFFFFFFFFFFFFFFFFFFFFFFFFFFFFFF AND PUSH32 0x91FB9D98B786C57D74C099CCD2BECA1739E9F6A81FB49001CA465C4B7591BBE2 DUP8 DUP5 PUSH1 0x40 MLOAD PUSH2 0x2271 SWAP3 SWAP2 SWAP1 PUSH2 0x302E JUMP JUMPDEST PUSH1 0x40 MLOAD DUP1 SWAP2 SUB SWAP1 LOG3 PUSH0 PUSH20 0xFFFFFFFFFFFFFFFFFFFFFFFFFFFFFFFFFFFFFFFF AND DUP7 PUSH20 0xFFFFFFFFFFFFFFFFFFFFFFFFFFFFFFFFFFFFFFFF AND SUB PUSH2 0x2351 JUMPI PUSH0 CALLER PUSH20 0xFFFFFFFFFFFFFFFFFFFFFFFFFFFFFFFFFFFFFFFF AND DUP7 PUSH1 0x40 MLOAD PUSH2 0x22D1 SWAP1 PUSH2 0x352E JUMP JUMPDEST PUSH0 PUSH1 0x40 MLOAD DUP1 DUP4 SUB DUP2 DUP6 DUP8 GAS CALL SWAP3 POP POP POP RETURNDATASIZE DUP1 PUSH0 DUP2 EQ PUSH2 0x230B JUMPI PUSH1 0x40 MLOAD SWAP2 POP PUSH1 0x1F NOT PUSH1 0x3F RETURNDATASIZE ADD AND DUP3 ADD PUSH1 0x40 MSTORE RETURNDATASIZE DUP3 MSTORE RETURNDATASIZE PUSH0 PUSH1 0x20 DUP5 ADD RETURNDATACOPY PUSH2 0x2310 JUMP JUMPDEST PUSH1 0x60 SWAP2 POP JUMPDEST POP POP SWAP1 POP DUP1 PUSH2 0x234B JUMPI PUSH1 0x40 MLOAD PUSH32 0x90B8EC1800000000000000000000000000000000000000000000000000000000 DUP2 MSTORE PUSH1 0x4 ADD PUSH1 0x40 MLOAD DUP1 SWAP2 SUB SWAP1 REVERT JUMPDEST POP PUSH2 0x237D JUMP JUMPDEST PUSH2 0x237C CALLER DUP7 DUP9 PUSH20 0xFFFFFFFFFFFFFFFFFFFFFFFFFFFFFFFFFFFFFFFF AND PUSH2 0x28C0 SWAP1 SWAP3 SWAP2 SWAP1 PUSH4 0xFFFFFFFF AND JUMP JUMPDEST JUMPDEST POP POP POP POP POP POP JUMP JUMPDEST CALLVALUE PUSH0 DUP2 SUB PUSH2 0x23BF JUMPI PUSH1 0x40 MLOAD PUSH32 0x2C5211C600000000000000000000000000000000000000000000000000000000 DUP2 MSTORE PUSH1 0x4 ADD PUSH1 0x40 MLOAD DUP1 SWAP2 SUB SWAP1 REVERT JUMPDEST PUSH2 0x23CA CALLER PUSH0 CALLVALUE PUSH2 0x71B JUMP JUMPDEST POP JUMP JUMPDEST PUSH0 DUP3 PUSH1 0x2 PUSH0 DUP3 PUSH20 0xFFFFFFFFFFFFFFFFFFFFFFFFFFFFFFFFFFFFFFFF AND PUSH20 0xFFFFFFFFFFFFFFFFFFFFFFFFFFFFFFFFFFFFFFFF AND DUP2 MSTORE PUSH1 0x20 ADD SWAP1 DUP2 MSTORE PUSH1 0x20 ADD PUSH0 KECCAK256 PUSH1 0x1 ADD PUSH1 0x15 SWAP1 SLOAD SWAP1 PUSH2 0x100 EXP SWAP1 DIV PUSH1 0xFF AND PUSH2 0x245E JUMPI DUP1 PUSH1 0x40 MLOAD PUSH32 0x6439C6B00000000000000000000000000000000000000000000000000000000 DUP2 MSTORE PUSH1 0x4 ADD PUSH2 0x2455 SWAP2 SWAP1 PUSH2 0x2E11 JUMP JUMPDEST PUSH1 0x40 MLOAD DUP1 SWAP2 SUB SWAP1 REVERT JUMPDEST PUSH0 DUP4 SUB PUSH2 0x246D JUMPI PUSH0 SWAP2 POP PUSH2 0x26EF JUMP JUMPDEST PUSH0 PUSH1 0x2 PUSH0 DUP7 PUSH20 0xFFFFFFFFFFFFFFFFFFFFFFFFFFFFFFFFFFFFFFFF AND PUSH20 0xFFFFFFFFFFFFFFFFFFFFFFFFFFFFFFFFFFFFFFFF AND DUP2 MSTORE PUSH1 0x20 ADD SWAP1 DUP2 MSTORE PUSH1 0x20 ADD PUSH0 KECCAK256 PUSH1 0x40 MLOAD DUP1 PUSH1 0x80 ADD PUSH1 0x40 MSTORE SWAP1 DUP2 PUSH0 DUP3 ADD PUSH0 SWAP1 SLOAD SWAP1 PUSH2 0x100 EXP SWAP1 DIV PUSH20 0xFFFFFFFFFFFFFFFFFFFFFFFFFFFFFFFFFFFFFFFF AND PUSH20 0xFFFFFFFFFFFFFFFFFFFFFFFFFFFFFFFFFFFFFFFF AND PUSH20 0xFFFFFFFFFFFFFFFFFFFFFFFFFFFFFFFFFFFFFFFF AND DUP2 MSTORE PUSH1 0x20 ADD PUSH1 0x1 DUP3 ADD PUSH0 SWAP1 SLOAD SWAP1 PUSH2 0x100 EXP SWAP1 DIV PUSH20 0xFFFFFFFFFFFFFFFFFFFFFFFFFFFFFFFFFFFFFFFF AND PUSH20 0xFFFFFFFFFFFFFFFFFFFFFFFFFFFFFFFFFFFFFFFF AND PUSH20 0xFFFFFFFFFFFFFFFFFFFFFFFFFFFFFFFFFFFFFFFF AND DUP2 MSTORE PUSH1 0x20 ADD PUSH1 0x1 DUP3 ADD PUSH1 0x14 SWAP1 SLOAD SWAP1 PUSH2 0x100 EXP SWAP1 DIV PUSH1 0xFF AND PUSH1 0xFF AND PUSH1 0xFF AND DUP2 MSTORE PUSH1 0x20 ADD PUSH1 0x1 DUP3 ADD PUSH1 0x15 SWAP1 SLOAD SWAP1 PUSH2 0x100 EXP SWAP1 DIV PUSH1 0xFF AND ISZERO ISZERO ISZERO ISZERO DUP2 MSTORE POP POP SWAP1 POP PUSH0 DUP2 PUSH0 ADD MLOAD SWAP1 POP PUSH0 DUP2 PUSH20 0xFFFFFFFFFFFFFFFFFFFFFFFFFFFFFFFFFFFFFFFF AND PUSH4 0xFEAF968C PUSH1 0x40 MLOAD DUP2 PUSH4 0xFFFFFFFF AND PUSH1 0xE0 SHL DUP2 MSTORE PUSH1 0x4 ADD PUSH1 0xA0 PUSH1 0x40 MLOAD DUP1 DUP4 SUB DUP2 DUP7 GAS STATICCALL ISZERO DUP1 ISZERO PUSH2 0x25EA JUMPI RETURNDATASIZE PUSH0 PUSH0 RETURNDATACOPY RETURNDATASIZE PUSH0 REVERT JUMPDEST POP POP POP POP PUSH1 0x40 MLOAD RETURNDATASIZE PUSH1 0x1F NOT PUSH1 0x1F DUP3 ADD AND DUP3 ADD DUP1 PUSH1 0x40 MSTORE POP DUP2 ADD SWAP1 PUSH2 0x260E SWAP2 SWAP1 PUSH2 0x31B1 JUMP JUMPDEST POP POP POP SWAP2 POP POP PUSH0 DUP2 SGT PUSH2 0x264D JUMPI PUSH1 0x40 MLOAD PUSH32 0x7DFA876300000000000000000000000000000000000000000000000000000000 DUP2 MSTORE PUSH1 0x4 ADD PUSH1 0x40 MLOAD DUP1 SWAP2 SUB SWAP1 REVERT JUMPDEST PUSH0 DUP2 SWAP1 POP PUSH0 PUSH1 0x12 SWAP1 POP PUSH1 0x12 DUP6 PUSH1 0x40 ADD MLOAD PUSH1 0xFF AND EQ PUSH2 0x2688 JUMPI PUSH1 0x8 DUP6 PUSH1 0x40 ADD MLOAD PUSH1 0x12 PUSH2 0x2678 SWAP2 SWAP1 PUSH2 0x3228 JUMP JUMPDEST PUSH2 0x2682 SWAP2 SWAP1 PUSH2 0x325C JUMP JUMPDEST PUSH1 0xFF AND SWAP1 POP JUMPDEST PUSH0 DUP2 PUSH1 0xA PUSH2 0x2696 SWAP2 SWAP1 PUSH2 0x3400 JUMP JUMPDEST PUSH8 0xDE0B6B3A7640000 DUP5 DUP12 PUSH2 0x26AB SWAP2 SWAP1 PUSH2 0x3290 JUMP JUMPDEST PUSH2 0x26B5 SWAP2 SWAP1 PUSH2 0x3290 JUMP JUMPDEST PUSH2 0x26BF SWAP2 SWAP1 PUSH2 0x3477 JUMP JUMPDEST SWAP1 POP PUSH1 0x6 PUSH1 0x12 PUSH2 0x26CF SWAP2 SWAP1 PUSH2 0x3228 JUMP JUMPDEST PUSH1 0xA PUSH2 0x26DB SWAP2 SWAP1 PUSH2 0x3542 JUMP JUMPDEST DUP2 PUSH2 0x26E6 SWAP2 SWAP1 PUSH2 0x3477 JUMP JUMPDEST SWAP8 POP POP POP POP POP POP POP JUMPDEST POP SWAP3 SWAP2 POP POP JUMP JUMPDEST PUSH2 0x26FE PUSH2 0x293F JUMP JUMPDEST PUSH20 0xFFFFFFFFFFFFFFFFFFFFFFFFFFFFFFFFFFFFFFFF AND PUSH2 0x271C PUSH2 0x19A3 JUMP JUMPDEST PUSH20 0xFFFFFFFFFFFFFFFFFFFFFFFFFFFFFFFFFFFFFFFF AND EQ PUSH2 0x277B JUMPI PUSH2 0x273F PUSH2 0x293F JUMP JUMPDEST PUSH1 0x40 MLOAD PUSH32 0x118CDAA700000000000000000000000000000000000000000000000000000000 DUP2 MSTORE PUSH1 0x4 ADD PUSH2 0x2772 SWAP2 SWAP1 PUSH2 0x2E11 JUMP JUMPDEST PUSH1 0x40 MLOAD DUP1 SWAP2 SUB SWAP1 REVERT JUMPDEST JUMP JUMPDEST PUSH2 0x27F9 DUP5 DUP6 PUSH20 0xFFFFFFFFFFFFFFFFFFFFFFFFFFFFFFFFFFFFFFFF AND PUSH4 0x23B872DD DUP7 DUP7 DUP7 PUSH1 0x40 MLOAD PUSH1 0x24 ADD PUSH2 0x27B2 SWAP4 SWAP3 SWAP2 SWAP1 PUSH2 0x358C JUMP JUMPDEST PUSH1 0x40 MLOAD PUSH1 0x20 DUP2 DUP4 SUB SUB DUP2 MSTORE SWAP1 PUSH1 0x40 MSTORE SWAP2 POP PUSH1 0xE0 SHL PUSH1 0x20 DUP3 ADD DUP1 MLOAD PUSH28 0xFFFFFFFFFFFFFFFFFFFFFFFFFFFFFFFFFFFFFFFFFFFFFFFFFFFFFFFF DUP4 DUP2 DUP4 AND OR DUP4 MSTORE POP POP POP POP PUSH2 0x2946 JUMP JUMPDEST POP POP POP POP JUMP JUMPDEST PUSH0 PUSH0 PUSH0 SWAP1 SLOAD SWAP1 PUSH2 0x100 EXP SWAP1 DIV PUSH20 0xFFFFFFFFFFFFFFFFFFFFFFFFFFFFFFFFFFFFFFFF AND SWAP1 POP DUP2 PUSH0 PUSH0 PUSH2 0x100 EXP DUP2 SLOAD DUP2 PUSH20 0xFFFFFFFFFFFFFFFFFFFFFFFFFFFFFFFFFFFFFFFF MUL NOT AND SWAP1 DUP4 PUSH20 0xFFFFFFFFFFFFFFFFFFFFFFFFFFFFFFFFFFFFFFFF AND MUL OR SWAP1 SSTORE POP DUP2 PUSH20 0xFFFFFFFFFFFFFFFFFFFFFFFFFFFFFFFFFFFFFFFF AND DUP2 PUSH20 0xFFFFFFFFFFFFFFFFFFFFFFFFFFFFFFFFFFFFFFFF AND PUSH32 0x8BE0079C531659141344CD1FD0A4F28419497F9722A3DAAFE3B4186F6B6457E0 PUSH1 0x40 MLOAD PUSH1 0x40 MLOAD DUP1 SWAP2 SUB SWAP1 LOG3 POP POP JUMP JUMPDEST PUSH2 0x293A DUP4 DUP5 PUSH20 0xFFFFFFFFFFFFFFFFFFFFFFFFFFFFFFFFFFFFFFFF AND PUSH4 0xA9059CBB DUP6 DUP6 PUSH1 0x40 MLOAD PUSH1 0x24 ADD PUSH2 0x28F3 SWAP3 SWAP2 SWAP1 PUSH2 0x35C1 JUMP JUMPDEST PUSH1 0x40 MLOAD PUSH1 0x20 DUP2 DUP4 SUB SUB DUP2 MSTORE SWAP1 PUSH1 0x40 MSTORE SWAP2 POP PUSH1 0xE0 SHL PUSH1 0x20 DUP3 ADD DUP1 MLOAD PUSH28 0xFFFFFFFFFFFFFFFFFFFFFFFFFFFFFFFFFFFFFFFFFFFFFFFFFFFFFFFF DUP4 DUP2 DUP4 AND OR DUP4 MSTORE POP POP POP POP PUSH2 0x2946 JUMP JUMPDEST POP POP POP JUMP JUMPDEST PUSH0 CALLER SWAP1 POP SWAP1 JUMP JUMPDEST PUSH0 PUSH0 PUSH1 0x20 PUSH0 DUP5 MLOAD PUSH1 0x20 DUP7 ADD PUSH0 DUP9 GAS CALL DUP1 PUSH2 0x2965 JUMPI PUSH1 0x40 MLOAD RETURNDATASIZE PUSH0 DUP3 RETURNDATACOPY RETURNDATASIZE DUP2 REVERT JUMPDEST RETURNDATASIZE SWAP3 POP PUSH0 MLOAD SWAP2 POP POP PUSH0 DUP3 EQ PUSH2 0x297E JUMPI PUSH1 0x1 DUP2 EQ ISZERO PUSH2 0x2999 JUMP JUMPDEST PUSH0 DUP5 PUSH20 0xFFFFFFFFFFFFFFFFFFFFFFFFFFFFFFFFFFFFFFFF AND EXTCODESIZE EQ JUMPDEST ISZERO PUSH2 0x29DB JUMPI DUP4 PUSH1 0x40 MLOAD PUSH32 0x5274AFE700000000000000000000000000000000000000000000000000000000 DUP2 MSTORE PUSH1 0x4 ADD PUSH2 0x29D2 SWAP2 SWAP1 PUSH2 0x2E11 JUMP JUMPDEST PUSH1 0x40 MLOAD DUP1 SWAP2 SUB SWAP1 REVERT JUMPDEST POP POP POP POP JUMP JUMPDEST PUSH1 0x40 MLOAD DUP1 PUSH1 0x80 ADD PUSH1 0x40 MSTORE DUP1 PUSH0 PUSH20 0xFFFFFFFFFFFFFFFFFFFFFFFFFFFFFFFFFFFFFFFF AND DUP2 MSTORE PUSH1 0x20 ADD PUSH0 PUSH20 0xFFFFFFFFFFFFFFFFFFFFFFFFFFFFFFFFFFFFFFFF AND DUP2 MSTORE PUSH1 0x20 ADD PUSH0 PUSH1 0xFF AND DUP2 MSTORE PUSH1 0x20 ADD PUSH0 ISZERO ISZERO DUP2 MSTORE POP SWAP1 JUMP JUMPDEST PUSH0 PUSH0 REVERT JUMPDEST PUSH0 PUSH20 0xFFFFFFFFFFFFFFFFFFFFFFFFFFFFFFFFFFFFFFFF DUP3 AND SWAP1 POP SWAP2 SWAP1 POP JUMP JUMPDEST PUSH0 PUSH2 0x2A63 DUP3 PUSH2 0x2A3A JUMP JUMPDEST SWAP1 POP SWAP2 SWAP1 POP JUMP JUMPDEST PUSH2 0x2A73 DUP2 PUSH2 0x2A59 JUMP JUMPDEST DUP2 EQ PUSH2 0x2A7D JUMPI PUSH0 PUSH0 REVERT JUMPDEST POP JUMP JUMPDEST PUSH0 DUP2 CALLDATALOAD SWAP1 POP PUSH2 0x2A8E DUP2 PUSH2 0x2A6A JUMP JUMPDEST SWAP3 SWAP2 POP POP JUMP JUMPDEST PUSH0 PUSH1 0xFF DUP3 AND SWAP1 POP SWAP2 SWAP1 POP JUMP JUMPDEST PUSH2 0x2AA9 DUP2 PUSH2 0x2A94 JUMP JUMPDEST DUP2 EQ PUSH2 0x2AB3 JUMPI PUSH0 PUSH0 REVERT JUMPDEST POP JUMP JUMPDEST PUSH0 DUP2 CALLDATALOAD SWAP1 POP PUSH2 0x2AC4 DUP2 PUSH2 0x2AA0 JUMP JUMPDEST SWAP3 SWAP2 POP POP JUMP JUMPDEST PUSH0 PUSH0 PUSH0 PUSH1 0x60 DUP5 DUP7 SUB SLT ISZERO PUSH2 0x2AE1 JUMPI PUSH2 0x2AE0 PUSH2 0x2A36 JUMP JUMPDEST JUMPDEST PUSH0 PUSH2 0x2AEE DUP7 DUP3 DUP8 ADD PUSH2 0x2A80 JUMP JUMPDEST SWAP4 POP POP PUSH1 0x20 PUSH2 0x2AFF DUP7 DUP3 DUP8 ADD PUSH2 0x2A80 JUMP JUMPDEST SWAP3 POP POP PUSH1 0x40 PUSH2 0x2B10 DUP7 DUP3 DUP8 ADD PUSH2 0x2AB6 JUMP JUMPDEST SWAP2 POP POP SWAP3 POP SWAP3 POP SWAP3 JUMP JUMPDEST PUSH0 PUSH1 0x20 DUP3 DUP5 SUB SLT ISZERO PUSH2 0x2B2F JUMPI PUSH2 0x2B2E PUSH2 0x2A36 JUMP JUMPDEST JUMPDEST PUSH0 PUSH2 0x2B3C DUP5 DUP3 DUP6 ADD PUSH2 0x2A80 JUMP JUMPDEST SWAP2 POP POP SWAP3 SWAP2 POP POP JUMP JUMPDEST PUSH0 PUSH0 PUSH1 0x40 DUP4 DUP6 SUB SLT ISZERO PUSH2 0x2B5B JUMPI PUSH2 0x2B5A PUSH2 0x2A36 JUMP JUMPDEST JUMPDEST PUSH0 PUSH2 0x2B68 DUP6 DUP3 DUP7 ADD PUSH2 0x2A80 JUMP JUMPDEST SWAP3 POP POP PUSH1 0x20 PUSH2 0x2B79 DUP6 DUP3 DUP7 ADD PUSH2 0x2A80 JUMP JUMPDEST SWAP2 POP POP SWAP3 POP SWAP3 SWAP1 POP JUMP JUMPDEST PUSH0 DUP2 SWAP1 POP SWAP2 SWAP1 POP JUMP JUMPDEST PUSH2 0x2B95 DUP2 PUSH2 0x2B83 JUMP JUMPDEST DUP3 MSTORE POP POP JUMP JUMPDEST PUSH0 PUSH1 0x20 DUP3 ADD SWAP1 POP PUSH2 0x2BAE PUSH0 DUP4 ADD DUP5 PUSH2 0x2B8C JUMP JUMPDEST SWAP3 SWAP2 POP POP JUMP JUMPDEST PUSH2 0x2BBD DUP2 PUSH2 0x2A59 JUMP JUMPDEST DUP3 MSTORE POP POP JUMP JUMPDEST PUSH2 0x2BCC DUP2 PUSH2 0x2A94 JUMP JUMPDEST DUP3 MSTORE POP POP JUMP JUMPDEST PUSH0 DUP2 ISZERO ISZERO SWAP1 POP SWAP2 SWAP1 POP JUMP JUMPDEST PUSH2 0x2BE6 DUP2 PUSH2 0x2BD2 JUMP JUMPDEST DUP3 MSTORE POP POP JUMP JUMPDEST PUSH1 0x80 DUP3 ADD PUSH0 DUP3 ADD MLOAD PUSH2 0x2C00 PUSH0 DUP6 ADD DUP3 PUSH2 0x2BB4 JUMP JUMPDEST POP PUSH1 0x20 DUP3 ADD MLOAD PUSH2 0x2C13 PUSH1 0x20 DUP6 ADD DUP3 PUSH2 0x2BB4 JUMP JUMPDEST POP PUSH1 0x40 DUP3 ADD MLOAD PUSH2 0x2C26 PUSH1 0x40 DUP6 ADD DUP3 PUSH2 0x2BC3 JUMP JUMPDEST POP PUSH1 0x60 DUP3 ADD MLOAD PUSH2 0x2C39 PUSH1 0x60 DUP6 ADD DUP3 PUSH2 0x2BDD JUMP JUMPDEST POP POP POP POP JUMP JUMPDEST PUSH0 PUSH1 0x80 DUP3 ADD SWAP1 POP PUSH2 0x2C52 PUSH0 DUP4 ADD DUP5 PUSH2 0x2BEC JUMP JUMPDEST SWAP3 SWAP2 POP POP JUMP JUMPDEST PUSH2 0x2C61 DUP2 PUSH2 0x2B83 JUMP JUMPDEST DUP2 EQ PUSH2 0x2C6B JUMPI PUSH0 PUSH0 REVERT JUMPDEST POP JUMP JUMPDEST PUSH0 DUP2 CALLDATALOAD SWAP1 POP PUSH2 0x2C7C DUP2 PUSH2 0x2C58 JUMP JUMPDEST SWAP3 SWAP2 POP POP JUMP JUMPDEST PUSH0 PUSH0 PUSH1 0x40 DUP4 DUP6 SUB SLT ISZERO PUSH2 0x2C98 JUMPI PUSH2 0x2C97 PUSH2 0x2A36 JUMP JUMPDEST JUMPDEST PUSH0 PUSH2 0x2CA5 DUP6 DUP3 DUP7 ADD PUSH2 0x2A80 JUMP JUMPDEST SWAP3 POP POP PUSH1 0x20 PUSH2 0x2CB6 DUP6 DUP3 DUP7 ADD PUSH2 0x2C6E JUMP JUMPDEST SWAP2 POP POP SWAP3 POP SWAP3 SWAP1 POP JUMP JUMPDEST PUSH2 0x2CC9 DUP2 PUSH2 0x2BD2 JUMP JUMPDEST DUP3 MSTORE POP POP JUMP JUMPDEST PUSH0 PUSH1 0x20 DUP3 ADD SWAP1 POP PUSH2 0x2CE2 PUSH0 DUP4 ADD DUP5 PUSH2 0x2CC0 JUMP JUMPDEST SWAP3 SWAP2 POP POP JUMP JUMPDEST PUSH0 DUP2 MLOAD SWAP1 POP SWAP2 SWAP1 POP JUMP JUMPDEST PUSH0 DUP3 DUP3 MSTORE PUSH1 0x20 DUP3 ADD SWAP1 POP SWAP3 SWAP2 POP POP JUMP JUMPDEST PUSH0 DUP2 SWAP1 POP PUSH1 0x20 DUP3 ADD SWAP1 POP SWAP2 SWAP1 POP JUMP JUMPDEST PUSH0 PUSH2 0x2D1C DUP4 DUP4 PUSH2 0x2BB4 JUMP JUMPDEST PUSH1 0x20 DUP4 ADD SWAP1 POP SWAP3 SWAP2 POP POP JUMP JUMPDEST PUSH0 PUSH1 0x20 DUP3 ADD SWAP1 POP SWAP2 SWAP1 POP JUMP JUMPDEST PUSH0 PUSH2 0x2D3E DUP3 PUSH2 0x2CE8 JUMP JUMPDEST PUSH2 0x2D48 DUP2 DUP6 PUSH2 0x2CF2 JUMP JUMPDEST SWAP4 POP PUSH2 0x2D53 DUP4 PUSH2 0x2D02 JUMP JUMPDEST DUP1 PUSH0 JUMPDEST DUP4 DUP2 LT ISZERO PUSH2 0x2D83 JUMPI DUP2 MLOAD PUSH2 0x2D6A DUP9 DUP3 PUSH2 0x2D11 JUMP JUMPDEST SWAP8 POP PUSH2 0x2D75 DUP4 PUSH2 0x2D28 JUMP JUMPDEST SWAP3 POP POP PUSH1 0x1 DUP2 ADD SWAP1 POP PUSH2 0x2D56 JUMP JUMPDEST POP DUP6 SWAP4 POP POP POP POP SWAP3 SWAP2 POP POP JUMP JUMPDEST PUSH0 PUSH1 0x20 DUP3 ADD SWAP1 POP DUP2 DUP2 SUB PUSH0 DUP4 ADD MSTORE PUSH2 0x2DA8 DUP2 DUP5 PUSH2 0x2D34 JUMP JUMPDEST SWAP1 POP SWAP3 SWAP2 POP POP JUMP JUMPDEST PUSH2 0x2DB9 DUP2 PUSH2 0x2A59 JUMP JUMPDEST DUP3 MSTORE POP POP JUMP JUMPDEST PUSH2 0x2DC8 DUP2 PUSH2 0x2A94 JUMP JUMPDEST DUP3 MSTORE POP POP JUMP JUMPDEST PUSH0 PUSH1 0x80 DUP3 ADD SWAP1 POP PUSH2 0x2DE1 PUSH0 DUP4 ADD DUP8 PUSH2 0x2DB0 JUMP JUMPDEST PUSH2 0x2DEE PUSH1 0x20 DUP4 ADD DUP7 PUSH2 0x2DB0 JUMP JUMPDEST PUSH2 0x2DFB PUSH1 0x40 DUP4 ADD DUP6 PUSH2 0x2DBF JUMP JUMPDEST PUSH2 0x2E08 PUSH1 0x60 DUP4 ADD DUP5 PUSH2 0x2CC0 JUMP JUMPDEST SWAP6 SWAP5 POP POP POP POP POP JUMP JUMPDEST PUSH0 PUSH1 0x20 DUP3 ADD SWAP1 POP PUSH2 0x2E24 PUSH0 DUP4 ADD DUP5 PUSH2 0x2DB0 JUMP JUMPDEST SWAP3 SWAP2 POP POP JUMP JUMPDEST PUSH0 PUSH1 0x20 DUP3 DUP5 SUB SLT ISZERO PUSH2 0x2E3F JUMPI PUSH2 0x2E3E PUSH2 0x2A36 JUMP JUMPDEST JUMPDEST PUSH0 PUSH2 0x2E4C DUP5 DUP3 DUP6 ADD PUSH2 0x2C6E JUMP JUMPDEST SWAP2 POP POP SWAP3 SWAP2 POP POP JUMP JUMPDEST PUSH0 DUP2 SWAP1 POP SWAP2 SWAP1 POP JUMP JUMPDEST PUSH0 PUSH2 0x2E78 PUSH2 0x2E73 PUSH2 0x2E6E DUP5 PUSH2 0x2A3A JUMP JUMPDEST PUSH2 0x2E55 JUMP JUMPDEST PUSH2 0x2A3A JUMP JUMPDEST SWAP1 POP SWAP2 SWAP1 POP JUMP JUMPDEST PUSH0 PUSH2 0x2E89 DUP3 PUSH2 0x2E5E JUMP JUMPDEST SWAP1 POP SWAP2 SWAP1 POP JUMP JUMPDEST PUSH0 PUSH2 0x2E9A DUP3 PUSH2 0x2E7F JUMP JUMPDEST SWAP1 POP SWAP2 SWAP1 POP JUMP JUMPDEST PUSH2 0x2EAA DUP2 PUSH2 0x2E90 JUMP JUMPDEST DUP3 MSTORE POP POP JUMP JUMPDEST PUSH0 PUSH1 0x20 DUP3 ADD SWAP1 POP PUSH2 0x2EC3 PUSH0 DUP4 ADD DUP5 PUSH2 0x2EA1 JUMP JUMPDEST SWAP3 SWAP2 POP POP JUMP JUMPDEST PUSH0 PUSH1 0x20 DUP3 ADD SWAP1 POP PUSH2 0x2EDC PUSH0 DUP4 ADD DUP5 PUSH2 0x2DBF JUMP JUMPDEST SWAP3 SWAP2 POP POP JUMP JUMPDEST PUSH0 DUP2 MLOAD SWAP1 POP SWAP2 SWAP1 POP JUMP JUMPDEST PUSH0 DUP3 DUP3 MSTORE PUSH1 0x20 DUP3 ADD SWAP1 POP SWAP3 SWAP2 POP POP JUMP JUMPDEST PUSH0 DUP2 SWAP1 POP PUSH1 0x20 DUP3 ADD SWAP1 POP SWAP2 SWAP1 POP JUMP JUMPDEST PUSH2 0x2F14 DUP2 PUSH2 0x2B83 JUMP JUMPDEST DUP3 MSTORE POP POP JUMP JUMPDEST PUSH0 PUSH2 0x2F25 DUP4 DUP4 PUSH2 0x2F0B JUMP JUMPDEST PUSH1 0x20 DUP4 ADD SWAP1 POP SWAP3 SWAP2 POP POP JUMP JUMPDEST PUSH0 PUSH1 0x20 DUP3 ADD SWAP1 POP SWAP2 SWAP1 POP JUMP JUMPDEST PUSH0 PUSH2 0x2F47 DUP3 PUSH2 0x2EE2 JUMP JUMPDEST PUSH2 0x2F51 DUP2 DUP6 PUSH2 0x2EEC JUMP JUMPDEST SWAP4 POP PUSH2 0x2F5C DUP4 PUSH2 0x2EFC JUMP JUMPDEST DUP1 PUSH0 JUMPDEST DUP4 DUP2 LT ISZERO PUSH2 0x2F8C JUMPI DUP2 MLOAD PUSH2 0x2F73 DUP9 DUP3 PUSH2 0x2F1A JUMP JUMPDEST SWAP8 POP PUSH2 0x2F7E DUP4 PUSH2 0x2F31 JUMP JUMPDEST SWAP3 POP POP PUSH1 0x1 DUP2 ADD SWAP1 POP PUSH2 0x2F5F JUMP JUMPDEST POP DUP6 SWAP4 POP POP POP POP SWAP3 SWAP2 POP POP JUMP JUMPDEST PUSH0 PUSH1 0x40 DUP3 ADD SWAP1 POP DUP2 DUP2 SUB PUSH0 DUP4 ADD MSTORE PUSH2 0x2FB1 DUP2 DUP6 PUSH2 0x2D34 JUMP JUMPDEST SWAP1 POP DUP2 DUP2 SUB PUSH1 0x20 DUP4 ADD MSTORE PUSH2 0x2FC5 DUP2 DUP5 PUSH2 0x2F3D JUMP JUMPDEST SWAP1 POP SWAP4 SWAP3 POP POP POP JUMP JUMPDEST PUSH32 0x4E487B7100000000000000000000000000000000000000000000000000000000 PUSH0 MSTORE PUSH1 0x11 PUSH1 0x4 MSTORE PUSH1 0x24 PUSH0 REVERT JUMPDEST PUSH0 PUSH2 0x3005 DUP3 PUSH2 0x2B83 JUMP JUMPDEST SWAP2 POP PUSH2 0x3010 DUP4 PUSH2 0x2B83 JUMP JUMPDEST SWAP3 POP DUP3 DUP3 ADD SWAP1 POP DUP1 DUP3 GT ISZERO PUSH2 0x3028 JUMPI PUSH2 0x3027 PUSH2 0x2FCE JUMP JUMPDEST JUMPDEST SWAP3 SWAP2 POP POP JUMP JUMPDEST PUSH0 PUSH1 0x40 DUP3 ADD SWAP1 POP PUSH2 0x3041 PUSH0 DUP4 ADD DUP6 PUSH2 0x2B8C JUMP JUMPDEST PUSH2 0x304E PUSH1 0x20 DUP4 ADD DUP5 PUSH2 0x2B8C JUMP JUMPDEST SWAP4 SWAP3 POP POP POP JUMP JUMPDEST PUSH0 DUP3 DUP3 MSTORE PUSH1 0x20 DUP3 ADD SWAP1 POP SWAP3 SWAP2 POP POP JUMP JUMPDEST PUSH32 0x557365206465706F73697445544820666F72206E617469766520455448000000 PUSH0 DUP3 ADD MSTORE POP JUMP JUMPDEST PUSH0 PUSH2 0x3099 PUSH1 0x1D DUP4 PUSH2 0x3055 JUMP JUMPDEST SWAP2 POP PUSH2 0x30A4 DUP3 PUSH2 0x3065 JUMP JUMPDEST PUSH1 0x20 DUP3 ADD SWAP1 POP SWAP2 SWAP1 POP JUMP JUMPDEST PUSH0 PUSH1 0x20 DUP3 ADD SWAP1 POP DUP2 DUP2 SUB PUSH0 DUP4 ADD MSTORE PUSH2 0x30C6 DUP2 PUSH2 0x308D JUMP JUMPDEST SWAP1 POP SWAP2 SWAP1 POP JUMP JUMPDEST PUSH0 DUP2 MLOAD SWAP1 POP PUSH2 0x30DB DUP2 PUSH2 0x2C58 JUMP JUMPDEST SWAP3 SWAP2 POP POP JUMP JUMPDEST PUSH0 PUSH1 0x20 DUP3 DUP5 SUB SLT ISZERO PUSH2 0x30F6 JUMPI PUSH2 0x30F5 PUSH2 0x2A36 JUMP JUMPDEST JUMPDEST PUSH0 PUSH2 0x3103 DUP5 DUP3 DUP6 ADD PUSH2 0x30CD JUMP JUMPDEST SWAP2 POP POP SWAP3 SWAP2 POP POP JUMP JUMPDEST PUSH0 PUSH2 0x3116 DUP3 PUSH2 0x2B83 JUMP JUMPDEST SWAP2 POP PUSH2 0x3121 DUP4 PUSH2 0x2B83 JUMP JUMPDEST SWAP3 POP DUP3 DUP3 SUB SWAP1 POP DUP2 DUP2 GT ISZERO PUSH2 0x3139 JUMPI PUSH2 0x3138 PUSH2 0x2FCE JUMP JUMPDEST JUMPDEST SWAP3 SWAP2 POP POP JUMP JUMPDEST PUSH0 PUSH10 0xFFFFFFFFFFFFFFFFFFFF DUP3 AND SWAP1 POP SWAP2 SWAP1 POP JUMP JUMPDEST PUSH2 0x315D DUP2 PUSH2 0x313F JUMP JUMPDEST DUP2 EQ PUSH2 0x3167 JUMPI PUSH0 PUSH0 REVERT JUMPDEST POP JUMP JUMPDEST PUSH0 DUP2 MLOAD SWAP1 POP PUSH2 0x3178 DUP2 PUSH2 0x3154 JUMP JUMPDEST SWAP3 SWAP2 POP POP JUMP JUMPDEST PUSH0 DUP2 SWAP1 POP SWAP2 SWAP1 POP JUMP JUMPDEST PUSH2 0x3190 DUP2 PUSH2 0x317E JUMP JUMPDEST DUP2 EQ PUSH2 0x319A JUMPI PUSH0 PUSH0 REVERT JUMPDEST POP JUMP JUMPDEST PUSH0 DUP2 MLOAD SWAP1 POP PUSH2 0x31AB DUP2 PUSH2 0x3187 JUMP JUMPDEST SWAP3 SWAP2 POP POP JUMP JUMPDEST PUSH0 PUSH0 PUSH0 PUSH0 PUSH0 PUSH1 0xA0 DUP7 DUP9 SUB SLT ISZERO PUSH2 0x31CA JUMPI PUSH2 0x31C9 PUSH2 0x2A36 JUMP JUMPDEST JUMPDEST PUSH0 PUSH2 0x31D7 DUP9 DUP3 DUP10 ADD PUSH2 0x316A JUMP JUMPDEST SWAP6 POP POP PUSH1 0x20 PUSH2 0x31E8 DUP9 DUP3 DUP10 ADD PUSH2 0x319D JUMP JUMPDEST SWAP5 POP POP PUSH1 0x40 PUSH2 0x31F9 DUP9 DUP3 DUP10 ADD PUSH2 0x30CD JUMP JUMPDEST SWAP4 POP POP PUSH1 0x60 PUSH2 0x320A DUP9 DUP3 DUP10 ADD PUSH2 0x30CD JUMP JUMPDEST SWAP3 POP POP PUSH1 0x80 PUSH2 0x321B DUP9 DUP3 DUP10 ADD PUSH2 0x316A JUMP JUMPDEST SWAP2 POP POP SWAP3 SWAP6 POP SWAP3 SWAP6 SWAP1 SWAP4 POP JUMP JUMPDEST PUSH0 PUSH2 0x3232 DUP3 PUSH2 0x2A94 JUMP JUMPDEST SWAP2 POP PUSH2 0x323D DUP4 PUSH2 0x2A94 JUMP JUMPDEST SWAP3 POP DUP3 DUP3 SUB SWAP1 POP PUSH1 0xFF DUP2 GT ISZERO PUSH2 0x3256 JUMPI PUSH2 0x3255 PUSH2 0x2FCE JUMP JUMPDEST JUMPDEST SWAP3 SWAP2 POP POP JUMP JUMPDEST PUSH0 PUSH2 0x3266 DUP3 PUSH2 0x2A94 JUMP JUMPDEST SWAP2 POP PUSH2 0x3271 DUP4 PUSH2 0x2A94 JUMP JUMPDEST SWAP3 POP DUP3 DUP3 ADD SWAP1 POP PUSH1 0xFF DUP2 GT ISZERO PUSH2 0x328A JUMPI PUSH2 0x3289 PUSH2 0x2FCE JUMP JUMPDEST JUMPDEST SWAP3 SWAP2 POP POP JUMP JUMPDEST PUSH0 PUSH2 0x329A DUP3 PUSH2 0x2B83 JUMP JUMPDEST SWAP2 POP PUSH2 0x32A5 DUP4 PUSH2 0x2B83 JUMP JUMPDEST SWAP3 POP DUP3 DUP3 MUL PUSH2 0x32B3 DUP2 PUSH2 0x2B83 JUMP JUMPDEST SWAP2 POP DUP3 DUP3 DIV DUP5 EQ DUP4 ISZERO OR PUSH2 0x32CA JUMPI PUSH2 0x32C9 PUSH2 0x2FCE JUMP JUMPDEST JUMPDEST POP SWAP3 SWAP2 POP POP JUMP JUMPDEST PUSH0 DUP2 PUSH1 0x1 SHR SWAP1 POP SWAP2 SWAP1 POP JUMP JUMPDEST PUSH0 PUSH0 DUP3 SWAP2 POP DUP4 SWAP1 POP JUMPDEST PUSH1 0x1 DUP6 GT ISZERO PUSH2 0x3326 JUMPI DUP1 DUP7 DIV DUP2 GT ISZERO PUSH2 0x3302 JUMPI PUSH2 0x3301 PUSH2 0x2FCE JUMP JUMPDEST JUMPDEST PUSH1 0x1 DUP6 AND ISZERO PUSH2 0x3311 JUMPI DUP1 DUP3 MUL SWAP2 POP JUMPDEST DUP1 DUP2 MUL SWAP1 POP PUSH2 0x331F DUP6 PUSH2 0x32D1 JUMP JUMPDEST SWAP5 POP PUSH2 0x32E6 JUMP JUMPDEST SWAP5 POP SWAP5 SWAP3 POP POP POP JUMP JUMPDEST PUSH0 DUP3 PUSH2 0x333E JUMPI PUSH1 0x1 SWAP1 POP PUSH2 0x33F9 JUMP JUMPDEST DUP2 PUSH2 0x334B JUMPI PUSH0 SWAP1 POP PUSH2 0x33F9 JUMP JUMPDEST DUP2 PUSH1 0x1 DUP2 EQ PUSH2 0x3361 JUMPI PUSH1 0x2 DUP2 EQ PUSH2 0x336B JUMPI PUSH2 0x339A JUMP JUMPDEST PUSH1 0x1 SWAP2 POP POP PUSH2 0x33F9 JUMP JUMPDEST PUSH1 0xFF DUP5 GT ISZERO PUSH2 0x337D JUMPI PUSH2 0x337C PUSH2 0x2FCE JUMP JUMPDEST JUMPDEST DUP4 PUSH1 0x2 EXP SWAP2 POP DUP5 DUP3 GT ISZERO PUSH2 0x3394 JUMPI PUSH2 0x3393 PUSH2 0x2FCE JUMP JUMPDEST JUMPDEST POP PUSH2 0x33F9 JUMP JUMPDEST POP PUSH1 0x20 DUP4 LT PUSH2 0x133 DUP4 LT AND PUSH1 0x4E DUP5 LT PUSH1 0xB DUP5 LT AND OR ISZERO PUSH2 0x33CF JUMPI DUP3 DUP3 EXP SWAP1 POP DUP4 DUP2 GT ISZERO PUSH2 0x33CA JUMPI PUSH2 0x33C9 PUSH2 0x2FCE JUMP JUMPDEST JUMPDEST PUSH2 0x33F9 JUMP JUMPDEST PUSH2 0x33DC DUP5 DUP5 DUP5 PUSH1 0x1 PUSH2 0x32DD JUMP JUMPDEST SWAP3 POP SWAP1 POP DUP2 DUP5 DIV DUP2 GT ISZERO PUSH2 0x33F3 JUMPI PUSH2 0x33F2 PUSH2 0x2FCE JUMP JUMPDEST JUMPDEST DUP2 DUP2 MUL SWAP1 POP JUMPDEST SWAP4 SWAP3 POP POP POP JUMP JUMPDEST PUSH0 PUSH2 0x340A DUP3 PUSH2 0x2B83 JUMP JUMPDEST SWAP2 POP PUSH2 0x3415 DUP4 PUSH2 0x2B83 JUMP JUMPDEST SWAP3 POP PUSH2 0x3442 PUSH32 0xFFFFFFFFFFFFFFFFFFFFFFFFFFFFFFFFFFFFFFFFFFFFFFFFFFFFFFFFFFFFFFFF DUP5 DUP5 PUSH2 0x332F JUMP JUMPDEST SWAP1 POP SWAP3 SWAP2 POP POP JUMP JUMPDEST PUSH32 0x4E487B7100000000000000000000000000000000000000000000000000000000 PUSH0 MSTORE PUSH1 0x12 PUSH1 0x4 MSTORE PUSH1 0x24 PUSH0 REVERT JUMPDEST PUSH0 PUSH2 0x3481 DUP3 PUSH2 0x2B83 JUMP JUMPDEST SWAP2 POP PUSH2 0x348C DUP4 PUSH2 0x2B83 JUMP JUMPDEST SWAP3 POP DUP3 PUSH2 0x349C JUMPI PUSH2 0x349B PUSH2 0x344A JUMP JUMPDEST JUMPDEST DUP3 DUP3 DIV SWAP1 POP SWAP3 SWAP2 POP POP JUMP JUMPDEST PUSH32 0x4E487B7100000000000000000000000000000000000000000000000000000000 PUSH0 MSTORE PUSH1 0x41 PUSH1 0x4 MSTORE PUSH1 0x24 PUSH0 REVERT JUMPDEST PUSH32 0x4E487B7100000000000000000000000000000000000000000000000000000000 PUSH0 MSTORE PUSH1 0x32 PUSH1 0x4 MSTORE PUSH1 0x24 PUSH0 REVERT JUMPDEST PUSH0 DUP2 SWAP1 POP SWAP3 SWAP2 POP POP JUMP JUMPDEST POP JUMP JUMPDEST PUSH0 PUSH2 0x3519 PUSH0 DUP4 PUSH2 0x3501 JUMP JUMPDEST SWAP2 POP PUSH2 0x3524 DUP3 PUSH2 0x350B JUMP JUMPDEST PUSH0 DUP3 ADD SWAP1 POP SWAP2 SWAP1 POP JUMP JUMPDEST PUSH0 PUSH2 0x3538 DUP3 PUSH2 0x350E JUMP JUMPDEST SWAP2 POP DUP2 SWAP1 POP SWAP2 SWAP1 POP JUMP JUMPDEST PUSH0 PUSH2 0x354C DUP3 PUSH2 0x2B83 JUMP JUMPDEST SWAP2 POP PUSH2 0x3557 DUP4 PUSH2 0x2A94 JUMP JUMPDEST SWAP3 POP PUSH2 0x3584 PUSH32 0xFFFFFFFFFFFFFFFFFFFFFFFFFFFFFFFFFFFFFFFFFFFFFFFFFFFFFFFFFFFFFFFF DUP5 DUP5 PUSH2 0x332F JUMP JUMPDEST SWAP1 POP SWAP3 SWAP2 POP POP JUMP JUMPDEST PUSH0 PUSH1 0x60 DUP3 ADD SWAP1 POP PUSH2 0x359F PUSH0 DUP4 ADD DUP7 PUSH2 0x2DB0 JUMP JUMPDEST PUSH2 0x35AC PUSH1 0x20 DUP4 ADD DUP6 PUSH2 0x2DB0 JUMP JUMPDEST PUSH2 0x35B9 PUSH1 0x40 DUP4 ADD DUP5 PUSH2 0x2B8C JUMP JUMPDEST SWAP5 SWAP4 POP POP POP POP JUMP JUMPDEST PUSH0 PUSH1 0x40 DUP3 ADD SWAP1 POP PUSH2 0x35D4 PUSH0 DUP4 ADD DUP6 PUSH2 0x2DB0 JUMP JUMPDEST PUSH2 0x35E1 PUSH1 0x20 DUP4 ADD DUP5 PUSH2 0x2B8C JUMP JUMPDEST SWAP4 SWAP3 POP POP POP JUMP INVALID LOG2 PUSH5 0x6970667358 0x22 SLT KECCAK256 0xBA ADDMOD PUSH8 0xA039DEF36ECEC5A0 PUSH22 0x5164B21AF033FD843EA534CC01CA55E89317A2BA6473 PUSH16 0x6C634300081E00330000000000000000 "
				},
				"gasEstimates": {
					"creation": {
						"codeDepositCost": "2770800",
						"executionCost": "infinite",
						"totalCost": "infinite"
					},
					"external": {
						"BANK_CAPACITY_USD()": "infinite",
						"ETH_ADDRESS()": "439",
						"INTERNAL_DECIMALS()": "442",
						"SCALE()": "436",
						"WITHDRAWAL_LIMIT()": "infinite",
						"activeTokens(uint256)": "4989",
						"addAdmin(address)": "infinite",
						"addToken(address,address,uint8)": "infinite",
						"admins(address)": "2901",
						"convertFromUSD(address,uint256)": "infinite",
						"depositCount(address,address)": "infinite",
						"depositETH()": "infinite",
						"depositToken(address,uint256)": "infinite",
						"ethPriceFeed()": "infinite",
						"getActiveTokens()": "infinite",
						"getAllBalances(address)": "infinite",
						"getBalance(address,address)": "infinite",
						"getBalanceUSD(address,address)": "infinite",
						"getRemainingCapacity()": "infinite",
						"getTokenInfo(address)": "infinite",
						"owner()": "2604",
						"removeAdmin(address)": "infinite",
						"removeToken(address)": "infinite",
						"renounceOwnership()": "infinite",
						"supportedTokens(address)": "infinite",
						"totalDepositedUSD()": "2469",
						"transferOwnership(address)": "infinite",
						"withdraw(address,uint256)": "infinite",
						"withdrawalCount(address,address)": "infinite"
					},
					"internal": {
						"_convertToUSD(address,uint256)": "infinite",
						"_depositToken(address,address,uint256)": "infinite"
					}
				},
				"methodIdentifiers": {
					"BANK_CAPACITY_USD()": "21e855a0",
					"ETH_ADDRESS()": "a734f06e",
					"INTERNAL_DECIMALS()": "be406e6c",
					"SCALE()": "eced5526",
					"WITHDRAWAL_LIMIT()": "82ee0d1d",
					"activeTokens(uint256)": "9f224f35",
					"addAdmin(address)": "70480275",
					"addToken(address,address,uint8)": "00a51ee4",
					"admins(address)": "429b62e5",
					"convertFromUSD(address,uint256)": "3a3d1f98",
					"depositCount(address,address)": "1dab0335",
					"depositETH()": "f6326fb3",
					"depositToken(address,uint256)": "338b5dea",
					"ethPriceFeed()": "af7665ce",
					"getActiveTokens()": "5f5817e3",
					"getAllBalances(address)": "c53d6ce1",
					"getBalance(address,address)": "d4fac45d",
					"getBalanceUSD(address,address)": "e62615c6",
					"getRemainingCapacity()": "87be0faf",
					"getTokenInfo(address)": "1f69565f",
					"owner()": "8da5cb5b",
					"removeAdmin(address)": "1785f53c",
					"removeToken(address)": "5fa7b584",
					"renounceOwnership()": "715018a6",
					"supportedTokens(address)": "68c4ac26",
					"totalDepositedUSD()": "eea88c51",
					"transferOwnership(address)": "f2fde38b",
					"withdraw(address,uint256)": "f3fef3a3",
					"withdrawalCount(address,address)": "2a441767"
				}
			},
			"storageLayout": {
				"storage": [
					{
						"astId": 54,
						"contract": "src/KipuBank.sol:KipuBankV2",
						"label": "_owner",
						"offset": 0,
						"slot": "0",
						"type": "t_address"
					},
					{
						"astId": 929,
						"contract": "src/KipuBank.sol:KipuBankV2",
						"label": "userBalances",
						"offset": 0,
						"slot": "1",
						"type": "t_mapping(t_address,t_struct(UserBalance)890_storage)"
					},
					{
						"astId": 935,
						"contract": "src/KipuBank.sol:KipuBankV2",
						"label": "supportedTokens",
						"offset": 0,
						"slot": "2",
						"type": "t_mapping(t_address,t_struct(TokenInfo)900_storage)"
					},
					{
						"astId": 942,
						"contract": "src/KipuBank.sol:KipuBankV2",
						"label": "depositCount",
						"offset": 0,
						"slot": "3",
						"type": "t_mapping(t_address,t_mapping(t_address,t_uint256))"
					},
					{
						"astId": 949,
						"contract": "src/KipuBank.sol:KipuBankV2",
						"label": "withdrawalCount",
						"offset": 0,
						"slot": "4",
						"type": "t_mapping(t_address,t_mapping(t_address,t_uint256))"
					},
					{
						"astId": 952,
						"contract": "src/KipuBank.sol:KipuBankV2",
						"label": "totalDepositedUSD",
						"offset": 0,
						"slot": "5",
						"type": "t_uint256"
					},
					{
						"astId": 956,
						"contract": "src/KipuBank.sol:KipuBankV2",
						"label": "ethPriceFeed",
						"offset": 0,
						"slot": "6",
						"type": "t_contract(AggregatorV3Interface)45"
					},
					{
						"astId": 960,
						"contract": "src/KipuBank.sol:KipuBankV2",
						"label": "activeTokens",
						"offset": 0,
						"slot": "7",
						"type": "t_array(t_address)dyn_storage"
					},
					{
						"astId": 965,
						"contract": "src/KipuBank.sol:KipuBankV2",
						"label": "admins",
						"offset": 0,
						"slot": "8",
						"type": "t_mapping(t_address,t_bool)"
					}
				],
				"types": {
					"t_address": {
						"encoding": "inplace",
						"label": "address",
						"numberOfBytes": "20"
					},
					"t_array(t_address)dyn_storage": {
						"base": "t_address",
						"encoding": "dynamic_array",
						"label": "address[]",
						"numberOfBytes": "32"
					},
					"t_bool": {
						"encoding": "inplace",
						"label": "bool",
						"numberOfBytes": "1"
					},
					"t_contract(AggregatorV3Interface)45": {
						"encoding": "inplace",
						"label": "contract AggregatorV3Interface",
						"numberOfBytes": "20"
					},
					"t_mapping(t_address,t_bool)": {
						"encoding": "mapping",
						"key": "t_address",
						"label": "mapping(address => bool)",
						"numberOfBytes": "32",
						"value": "t_bool"
					},
					"t_mapping(t_address,t_mapping(t_address,t_uint256))": {
						"encoding": "mapping",
						"key": "t_address",
						"label": "mapping(address => mapping(address => uint256))",
						"numberOfBytes": "32",
						"value": "t_mapping(t_address,t_uint256)"
					},
					"t_mapping(t_address,t_struct(TokenInfo)900_storage)": {
						"encoding": "mapping",
						"key": "t_address",
						"label": "mapping(address => struct KipuBankV2.TokenInfo)",
						"numberOfBytes": "32",
						"value": "t_struct(TokenInfo)900_storage"
					},
					"t_mapping(t_address,t_struct(UserBalance)890_storage)": {
						"encoding": "mapping",
						"key": "t_address",
						"label": "mapping(address => struct KipuBankV2.UserBalance)",
						"numberOfBytes": "32",
						"value": "t_struct(UserBalance)890_storage"
					},
					"t_mapping(t_address,t_uint256)": {
						"encoding": "mapping",
						"key": "t_address",
						"label": "mapping(address => uint256)",
						"numberOfBytes": "32",
						"value": "t_uint256"
					},
					"t_struct(TokenInfo)900_storage": {
						"encoding": "inplace",
						"label": "struct KipuBankV2.TokenInfo",
						"members": [
							{
								"astId": 893,
								"contract": "src/KipuBank.sol:KipuBankV2",
								"label": "priceFeed",
								"offset": 0,
								"slot": "0",
								"type": "t_address"
							},
							{
								"astId": 895,
								"contract": "src/KipuBank.sol:KipuBankV2",
								"label": "tokenAddress",
								"offset": 0,
								"slot": "1",
								"type": "t_address"
							},
							{
								"astId": 897,
								"contract": "src/KipuBank.sol:KipuBankV2",
								"label": "decimals",
								"offset": 20,
								"slot": "1",
								"type": "t_uint8"
							},
							{
								"astId": 899,
								"contract": "src/KipuBank.sol:KipuBankV2",
								"label": "isActive",
								"offset": 21,
								"slot": "1",
								"type": "t_bool"
							}
						],
						"numberOfBytes": "64"
					},
					"t_struct(UserBalance)890_storage": {
						"encoding": "inplace",
						"label": "struct KipuBankV2.UserBalance",
						"members": [
							{
								"astId": 889,
								"contract": "src/KipuBank.sol:KipuBankV2",
								"label": "balances",
								"offset": 0,
								"slot": "0",
								"type": "t_mapping(t_address,t_uint256)"
							}
						],
						"numberOfBytes": "32"
					},
					"t_uint256": {
						"encoding": "inplace",
						"label": "uint256",
						"numberOfBytes": "32"
					},
					"t_uint8": {
						"encoding": "inplace",
						"label": "uint8",
						"numberOfBytes": "1"
					}
				}
			},
			"userdoc": {
				"events": {
					"AdminAdded(address)": {
						"notice": "emit when an admin role is assigned"
					},
					"AdminRemoved(address)": {
						"notice": "emit when an admin role is revoked"
					},
					"Deposited(address,address,uint256,uint256)": {
						"notice": "emit with any user deposits"
					},
					"TokenAdded(address,address,uint8)": {
						"notice": "emit when a new supported token is added"
					},
					"TokenRemoved(address)": {
						"notice": "emit when a token is deactivated"
					},
					"Withdrawn(address,address,uint256,uint256)": {
						"notice": "emit with any user withdrawals"
					}
				},
				"kind": "user",
				"methods": {
					"BANK_CAPACITY_USD()": {
						"notice": "max bank capacity in USD"
					},
					"ETH_ADDRESS()": {
						"notice": "Adress to represent native ETH"
					},
					"INTERNAL_DECIMALS()": {
						"notice": "Decimales estándar para contabilidad interna "
					},
					"SCALE()": {
						"notice": "Escala para conversión de decimales"
					},
					"WITHDRAWAL_LIMIT()": {
						"notice": "limit withdrawal"
					},
					"activeTokens(uint256)": {
						"notice": "List of active token addresses "
					},
					"addAdmin(address)": {
						"notice": "assign admin permissions"
					},
					"addToken(address,address,uint8)": {
						"notice": "add a new supported token"
					},
					"admins(address)": {
						"notice": "Mapping of admin roles"
					},
					"constructor": {
						"notice": "Initializes the contract with base parameters"
					},
					"convertFromUSD(address,uint256)": {
						"notice": "Converts from USD amount to native token amount"
					},
					"depositCount(address,address)": {
						"notice": "deposit counter for user and token"
					},
					"depositETH()": {
						"notice": "deposit ETH in the bank"
					},
					"depositToken(address,uint256)": {
						"notice": "deposit tokens ERC-20"
					},
					"ethPriceFeed()": {
						"notice": "address price feed ETH/USD"
					},
					"getActiveTokens()": {
						"notice": "active tokens list"
					},
					"getAllBalances(address)": {
						"notice": "user balances for all supported tokens"
					},
					"getBalance(address,address)": {
						"notice": "balance in native tokens for a specific user and token"
					},
					"getBalanceUSD(address,address)": {
						"notice": "balance in usd for a specific user and token"
					},
					"getRemainingCapacity()": {
						"notice": "capacity remaining in USD"
					},
					"getTokenInfo(address)": {
						"notice": "token info"
					},
					"removeAdmin(address)": {
						"notice": "revoke admin permissions"
					},
					"removeToken(address)": {
						"notice": "deactivate a supported token (NO ETH)"
					},
					"supportedTokens(address)": {
						"notice": "Mapping supported tokens"
					},
					"totalDepositedUSD()": {
						"notice": "Total deposited in USD"
					},
					"withdraw(address,uint256)": {
						"notice": "withdraw tokens from the bank"
					},
					"withdrawalCount(address,address)": {
						"notice": "withdrawal counter for user and token"
					}
				},
				"notice": "decentralized bank contract with multi-token support and USD conversionthis is a v2 version of KipuBank",
				"version": 1
			}
		}
	}
}